:020000040800F2
:10000000700500208D230008E1230008E523000887
:10001000E9230008ED230008F12300080000000098
:10002000000000000000000000000000F5230008B0
:10003000F923000800000000FD230008AD2300089C
:100040000124000805240008092400080D240008E4
:100050001124000815240008192400081D24000894
:100060002124000825240008292400082D24000844
:100070003124000835240008392400083D240008F4
:100080004124000845240008492400084D240008A4
:100090005124000855240008592400085D24000854
:1000A0006124000865240008692400086D24000804
:1000B0007124000875240008792400087D240008B4
:1000C0008124000885240008892400088D24000864
:1000D0009124000895240008992400089D24000814
:1000E000A1240008A5240008A9240008AD240008C4
:1000F000B1240008B5240008B9240008BD24000874
:10010000C1240008C5240008C9240008CD24000823
:10011000D1240008D5240008B1230008D924000800
:10012000DD240008E1240008E5240008E924000893
:10013000ED240008F1240008F5240008F924000843
:10014000FD240008012500080525000809250008F0
:100150000D2500081125000815250008192500089F
:100160001D2500082125000825250008292500084F
:100170002D25000831250008352500080000000065
:10018000392500083D25000838B5040001D10120BB
:1001900032BD94F82000002802D1204600F060FA19
:1001A0002068016821F00201016000F0E9FA0546CB
:1001B0002068416889070DD500F0E2FA401B0B2842
:1001C000F6D3606A40F400306062052084F82000B5
:1001D000012032BD016841F00101016000F0D0FA58
:1001E000054620684168C9070DD400F0C9FA401BD4
:1001F0000B28F6D3606A40F400306062052084F872
:100200002000012032BD217E0129016803D141F087
:100210008001016002E021F0800101602068617EC0
:100220000129016803D141F04001016002E021F0A1
:10023000400101602068A17E0129016803D141F0DD
:100240002001016002E021F0200101602068E17ED0
:100250000129016803D121F01001016002E041F0A1
:10026000100101602068217F0129016803D141F05C
:100270000801016002E021F0080101602068617F4F
:100280000129016803D141F00401016002E021F07D
:1002900004010160A168E0680143206901436069CD
:1002A00001436068401E01432068C1610020606214
:1002B000012084F82000002032BDF0B490F8202006
:1002C000012A01D0022A69D14E4A106840F001008B
:1002D0001060106820F47C50106010684B6A40EA8F
:1002E0000320106001200B7D03F01F0300FA03F3CD
:1002F000DC43D0692040D061C869002816D1D0689D
:100300002040D060404800F510754E69CF68D1F8A4
:1003100004C0CCEA074745F8367000F511704D6906
:100320008E680F68C7EA064640F83560C86901283C
:1003300016D1D0681843D060334800F510754E6967
:100340000F68D1F804C0CCEA074745F8367000F5CD
:1003500011704D698E68CF68C7EA064640F835606F
:1003600088690028506802D12040506001E018439D
:10037000506008690028506902D10440546101E0CE
:1003800018435061086A012802D1D0690343D36140
:100390001068400840001060002004E0416A41F409
:1003A000802141620120F0BC704738B5044694F8C2
:1003B000200001281FD1022084F820002068016855
:1003C00049084900016000F0DBF9054620684068F3
:1003D000C0070DD500F0D4F9401B0B28F6D3606A96
:1003E00040F400306062052084F82000012032BD16
:1003F0000020606232BD606A40F40020606201202B
:1004000032BD00000066004000640040F0B490F887
:1004100020400568AD68012C01D0022C5BD115F09D
:10042000E05F52D0C5F30164032C05D3416A41F467
:1004300000014162012053E00125A5401D600368D1
:1004400003F5C0752401CE688B68002B04D10B68BE
:1004500046EA43562E5104E04F6843EAC7031E4361
:100460002E510B69056805F5C2752B51097D0129CF
:1004700006D1016801F5C2710B5943F480730B5129
:10048000D17993791B0443EA0163517943EA01234B
:1004900011790B4301682144C1F88C31D1789378EC
:1004A0001B0443EA0163517843EA012311780B43AB
:1004B00001682144C1F88831006800F5C070015915
:1004C00041F00101015100200AE0416A41F40011AC
:1004D0004162012004E0416A41F48021416201202F
:1004E000F0BC704770B490F82040012C02D0022C70
:1004F00040F080800468002909D1E56815F0030FF9
:100500000FD1416A41F400114162012077E0256971
:1005100015F0030F05D1416A41F400114162012039
:100520006DE00D0104F5D874645904F0040494607E
:10053000066806F5D876002C745902D1640D146053
:1005400001E0E4085460046804F5D8746459C4F305
:100550004004D46004682C44D4F8B44104F00F047F
:10056000146104682C44D4F8B441C4F307249461A2
:1005700004682C44D4F8B441240C546102682A4421
:10058000D2F8B8211A7002682A44D2F8B821120AA7
:100590005A7002682A44D2F8B821120C9A70026884
:1005A0002A44D2F8B821120EDA7002682A44D2F82E
:1005B000BC211A7102682A44D2F8BC21120A5A716D
:1005C00002682A44D2F8BC21120C9A7102682A44AB
:1005D000D2F8BC21120EDA710068002904D1C1687A
:1005E00041F02001C16003E0016941F02001016197
:1005F000002004E0416A41F480214162012070BC86
:1006000070470246002092F82030012B01D0022BC7
:1006100009D11068002903D1C06800F003007047B9
:10062000006900F00300704782B0002000904D4840
:10063000416841F480414160416801F4804100918A
:10064000009900210091016841F08051016000682B
:1006500000F0805000900098072002B000F0EFB842
:1006600010B586B004461422002101A800F006F956
:1006700020683D49884224D1002000903B48016910
:1006800041F000710161016901F000710091009970
:1006900000210091016841F008010160006800F04C
:1006A0000800009000980320019002200290002092
:1006B0000390032004900920059001A92C4800F024
:1006C000E7F806B010BD00682A49884200D070479C
:1006D00080B5002000902348016841F010010160BE
:1006E000006800F0100000900098002211463620AB
:1006F00000F0A6F83620BDE8024000F0B0B810B512
:1007000086B004461422002101A800F0B7F8206842
:100710001949884224D1002000901448016941F40D
:1007200000310161016901F400310091009900215B
:100730000091016841F001010160006800F00100D2
:10074000009000980C20019002200290012003905C
:10075000032004900720059001A9084800F098F8AC
:1007600006B010BD403802400064004030380240FE
:10077000000C024000100040004400400000024015
:1007800001484068704700BF00000020354A1368E8
:100790004FF6FF010B40000200F4E06018433249BD
:1007A0000843106070472F480068C0F3022070476C
:1007B000010007D4012200F01F018A402B494009A3
:1007C00041F8202070470901020002D428488154D2
:1007D0007047284802F00F02104400F8041C7047CC
:1007E00010B400F00700C0F10703052B00D3042369
:1007F000041D072C01D2002000E0C01E012404FAD1
:1008000003F35B1E1940814004FA00F0401E1040C3
:10081000084310BC704710B5401EB0F1807F01D373
:10082000012010BD144C60600F214FF0FF30FFF726
:10083000CAFF0020A06007202060002010BDA5E7AF
:1008400070B504460D461646FFF7ADFF3246294601
:10085000FFF7C6FF01462046BDE87040B3E7A7E7B3
:10086000D9E700000CED00E00000FA0500E100E02F
:1008700000E400E018ED00E010E000E010B50446F0
:1008800010460A460146204600F0F4F8204610BD06
:10089000F8B400232DE04FF0080C05E0DFF8A8C104
:1008A0006045F8D14FF0070C0CFA06FC4CEA070C37
:1008B00045F824C0654C2668D5432E404F68FF0399
:1008C00000D51643266066682E404F68BF0300D5EA
:1008D00016436660A6682E404F68FF0200D5164397
:1008E000A660E6682E404D68AD0200D51643E6606E
:1008F0005B1C0F2B00F29E8001249C400A68224062
:10090000A242F5D14D68022D01D0122D13D11D4602
:10091000ED0800EB8506356A9F0007F01C074FF0D5
:100920000F0C0CFA07FC25EA0C05D1F810C00CFAE4
:1009300007F73D43356207685D000326AE40F64386
:10094000374091F804C00CF0030C0CFA05FC4CEA9B
:10095000070707604F68012F05D0022F03D0112F22
:1009600001D0122F10D187683740D1F80CC00CFA93
:1009700005FC4CEA070787604768A7434C68C4F347
:1009800000149C4027434760C46834408E6806FAD0
:1009900005F52C43C4604C68E400A9D500240094FC
:1009A0002B4C256845F480452560246804F4804478
:1009B0000094009C1C46A408264D55F824709E0007
:1009C00006F00C064FF00F0C0CFA06FC27EA0C0799
:1009D000DFF884C0604502D14FF0000C64E7DFF817
:1009E0007CC0604502D14FF0010C5DE7DFF870C0BC
:1009F000604502D14FF0020C56E7DFF868C0604551
:100A000002D14FF0030C4FE7DFF85CC0604502D124
:100A10004FF0040C48E7DFF854C0604502D14FF0B6
:100A2000050C41E7DFF848C060457FF437AF4FF071
:100A3000060C39E7F1BC7047002A01D0816170478C
:100A40000904816170470000001C0240003C014025
:100A500044380240083801400000024000040240CF
:100A600000080240000C0240001002400014024046
:100A70000018024062F30F2262F31F42401810F088
:100A8000030308D0C91A1FD3DB0748BF00F8012DA4
:100A900028BF20F8022D130030B414461546103933
:100AA00028BF20E93C00FAD8490728BF20E90C00FC
:100AB00048BF40F8042D890028BF20F8022D48BF08
:100AC00000F8012D30BC7047C91818BF00F8012D7F
:100AD000CB0728BF00F8012D704730B4002513E084
:100AE00050F8042BD30744BFA9F101039A18091F3A
:100AF000042942F8045BFAD213468C0744BF1580E0
:100B00009B1CC90748BF1D7050F8041B0029E7D182
:100B100030BC704780B500F02FFA00F047FA00F0C3
:100B200059FA00F065FA00F071FA00F084FA00F06A
:100B300048FC00F06DFC00F071FC00F072FC00F06D
:100B4000AFFCBDE8014000F0B4BC704780B5FFF7D2
:100B5000E1FF00F0BFFC00F00DF800F0B5F800F088
:100B60009BF800F074F800F058F800F002FA00F07A
:100B7000EAFCFEE780B592B03022002106A8FFF71C
:100B80007DFE1422002101A8FFF778FE00200090CE
:100B9000D848016841F080510160006800F0805041
:100BA0000090009800200090D348016841F48041F3
:100BB0000160006800F480400090009801200690D9
:100BC0004FF48030079002200C904FF480000D907D
:100BD00004200E90A8200F90022010900720119062
:100BE00006A800F0DFFC002801D000F0A3F90F20D8
:100BF000019002200290002003904FF4A050049036
:100C00004FF480500590052101A800F03FFE002818
:100C100001D000F08FF913B000BD80B5B748B849D6
:100C20000160A821416000218160C1604FF4003162
:100C300001610021416181618183FFF7A5FA0028EC
:100C400001D000F077F9BDE8014000F07CBC1CB594
:100C5000082200216846FFF711FEAA4CAA4820602E
:100C600000206060A0604AF20F40E0600020A061B8
:100C7000204600F0E9FE002801D000F05BF91020CA
:100C80000090002001906946204601F01FF80028DE
:100C900001D000F04FF913BD80B59C489C4901601C
:100CA0004FF4E131416000218160C16001610C219C
:100CB000416100218161C16101F028F8002802D062
:100CC000BDE8014036E101BD2DE9F84386B01422AC
:100CD00000216846FFF7D2FD002005908D4801688D
:100CE00041F010010160016801F0100105910599C2
:100CF00000210591016841F004010160016801F0E3
:100D000004010591059900210591016841F08001D8
:100D10000160016801F080010591059900210591AC
:100D2000016841F001010160016801F001010591D4
:100D3000059900210591016841F0020101600168F7
:100D400001F002010591059900210591016841F02A
:100D500008010160006800F00800059005986E4CDD
:100D6000002208212046FFF767FE6C4D0122114644
:100D70002846FFF761FE4FF21006694F0022314608
:100D80003846FFF759FE082000900120019000200E
:100D90000290039069462046FFF77AFD01200090FB
:100DA000019000200290039069462846FFF770FDED
:100DB000082000900220019000200290039005205E
:100DC000049069462846FFF763FD012000905548CE
:100DD000019000200290DFF8508169464046FFF7FD
:100DE00057FD1020009002200190002002900390F7
:100DF0000620049069464046FFF74AFDE020009037
:100E00000220019000200290039005200490694682
:100E10004046FFF73DFD0420009000200190029025
:100E2000DFF8089169464846FFF732FD4FF48060CD
:100E30000090022001900020029003900520049071
:100E400069464846FFF724FD0096012001900020E6
:100E50000290039069463846FFF71AFD4FF4A450FC
:100E60000090022001900020029003900620049040
:100E700069462846FFF70CFD4FF4007000900020F3
:100E80000190029069464046FFF702FD4FF4E050A2
:100E90000090022001900020029003900A2004900C
:100EA00069464046FFF7F4FC2020009000200190A6
:100EB000029069463846FFF7EBFC4FF41070009043
:100EC0001220019001200290002003900420049041
:100ED00069464846FFF7DCFC022000901448019068
:100EE0000020029069462046FFF7D2FC07B0BDE81B
:100EF000F08300004038024000700040D400002021
:100F000000640040540000200010004094000020C5
:100F10000044004030380240001002400008024007
:100F2000000C0240000011100000024000040240CA
:100F300000001210704730B40EE0026843680244AB
:100F40000830DC0744BFA9F10104E31852F8045B40
:100F500043F8045B091FF9D150F8041B0029ECD1B8
:100F600030BC70470649884202D1064800680047F5
:100F70007047034800F081BD03480249086070478C
:100F800054000020600100204B0B00080D48006851
:100F90000068400900F0010070470A480068406896
:100FA000C0B27047074909684860704705486FF04C
:100FB0004001026811606FF0200100680160704715
:100FC000000000009400002002464FF40051044845
:100FD000FFF732BD00224FF400510148FFF72CBD4E
:100FE000000C024002464FF480510448FFF724BD34
:100FF00000224FF480510148FFF71EBD000C024053
:1010000002464FF480410448FFF716BD00224FF41A
:1010100080410148FFF710BD000C024010B50024CC
:1010200004E00C4951F820008047641C2046C0B2FF
:101030000528F6DB10BD0020074A064B02E043F806
:101040002120401C0146C9B20529F8DB03480449A8
:1010500008607047400100204B0B00081D1000087D
:101060006001002080B500F0A9F8002809D0DFF861
:101070007403807C002804D00FF20900DFF86813A5
:10108000486001BD80B500F099F800280FD0082015
:10109000DFF85013C874FFF785FFDFF85003002115
:1010A000017041700FF20900DFF83C13486001BD88
:1010B00038B500F083F800286ED0DFF83043A07810
:1010C00000280BD1DFF81C53287DFFF76BFF6178F8
:1010D000287D411861700120A07031BD01280AD11E
:1010E000C04D687DFFF75EFF6178687D41186170D3
:1010F0000220A07031BD02280AD1BA4DA87DFFF7A9
:1011000051FF6178A87D411861700320A07031BD46
:1011100003280AD1B34DE87DFFF744FF6178E87DED
:10112000411861700420A07031BD04280AD1AD4D72
:10113000287EFFF737FF6178287E4118617005200F
:10114000A07031BD05280AD1A64D687EFFF72AFFA1
:101150006178687E411861700620A07031BD062854
:101160000AD1A04DA87EFFF71DFF6178A87E411827
:1011700061700720A07031BD072809D1994DE87E24
:10118000FFF710FF6178E87E411861700020A070C1
:101190000FF209009449486031BD000080B500F0AD
:1011A0000DF8002809D091484078FFF7FBFE002099
:1011B0008C4988748E488C49486001BD8D480178FF
:1011C000491C0170C9B2042901D2002070470021D6
:1011D00001700120704780B500F0EBF8002839D08D
:1011E000FFF7DBFE844A9070242801D124219171FD
:1011F000082802D1012151711EE0517901291BD12A
:10120000916800290BD0012909D0022907D00329B0
:1012100005D0042903D0052901D0062904D1774B34
:101220005854491C916007E0072905D16D4948725F
:101230000021916051719171242806D100205070D5
:101240000FF215006849086001BD6648012180F869
:101250002510417001BD0000F8B500F093F800289A
:101260002CD0604C04F124055F4E00F098F8012862
:1012700004D1012068706070614830605E4F0020CA
:101280007870FFF78AFEB870002805D103216970D5
:10129000012161705A493160112805DB0420687012
:1012A0000120607056483060FFF777FE28700020FC
:1012B0003870F87038710FF209003060F1BD00002D
:1012C00038B500F05FF800282AD000F068F801284F
:1012D00009D14448012100F124025170417048486D
:1012E0004149086031BD00F064F8002818D0424C34
:1012F00000206070FFF751FEA070227839498B1CE6
:10130000154658552379C0182071521C227091F847
:101310002400D2B2824203D10FF2090032490860A0
:1013200031BD000010B500F02DF8002829D000F0E4
:1013300036F8012808D12B48012180F8251041708A
:101340002F482949086010BD00F033F8002818D054
:10135000294C00206070FFF720FEA070224A284B25
:1013600020492479A04206D1002081F825000120DF
:101370004870136010BD062081F8250001204870D8
:10138000136010BD1B484178491C4170C9B2002947
:1013900001D100207047002141700120704716489C
:1013A0004178491C4170C9B208298041C043C00F2F
:1013B000704780B5FFF7EAFD401E8041C043C00F73
:1013C00002BD0848002101800A4900220A70827487
:1013D0004A70114680F825100348054941600849C4
:1013E00001607047FC0000204001002068010020DF
:1013F000651000086B01002054010020FE00002051
:10140000D71100080120FFF7DFBD0020FFF7DCBD8A
:101410000020FFF7D9BD0120FFF7E4BD0020FFF752
:10142000E1BD0020FFF7ECBD10B500F06DF800281D
:101430000ED01949087800280AD101200870174CED
:1014400004F1140000F064F8FFF7DCFF0120A07441
:101450001248807C012806D000200F490870BDE8A2
:101460001040FFF7D2BF10BD10B50C4C607A0028B9
:1014700011D00822A11C40F2012000F054F8FFF71F
:10148000CAFF00200146A21C01E01154401C08289C
:10149000FBDB0846607010BD6D010020FC000020E1
:1014A0007047000080B5FFF7DFFFBDE80140FFF7A0
:1014B000BBBF80B5002004490860FFF7A6FF0348C2
:1014C0000349C86001BD000064010020A5140008A4
:1014D0004001002080B50B48016841F400710160B3
:1014E000016841F480610160016841F4807101602C
:1014F0000320FFF7A4F9002000F078FDFFF794F82F
:10150000002002BD003C024000212348FFF779B8CB
:1015100080B50346214A00211F48FEF7E3FF401E25
:101520008041C00F02BD10B51D4C2060226104F146
:1015300040030A4621461848FEF768FF401E8041D6
:10154000C043C00F10BD10B5154800214160816037
:10155000C160017544F6A00181610021C161016291
:10156000416281620D21C162002101630121416359
:101570008163094C00F118012046FEF79EFE002809
:1015800001D0012010BD2046FEF70FFF401E804114
:10159000C043C00F10BD0000D40000202401002073
:1015A000100000202DE9FC41040016D0B34D207836
:1015B000C0074CD5A86800F00C00042807D0A86824
:1015C00000F00C0008280AD16868400207D5286896
:1015D00080033CD56068002839D101204BE1606868
:1015E000B0F5803F04D1286840F48030286012E0D4
:1015F000B0F5A02F286807D140F480202860286823
:1016000040F48030286006E020F4803028602868AC
:1016100020F480202860606800280CD0FFF7B0F824
:1016200006462868800312D4FFF7AAF8801B6528B5
:10163000F7D303201FE1FFF7A3F8064628688003CD
:1016400005D5FFF79DF8801B6528F7D3F1E72078D3
:10165000800718D5A86810F00C0F07D0A86800F014
:101660000C00082824D16868400221D4286880072B
:1016700002D5E0680128B0D1286820F0F80021697F
:1016800040EAC10028602078000747D57C4960699E
:10169000002835D001200860FFF772F80646686F11
:1016A00080073BD4FFF76CF8801B0228F7D9C0E70E
:1016B0007449E068002815D001200860FFF760F841
:1016C00006462868800705D4FFF75AF8801B0228D1
:1016D000F7D9AEE7286820F0F800216940EAC10098
:1016E0002860D0E700200860FFF74AF8064628681F
:1016F0008007C8D5FFF744F8801B0228F7D998E780
:1017000000200860FFF73CF80646686F800705D5A3
:10171000FFF736F8801B0228F7D98AE720784007C0
:1017200063D50026286CC0000BD430460090286C8E
:1017300040F080502864286C00F0805000900098A1
:101740000126514F3868C00510D4386840F48070C5
:101750003860FFF715F880463868C00506D4FFF7F3
:101760000FF8A0EB08000228F6D962E7A06801286C
:1017700004D1286F40F00100286711E00528286F88
:1017800007D140F004002867286F40F00100286767
:1017900006E0400840002867286F20F00400286712
:1017A000A06800280DD0FEF7EBFF0746286F8007E2
:1017B00015D4FEF7E5FFC01B41F289318842F5D30D
:1017C00037E7FEF7DDFF0746286F800707D5FEF7EE
:1017D000D7FFC01B41F289318842F5D329E7012E9A
:1017E00003D1286C20F080502864A069002841D0E3
:1017F000A96801F00C0108293FF4EFAE214E022840
:101800002AD100203066FEF7BBFF0746286880011A
:1018100005D5FEF7B5FFC01B0228F7D909E7E06937
:10182000216A0843616A40EA8110A16A4908491E99
:1018300040EA0140E16A40EA0160686001203066E8
:10184000FEF79EFF04462868800113D4FEF798FF38
:10185000001B0228F7D9ECE600203066FEF790FF67
:1018600004462868800105D5FEF78AFF001B022880
:10187000F7D9DEE60020BDE8F68100BF003802405F
:10188000800E474200004742007000402DE9F041C1
:1018900004460F46002C5BD04C4E306800F00F0021
:1018A000B84205D23770306800F00F00B8424FD10F
:1018B0002068474D810712D5400703D5A86840F43A
:1018C000E050A8602078000703D5A86840F4604085
:1018D000A860A96821F0F001A0680143A960207800
:1018E000C0072AD56068012803D1296889030BD471
:1018F0002EE0022801D0032803D12968890103D4EE
:1019000026E02968890723D5A968890850EA81005B
:10191000A860FEF735FF8046A86800F00C006168FB
:10192000B0EB810F09D0FEF72BFFA0EB080041F2CE
:1019300089318842F0D303202DE0306800F00F0099
:10194000874207D23770306800F00F00B84201D0EC
:10195000012020E02078400705D5A96821F4E05156
:10196000E0680143A9602078000706D5A86820F444
:101970006040216940EAC100A86000F033F81549D1
:10198000AA68C2F30312895CC840134908600020AA
:1019900000F02CFB0020BDE8F0810F480068704784
:1019A00080B5FFF7FAFF0E490C4A1268C2F3822293
:1019B000895CC84002BD80B5FFF7EFFF0849074AC0
:1019C0001268C2F34232895CC84002BD003C02404A
:1019D00000380240C42200080C00002008380240F1
:1019E000D823000810B5154C606800F00C000428DE
:1019F00002D0082802D01EE0114810BD226802F073
:101A00003F020023206840022068C0F3881005D5FB
:101A10000B49A1FB000100F00DFB04E00949A1FB0B
:101A2000000100F007FB2168C1F30141491C490096
:101A3000B0FBF1F010BD034810BD00BF04380240F8
:101A400000127A000024F40038B5040001D101200E
:101A500032BD04F13C056878002804D100202870CC
:101A60002046FEF730FE02206870211D206800F03D
:101A7000BEF801206870002032BD0168CA6842F0DB
:101A80000102CA600068816801F00701062903D0DD
:101A9000016841F0010101600020704710B5044663
:101AA00020680169890717D5C168890714D56FF0C7
:101AB00002010161012020772068806910F0030F86
:101AC000204602D000F0CEFB04E000F0CCFB204624
:101AD00000F0CAFB0020207720680169490717D56C
:101AE000C168490714D56FF0040101610220207715
:101AF0002068806910F4407F204602D000F0B2FBDD
:101B000004E000F0B0FB204600F0AEFB00202077A0
:101B100020680169090717D5C168090714D56FF056
:101B200008010161042020772068C06910F0030FCC
:101B3000204602D000F096FB04E000F094FB204623
:101B400000F092FB0020207720680169C90617D5B4
:101B5000C168C90614D56FF0100101610820207713
:101B60002068C06910F4407F204602D000F07AFB64
:101B700004E000F078FB204600F076FB00202077A0
:101B800020680169C90708D5C168C90705D56FF084
:101B9000010101612046FFF7E5F9206801690906A6
:101BA00008D5C168090605D56FF08001016120469E
:101BB00000F05BFB20680169490608D5C168490649
:101BC00005D56FF040010161204600F04FFB206811
:101BD000016989060AD5C168890607D56FF0200119
:101BE00001612046BDE8104000F041BB10BD10B4BB
:101BF0000468DFF8AC30984212D0B0F1804F0FD0BB
:101C0000DFF8A02090420BD0DFF89C20904207D054
:101C1000DFF89820904203D0DFF89420904203D15F
:101C200024F070044A681443984220D0B0F1804FE9
:101C30001DD01C4A90421AD01B4A904217D01B4A12
:101C4000904214D01A4A904211D01A4A90420ED0B3
:101C5000194A90420BD0194A904208D0184A904233
:101C600005D0184A904202D0174A904203D124F47A
:101C70004074CA68144324F080044A691443046021
:101C80008A68C2620A688262984202D0084A904218
:101C900001D1096901630121416110BC7047000055
:101CA000000001400004004000080040000C00401B
:101CB0000004014000400140004401400048014050
:101CC00000180040001C00400020004070B400F1EB
:101CD0003C031A78012A01D1022015E001221A7072
:101CE00002225A7004686568A66826F080064A6871
:101CF000164325F0700509680D436560006886602D
:101D0000012058700020187070BC704738B504006E
:101D100001D1012032BD04F138056878002804D1D2
:101D2000002028702046FEF7EAFC24206870206816
:101D3000C16821F40051C160204600F016F8206807
:101D4000016921F4904101612068416921F02A0173
:101D500041612068C16841F40051C16000206860A1
:101D600020206870A870002032BD2DE9F0410446A3
:101D700021680A6922F44052E06802430A6121683E
:101D8000CA6897480240A06802432069024360691C
:101D90000243E0690243CA6021684A6922F4407242
:101DA000A06902434A6120688E49E269B2F5004F9A
:101DB00040F08B80884202D08B49884242D1FFF7A5
:101DC000FAFD0546FFF7F7FD0646FFF7F4FD074667
:101DD000FFF7F1FD8046FFF7EEFD616849006422E0
:101DE00019235D43B5FBF1F59446B5FBFCF55E4365
:101DF000B6FBF1F65F43B7FBF1F7B7FBFCF702FB6D
:101E00001766F60032361746B6FBF7F6760006F48C
:101E1000F87606EB051603FB08F8B8FBF1F543432B
:101E2000B3FBF1F01146B0FBF1F002FB1052D2000F
:101E300032320846B2FBF0F000F007008619206845
:101E40008660CAE0FFF7ACFD0546FFF7A9FD064630
:101E5000FFF7A6FD0746FFF7A3FD8046FFF7A0FDAD
:101E600061684900642219235D43B5FBF1F594468E
:101E7000B5FBFCF55E43B6FBF1F65F43B7FBF1F74C
:101E8000B7FBFCF702FB1766F60032361746B6FBC7
:101E9000F7F6760006F4F87606EB051603FB08F86D
:101EA000B8FBF1F54343B3FBF1F01146B0FBF1F0A1
:101EB00002FB1052D20032320846B2FBF0F000F0C2
:101EC000070086192068866087E0884202D046496C
:101ED000884241D1FFF76FFD0546FFF76CFD0646CE
:101EE000FFF769FD0746FFF766FD8046FFF763FDD4
:101EF00061688900642219235D43B5FBF1F59446BE
:101F0000B5FBFCF55E43B6FBF1F65F43B7FBF1F7BB
:101F1000B7FBFCF702FB1766360132361746B6FBF5
:101F2000F7F606F0F00606EB051603FB08F8B8FB1B
:101F3000F1F54343B3FBF1F01146B0FBF1F002FBC6
:101F40001052120132320846B2FBF0F000F00F00DE
:101F500086192068866040E0FFF722FD0546FFF7FE
:101F60001FFD0646FFF71CFD0746FFF719FD8046DB
:101F7000FFF716FD61688900642219235D43B5FBF4
:101F8000F1F59446B5FBFCF55E43B6FBF1F65F4315
:101F9000B7FBF1F7B7FBFCF702FB176636013236E9
:101FA0001746B6FBF7F606F0F00606EB051603FB40
:101FB00008F8B8FBF1F54343B3FBF1F01146B0FB71
:101FC000F1F002FB1052120132320846B2FBF0F07F
:101FD00000F00F00861920688660BDE8F0810000DF
:101FE000F369FFFF001001400014014038B50446BA
:101FF0000E4D4FF47A702978B0FBF1F00C49096866
:10200000B1FBF0F0FEF72CFC002801D0012032BD1E
:10201000102C08D2002221464FF0FF30FEF710FCB2
:10202000AC60002032BD012032BD00BF00000020A6
:102030000C000020BBBBE1B1B2F5803F80F07E8098
:10204000022A1ED98C46B1FBF2F102FB11C31B041C
:1020500043EA1043B3FBF2FC02FB1C3380B240EABC
:102060000343B3FBF2F002FB103240EA0C400023C2
:102070007047022A05D98446B0FBF2F002FB10C279
:1020800070474AB105D100F0010249085FEA30000B
:10209000704700220023704700F0EAB80B000200EE
:1020A000002100207047904271EB030CF6D3B3F58A
:1020B000803F2FD2F0B5B3FA83F7B1FA81F4A7F1DC
:1020C0000F0E3D1B5340CEF1200602FA0EF2F341F3
:1020D0005340B5F10F0746D80F3C2C444140C4F1A2
:1020E0002006A040F1414140B1FBF3F603FB16117D
:1020F000A2FB0645001BA94102D2761E8018594159
:1021000080EA010221FA0EF362FA0EF200215A402F
:102110003046F0BD30B4B1FBF3FC03FB1C11A2FB55
:102120000C45001BA94103D2ACF1010C80185941A8
:1021300030BC02460B46604600217047B2F1807FFA
:1021400065D3F0B5B2FA82F7B1FA81F4C7F10F06A0
:102150003D1B22FA06F307F1110EF24120355A40D9
:10216000B5F10F07B8D94140C4F12006A040F141B4
:102170004140B1FBF3FC03FB1C11A2FB0C45001B0F
:10218000A94103D2BCF1010C801859410F2F12D381
:102190000F3FC90341EA5041B1FBF3F603FB1611AF
:1021A000A2FB0645D4EBC030A94102D2761E8018AE
:1021B000594146EACC3C07B34140C7F12006B8403C
:1021C000F1414140B1FBF3F603FB1611A2FB0645BA
:1021D000001BA94102D2761E8018594180EA0102F3
:1021E00021FA0EF3C7F1200462FA0EF20CFA07F09E
:1021F0005A402CFA04F13043F0BD80EA010221FA82
:102200000EF3002162FA0EF260465A40F0BD8C4691
:10221000B1FBF2F102FB11C31B0243EA1063B3FBF3
:10222000F2FC02FB1C331B024CEA002043EA106361
:10223000B3FBF2FC02FB1C331B024CEA002043EA16
:102240001063B3FBF2FC02FB1C331B024CEA0020C0
:1022500043EA1063B3FBF2FC02FB1C324CEA0020A1
:10226000002370477047704770477047704770474A
:10227000704700000E48016841F4700101600D498B
:10228000086840F001000860002088600A680A4879
:1022900002400A6009484860086820F4802008600D
:1022A0000020C8604FF000600549086070470000DA
:1022B00088ED00E000380240FFFFF6FE10300024F9
:1022C00008ED00E00000000000000000010203042F
:1022D0000607080910B5074979441831064C7C44B3
:1022E000163404E00A68081D114488470146A142DB
:1022F000F8D110BD2C0000004C0000004EF68851B3
:10230000CEF20001086840F470000860BFF34F8F00
:10231000BFF36F8F4FF00070E1EE100A70470000BE
:10232000BBE7FFFF6001000010000020000000007C
:1023300007ECFFFF100000008400000000000020F8
:102340000000000000F00DF8002801D0FFF7C2FFE8
:10235000AFF300800020AFF30080FEF7F7FB00F042
:1023600002F80120704700F001B800000746384627
:1023700000F002F8FBE7000080B5AFF30080024AEE
:1023800011001820ABBEFBE7260002000148804781
:102390000148004775220008CD2300080248416823
:1023A000027889184160704700000020FFF7F6BFEF
:1023B0000148FFF773BB000054000020010000003B
:1023C00000000000100000000024F400AFF30080C3
:1023D000FFF794FFFFF7B6FF0000000001020304BF
:1023E000FFF7FEBFFFF7FEBFFFF7FEBFFFF7FEBF21
:1023F000FFF7FEBFFFF7FEBFFFF7FEBFFFF7FEBF11
:10240000FFF7FEBFFFF7FEBFFFF7FEBFFFF7FEBF00
:10241000FFF7FEBFFFF7FEBFFFF7FEBFFFF7FEBFF0
:10242000FFF7FEBFFFF7FEBFFFF7FEBFFFF7FEBFE0
:10243000FFF7FEBFFFF7FEBFFFF7FEBFFFF7FEBFD0
:10244000FFF7FEBFFFF7FEBFFFF7FEBFFFF7FEBFC0
:10245000FFF7FEBFFFF7FEBFFFF7FEBFFFF7FEBFB0
:10246000FFF7FEBFFFF7FEBFFFF7FEBFFFF7FEBFA0
:10247000FFF7FEBFFFF7FEBFFFF7FEBFFFF7FEBF90
:10248000FFF7FEBFFFF7FEBFFFF7FEBFFFF7FEBF80
:10249000FFF7FEBFFFF7FEBFFFF7FEBFFFF7FEBF70
:1024A000FFF7FEBFFFF7FEBFFFF7FEBFFFF7FEBF60
:1024B000FFF7FEBFFFF7FEBFFFF7FEBFFFF7FEBF50
:1024C000FFF7FEBFFFF7FEBFFFF7FEBFFFF7FEBF40
:1024D000FFF7FEBFFFF7FEBFFFF7FEBFFFF7FEBF30
:1024E000FFF7FEBFFFF7FEBFFFF7FEBFFFF7FEBF20
:1024F000FFF7FEBFFFF7FEBFFFF7FEBFFFF7FEBF10
:10250000FFF7FEBFFFF7FEBFFFF7FEBFFFF7FEBFFF
:10251000FFF7FEBFFFF7FEBFFFF7FEBFFFF7FEBFEF
:10252000FFF7FEBFFFF7FEBFFFF7FEBFFFF7FEBFDF
:10253000FFF7FEBFFFF7FEBFFFF7FEBFFFF7FEBFCF
:04000005080023CDFF
:00000001FF
