:020000040800F2
:10000000F81D0020517900089579000899790008B9
:100010009D790008A1790008A5790008000000007A
:10002000000000000000000000000000A9790008A6
:10003000AD79000800000000B1790008717900086E
:10004000B5790008B9790008BD790008C1790008C0
:10005000C5790008C9790008CD790008D179000870
:10006000D5790008D9790008DD790008E179000820
:10007000E5790008E9790008ED790008F1790008D0
:10008000F5790008F9790008FD790008017A00087F
:10009000057A0008097A00080D7A0008117A00082C
:1000A000157A0008197A00081D7A0008217A0008DC
:1000B000257A0008297A00082D7A0008317A00088C
:1000C000357A0008397A00083D7A0008417A00083C
:1000D000457A0008497A00084D7A0008517A0008EC
:1000E000557A0008597A00085D7A0008617A00089C
:1000F000657A0008697A00086D7A0008717A00084C
:10010000757A0008797A00087D7A0008817A0008FB
:10011000857A0008897A0008757900088D7A0008C8
:10012000917A0008957A0008997A00089D7A00086B
:10013000A17A0008A57A0008A97A0008AD7A00081B
:10014000B17A0008B57A0008B97A0008BD7A0008CB
:10015000C17A0008C57A0008C97A0008CD7A00087B
:10016000D17A0008D57A0008D97A0008DD7A00082B
:10017000E17A0008E57A0008E97A0008000000004A
:10018000ED7A0008F17A000810B50FF2F40001F0E2
:10019000A4FEDFF8600A01F083FE032001F064FF93
:1001A000012001F061FF022001F077FFDFF8484AEB
:1001B000DFF8480A0178012905D06178DFF87C2A48
:1001C0009278914222D1002101704078012805D017
:1001D0006078DFF8681A8978884217D1022001F028
:1001E00043FF0FF20140DFF8881A486000210846FB
:1001F00002F0B4F80FF29100DFF8781AC8601FA07F
:1002000001F04EFEDFF8280B80792070DFF8680AD5
:100210000178012910D100210170407801280BD10B
:10022000022001F021FFDFF8540ADFF8481AC86005
:10023000DFF8FC0A80792070DFF8440A4178012950
:100240001BD1002141708078012816D1DFF8340AD3
:10025000DFF81C1A88600021084602F07FF8DFF8FA
:10026000280ADFF8101AC860DFF8C40A8078207006
:100270000220BDE8104001F0F7BE10BD00000000F4
:10028000417474656E7465002DE9F843DFF8A46A63
:10029000304601F022FEDFF8A00A00F14904217A7D
:1002A00000F12908DFF8885ADFF8C479DFF88C9963
:1002B00099F80400814207D098F81200BB2828D191
:1002C00099F80200814224D1DFF8700A01F0E8FDBC
:1002D000304601F0F4FD2078BB2808D098F81200D1
:1002E000BB2807D1207A99F80210884202D1786899
:1002F00080470EE0DFF8940A01F0D2FD0FF2E5200E
:100300007860287BE071CC2002F010FFCC2002F056
:100310003EFF207A99F8001088420BD1DFF8700A6E
:1003200001F0CDFDDFF86C0A01F0BAFD02F031F802
:100330002878E071207A99F80110884208D1DFF816
:10034000580A01F0BCFDBDA001F0AAFD6878E0717B
:10035000207A99F8061088420BD1DFF8400A01F0A4
:10036000AEFDDFF83C0A01F09BFD02F012F8E878E0
:10037000E071207A99F80210884240F0E580DFF8B9
:10038000240A01F09CFD01F00BF998F80000BB284D
:1003900009D1CC2088F80000042001F0B3FF00212F
:1003A000082001F0DBFF98F80100BB2809D1CC2020
:1003B00088F80100022001F0A5FF0121082001F0CA
:1003C000CDFF98F80400BB2812D1CC2088F8040097
:1003D0000021042001F0C2FF0121052001F0BEFF31
:1003E0000021012001F0BAFF0121022001F0B6FF37
:1003F00098F80500BB2812D1CC2088F8050001210F
:10040000042001F0ABFF0021052001F0A7FF01212E
:10041000084601F0A3FF0021022001F09FFF98F899
:100420000200BB280ED1CC2088F802000121072051
:1004300001F094FF0021062001F090FF0021092027
:1004400001F08CFF98F80300BB280ED1CC2088F86F
:1004500003000121062001F081FF0021072001F0A7
:100460007DFF0121092001F079FF98F80800BB28E1
:1004700005D1CC2088F80800022001F0DCFD98F8B6
:100480000900BB2805D1CC2088F80900022001F022
:10049000EBFD98F80A00BB2805D1CC2088F80A00AB
:1004A000032001F0C8FD98F80B00BB2805D1CC2033
:1004B00088F80B00032001F0D7FD98F80C00BB284A
:1004C00005D1CC2088F80C00012001F0B4FD98F88B
:1004D0000D00BB2805D1CC2088F80D00012001F0CB
:1004E000C3FD98F80E00BB2808D1CC2088F80E0078
:1004F00001224021DFF8500A03F064F898F80F0059
:10050000BB2808D1CC2088F80F0000224021DFF85A
:10051000380A03F057F898F80600BB2806D1CC201B
:1005200088F806000021032001F018FF98F8070062
:10053000BB2806D1CC2088F807000121032001F058
:100540000DFFA879E07102E0CC2088F81200207A33
:1005500099F8031088420BD1DFF8680A01F0AFFC6C
:10056000DFF8640A01F09CFC01F013FFE879E07108
:100570003878002804D1DFF8540AC07802F0D2FBA2
:100580003878022804D1DFF8440A807802F0CAFBE8
:100590003878012804D1DFF8340A007802F0C2FB71
:1005A0003878032804D1DFF8240A407802F0BAFB37
:1005B000DFF8C4060178012912D1002101704078CA
:1005C00001280DD1022001F04FFD0121002001F092
:1005D000C5FE0FF26D70DFF89C16C860A879E07157
:1005E000BDE8F18310B5DFF8480A01F068FCDFF8D8
:1005F000804600202070012001F084FE00210D20A3
:1006000001F0ACFE0121062001F0A8FE0021072028
:1006100001F0A4FE0121022001F0A0FE0021012032
:1006200001F09CFE0121092001F098FE0121082023
:1006300001F094FE0FF20900606010BD2000000080
:1006400010B5DFF8680A01F03AFCDFF82446E068EC
:10065000401CE0604CF25031884208D3DFF8500A69
:1006600001F01EFCDFF87C0ADFF80816C8601820CD
:1006700001F05EFE002845D1172001F059FE012847
:1006800040D10021052001F069FE0121042001F084
:1006900065FE152001F04CFE012833D1132001F036
:1006A00047FE01282ED11A2001F042FE002829D150
:1006B000122001F03DFE002824D1112001F038FE67
:1006C00000281FD1192001F033FE00281AD10F2075
:1006D00001F02EFE012815D1102001F029FE00287E
:1006E00010D101F022FE02280CD101F01BFE0128DE
:1006F00008D1DFF8E40C01F0E2FB0020E0600FF22B
:100700000900606010BD000010B5DFF82406C07855
:10071000DFF8241681F85000DFF854452069401CAA
:100720002061B0F57A7F0AD3DFF8640A01F0B8FBE4
:1007300000202061DFF8AC09DFF83815C860082018
:1007400001F0F6FD012803D10021082001F006FE8A
:10075000182001F0EDFD01280CD10121082001F045
:10076000FDFDDFF8C40C01F0AAFB002020610FF2B0
:100770000900606010BD000070B5DFF87C44DFF850
:10078000B055E8782070DFF8E8647069401C70614B
:1007900041F2707188420AD3DFF8A00A01F080FBB1
:1007A00000207061DFF83C09DFF8C814C860706988
:1007B000B0F57A7FC0F0A680122001F0B9FD0128C3
:1007C0001ED1112001F0B4FD002819D1192001F02B
:1007D000AFFD012814D101203070DFF8640A01F068
:1007E0005FFB032001F027FC012001F03DFC02200B
:1007F00001F03AFC002070610FF20D10706070BDC6
:10080000122001F095FD01281ED1112001F090FD6C
:10081000002819D1192001F08BFD002814D10220E5
:100820003070DFF8680A01F03BFB032001F035FC73
:10083000012001F019FC022001F016FC002070617B
:100840000FF2C500706070BD122001F071FD01282B
:100850001ED1112001F06CFD012819D1192001F0E1
:1008600067FD012814D103203070DFF8880A01F0F9
:1008700017FB032001F0F8FB012001F0F5FB02203B
:1008800001F0D9FB002070610FF27D00706070BD37
:10089000122001F04DFD002819D1112001F048FD72
:1008A000002814D1192001F043FD00280FD10020A9
:1008B0003070DFF8440A01F0F3FAE87B2070002082
:1008C0007061DFF82008DFF8AC13C86070BD042049
:1008D00030706078DFF86413897888420BD0DFF8D5
:1008E0001C0A01F0DDFA00207061DFF8F807DFF87C
:1008F0008413C86070BDDFF8D406C078BDE87040CE
:1009000002F010BA70BD000080B5DFF8780A01F07F
:10091000D6FADFF81C04C078DFF81C1481F8500008
:10092000152001F005FD01280CD10121052001F061
:1009300015FD0021042001F011FD0FF21D00CC492E
:10094000486001BDDFF8940A01F0AAFADFF89407C5
:10095000C849C86001BD000010B5DFF8D403C078F5
:10096000DFF8D41381F85000C14CE069401CE0610D
:1009700042F2107188420AD3DFF8B00A01F090FA0F
:100980000020A061E061DFF85C07BA49C86016206A
:1009900001F0CEFC012832D1DFF8940A01F080FA90
:1009A000A069401CA061642829D3DFF8D00A01F0B7
:1009B00077FA01F0D0FC0C280FDDDFF8E80A01F02F
:1009C0006FFADFF8E40A01F06BFA0020A061E06141
:1009D000DFF81007A749C86010BDDFF8D00A01F0A2
:1009E0005FFA0021092001F0B9FCDFF8800C01F06A
:1009F00066FA0020A061E0610FF20500606010BDA2
:100A000080B5CB48C078CC4981F85000062001F071
:100A10008FFC012811D1132001F08AFC01280CD190
:100A2000142001F085FC002807D10121072001F0E6
:100A300095FC0021062001F091FC062001F078FCD5
:100A400000281AD1132001F073FC002815D11420BE
:100A500001F06EFC012810D10021072001F07EFC7E
:100A60000121062001F07AFC0FF6C42001F027FADC
:100A70000FF20900DFF8081C486001BD10B5AC4852
:100A8000C078AD4981F85000794C206A401C206242
:100A900042F2107188420FD30121092001F05EFC5F
:100AA000DFF8880A01F0FCF90020206260620FF68E
:100AB0003120DFF8D01BC8601A2001F039FC012872
:100AC0000ED1606A401C6062B0F57A7F08D30220C4
:100AD00001F018FC0020206260620FF209006060E3
:100AE00010BD000080B501F020FC02281CD101F0EF
:100AF00019FC022818D10121092001F02FFC002146
:100B0000022001F02BFC0121084601F027FC002106
:100B1000032001F023FC0FF6282001F0D0F90FF29A
:100B20000D00DFF85C1B486001BD000080B5804807
:100B3000C078814981F850001D2001F0F9FB0028A0
:100B400010D10121022001F009FC0021012001F057
:100B500005FC0FF6FC1001F0B2F90FF20D00DFF802
:100B6000201B486001BD000010B57148C078724973
:100B700081F850003E4CA06A401CA06240F6B8319B
:100B800088420AD3DFF8000B01F08AF90020A06246
:100B90000FF64D10DFF8EC1AC8600F2001F0C8FB0B
:100BA000012825D12078012812D021D303280FD085
:100BB0001ED2032001F0A6FB002819D00FF6A010CA
:100BC00001F07DF90020A0620FF23500606010BDD9
:100BD000042001F097FB00280AD00020A0620FF249
:100BE000610060600FF68810BDE8104001F067B941
:100BF00010BD000010780008540B0020DC0D002010
:100C000080B501F092FB022810D101F08BFB032884
:100C10000CD10121084601F0A1FB0021022001F0C6
:100C20009DFB0FF269001249486001BD4048007BFE
:100C3000DFF8581A81F8500001BD0000D40C0020E4
:100C400080B501F072FB022810D101F06BFB042883
:100C50000CD10121084601F081FB0021022001F0A6
:100C60007DFB0FF22900DFF8181A486001BD000073
:100C7000A80A0020EC0C0020E00D0020410D000827
:100C8000AC0D0020670E0008A90D000838B5DFF88C
:100C9000F049102001F04CFB012846D1DFF8F05953
:100CA0006078002825D10121032001F057FB0021A5
:100CB000012001F053FB0021022001F04FFB2078BE
:100CC000012801D0032802D11949C97A697502287F
:100CD00002D11748007B6875BC48C07802F022F842
:100CE0000FF6980001F0DCF8CC202870012060702D
:100CF00003E00FF6940001F0D3F8E87BBB280DD198
:100D0000CC20E8730A48007B6875CC2002F03FFADB
:100D1000CC2002F00BFADFF87C0960602078022812
:100D200005D1DFF87009606031BD0020607031BD11
:100D3000C40C002048720008040B00205472000804
:100D400080B50FF6A41001F0C8F8DFF84C0901F0E7
:100D5000A7F801F01EFBDFF844090178012913D13F
:100D600000210170407801280ED1022001F07CF9A9
:100D7000DFF82C09DFF80C19C860DFF82809807942
:100D8000DFF8081981F8500001BD00006472000806
:100D90007C720008E87300088872000890720008EE
:100DA00010740008A072000870B5DFF8F8088078A9
:100DB000DFF8D81881F850000FF6341001F08DF8E4
:100DC000002425462646112001F0B2FA012800D160
:100DD0000126122001F0ACFA012800D101251920CA
:100DE00001F0A6FA012800D101241A2001F0A0FA8E
:100DF000012801D101242546002C06D0022C08D060
:100E00000AD2022001F017F906E0022001F02CF9C5
:100E100002E0022001F041F9002E06D0022E08D097
:100E20000AD2032001F007F906E0032001F01CF9C3
:100E300002E0032001F031F9002D06D0022D08D088
:100E40000AD2012001F0F7F806E0012001F00CF9C8
:100E500002E0012001F021F9DFF8240880688047D2
:100E6000BDE8704024E380B50FF68C0001F027F850
:100E70000FF6940001F014F8DFF80408C16A491C69
:100E8000C162B1F57A6F0DD30FF23101816001209B
:100E900001F0EAF8022001F0E7F80320BDE8024083
:100EA00001F0E2B8012001F0C6F8022001F0C3F819
:100EB0000320BDE8024001F0BEB8000080B50FF687
:100EC000580000F0FCFFDFF8E00700F0E9FFDFF872
:100ED000CC07017801290DD100210170407801284B
:100EE00008D10FF21500DFF8981788600120BDE8DF
:100EF0000240C5E201BD000010B5DFF88447206B59
:100F0000401C206340F6B831884208D3DFF89C07C4
:100F100000F0C6FF0FF2C950DFF86817C86018204C
:100F200001F006FA0FF6000000F0C9FF00210820CA
:100F300001F014FA002000F0A3FA002802D00FF20A
:100F40000D00A06010BD0000000C024010B5DFF8DD
:100F50003047606B401C606340F6B831884208D36C
:100F6000DFF84C0700F09CFF0FF27550DFF8141704
:100F7000C860172001F0DCF90FF2BC7000F09FFF91
:100F80000121082001F0EAF9172001F0D1F9012828
:100F900017D1DFF8200700F083FFDFF800070178A2
:100FA00001290ED1002101704078012809D10FF2EA
:100FB0002100A060CEA000F073FF0120BDE810402A
:100FC0005EE210BDAC7200083C740008640D0020A5
:100FD00010B5DFF8AC46A06B401CA06340F6B831FA
:100FE000884208D3DFF8D00600F05AFF0FF2F14034
:100FF000DFF89016C860162001F09AF90FF24870D9
:1010000000F05DFF0021042001F0A8F90121052076
:1010100001F0A4F9002000F033FA002806D00FF206
:101020001500A0600120BDE8104029E210BD0000BD
:10103000B872000838B5DFF84846E06B401CE06342
:10104000DFF8785640F6B831884207D3284600F0DA
:1010500027FF0FF28D40DFF82C16C860152001F035
:1010600067F90121042001F079F90021052001F040
:1010700075F90FF2E06000F022FF05F1280000F0A2
:101080000FFFDFF81806017801290ED10021017049
:101090004078012809D10FF21D00A06094A000F053
:1010A000FFFE0120BDE83240EAE131BDC472000814
:1010B000D472000880B50FF2AC6000F000FF002190
:1010C000092001F04BF9002000F0DAF9002808D0DF
:1010D0000FF21500DFF8A81588600120BDE8024076
:1010E000CEE101BDE114000880B50FF2886000F088
:1010F000E6FE0121092001F031F9DFF8C40500F016
:10110000CFFEDFF898050178012910D10021017088
:10111000407801280BD10FF21900DFF864158860C0
:1011200073A000F0BDFE0120BDE80240A8E101BDB2
:1011300010B5DFF84C45206C401C206440F6B831F7
:10114000884208D3DFF87C0500F0AAFE0FF2913048
:10115000DFF83015C860142001F0EAF80FF22460BF
:1011600000F0ADFE0021062001F0F8F80121072073
:1011700001F0F4F8002000F083F9002806D00FF207
:101180001500A0600120BDE8104079E110BD00000D
:101190003478000838B5DFF8E844606C401C6064BF
:1011A000DFF8205540F6B831884207D3284600F0D2
:1011B00077FE0FF22D30DFF8CC14C860142001F058
:1011C000B7F80FF2D05000F07AFE0121062001F0AE
:1011D000C5F80021072001F0C1F805F1240000F056
:1011E0005FFEDFF8B804017801290ED100210170FB
:1011F0004078012809D10FF21500A0603CA000F052
:101200004FFE0120BDE832403AE131BD80B50FF21A
:10121000945000F054FE0021032001F09FF80020BC
:1012200000F02EF9002808D00FF21900DFF8501452
:1012300088600120BDE8024022E101BD5878000825
:101240000C73000880B50FF2685000F038FE0121E1
:10125000032001F083F8DFF8700400F021FEDFF8CE
:101260003C040178012910D1002101704078012847
:101270000BD10FF21D00DFF8081488601CA000F0ED
:101280000FFE0120BDE80240FAE001BD2073000816
:1012900010B5DFF8EC43A06C401CA06440F6B831F8
:1012A000884208D3DFF8240400F0FAFD0FF2312061
:1012B000DFF8D013C860102001F03AF80FF2FC40BC
:1012C00000F0FDFD0021022001F048F80121084650
:1012D00001F044F8002000F0D3F8002806D00FF207
:1012E0002100A0600120BDE81040C9E010BD000051
:1012F00000000000347300084873000860730008A1
:1013000038B5DFF87C43E06C401CE064DFF8C05384
:1013100040F6B831884207D3284600F0C1FD0FF2ED
:10132000C110DFF86013C8600F2001F001F80FF260
:101330009C4000F0C4FD0121022001F00FF80021C3
:10134000012001F00BF805F1280000F0A9FDDFF8FD
:101350004C030178012914D1002101704078012843
:101360000FD102F073FA0FF22100A060012000F00B
:10137000C9FF0FF2644000F093FD0120BDE8324048
:101380007EE031BD7873000810B50FF2644000F0C4
:1013900096FDBB4C206D401C206547F230518842C1
:1013A00007D30FF25C4000F07BFD0FF23510B5491A
:1013B000C8601F2000F0BCFF01280CD10020206570
:1013C0000FF25C4000F06CFD0FF21500A060BDE86C
:1013D000104002F00FBA10BDEC72000888730008CC
:1013E00010B5A74C606D401C606547F230518842D3
:1013F00007D30FF23C4000F053FD0FF2E500A14986
:10140000C8600FF2EC3000F05AFD02F0F7F9002846
:1014100008D0002060650FF21D00A060BDE81040FC
:1014200002F0E4B910BD0000FC7200083C75000831
:10143000A873000810B5924CA06D401CA06547F23F
:101440003051884207D30FF2E83000F029FD0FF247
:1014500091008C49C8600FF2F43000F030FD02F0CA
:10146000CDF9002809D00020A0659A48A0600FF2AD
:10147000EC30BDE8104000F013BD10BDB47300089F
:101480009549002802D00020086070470868B0F530
:101490007A6F03D30020086001207047401C086069
:1014A00000207047C073000868750008CC730008FE
:1014B00010B58A4C2068401C2060B0F57A7F03D1BB
:1014C0000121002000F04AFF2068B0F5FA6F05D333
:1014D0000021084600F042FF0020206010BD0000FF
:1014E00080B57048007A694981F8500000F051FFDA
:1014F0000FF27C3000F0F1FC032000F0B5FD01207C
:1015000000F099FD022000F0AFFD75480168B1F5CB
:101510007A7F06DA05DD40F2D172914201DB0021CB
:1015200001600168491C016001BD0000C47600082B
:10153000417474656E64426C6F63436875746500D2
:10154000417474656E6441737069726500000000D7
:1015500056656E746F7573654D6F6E74650000002F
:10156000506F6E7456657273466F7373650000003A
:10157000506F6E74566572734173630054726920C4
:1015800066696E6921000000456E2064656C6169C2
:10159000206176616E7420726573746172740000EC
:1015A00038B5504C122000F0C3FE01280BD1112099
:1015B00000F0BEFE002806D1192000F0B9FE012877
:1015C00001D1012539E0122000F0B2FE01280BD133
:1015D000112000F0ADFE002806D1192000F0A8FE71
:1015E000002801D1022528E0122000F0A1FE0128E8
:1015F0000BD1112000F09CFE012806D1192000F02B
:1016000097FE012801D1032517E0122000F090FE7B
:1016100000280ED1112000F08BFE002809D11920DE
:1016200000F086FE002804D10025E07801F07AFB66
:1016300003E00425E07801F075FB280002D1E07892
:1016400001F070FB2846022802D1A07801F06AFB65
:101650002846012802D1207801F064FB032D04D133
:101660006078BDE8324001F05DBB31BDD873000841
:101670000848034948600A480249C86070470000AA
:10168000A80A0020EC0C002048770008040B00207A
:101690003F0B0020E5050008F0760008DC0D002077
:1016A00089010008C40C00201C7700087C78000821
:1016B000E475000808760008707700089475000843
:1016C000987700087C760008C0770008A0780008AA
:1016D00030760008670E0008E80D0020EC0D0020B1
:1016E000F00D0020640D002041727265740000004E
:1016F00054657374730000007465737420436F6CD9
:101700006F6E6E650000000046696E2064616E7346
:1017100020322073656300007465737420456E7415
:1017200072656573000000004163742E2056657277
:10173000696E204D61672E004465732E20566572D8
:10174000696E204D61672E004D6F6E746520456C8B
:1017500065762E0044657363656E6420456C65761E
:101760002E0000004163742E20436F6E766F796502
:1017700075722E004465732E20436F6E766F796507
:1017800075722E004163742E20456A656374657519
:10179000722E00004465732E20456A65637465757A
:1017A000722E000041637469766520416972000001
:1017B0004465736163742E204169720044657363EC
:1017C000656E642056656E74000000004D6F6E7487
:1017D000652056656E742E00546573742064752000
:1017E000706F6E7420656E20636F757273000000F9
:1017F0004465706C6163652056656E742E00000050
:101800004F757073212054696D656F757420696E12
:10181000697420706F6E742061747465696E7400F1
:10182000496E697420706F6E742066696E6900007D
:101830004F757073212054696D656F757420706FDA
:101840006E742061747465696E7421005265706CE9
:101850006163652056656E742E000000506F6E74D3
:1018600020666F6E6374696F6E6E656C00000000B9
:10187000457272657572000080B502F003F802F0DF
:1018800018F802F033F802F055F802F061F802F0AF
:101890006DF802F079F802F082F802F086F802F0B2
:1018A00087F802F08EF802F0B4F800F009FC00F0BE
:1018B00075FDBDE8014002F05BB980B501F0DFFFC6
:1018C00002F085F901F0ECFC02F0E3F9002002F0EF
:1018D000C1FCBDE80140FFF7CBBE70477CB5FFF708
:1018E000CBFF02F003FE00F0E0F800F0AAF900F0F0
:1018F00090F900F069F900F02DF900F049F9FFF7CF
:10190000DCFF012000F097FB022000F094FB032095
:1019100000F091FB01200090022380222B21002067
:1019200002F056FC01200090022380221B2100209F
:1019300002F04EFC01200090022380220B210020A7
:1019400002F046FC052204210FF2246002F02CFB79
:10195000052202210FF2306002F026FBDFF8B445C9
:10196000DFF8B46505E0052200210FF2346002F0D3
:101970001BFB01F084FF207D002840D00020E07593
:1019800005461FE00523D2B20721202002F07EFA8F
:101990000FE0282D0DDA2846A0F11402E07D002882
:1019A000F0D10523D2B20721DFF87005405D02F0C7
:1019B0006DFADFF8680528444078002801D101203D
:1019C000E0756D1C282D18DA142DE2DAE07D002870
:1019D0000AD1052328460246D2B20621DFF83C058B
:1019E000405D02F053FAE4E7052328460246D2B2EE
:1019F0000621202002F04AFADBE700202075607DF6
:101A0000002820D00020E075054617E00523D2B25B
:101A10000221202002F03AFA09E06A1DE07D002848
:101A2000F4D10523D2B20221605D02F02FFA6019D1
:101A30004078002801D10120E0756D1C681D142834
:101A4000EBDB00206075A07D002820D00020E07531
:101A5000054617E00523D2B20421202002F016FA31
:101A600009E06A1DE07D0028F4D10523D2B20421EB
:101A7000705D02F00BFA70194078002801D1012046
:101A8000E0756D1C681D1428EBDB0020A075DFF8E5
:101A9000900490F8540000283FF465AF052200211F
:101AA0000FF2145002F080FA63E780B592B0002282
:101AB000302106A802F034FD0022142101A802F012
:101AC0002FFD00200090DFF85C04016841F0805198
:101AD0000160006800F080500090009800200090A5
:101AE000DFF84404016841F480410160006800F4BB
:101AF000804000900098012006904FF480300790BD
:101B000002200C904FF480000D9004200E90A8202D
:101B10000F90022010900720119006A802F01EFDE1
:101B2000002801D000F0E8F90F2001900220029077
:101B3000002003904FF4A05004904FF48050059083
:101B4000052101A802F07EFE002801D000F0D4F9A2
:101B500013B000BD80B5DFF8D403DFF8D413016003
:101B6000A821416000218160C1604FF40031016112
:101B70000021416101760121417600214183818369
:101B800002F03EFF002802D0BDE80140B4E101BDF3
:101B900080B5DFF8A003DFF8A0130160DFF89C1325
:101BA000416000218160C1604FF4804101610021EA
:101BB00041618161C161016203F072F9002802D0C4
:101BC000BDE8014098E101BD1CB50022082168462E
:101BD00002F0A6FCDA4CDB48206000206060A060C8
:101BE0004AF20F40E0600020A061204603F016FE9C
:101BF000002801D000F080F9102000900020019012
:101C00006946204603F04CFF002801D000F074F92B
:101C100013BD80B5CC48CD4901604FF49641416079
:101C200000218160C16001610C214161002181615D
:101C3000C16103F055FF002802D0BDE801405BE11F
:101C400001BD2DE9F04786B000221421684602F05C
:101C500067FC00200590BE48016841F0100101605A
:101C6000016801F0100105910599002105910168B5
:101C700041F004010160016801F00401059105993A
:101C800000210591016841F080010160016801F0C7
:101C900080010591059900210591016841F001013C
:101CA0000160016801F0010105910599002105918C
:101CB000016841F002010160016801F00201059133
:101CC000059900210591016841F008010160006853
:101CD00000F00800059005989E4C002249212046FE
:101CE00001F070FC9C4D01221146284601F06AFC6F
:101CF0009A4E0022E221304601F064FC47F6330799
:101D0000DFF85C8200223946404601F05BFC4FF66A
:101D1000D079DFF850A200224946504601F052FC2B
:101D20004920009001200190002002900390694614
:101D3000204601F06BFB4FF42050009000200190F2
:101D400002906946284601F061FB01200090019055
:101D50000020029003906946284601F057FB0820B6
:101D60000090022001900020029003900520049032
:101D70006946284601F04AFB012000907A4801900C
:101D8000002002906946304601F040FBE2200090BE
:101D9000012001900020029003906946304601F036
:101DA00035FB10200090022001900020029003904B
:101DB000062004906946304601F028FB0097012078
:101DC00001900020029003906946404601F01EFBFE
:101DD000042000900020019002906946404601F0E6
:101DE00015FB4FF47F40009000200190029069465F
:101DF000204601F00BFB4FF4806000900220019020
:101E0000002002900390052004906946404601F0AE
:101E1000FDFACDF80090012001900020029003907F
:101E20006946504601F0F2FA4FF4A45000900220A7
:101E300001900020029003900620049069462846F5
:101E400001F0E4FA4FF4007000900020019002903D
:101E50006946304601F0DAFA4FF4E0500090022073
:101E600001900020029003900A20049069463046B9
:101E700001F0CCFA202000900020019002906946E9
:101E8000504601F0C3FA022000903848019000202B
:101E900002906946204601F0B9FA06B0BDE8F08725
:101EA00001211C4A117500221C4B00E0521C282AFB
:101EB00004DA815C9954815C0029F7D17047154A96
:101EC00001215175002300E05B1C152B04DAC15C75
:101ED000D154C15C0029F7D1704701210D4A917599
:101EE00000220D4B00E0521C152A04DA815C995443
:101EF000815C0029F7D1704780B501F068FE01F0E0
:101F0000C1FC01F0BCFC01224021164801F05AFB43
:101F1000F3E70000280D0020880D00209C0C002015
:101F2000040B00204038024000700040740C002078
:101F3000006400405C0B002000540040A0860100BB
:101F4000F40B002000100040340C0020004400403E
:101F500030380240001002400008024000000240F9
:101F600000040240000C024000001110000012109A
:101F70004D6F64653A202020202020202020202042
:101F80002020202000000000457461743A417474E0
:101F9000656E6420426F75746F6E20200000000033
:101FA00043414E20436F6E6E65637465642020204C
:101FB000202020200000000043414E20446973632C
:101FC0006F6E6E6563746564202020200000000041
:101FD00010B5464C6068401C6060B0F57A7F11D146
:101FE0002078022802D1012003F001FF6078022846
:101FF00002D1022003F0FBFEA078022802D10320C8
:1020000003F0F5FE6068B0F5FA6F13D3207802286C
:1020100002D1012003F0D4FE6078022802D1022010
:1020200003F0CEFEA078022802D1032003F0C8FE00
:102030000020606010BD012804D014D303280CD008
:1020400005D3704701202949087003F0D0BE012054
:1020500026494870022003F0CABE01202349887037
:10206000032003F0C4BE7047012804D014D3032812
:102070000CD005D3704701201C49087003F0A0BEA6
:1020800001201A494870022003F09ABE0120174926
:102090008870032003F094BE7047012804D00ED34B
:1020A000032809D004D370470220104908707047F4
:1020B00002200E494870704702200C498870704712
:1020C00010B50A4C00206060012003F079FE022068
:1020D00003F076FE032003F073FE00202070607092
:1020E000A07003480349886110BD0000C40D0020A2
:1020F000D11F0008EC0C002010B5DFF8BC43E068ED
:10210000142820D30020E0602178722003F08AFE9A
:102110006178782003F086FEA11C772003F08DFE05
:10212000E11C7A2003F089FE211D712003F085FE59
:1021300004F108019B2003F080FEA078C043A0704A
:102140002079C043207100F057F800F02EF800F01D
:1021500004F8E068401CE06010BD38B5DFF85C535F
:10216000A878401CA870C0B214281DD30020A87005
:10217000EC781B2000F0DCF801280AD10A2C13D0DF
:10218000641CEC70E4B20A2C0EDB0120687028702D
:1021900031BD002C08D0601EE870C0B2002803D109
:1021A000002068700120287031BD38B5C44DA87872
:1021B000401CA870C0B214281DD30020A870EC7871
:1021C0001C2000F0B5F801280AD10A2C13D0641C99
:1021D000EC70E4B20A2C0EDB01206870287031BD6F
:1021E000002C08D0601EE870C0B2002803D1002087
:1021F00068700120287031BD70B5B24CE0780228BB
:1022000030D1A568142D2DD3A678012E03D000213E
:102210000E2000F0A3F8202000F08AF8012821D138
:10222000502D1FD301210E2000F098F81F2000F040
:102230007FF8012816D1642D14D301210A2000F063
:102240008DF801210B2000F089F801210C2000F00D
:1022500085F866700020A070022020700020207198
:10226000A060E070E078012842D1A078401E0328E9
:102270003ED8DFE800F0020B1C2D01202071002168
:102280000D2000F06BF80220E07031E00120207199
:1022900000210A2000F062F801210B2000F05EF816
:1022A00001210C2000F05AF80220E07020E001200B
:1022B000207101460A2000F051F800210B2000F0A7
:1022C0004DF801210C2000F049F80220E0700FE0E9
:1022D0000120207100210A2000F040F801210B208C
:1022E00000F03CF800210C2000F038F80220E070EB
:1022F0002079002803D0A068401CA06070BD002099
:10230000A06070BD10B5044601F046FB01F04AFB29
:102310006C48847001210170002141700121C1705D
:10232000084610BD67484078704766480078704797
:102330006549614A51F830301A4412F8012C0123E2
:1023400001EBC000406883401A401046401E8041A7
:10235000C043C00F70475848007A704770B45A4A5B
:1023600052F8303002EBC004584D0126002906D047
:102370001846295C606886400E43EE5407E0EB5C2B
:1023800061688E4023EA060652F830002E5470BC75
:1023900070474948FF210170417070474A48012148
:1023A000016000214160012101610221416101219F
:1023B0008160C16081610321C161012181620521C8
:1023C000C16201210162042141620121816307216F
:1023D000C1630121016306214163022101640021DF
:1023E0004164022181640121C164022101654165CA
:1023F00081650321C1650221016604214166022134
:1024000081660621C166022101670521416703211A
:1024100081670021C1670321C0F8801000F18401A9
:1024200001220A6003224A6002228A600322CA60F3
:102430000A614A6104228A610322CA6105220A6292
:1024400003224A6206228A620322CA6207220A63C0
:1024500004224A6300228A630422CA6301220A64B6
:1024600004224A6402228A640422CA6403220A659E
:1024700004224A658A65CA6505220A6604224A66FC
:1024800006228A660522CA6602220A6705224A6770
:1024900001228A670522CA6700F582700021016067
:1024A00011464160032181600348FF2101704170A2
:1024B00007480849086170479C0D0020DC0D00208A
:1024C000E00D0020B80D0020980900209B0D002091
:1024D000F9200008EC0C002010B400230C4601E0A9
:1024E000C2545B1CA342FBDB10BC704730B4022219
:1024F000022A1BD100220B465B1E012BF8DBC418FD
:1025000014F8014CFF2C04D01546012D04D10222F1
:1025100002E0150000D10122C55CFF2D04D1C45496
:10252000FF24C51805F8014C5B1EE6E730BC704778
:1025300010B41478FF2C0DD0FE2C0BD1491E07E0EF
:10254000445CFF2C03D14354FD2111700021491E2E
:102550000029F5DC10BC70470922DFF894194B7A8A
:10256000FF2B00D1704730B400230DE0AA24DFF820
:1025700084592C7203E0AA24DFF87859EC71FF2407
:102580008C54521ED2B29B1C072B3ADCC45CAA2C82
:10259000F9D18C5CFF2CF6D05624C4548C5CC51841
:1025A0006C708C5C082CEAD8DFE804F0080D121778
:1025B0001C2126070600E2E7D8E7DCE7AA24DFF8BB
:1025C00034592C70DBE7AA24DFF828596C70D6E761
:1025D000AA24DFF82059AC70D1E7AA24DFF81459F7
:1025E000EC70CCE7AA24DFF80C592C71C7E7AA24B9
:1025F000DFF800596C71C2E7AA24DFF8F858AC7113
:10260000BDE730BC704700001722DFF8DC19CB7D36
:10261000FF2B00D1704730B400230DE0AA24DFF86F
:10262000D458EC7703E0AA24DFF8C858AC77FF242D
:102630008C54521ED2B29B1C082B80F28880C45C42
:10264000AA2CF8D18C5CFF2CF5D04324C4548C5CAC
:10265000C5186C708C5C172CE9D8DFE804F00F14F7
:10266000191E23282D32373C41464B50555A5F6482
:10267000696E730C0E0DDAE7D0E7D4E7AA24DFF811
:1026800074586C72D3E7AA24DFF86858AC72CEE7AE
:10269000AA24DFF86058EC72C9E7AA24DFF854587E
:1026A0002C73C4E7AA24DFF84C586C73BFE7AA2444
:1026B000DFF84058AC73BAE7AA24DFF83858EC7357
:1026C000B5E7AA24DFF82C582C74B0E7AA24DFF869
:1026D00024586C74ABE7AA24DFF81858AC74A6E74A
:1026E000AA24DFF81058EC74A1E7AA24DFF80458F4
:1026F0002C759CE7AA24DFF8FC576C7597E7AA2491
:10270000DFF8F057AC7592E7AA24DFF8E857EC75CC
:102710008DE7AA24DFF8DC572C7688E7AA24DFF8B7
:10272000D4576C7683E7AA24DFF8C857AC767EE7E7
:10273000AA24DFF8C057EC7679E7AA24DFF8B4576B
:102740002C7774E7AA24DFF8AC576C776FE730BCBE
:10275000704710B50446AA220821FFF7BDFE53209A
:10276000A071DFF8C80A0178E1718178FF2903D0F0
:1027700057212171807860712046FFF7EDFE2046D9
:10278000BDE8104040E770B5DFF85C4818212046EE
:10279000FFF7ACFEDFF858570A212846FFF7A6FEE0
:1027A000DFF85067AB7BB21C0A212846FFF7C0FE5A
:1027B0002B7B32460A212846FFF7BAFE6B7B721C40
:1027C0000A212846FFF7B4FEEB7BF21C0A212846BB
:1027D000FFF7AEFE2B7C321D0A212846FFF7A8FE2C
:1027E0006B7C721D0A212846FFF7A2FEAB7CB21D4E
:1027F0000A212846FFF79CFE2B7D06F108020A21DC
:102800002846FFF795FEEB7CF21D0A212846FFF7CC
:102810008FFEDFF8805A2B7C06F119021821204622
:10282000FFF786FE6B7C06F11A0218212046FFF79F
:102830007FFE2B7D06F11D0218212046FFF778FE52
:102840006B7A06F1120218212046FFF771FE2B7AEF
:1028500006F1110218212046FFF76AFEEB7A06F115
:10286000140218212046FFF763FEAB7A06F113022B
:1028700018212046FFF75CFE6B7B06F1160218213B
:102880002046FFF755FE2B7B06F115021821204646
:10289000FFF74EFEEB7B06F1180218212046FFF7EA
:1028A00047FEAB7B06F1170218212046FFF740FEDA
:1028B000AB7B06F1170218212046FFF739FE2B7873
:1028C00006F1090218212046FFF732FE6B7806F167
:1028D0000A0218212046FFF72BFEAB7806F10B0207
:1028E00018212046FFF724FEEB7806F10C02182190
:1028F0002046FFF71DFE2B7906F10D021821204618
:10290000FFF716FE6B7906F10E0218212046FFF73D
:102910000FFEAB7906F10F0218212046FFF708FEE3
:10292000EB7906F1100218212046FFF701FEAB7C7F
:1029300006F11B0218212046FFF7FAFDEB7C06F199
:102940001C0218212046FFF7F3FDAB7D06F11F02A4
:1029500018212046FFF7ECFD6B7D06F11E021821C1
:102960002046BDE87040E3E5F8B504460025DFF8F1
:102970002869DFF828790BE0601940783146C8747F
:1029800005E03846017A3246117402210176AD1C09
:10299000082D80F2A181605D432840D04D2808D0E9
:1029A000532800F03C81562800F0E2805728E3D0FD
:1029B000EDE76019407806281AD8DFE800F0040730
:1029C0000A0D10131600387C707415E0787C707452
:1029D00012E0B87C70740FE0F87C70740CE0387D05
:1029E000707409E0787D707406E0B87D707403E05F
:1029F000387A307401203876707CB97E814209D0F3
:102A0000B876002000F078FA002000F0C0FB00202B
:102A100000F08CFB0020F86178763075B7E760191C
:102A20004078172800F29D80DFE800F00C11161B9B
:102A300020252A31383F464D545B626970777E838A
:102A4000889B8D94BB20DFF89C1948729FE7BB20C0
:102A5000DFF8901988729AE7BB20DFF88819C872EE
:102A600095E7BB20DFF87C19087390E7BB20DFF8FF
:102A7000741948738BE7BB20DFF86819887386E701
:102A8000DFF86009BB21C173002101747FE7DFF823
:102A90005409BB2101740021C17378E7DFF84409B0
:102AA000BB2141740021817471E7DFF83809BB2133
:102AB0008174002141746AE7DFF82809BB21C174E1
:102AC0000021017563E7DFF81C09BB2101750021B6
:102AD000C1745CE7DFF80C09BB21417500218175E9
:102AE00055E7DFF80009BB218175002141754EE7EC
:102AF000DFF8F008BB21C1750021017647E7DFF858
:102B0000E408BB2101760021C17540E7DFF8D40855
:102B1000BB2141760021817639E7DFF8C808BB2167
:102B200081760021417632E7BB20DFF8B818C876FD
:102B30002DE7BB20DFF8AC18087728E7BB20DFF8CB
:102B4000A418487723E7DFF89C08BB218177002190
:102B5000C1771CE7DFF88C08BB21C17700218177A2
:102B600015E73846017A32461174032101760EE7E3
:102B70006019407808284BD8DFE800F0050D151DD6
:102B8000252D353C4300DFF85C08BB210170002196
:102B900041804170FBE6DFF84C08BB214170002109
:102BA00001704180F3E6DFF83C08BB218170002111
:102BB0000180C170EBE6DFF82C08BB21C170002159
:102BC00001808170E3E6DFF81C08BB210171002160
:102BD00041718171DBE6DFF80C08BB2141710021F6
:102BE00001718171D3E6DFF8FC07BB2181710021FF
:102BF0008180CCE6DFF8EC07BB21C17100210172B6
:102C0000C5E6DFF8E0070021C171BB210172BEE615
:102C10003846017A3246117404210176B7E660190C
:102C2000407810283FF6ADAEDFE800F00B161A1E14
:102C30000A22262A2E32363C42464A4E5200A0E64E
:102C4000A5E63046BB2101703946097C427C8A42A8
:102C50003FF49DAE41749AE6BB203146487096E63B
:102C6000BB203146887092E6BB203146C8708EE6A4
:102C7000BB20314608718AE6BB203146487186E6A2
:102C8000BB203146887182E6BB203146C8717EE6A2
:102C9000BB20314608727AE63046BB2141720021E2
:102CA000817274E63046BB218172002141726EE66A
:102CB000BB203146C8726AE6BB203146087366E61F
:102CC000BB203146487362E6BB20314688735EE61E
:102CD000BB203146C8735AE6F1BDDFF8C015C8699C
:102CE000401C00EE100A81ED070ADFF8442592F837
:102CF000540000280AD1BBEEEF0ABDEEC00A10EE68
:102D0000100AC0B2142390FBF3F04876487E0B28DB
:102D100002DBFF2082F8540070470278FF2A00D0BF
:102D200001707047F0B4DFF8C811DFF804250346DE
:102D3000FF2B2DD19378FD2B08D01378FD2B05D0D8
:102D40005378FD2B02D0D378FD2B1CD1002318E043
:102D5000CC5C8D7BAC4201D1FF24CC54CC5C0D7B90
:102D6000AC4201D1FF24CC54CC5C4D7BAC4201D1B0
:102D7000FF24CC54CC5CCD7BAC4201D1FF24CC549D
:102D80005B1C0A2BE4DBFF23937013705370D3702A
:102D90000B7B04461D46AC4227D19478FD2C05D010
:102DA0005478FD2C02D0D478FD2C16D1002412E0EA
:102DB0000D5D8E7BB54201D1FF250D550D5D4E7B1E
:102DC000B54201D1FF250D550D5DCE7BB54201D138
:102DD000FF250D55641C0A2CEADB1478FD2C01D06C
:102DE000FE2414700024548054708C7B05462646C3
:102DF000B54226D11578FD2D05D05578FD2D02D090
:102E0000D578FD2D15D1002511E04E5D9E4201D1F2
:102E1000FF264E554E5D4F7BBE4201D1FF264E55DB
:102E20004E5DCF7BBE4201D1FF264E556D1C0A2D53
:102E3000EBDB9578FD2D01D0FE25957000251580E2
:102E4000D5704D7B06462F46BE4226D11678FD2E04
:102E500005D09678FD2E02D0D678FD2E15D100260D
:102E600011E08F5D9F4201D1FF278F558F5DA742F3
:102E700001D1FF278F558F5D91F80FC0674501D1B4
:102E8000FF278F55761C0A2EEBDB5678FD2E01D0DE
:102E9000FE265670002616705680CE7BB04224D196
:102EA0001078FD2805D09078FD2802D05078FD28B4
:102EB00013D100200FE00E5C9E4201D1FF260E547C
:102EC0000E5CA64201D1FF260E540E5CAE4201D12B
:102ED000FF260E54401C0A28EDDBD078FD2801D0D7
:102EE000FE20D070002010705080F0BC70470000B1
:102EF000580D0020040B002038B50446CC4D214667
:102F000005F13D00FFF709FF214605F13900FFF704
:102F100004FF214605F13A00FFF7FFFE214605F1C7
:102F20003200FFF7FAFE214605F13100FFF7F5FE0A
:102F3000214605F13400FFF7F0FE214605F133008C
:102F4000FFF7EBFE214605F13600FFF7E6FE2146CE
:102F500005F13500FFF7E1FE214605F13800FFF7E6
:102F6000DCFE214605F13700FFF7D7FE214605F1CB
:102F70002900FFF7D2FE214605F12A00FFF7CDFE1A
:102F8000214605F12B00FFF7C8FE214605F12C0074
:102F9000FFF7C3FE214605F12D00FFF7BEFE2146D7
:102FA00005F12E00FFF7B9FE214605F13B00FFF7C2
:102FB000B4FE214605F13C00FFF7AFFE214605F1C6
:102FC0003000FFF7AAFE214605F12F00FFF7A5FE0E
:102FD000214605F13F00FFF7A0FE214605F13E0026
:102FE000BDE8344099E60000700D002038B5044675
:102FF0008F4D214605F11D00FFF78FFE214605F19B
:103000001900FFF78AFE214605F11A00FFF785FE39
:10301000214605F11200FFF780FE214605F111005F
:10302000FFF77BFE214605F11400FFF776FE2146EF
:1030300005F11300FFF771FE214605F11600FFF7B9
:103040006CFE214605F11500FFF767FE214605F1EC
:103050001800FFF762FE214605F11700FFF75DFE3D
:10306000214605F10900FFF758FE214605F10A0047
:10307000FFF753FE214605F10B00FFF74EFE2146F8
:1030800005F10C00FFF749FE214605F10D00FFF7A1
:1030900044FE214605F10E00FFF73FFE214605F1F3
:1030A0001B00FFF73AFE214605F11C00FFF735FE35
:1030B000214605F11000FFF730FE214605F10F0013
:1030C000FFF72BFE214605F11F00FFF726FE2146E4
:1030D00005F11E00BDE834401FE638B50446544DE6
:1030E0002146A81CFFF719FE21462846FFF715FECA
:1030F0002146681CFFF711FE2146A81DFFF70DFEB3
:103100002146E81CFFF709FE2146281DFFF705FEB2
:10311000214605F10800FFF700FE2146E81DFFF7F4
:10312000FCFD2146681DBDE83440F6E538B504468F
:103130003F4D214605F12200FFF7EFFD214605F145
:103140002000FFF7EAFD214605F12100FFF7E5FD2C
:10315000214605F12600FFF7E0FD214605F1230099
:10316000FFF7DBFD214605F12400FFF7D6FD2146E0
:1031700005F12800FFF7D1FD214605F12700FFF7F3
:10318000CCFD214605F12500BDE83440C5E538B544
:103190000446274D214605F14400FFF7BEFD2146B8
:1031A00005F14500FFF7B9FD214605F14600FFF79F
:1031B000B4FD214605F14700FFF7AFFD214605F1BB
:1031C0004800FFF7AAFD214605F14900FFF7A5FDDC
:1031D000214605F14A00FFF7A0FD214605F14B000D
:1031E000FFF79BFD214605F14C00FFF796FD2146B8
:1031F00005F14D00FFF791FD214605F14E00FFF767
:103200008CFD214605F14F00FFF787FD214605F1B2
:103210004300FFF782FD214605F14100FFF77DFDE8
:10322000214605F14000BDE8344076E5540B00200E
:10323000040B002010B502F00DFE00280CD06A4CE3
:10324000204602F009FE002801D100F0C0FC204613
:10325000BDE81040FFF788BB10BD10B5FFF73DFD7E
:10326000624C607E012810D1E07E002811D104F16B
:103270002000FFF76EFA082204F120014FF40070DD
:1032800002F0ECFD0120E07610BDFFF77CFA002093
:10329000E07610BD400D0020440B0020C40C00203F
:1032A00038B5524C00202074012060740220A074B4
:1032B0000320E07404202075052060750620A075A9
:1032C00000202070012060700220A0700320E070B8
:1032D00005202071062060710720A0710820E07190
:1032E000092020720A2060720B20A0720C20E0726C
:1032F0000D2020730E2060730F20A0731020E07348
:103300003B4800210170012141700221817003219D
:10331000C1700421017105214171062181710721CC
:10332000C17108210172092141720A2181720B21A8
:10333000C1720C2101730D2141730E2181730F2184
:10334000C173102101741121417412218174132160
:10335000C174142101751621417517218175254D00
:1033600000202873012068730220A8730320E873EB
:1033700004202874052068740620A8740720E874C7
:10338000082028750020FFF7B7FD0020FFF7CEFECC
:103390000020FFF7FCFEFF20FFF728FEFF20FFF7CD
:1033A0009CFE1548FF2181700021C170A179017038
:1033B000A17D417000210171AA22082104F12000A1
:1033C000FFF78AF8FF2218210C48FFF785F8FF2243
:1033D0000A212846FFF780F809480A4981600A490E
:1033E000416031BD240B0020D40D0020C40C00200E
:1033F000400D0020580D0020540B0020700D0020BF
:10340000EC0C0020353200085B320008F8B40023D1
:103410002DE04FF0080C05E0DFF8B8C16045F8D1A9
:103420004FF0070C0CFA06FC4CEA070C45F824C0D8
:10343000694C2668D5432E404F68FF0300D51643DC
:10344000266066682E404F68BF0300D5164366604D
:10345000A6682E404F68FF0200D51643A660E668B6
:103460002E404D68AD0200D51643E6605B1C0F2B65
:1034700000F29E8001249C400A682240A242F5D1BD
:103480004D68022D01D0122D13D11D46ED0800EB21
:103490008506356A9F0007F01C074FF00F0C0CFAE9
:1034A00007FC25EA0C05D1F810C00CFA07F73D43DC
:1034B000356207685D000326AE40F643374091F859
:1034C00004C00CF0030C0CFA05FC4CEA070707607B
:1034D0004F68012F05D0022F03D0112F01D0122FDA
:1034E00010D187683740D1F80CC00CFA05FC4CEAC3
:1034F000070787604768A7434C68C4F300149C40E3
:1035000027434760C46834408E6806FA05F52C43AB
:10351000C4604C68E400A9D5002400942F4C2568B1
:1035200045F480452560246804F480440094009CA0
:103530001C46A4082A4D55F824709E0006F00C067F
:103540004FF00F0C0CFA06FC27EA0C07DFF894C0CA
:10355000604502D14FF0000C64E7DFF88CC0604595
:1035600002D14FF0010C5DE7DFF880C0604502D169
:103570004FF0020C56E7DFF878C0604502D14FF0FB
:10358000030C4FE7DFF86CC0604502D14FF0040C2C
:1035900048E7DFF864C0604502D14FF0050C41E711
:1035A000DFF858C060457FF437AF4FF0060C39E7BD
:1035B000F1BC7047006901400846401E8041C0438D
:1035C000C00F7047002A01D08161704709048161F2
:1035D00070470000001C0240003C0140443802409B
:1035E0000838014000000240000402400008024088
:1035F000000C02400010024000140240001802407B
:1036000010B5984CA078012817D100F00EF90028C9
:1036100001D1002010BD01210B20FEF79FFE0121EA
:103620000C20FEF79BFE00210A20FEF797FEA078F3
:10363000401E8041C043C00F10BD022809D10021A7
:103640000E20FEF78BFE00F0F3F80028EFD10020EB
:1036500010BD0328EBD101210E20FEF77FFE00F004
:10366000EAF8002807D000F0D1F8032020700020ED
:10367000A070012010BD002010BD10B5794CA078BD
:10368000012817D100F0D1F8002801D1002010BD89
:1036900001210A20FEF762FE01210C20FEF75EFEEA
:1036A00000210B20FEF75AFEA078401E8041C04347
:1036B000C00F10BD022809D100210E20FEF74EFEDA
:1036C00000F0B6F80028EFD1002010BD0328EBD1A0
:1036D00001210E20FEF742FE00F0ADF8002807D0D1
:1036E00000F094F8032020700020A070012010BD8D
:1036F000002010BD10B55B4CA078012817D100F058
:1037000094F8002801D1002010BD00210A20FEF706
:1037100025FE01210B20FEF721FE00210C20FEF7E3
:103720001DFEA078401E8041C043C00F10BD02287E
:1037300009D100210E20FEF711FE00F079F80028D3
:10374000EFD1002010BD0328EBD101210E20FEF7A0
:1037500005FE00F070F8002805D00320207000203E
:10376000A070012010BD002010BD10B53D4CA07808
:10377000002803D06068401C606001E000206060A9
:103780002078032802D100F016F901E000F016F9C4
:10379000A078002807D12078032802D00120A0704B
:1037A00001E0002060606068C82802D10221A17099
:1037B00004E0B0F5FA7F01D10321A170062814D3EB
:1037C0002078002803D1FFF71BFF60700AE0012872
:1037D00003D1FFF752FF607004E0022802D1FFF727
:1037E00089FF6070BDE810402FE010BD00201D492A
:1037F0000870704702201B4908707047194800780C
:10380000032801D1012070470020704780B50121B5
:103810000A20FEF7A3FD01210B20FEF79FFD0121E9
:103820000C20BDE80440FEF799BD1E20FEF780BDC8
:103830002020FEF77DBD80B51F20FEF779FD012811
:1038400001D1012002BD002002BD704780B50021DA
:103850000D20FEF783FD032002490870024803494A
:10386000486101BDCC0D00206B370008EC0C002036
:103870000649884202D1064800680047704703485D
:1038800001F0E5BF0348024908607047F40B0020CF
:10389000E40D0020DB18000810B5002404E00C49FA
:1038A00051F820008047641C2046C0B20828F6DB8F
:1038B00010BD0020074A064B02E043F82120401CBF
:1038C0000146C9B20829F8DB03480449086070477B
:1038D000EC0C0020DB18000899380008E40D0020EB
:1038E00001210148FFF766BE00000240704730B476
:1038F000002513E050F8042BD30744BFA9F10103BE
:103900009A18091F042942F8045BFAD213468C075F
:1039100044BF15809B1CC90748BF1D7050F8041B8D
:103920000029E7D130BC704702464FF400410448FB
:10393000FFF748BE00224FF400410148FFF742BEA6
:10394000000C024002464FF400510448FFF73ABE13
:1039500000224FF400510148FFF734BE000C024032
:1039600002464FF480510448FFF72CBE00224FF46A
:1039700080510148FFF726BE000C024002464FF47A
:1039800080410448FFF71EBE00224FF480410148E9
:10399000FFF718BE000C02400020FFF7C5BF002053
:1039A000FFF7C2BF0020FFF7CDBF0020FFF7CABF5F
:1039B0000020FFF7D5BF0120FFF7E0BF0020FFF791
:1039C000DDBF0020FFF7DABF10B5184C6068401C5F
:1039D000606014281CD300206060FFF781FF01287D
:1039E000A0680AD10A2813D0401CA0600A280FD36F
:1039F00001202070A070607010BD002808D0401E0B
:103A0000A06005D1012020700020A070012060700E
:103A100010BD064800210180022181700021416013
:103A2000052181600248034908607047AC0D002001
:103A3000C9390008EC0C002010B5504C606A401CDD
:103A4000606214283FD300206062A06A205C0028D6
:103A500004D00121002002F003FA03E0002108460F
:103A600002F0FEF9A06A2044007A002804D0012167
:103A7000084602F0F5F903E00021012002F0F0F918
:103A8000A06A2044007C002804D00121022002F01A
:103A9000E7F903E00021022002F0E2F9A06A2044E5
:103AA000007E002804D00121032002F0D9F903E0B0
:103AB0000021032002F0D4F9A06A401CA06208286B
:103AC00001D30020A06210BD10B52C4CE06A401C50
:103AD000E06214283FD30020E062206B2044007E87
:103AE000002804D00121002002F0BAF903E00021EF
:103AF000084602F0B5F9206B2044007C002804D071
:103B00000121084602F0ACF903E00021012002F097
:103B1000A7F9206B2044007A002804D0012102205C
:103B200002F09EF903E00021022002F099F9206BD7
:103B3000205C002804D00121032002F091F903E069
:103B40000021032002F08CF9206B401C2063082820
:103B500001D3002020634FF400610948FFF72AFDDC
:103B6000002804D10020206206480749C86110BD22
:103B700006480549C86170470000000000000020A9
:103B800000080240393A0008EC0C0020C93A00084D
:103B90000021234801F071B980B50346224A002173
:103BA0001F4801F0DBF8401E8041C00F02BD10B578
:103BB0001C4C2060226104F140030A46214618484B
:103BC00001F060F8401E8041C043C00F10BD10B529
:103BD0001448002141608160C160017542F260417A
:103BE00081610021C1610162416281620D21C16276
:103BF00000210163012141638163094C00F1180137
:103C0000204600F096FF002801D0012010BD20467C
:103C100001F007F8401E8041C043C00F10BD0000F6
:103C2000740C0020B00B00200C0D002010B50446D1
:103C300004220121002002F06BF904E0042201219A
:103C4000002002F065F90006F8D444F0040422468E
:103C500001210020BDE8104002F05AB938B50446F1
:103C60000D4604220121002002F052F904E0042252
:103C70000121002002F04CF90006F8D404F00B04F6
:103C8000234601220021284601B0BDE8304002F061
:103C90006DBA10B53E210220FFF7E0FFC0210220DF
:103CA000FFF7DCFFB8210220FFF7D8FF40210220F8
:103CB000FFF7D4FF3F210220FFF7D0FF3E21012074
:103CC000FFF7CCFFC0210120FFF7C8FFB82101207A
:103CD000FFF7C4FF40210120FFF7C0FF3F21012073
:103CE000FFF7BCFF002003460AE0DFF82C4304EB9B
:103CF000C0046354521C1146C9B20829F5DB401CAC
:103D0000802801DA1A46F6E710BD2DE9F84F8946FA
:103D10000246DFF8041301EBC2074C462146C910E6
:103D200000917B5C214601250E46B61001EB5676CC
:103D3000F610A1EBC6018D4045EA03018B4240D04D
:103D4000402A03DB4FF00108403801E04FF0020841
:103D500040F04000064608F0030A3146C9B250461A
:103D6000FFF77CFF4FEAD90949F0B80949465046A8
:103D7000FFF774FF48F00C0B5846FFF757FF31462A
:103D8000C9B25046FFF76AFF49465046FFF766FF43
:103D90005846FFF74BFF83463146C9B25046FFF7FE
:103DA0005DFF49465046FFF759FF45EA0B05294696
:103DB00000983954C9B248F008084046BDE8F44FAD
:103DC0004CE7BDE8F18F2DE9F84F0E460146DFF8CC
:103DD000482202EBC10734462246D2100092BB5C57
:103DE00022464FF001081546AD1002EB5575ED1057
:103DF000A2EBC50208FA02F842461D4682F0FF0215
:103E00001A40954240D0402903DB4FF00909403861
:103E100001E04FF00A0940F04000054609F0030AAE
:103E20002946C9B25046FFF719FFF60846F0B80612
:103E300031465046FFF712FF49F00C0B5846FFF78A
:103E4000F5FE2946C9B25046FFF708FF31465046F5
:103E5000FFF704FF5846FFF7E9FE83462946C9B23B
:103E60005046FFF7FBFE31465046FFF7F7FE88F05D
:103E7000FF080BEA0808414649F008094846FFF7E1
:103E8000EDFE009807F80080BDE8F18F2DE9F047BE
:103E90001F46A0F120056DB23846032800D19300DB
:103EA000052804D1104600EB40035B001B1D38467B
:103EB000072801D1D20013461E46F6B2402E03DB7E
:103EC0004FF00908403B01E04FF00A080C4608F0AB
:103ED000070943F040031946C9B24846FFF7BEFE42
:103EE00044F0B8014846FFF7B9FE384603281CD114
:103EF0004FF0000A16E0DFF8240105EB4501084405
:103F000010F80A90494648F00800FFF7A7FEDFF8CE
:103F100008010AEB060100EBC100214600F8019000
:103F20000AF1010ABAF1030FE5DB384605281CD176
:103F30004FF0000A16E0DFF8E80005EB85010844C1
:103F400010F80A90494648F00800FFF787FEDFF8AE
:103F5000C8000AEB060100EBC100214600F8019001
:103F60000AF1010ABAF1040FE5DD072F1AD14FF06B
:103F7000000914E0DFF8AC00C5EBC501084410F8F7
:103F80000970394648F00800FFF768FE224809EB3F
:103F9000060100EBC1002146475409F10109B9F1BE
:103FA000060FE7DDBDE8F087F8B504460D46164676
:103FB000304603280DD1002709E003233846024686
:103FC000D2B22946C9B2E05DFFF760FF7F1C202F07
:103FD000F3DB304605280DD1002709E005233846DC
:103FE0000246D2B22946C9B2E05DFFF74FFF7F1CFF
:103FF000142FF3DB072E0DD1002609E007233046EE
:104000000246D2B22946C9B2A05DFFF73FFF761C37
:10401000102EF3DBF1BD00009805002034000020D5
:10402000F8000020E002002038B52DED048BB0EE42
:10403000408AF0EE608AB0EE419AF0EE619A044652
:1040400051EC180B0022134602F00EFA2AD851EC5C
:10405000190B02F009FA25D8DFF8703402F01CFAC7
:1040600020D251EC180BDFF8783402F015FA19D28F
:1040700002F02AFA054651EC190B02F025FAE4B2D7
:10408000012C0146C9B22846C0B205D1BDEC048B53
:10409000BDE83440FFF739BEBDEC048BBDE83440C9
:1040A000FFF791BEBDEC048B31BDF8B52DED0E8B45
:1040B000B0EE408AF0EE608AB0EE419AF0EE619A7E
:1040C000B0EE42BAF0EE62BAB0EE43CAF0EE63CAA6
:1040D000044651EC190B53EC1C2B02F013FA41EC83
:1040E0001A0B51EC180B53EC1B2B02F00BFA41ECA2
:1040F000100B53EC102B02F077FA06460F4653ECE8
:104100001A2B51EC1A0B02F06FFA32463B4602F0C2
:104110003DFB41EC100B02F0F7FBB0EE40AAF0EED5
:1041200060AA51EC1B0B53EC182B02F0EBF953EC8B
:104130001A2B02F06BFC41EC1B0B51EC1C0B53ECEB
:10414000192B02F0DFF953EC1A2B02F05FFC41EC63
:104150001C0B002527E02046C0B2044651EC1D0B85
:1041600053EC1C2B02F040FA53EC192B02F00EFB1F
:1041700041EC110BB0EE41EAF0EE61EA51EC1D0B9F
:1041800053EC1B2B02F030FA53EC182B02F0FEFA22
:1041900041EC100B2046B0EE4E1AF0EE6E1AFFF70F
:1041A00043FF6D1CEDB2284602F054FD41EC1D0B9F
:1041B000B0EE4A0AF0EE6A0A02F05AFD51EC100B1A
:1041C00053EC1D2B02F050F9C5D9BDEC0E8BF1BD9F
:1041D0002DE9F0472DED028B92461E46044604EB76
:1041E0000A02521E812A02DBC0F17F0082460D4680
:1041F000A819401E402802DBC1F13F010E46A0462F
:104200000A9F1CE0484602F067FD41EC110BB0EE3E
:10421000418AF0EE618A404602F05EFD41EC100BEF
:104220003846B0EE481AF0EE681AFFF7FDFE09F1C5
:10423000010955FA86F08145E4DB08F1010854FADA
:104240008AF0804501DAA946F3E7BDEC028BBDE8B0
:10425000F087000070B504460025032806D8DFE883
:1042600000F0020402047F2500E04025002646E01D
:10427000C6F13F0002F030FD41EC110B0120B0EE21
:10428000413AF0EE613A9FED942B9FED960BFFF7CC
:104290000CFFC6F13E0002F01FFD41EC110B0120A6
:1042A000B0EE413AF0EE613A9FED8B2B9FED8D0B16
:1042B000FFF7FBFE21E0C6F17F0002F00DFD41ECAF
:1042C000100B01209FED823BB0EE402AF0EE602AF9
:1042D0009FED841BFFF7E9FEC6F17E0002F0FCFCB7
:1042E00041EC100B01209FED7A3BB0EE402AF0EE3E
:1042F000602A9FED7C1BFFF7D8FEB61CF6B2AE42DB
:104300004BDA20460328F8D8DFE800F0052604033E
:10431000F3E7ADE7CFE7304602F09CFC41EC100B31
:1043200001209FED6B3BB0EE402AF0EE602A9FED3E
:104330006D1BFFF7BAFE701C02F0CEFC41EC100BB7
:1043400001209FED633BB0EE402AF0EE602A9FED26
:10435000651BFFF7AAFED0E7304602F07BFC41EC7C
:10436000110B0120B0EE413AF0EE613A9FED5A2B6D
:104370009FED5C0BFFF799FE701C02F0ADFC41EC69
:10438000110B0120B0EE413AF0EE613A9FED522B55
:104390009FED540BFFF789FEAFE7002646E0C6F11C
:1043A0003F0002F099FC41EC110B0020B0EE413AC5
:1043B000F0EE613A9FED482B9FED4A0BFFF775FE3B
:1043C000C6F13E0002F088FC41EC110B0020B0EE7B
:1043D000413AF0EE613A9FED402B9FED420BFFF723
:1043E00064FE21E0C6F17F0002F076FC41EC100B88
:1043F00000209FED373BB0EE402AF0EE602A9FEDA3
:10440000391BFFF752FEC6F17E0002F065FC41EC5D
:10441000100B00209FED2E3BB0EE402AF0EE602AFC
:104420009FED301BFFF741FEB61CF6B2AE424BDAF1
:1044300020460328F8D8DFE800F005260403F3E758
:10444000ADE7CFE7304602F005FC41EC100B002051
:104450009FED1F3BB0EE402AF0EE602A9FED211B3E
:10446000FFF723FE701C02F037FC41EC100B00201C
:104470009FED173BB0EE402AF0EE602A9FED191B2E
:10448000FFF713FED0E7304602F0E4FB41EC110BDE
:104490000020B0EE413AF0EE613A9FED0F2B9FED18
:1044A000110BFFF702FE701C02F016FC41EC110B21
:1044B0000020B0EE413AF0EE613A9FED072B9FED00
:1044C000090BFFF7F2FDAFE770BD000000005040A0
:1044D00000000000000050400000000000006040AC
:1044E00000006040000000000000000080B50B48A4
:1044F000016841F400710160016841F4806101606C
:10450000016841F480710160032002F050FC00203A
:1045100002F06CFC02F08EFC002002BD003C024068
:1045200062F30F2262F31F4200B500BF13009646EC
:104530009446103928BFA0E80C50FAD85FEA417CB5
:1045400028BF0CC048BF40F8042BC90728BF20F87B
:10455000022B48BF00F8012B00BD00002DE9FC41F3
:10456000040016D0B34D2078C0074CD5A86800F0E1
:104570000C00042807D0A86800F00C0008280AD115
:104580006868400207D5286880033CD56068002829
:1045900039D101204BE16068B0F5803F04D1286833
:1045A00040F48030286012E0B0F5A02F286807D1D1
:1045B00040F480202860286840F48030286006E0BD
:1045C00020F480302860286820F48020286060680B
:1045D00000280CD002F012FD06462868800312D491
:1045E00002F00CFD801B6528F7D303201FE102F0C9
:1045F00005FD06462868800305D502F0FFFC801BF8
:104600006528F7D3F1E72078800718D5A86810F05F
:104610000C0F07D0A86800F00C00082824D16868A7
:10462000400221D42868800702D5E0680128B0D173
:10463000286820F0F800216940EAC100286020784D
:10464000000747D57C496069002835D00120086003
:1046500002F0D4FC0646686F80073BD402F0CEFC23
:10466000801B0228F7D9C0E77449E068002815D0FC
:104670000120086002F0C2FC06462868800705D4C5
:1046800002F0BCFC801B0228F7D9AEE7286820F0B6
:10469000F800216940EAC1002860D0E700200860E6
:1046A00002F0ACFC064628688007C8D502F0A6FCDC
:1046B000801B0228F7D998E70020086002F09EFCD2
:1046C0000646686F800705D502F098FC801B02281B
:1046D000F7D98AE72078400763D50026286CC00008
:1046E0000BD430460090286C40F080502864286C31
:1046F00000F08050009000980126514F3868C005A6
:1047000010D4386840F48070386002F077FC80463E
:104710003868C00506D402F071FCA0EB080002283E
:10472000F6D962E7A068012804D1286F40F00100A3
:10473000286711E00528286F07D140F0040028679A
:10474000286F40F00100286706E040084000286715
:10475000286F20F004002867A06800280DD002F020
:104760004DFC0746286F800715D402F047FCC01B9C
:1047700041F289318842F5D337E702F03FFC074622
:10478000286F800707D502F039FCC01B41F2893140
:104790008842F5D329E7012E03D1286C20F0805000
:1047A0002864A069002841D0A96801F00C010829FB
:1047B0003FF4EFAE214E02282AD10020306602F0ED
:1047C0001DFC07462868800105D502F017FCC01BB8
:1047D0000228F7D909E7E069216A0843616A40EADB
:1047E0008110A16A4908491E40EA0140E16A40EA95
:1047F000016068600120306602F000FC0446286811
:10480000800113D402F0FAFB001B0228F7D9ECE672
:104810000020306602F0F2FB04462868800105D5CE
:1048200002F0ECFB001B0228F7D9DEE60020BDE811
:10483000F68100BF00380240800E47420000474228
:10484000007000402DE9F04104460F46002C5BD07B
:104850004C4E306800F00F00B84205D23770306817
:1048600000F00F00B8424FD12068474D810712D5A4
:10487000400703D5A86840F4E050A86020780007FE
:1048800003D5A86840F46040A860A96821F0F00151
:10489000A0680143A9602078C0072AD56068012874
:1048A00003D1296889030BD42EE0022801D0032804
:1048B00003D12968890103D426E02968890723D513
:1048C000A968890850EA8100A86002F097FB804639
:1048D000A86800F00C006168B0EB810F09D002F00D
:1048E0008DFBA0EB080041F289318842F0D3032010
:1048F0002DE0306800F00F00874207D23770306833
:1049000000F00F00B84201D0012020E020784007DD
:1049100005D5A96821F4E051E0680143A960207839
:10492000000706D5A86820F46040216940EAC1006C
:10493000A86000F033F81549AA68C2F30312895C35
:10494000C84013490860002002F050FA0020BDE87A
:10495000F0810F480068704780B5FFF7FAFF0E49F5
:104960000C4A1268C2F38222895CC84002BD80B53D
:10497000FFF7EFFF0849074A1268C2F34232895C29
:10498000C84002BD003C0240003802402C750008BF
:1049900094050020083802408C79000810B5154CA9
:1049A000606800F00C00042802D0082802D01EE045
:1049B000114810BD226802F03F0200232068400227
:1049C0002068C0F3881005D50B49A1FB000102F057
:1049D0001BFB04E00949A1FB000102F015FB216863
:1049E000C1F30141491C4900B0FBF1F010BD03487F
:1049F00010BD00BF0438024000127A000024F40009
:104A000038B5040001D1012032BD94F820000028FF
:104A100002D1204602F02AFA2068016821F0020142
:104A2000016002F0EBFA05462068416889070DD560
:104A300002F0E4FA401B0B28F6D3606A40F4003021
:104A40006062052084F82000012032BD016841F039
:104A50000101016002F0D2FA054620684168C907E9
:104A60000DD402F0CBFA401B0B28F6D3606A40F459
:104A700000306062052084F82000012032BD217ED4
:104A80000129016803D141F08001016002E021F0B9
:104A9000800101602068617E0129016803D141F035
:104AA0004001016002E021F0400101602068A17E28
:104AB0000129016803D141F02001016002E021F0E9
:104AC000200101602068E17E0129016803D121F005
:104AD0001001016002E041F0100101602068217FB7
:104AE0000129016803D141F00801016002E021F0D1
:104AF000080101602068617F0129016803D141F04C
:104B00000401016002E021F004010160A168E06895
:104B1000014320690143606901436068401E01430D
:104B20002068C16100206062012084F8200000201C
:104B300032BDF0B490F82020012A01D0022A69D1B8
:104B40004E4A106840F001001060106820F47C505C
:104B5000106010684B6A40EA0320106001200B7D52
:104B600003F01F0300FA03F3DC43D0692040D06157
:104B7000C869002816D1D0682040D060404800F5B0
:104B800010754E69CF68D1F804C0CCEA074745F8E4
:104B9000367000F511704D698E680F68C7EA0646D9
:104BA00040F83560C869012816D1D0681843D06034
:104BB000334800F510754E690F68D1F804C0CCEA8F
:104BC000074745F8367000F511704D698E68CF685B
:104BD000C7EA064640F8356088690028506802D167
:104BE0002040506001E01843506008690028506977
:104BF00002D10440546101E018435061086A012861
:104C000002D1D0690343D3611068400840001060AE
:104C1000002004E0416A41F4802141620120F0BC9F
:104C2000704738B5044694F8200001281FD10220AF
:104C300084F820002068016849084900016002F0FA
:104C4000DDF9054620684068C0070DD502F0D6F9A9
:104C5000401B0B28F6D3606A40F4003060620520E8
:104C600084F82000012032BD0020606232BD606AFD
:104C700040F400206062012032BD00000066004068
:104C800000640040F0B490F820400568AD68012C45
:104C900001D0022C5BD115F0E05F52D0C5F3016466
:104CA000032C05D3416A41F400014162012053E025
:104CB0000125A5401D60036803F5C0752401CE6879
:104CC0008B68002B04D10B6846EA43562E5104E052
:104CD0004F6843EAC7031E432E510B69056805F56B
:104CE000C2752B51097D012906D1016801F5C271F8
:104CF0000B5943F480730B51D17993791B0443EA28
:104D00000163517943EA012311790B43016821447E
:104D1000C1F88C31D17893781B0443EA0163517850
:104D200043EA012311780B4301682144C1F888311B
:104D3000006800F5C070015941F0010101510020E7
:104D40000AE0416A41F400114162012004E0416A35
:104D500041F4802141620120F0BC704770B490F8AA
:104D60002040012C02D0022C40F0808004680029F1
:104D700009D1E56815F0030F0FD1416A41F4001124
:104D80004162012077E0256915F0030F05D1416AE2
:104D900041F40011416201206DE00D0104F5D87469
:104DA000645904F004049460066806F5D876002C73
:104DB000745902D1640D146001E0E4085460046881
:104DC00004F5D8746459C4F34004D46004682C44D6
:104DD000D4F8B44104F00F04146104682C44D4F8EE
:104DE000B441C4F30724946104682C44D4F8B4415A
:104DF000240C546102682A44D2F8B8211A7002685F
:104E00002A44D2F8B821120A5A7002682A44D2F809
:104E1000B821120C9A7002682A44D2F8B821120EF6
:104E2000DA7002682A44D2F8BC211A7102682A4456
:104E3000D2F8BC21120A5A7102682A44D2F8BC2165
:104E4000120C9A7102682A44D2F8BC21120EDA714F
:104E50000068002904D1C16841F02001C16003E06D
:104E6000016941F020010161002004E0416A41F440
:104E700080214162012070BC70470246002092F8F8
:104E80002030012B01D0022B09D11068002903D159
:104E9000C06800F003007047006900F0030070472D
:104EA000F8B5040025D004F13C056878002804D149
:104EB00000202870204602F00CF82420687020683A
:104EC0000168490849000160FFF746FD0146DFF827
:104ED00000256068904205D2DFF8F80481428041E5
:104EE000C00F04E0DFF8F00481428041C00F0128C8
:104EF00001D10120F2BDDFF8E404B1FBF0F320683A
:104F00004668B60953EA861646602668376A6068BE
:104F1000904201D25B1C07E04FF4967043434FF47C
:104F20007A70B3FBF0F35B1CBF0953EA871333625B
:104F30002368DE696768491E974209D27F00B1FB8A
:104F4000F7F1491CC1F30B0104292ED204212CE0F6
:104F5000A068002807D107EB4702B1FBF2F2521C10
:104F6000C2F30B0208E019227A43B1FBF2F2521CA1
:104F7000C2F30B0242F48042120501D1012114E078
:104F8000002807D107EB4707B1FBF7F1491CC1F334
:104F90000B0108E019204743B1FBF7F1491CC1F3AD
:104FA0000B0141F4804141F40041DFF83404064034
:104FB0000E43DE6121680A6822F0C002E069024304
:104FC000206A02430A6021688A68DFF818040240F8
:104FD00020690243E06802438A602168CA68120AB5
:104FE000A3696069034353EA0222CA60206801682A
:104FF00041F00101016000206860202068700020FD
:105000002063A870F2BD2DE9FC470646884691460C
:105010009A4601F0F3FF044606F13C077878202811
:1050200040F08C80009419230122DFF8BC13304635
:1050300000F0B8FA002840F08180387801287DD04F
:105040000120387030680168C90703D4016841F055
:10505000010101600A9D3068016821F4006101606E
:10506000212078701020B87000207860C6F8249055
:10507000A6F82AA0708D3085DFF87003F062234611
:105080002A464146304600F0B5F9002840D10020BC
:105090000090306841690091806900900098308DDF
:1050A000002840D022462946304600F014FB002854
:1050B00030D1706A007831680861706A401C706293
:1050C000708D401E7085308D401E308531684A6974
:1050D00052070ED580B200280BD0706A00780861A4
:1050E000706A401C7062708D401E7085308D401E4D
:1050F000308522462946304600F018FB0028CED0E5
:105100007868042804D13068016841F400710160B6
:10511000012014E078680428FAD13068016841F46D
:1051200000710160F4E73068016841F400710160CA
:10513000202078700020B870387000E00220BDE8B0
:10514000F6872DE9FC470646884691469A4601F0C7
:1051500055FF044606F13C077878202840F0358159
:10516000009419230122DFF88012304600F01AFA69
:10517000002840F02A813878012800F0268101209B
:10518000387030680168C90703D4016841F0010133
:1051900001600A9D3068016821F4006101602220ED
:1051A00078701020B87000207860C6F82490A6F8B7
:1051B0002AA0708D3085DFF83402F06223462A463B
:1051C0004146304600F067F9002840F0D780308D26
:1051D000316800280BD10020009048690090886950
:1051E00000900098086840F40070086047E00128CB
:1051F00010D1086820F480600860002000903068BA
:1052000041690091816900910099016841F4007140
:10521000016034E00228086810D120F48060086042
:105220003068016841F4006101600020009030683E
:105230004169009180690090009820E040F480600E
:1052400008600020009030684169009180690090FA
:10525000009814E022462946304600F092FA0028D1
:1052600040F08C8030680069716A0870706A401C78
:105270007062308D401E3085708D401E7085308D7F
:10528000002800F09C800146042970D20128E1D05A
:10529000DFF85C81022800942B4626D1002241468B
:1052A000304600F07FF9002868D13068016841F489
:1052B0000071016030680069716A0870706A401C92
:1052C0007062308D401E3085708D401E7085306854
:1052D0000069716A0870706A401C7062308D401EEF
:1052E0003085708D401E7085C9E7002241463046EA
:1052F00000F058F9002841D13068016821F480613C
:10530000016030680069716A0870706A401C7062E0
:10531000308D401E3085708D401E708500942B4668
:1053200000224146304600F03DF9002826D1306881
:10533000016841F40071016030680069716A0870A9
:10534000706A401C7062308D401E3085708D401E2A
:10535000708530680069716A0870706A401C7062FC
:10536000308D401E3085708D401E708587E7224647
:105370002946304600F005FA002801D0012025E03A
:1053800030680069716A0870706A401C7062308D04
:10539000401E3085708D401E708530684169490718
:1053A0007FF56DAF0069716A0870706A401C7062A9
:1053B000308D401E3085708D401E70855FE7202047
:1053C00078700020B870387000E00220BDE8F687E1
:1053D000A186010080841E0000093D0040420F00AC
:1053E0000030FFFF007CFFFF020010000000FFFF05
:1053F00004000100F8B504460D4616461F46E06A53
:10540000082804D0012802D06349884205D12068C9
:10541000016841F48071016007E0206B122804D11B
:105420002068016841F480710160009733460022D2
:105430004FF00111204600F0B5F8002801D00120FE
:10544000F2BD20682169B1F5804F03D105F0FE055A
:10545000056114E02946C90901F0060141F0F00197
:1054600001613B463246DFF83411204600F0DCF89B
:10547000002801D00120F2BDEDB2206805613B4655
:105480003246DFF81C11204600F0CEF8401E804165
:10549000C043C00FF2BD2DE9FC4104460F4615463E
:1054A0001E46E06A21680A6842F480620A600828A1
:1054B00004D0012802D03849884205D1206801680B
:1054C00041F48071016007E0206B112804D120684D
:1054D000016841F48071016000962B4600224FF074
:1054E0000111204600F05EF8002801D0012051E0B3
:1054F00020682169B1F5804F04D147F00107FFB260
:1055000007613DE0B8464FEAD81808F0060848F0B1
:10551000F001016133462A46DFF88010204600F092
:1055200083F8002801D0012034E0FFB22068076131
:1055300033462A46DFF86810204600F075F8002848
:1055400001D0012026E000200090206841690091F0
:10555000816900910099016841F4807101600096B1
:105560002B4600224FF00111204600F01BF80028C6
:1055700001D001200EE048F0F1082068C0F810804A
:1055800033462A460649204600F04EF8401E804128
:10559000C043C00FBDE8F6810000FFFF0800010016
:1055A000020001002DE9F04105460E4617461C4653
:1055B000DDF8188028683146090CC9B2012909D1E3
:1055C0004069304080B2B1B2884201D101200AE086
:1055D000002008E08069304080B2B1B2884201D139
:1055E000012000E00020394688421AD114F1010F51
:1055F000E0D001F003FDA0EB0800844201D3002CB1
:10560000D8D10020286305F13C0020214170002101
:105610008170416841F0200141600021017001204A
:1056200000E00020BDE8F081F8B505460E461446BE
:105630001F4628683146090CC9B2012909D14169C0
:10564000314089B2B2B2914201D101210AE0002178
:1056500008E08169314089B2B2B2914201D10121A1
:1056600000E00021002934D14169490517D50168BE
:1056700041F4007101606FF4806029684861002086
:10568000286305F13C0020214170002181704168B0
:1056900041F004014160002101700120F2BD14F1CC
:1056A000010FC6D001F0AAFCC01B844201D3002C1C
:1056B000BFD10020286305F13C002021417000216A
:1056C0008170416841F0200141600021017001209A
:1056D000F2BD0020F2BD70B505460C46164628689E
:1056E0004069000620D4284600F080F8002801D048
:1056F000012070BD14F1010FF1D001F07FFC801B7F
:10570000844201D3002CEAD10020286305F13C003B
:105710002021417000218170416841F020014160E9
:1057200000210170012070BD002070BD70B50546DC
:105730000C46164628684069400720D4284600F0E9
:1057400055F8002801D0012070BD14F1010FF1D0EF
:1057500001F054FC801B844201D3002CEAD10020CC
:10576000286305F13C0020214170002181704168CF
:1057700041F02001416000210170012070BD002036
:1057800070BD70B505460C46164628684169490645
:105790002AD44169C90616D401F030FC801B84422A
:1057A00001D3002CF1D10020286305F13C00202119
:1057B000417000218170416841F020014160002169
:1057C0000170012070BD6FF010014161002028635D
:1057D00005F13C0020214170002181704168416049
:1057E00000210170012070BD002070BD01684A6970
:1057F000520511D56FF480624A61002101633C308B
:105800002021417000218170416841F00401416014
:1058100000210170012070470020704738B5040056
:1058200001D1012032BD04F13C056878002804D183
:1058300000202870204601F080FB02206870211DA6
:10584000206800F0BEF801206870002032BD0168B9
:10585000CA6842F00102CA600068816801F007016D
:10586000062903D0016841F0010101600020704762
:1058700010B5044620680169890717D5C1688907F2
:1058800014D56FF002010161012020772068806942
:1058900010F0030F204602D001F0CEFC04E001F02E
:1058A000CCFC204601F0CAFC00202077206801696A
:1058B000490717D5C168490714D56FF00401016184
:1058C000022020772068806910F4407F204602D0B3
:1058D00001F0B2FC04E001F0B0FC204601F0AEFCA7
:1058E0000020207720680169090717D5C1680907DA
:1058F00014D56FF008010161042020772068C06989
:1059000010F0030F204602D001F096FC04E001F0F5
:1059100094FC204601F092FC002020772068016969
:10592000C90617D5C168C90614D56FF01001016109
:10593000082020772068C06910F4407F204602D0FC
:1059400001F07AFC04E001F078FC204601F076FCDE
:105950000020207720680169C90708D5C168C907F8
:1059600005D56FF0010101612046FDF781FF206838
:105970000169090608D5C168090605D56FF08001DF
:105980000161204601F05BFC20680169490608D5E9
:10599000C168490605D56FF040010161204601F05C
:1059A0004FFC2068016989060AD5C168890607D5B8
:1059B0006FF0200101612046BDE8104001F041BCBC
:1059C00010BD10B40468DFF8AC30984212D0B0F1CA
:1059D000804F0FD0DFF8A02090420BD0DFF89C2042
:1059E000904207D0DFF89820904203D0DFF894204F
:1059F000904203D124F070044A681443984220D0A6
:105A0000B0F1804F1DD01C4A90421AD01B4A9042E0
:105A100017D01B4A904214D01A4A904211D01A4A09
:105A200090420ED0194A90420BD0194A904208D0A9
:105A3000184A904205D0184A904202D0174A904224
:105A400003D124F44074CA68144324F080044A69E2
:105A5000144304608A68C2620A688262984202D073
:105A6000084A904201D1096901630121416110BCDA
:105A700070470000000001400004004000080040A2
:105A8000000C00400004014000400140004401407F
:105A90000048014000180040001C00400020004069
:105AA00070B400F13C031A78012A01D1022015E0FC
:105AB00001221A7002225A7004686568A66826F0EE
:105AC00080064A68164325F0700509680D43656035
:105AD00000688660012058700020187070BC704704
