:020000040800F2
:10000000001E00201174000855740008597400087F
:100010005D74000861740008657400080000000049
:1000200000000000000000000000000069740008EB
:100030006D7400080000000071740008317400083D
:1000400075740008797400087D74000881740008D4
:1000500085740008897400088D7400089174000884
:1000600095740008997400089D740008A174000834
:10007000A5740008A9740008AD740008B1740008E4
:10008000B5740008B9740008BD740008C174000894
:10009000C5740008C9740008CD740008D174000844
:1000A000D5740008D9740008DD740008E1740008F4
:1000B000E5740008E9740008ED740008F1740008A4
:1000C000F5740008F9740008FD7400080175000853
:1000D00005750008097500080D7500081175000800
:1000E00015750008197500081D75000821750008B0
:1000F00025750008297500082D7500083175000860
:1001000035750008397500083D750008417500080F
:100110004575000849750008357400084D750008DC
:100120005175000855750008597500085D7500087F
:100130006175000865750008697500086D7500082F
:100140007175000875750008797500087D750008DF
:100150008175000885750008897500088D7500088F
:100160009175000895750008997500089D7500083F
:10017000A1750008A5750008A97500080000000019
:10018000AD750008B175000880B5DFF8380A01F0D8
:1001900096FCDFF8A00A01F075FC032001F056FD83
:1001A000012001F053FD022001F069FDDFF8880A0B
:1001B0000178012908D0DFF8841A91F85110DFF88E
:1001C000802A9278914221D1002101704078012843
:1001D00008D0DFF8680A90F85100DFF8641A8978CF
:1001E000884213D1022001F031FD0FF2C100DFF887
:1001F000B41A48600021084601F0A0FE0FF26D001D
:10020000DFF8A81BC8608BA001F03CFCDFF8980A5F
:10021000017801290CD1002101704078012807D113
:10022000022001F013FD0FF2B970DFF8801BC860E7
:10023000DFF8780A4178012917D1002141708078D0
:10024000012812D10FF6AD00DFF8581A886000219E
:10025000084601F073FE0FF2C570DFF8501BC8604E
:100260000220BDE8024001F0F1BC01BD80B5DFF81D
:10027000400A01F024FCDFF82C0A40688047DFF8D0
:10028000280A0178012910D1002101704078012845
:100290000BD1022001F0DAFC0121002001F04EFE1A
:1002A0000FF23D70DFF8041BC86001BD10B5DFF828
:1002B000B00A01F0F6FBDFF8EC49002020700120C5
:1002C00001F010FE00210D2001F038FE0121062072
:1002D00001F034FE0021072001F030FE022001F081
:1002E0006BFF0121022001F029FE0021012001F015
:1002F00025FE0121092001F021FE0121082001F045
:100300001DFE0FF20900606010BD000010B5DFF89F
:10031000A00A01F0C6FBDFF88C49E068401CE060F1
:100320004CF25031884208D3DFF8880A01F0AAFB6A
:10033000DFF8840ADFF8741AC860182001F0E8FDBD
:10034000002845D1172001F0E3FD012840D100210C
:10035000052001F0F3FD0121042001F0EFFD15203F
:1003600001F0D6FD012833D1132001F0D1FD012881
:100370002ED11A2001F0CCFD002829D1122001F045
:10038000C7FD002824D1112001F0C2FD00281FD193
:10039000192001F0BDFD00281AD10F2001F0B8FD91
:1003A000012815D1102001F0B3FD002810D101F073
:1003B000ACFD02280CD101F0A5FD012808D1DFF821
:1003C000AC0C01F06EFB0020E0600FF209006060F1
:1003D00010BD000010B5DFF8CC482069401C20613A
:1003E000B0F57A7F0AD3DFF8B40A01F04BFB0020A6
:1003F0002061DFF8C409DFF8B419C860082001F0F3
:1004000087FD012803D10021082001F097FD182065
:1004100001F07EFD01280CD10121082001F08EFDA4
:10042000DFF8EC0C01F03DFB002020610FF2090029
:10043000606010BD0000000010B5DFF8684860691A
:10044000401C606141F2707188420AD3DFF8CC0A27
:1004500001F018FB00206061DFF85C09DFF84C193F
:10046000C8606069B0F57A7FC0F0AD80122001F0FD
:100470004FFD01281ED1112001F04AFD002819D19D
:10048000192001F045FD012814D101202070DFF86A
:10049000900A01F0F7FA032001F0BFFB012001F000
:1004A000D5FB022001F0D2FB002060610FF2191091
:1004B000606010BD122001F02BFD01281ED111201B
:1004C00001F026FD002819D1192001F021FD002896
:1004D00014D102202070DFF8B00A01F0D3FA032013
:1004E00001F0CDFB012001F0B1FB022001F0AEFBD9
:1004F000002060610FF2D100606010BD122001F099
:1005000007FD01281ED1112001F002FD012819D19B
:10051000192001F0FDFC012814D103202070DFF820
:100520006C0A01F0AFFA032001F090FB012001F00A
:100530008DFB022001F071FB002060610FF2890049
:10054000606010BD122001F0E3FC00281ED11120D4
:1005500001F0DEFC002819D1192001F0D9FC002897
:1005600014D100202070DFF8AC0A01F08BFADFF81C
:10057000A80AC07BDFF8C41681F850000020606133
:10058000DFF83408DFF82418C86010BD042020709C
:10059000DFF8DC0A4078DFF8A816897888420BD0AB
:1005A000DFF8D00A01F06EFA00206061DFF8080879
:1005B000DFF8F817C86010BDDFF8FC0BC078BDE8A5
:1005C000104002F03CBA10BD80B5DFF8F40A01F02B
:1005D00068FA152001F09CFC01280DD101210520AD
:1005E00001F0ACFC0021042001F0A8FC0FF21D007A
:1005F000DFF8B016486001BDDFF8C80A01F042FA22
:10060000DFF8B407DFF8A417C86001BD10B5DFF844
:100610009446E069401CE06142F2107188420BD3BD
:10062000DFF8F00A01F02EFA0020A061E061DFF8A7
:100630008807DFF87817C860162001F069FC0128E8
:1006400033D1DFF8F80A01F01DFAA069401CA0615F
:1006500064282AD3DFF8180B01F014FA01F06BFCC0
:100660000C2810DD0FF6583001F00CFADFF8040BFF
:1006700001F008FA0020A061E061DFF83C07DFF834
:100680002C17C86010BD0FF6443001F0FBF90021B3
:10069000092001F053FC0FF6403001F002FA00206F
:1006A000A061E0610FF20500606010BD80B506201A
:1006B00001F02EFC012811D1132001F029FC0128A2
:1006C0000CD1142001F024FC002807D101210720BF
:1006D00001F034FC0021062001F030FC062001F07E
:1006E00017FC00281AD1132001F012FC002815D1A4
:1006F000142001F00DFC012810D10021072001F089
:100700001DFC0121062001F019FC0FF6DC2001F090
:10071000C8F90FF20D00DFF82C1B486001BD000086
:1007200010B5DFF88045206A401C206242F210714B
:1007300088420FD30121092001F000FCDFF87C0A78
:1007400001F0A0F90020206260620FF62D20DFF892
:10075000F81AC8601A2001F0DBFB01280ED1606A8C
:10076000401C6062B0F57A7F08D3022001F0BAFB2A
:100770000020206260620FF20900606010BD00007E
:1007800080B501F0C2FB02281CD101F0BBFB02289E
:1007900018D10121092001F0D1FB0021022001F034
:1007A000CDFB0121084601F0C9FB0021032001F027
:1007B000C5FB0FF6442001F074F90FF20D00DFF8CD
:1007C000841A486001BD000080B51D2001F0A0FB27
:1007D000002810D10121022001F0B0FB00210120EE
:1007E00001F0ACFB0FF6202001F05BF90FF20900DD
:1007F000DFF8501A486001BD10B5DFF8A844A06AC0
:10080000401CA06240F6B83188420AD3DFF83C0AA7
:1008100001F038F90020A0620FF65D10DFF8281A09
:10082000C8600F2001F074FB012825D12078012831
:1008300012D021D303280FD01ED2032001F052FB87
:10084000002819D00FF6D01001F02BF90020A0627B
:100850000FF22900606010BD042001F043FB002866
:100860000AD00020A0620FF2550060600FF6B810A9
:10087000BDE8104001F015B910BD000080B501F0D1
:1008800044FB022811D101F03DFB03280DD10121C9
:10089000084601F053FB0021022001F04FFB0FF24C
:1008A0004D00DFF80014486001BDDFF86C07007BE5
:1008B000DFF8881381F8500001BD000080B501F019
:1008C00024FB022810D101F01DFB04280CD10121CA
:1008D000084601F033FB0021022001F02FFB0FF24C
:1008E0000D00DFF86019486001BD000010B5DFF8A9
:1008F000B443102001F00CFB012846D16078002899
:1009000012D10121032001F019FB0021012001F087
:1009100015FB0021022001F011FBCC20C74981F812
:100920003B000120607010BD2078022813D1DFF851
:10093000E806007BDFF818194875DFF87C08C078F6
:1009400002F07DF80FF6601001F09CF80020607056
:10095000DFF8000960602078012801D0032816D153
:100960000FF6501001F08EF8E06A401CE06240F68D
:10097000A17188420BD300206070E062012001F079
:100980001BFC0FF20D00606010BD0020607010BDF8
:1009900070B5C44C206B401C206344F62161884232
:1009A0001CD300202063DFF8B058DFF86C66F07AC3
:1009B000A8712878BB2811D1DFF8FC07C07802F0B5
:1009C0003EF8CC202870307BA871CC2002F06BFA66
:1009D000CC2002F037FADFF87C08606070BD0000C0
:1009E00080B50FF6E80001F06AF8DFF8700801F052
:1009F00049F801F0BEFA9048017801290CD1002194
:100A000001704078012807D1022001F01FF9DFF8BA
:100A10005008DFF83418C86001BD000070B50FF64B
:100A2000B40001F04CF8002425462646112001F0C0
:100A30006FFA012800D10126122001F069FA01287D
:100A400000D10125192001F063FA012800D1012409
:100A50001A2001F05DFA012801D101242546002C5D
:100A600006D0022C08D00AD2022001F0D6F806E007
:100A7000022001F0EBF802E0022001F000F9002E64
:100A800006D0022E08D00AD2032001F0C6F806E0F4
:100A9000032001F0DBF802E0032001F0F0F8002D64
:100AA00006D0022D08D00AD2012001F0B6F806E0E7
:100AB000012001F0CBF802E0012001F0E0F87A48D3
:100AC000017801290FD100210170407801280AD155
:100AD000022001F0BBF80121002001F02FFADFF81D
:100AE0008407B249C860DFF85C0780688047BDE8CA
:100AF000704025E380B50FF2E47000F0D2FF0FF2F2
:100B0000EC7000F0BFFFDFF83C07416B491C41630C
:100B1000B1F57A6F0DD30FF231018160012001F040
:100B200095F8022001F092F80320BDE8024001F0A0
:100B30008DB8012001F071F8022001F06EF8032059
:100B4000BDE8024001F069B880B50FF2B07000F066
:100B5000A8FFDFF8140700F095FF37480178012956
:100B60000DD1002101704078012808D10FF2110049
:100B7000DFF8D01688600120BDE80240CCE201BD5C
:100B800010B5484CA06B401CA06340F63C718842F5
:100B900003D3DFF8D80600F075FF182001F0B8F98C
:100BA0000FF2687000F07DFF0021082001F0C6F907
:100BB000002000F0B1FA002802D00FF20D00A06072
:100BC00010BD0000086E000810B5364CE06B401CEC
:100BD000E06340F63C71884203D3DFF8940600F0EE
:100BE00051FF172001F094F90FF2307000F059FF17
:100BF0000121082001F0A2F9172001F089F901284C
:100C000016D1DFF8700600F03DFF0B48017801298E
:100C10000ED1002101704078012809D10FF2250082
:100C2000A060BDA000F02EFF0120BDE8104073E2DF
:100C300010BD0000D0720008E00D0020080B00205D
:100C4000D80C002010B5174C206C401C206440F6D6
:100C50003C71884208D3DFF8200600F013FF0FF242
:100C60001950DFF8E415C860162001F051F90FF2B1
:100C7000BC6000F016FF0021042001F05FF90121A3
:100C8000052001F05BF9002000F046FA002808D0AA
:100C9000002020640FF21D00A0600120BDE810407C
:100CA0003AE210BDA40A0020E40D0020B00D00209F
:100CB000106E000838B5DFF88C45606C401C60642D
:100CC000DFF8B85540F63C71884206D3284600F05C
:100CD000D9FE0FF2A5403549C860152001F018F97A
:100CE0000121042001F02AF90021052001F026F954
:100CF0000FF2446000F0D5FE05F1280000F0C2FEBE
:100D0000DFF87C050178012910D1002101704078BD
:100D100001280BD1084660640FF21500A0607EA088
:100D200000F0B0FE0120BDE83240F5E131BD000029
:100D300080B50FF2146000F0B4FE0021092001F02C
:100D4000FDF8002000F0E8F9002808D00FF21500A7
:100D5000DFF8F01488600120BDE80240DCE101BD4D
:100D60001C6E000880B50FF2F05000F09AFE0121D1
:100D7000092001F0E3F8DFF80C0500F083FEDFF84E
:100D800000050178012910D1002101704078012867
:100D90000BD10FF22900DFF8AC1488605EA000F0E0
:100DA00071FE0120BDE80240B6E101BDF00C00205B
:100DB000286E0008386E00087911000810B5DFF8B9
:100DC0008444A06C401CA06440F63C71884208D367
:100DD000DFF8B40400F056FE0FF29D30DFF868141F
:100DE000C860142001F094F80FF27C5000F059FE16
:100DF0000021062001F0A2F80121072001F09EF851
:100E0000002000F089F9002808D00020A0640FF22B
:100E10001100A0600120BDE810407DE110BD000080
:100E200038B5DFF82044E06C401CE064DFF858542B
:100E300040F63C71884207D3284600F023FE0FF2AB
:100E40003930DFF80414C860142001F061F80FF2A3
:100E5000285000F026FE0121062001F06FF8002145
:100E6000072001F06BF805F1240000F00BFEDFF81D
:100E700010040178012910D1002101704078012867
:100E80000BD10846E0640FF21900A06022A000F028
:100E9000F9FD0120BDE832403EE131BDF4720008A9
:100EA00080B50FF2E44000F0FCFD0021032001F0CA
:100EB00045F8002000F030F9002808D00FF21100AA
:100EC000DFF8801388600120BDE8024024E101BD05
:100ED00080B50FF2C04000F0E4FD0121032001F0D5
:100EE0002DF8DFF8A80300F0CDFDDFF894030178BA
:100EF000012910D100210170407801280BD10FF297
:100F00002500DFF84013886003A000F0BBFD01203E
:100F1000BDE8024000E101BD0000000018730008B8
:100F2000706E000810B5DFF81C43206D401C206572
:100F300040F63C71884208D3DFF8540300F0A2FD6C
:100F40000FF23520DFF80013C860102000F0E0FF3A
:100F50000FF24C4000F0A5FD0021022000F0EEFF52
:100F60000121084600F0EAFF002000F0D5F8002833
:100F700008D0002020650FF21900A0600120BDE814
:100F80001040C9E010BD0000846E0008986E000893
:100F900038B5DFF8B042606D401C6065DFF8F45290
:100FA00040F63C71884207D3284600F06BFD0FF2F3
:100FB000C910DFF89412C8600F2000F0A9FF0FF2EB
:100FC000F03000F06EFD0121022000F0B7FF00219B
:100FD000012000F0B3FF05F1280000F053FDDFF819
:100FE000A0020178012914D1002101704078012864
:100FF0000FD102F0BDF90FF22500A060012000F032
:1010000071FF0FF2B83000F03DFD0120BDE8324025
:1010100082E031BDAC6E0008C80C002010B50FF2A4
:10102000B43000F03EFD874CA06D401CA06547F237
:101030003051884207D30FF2AC3000F023FD0FF29D
:1010400039108149C8601F2000F062FF01280CD1CF
:101050000020A0650FF2AC3000F014FD0FF2190073
:10106000A060BDE8104002F057B910BD506E0008F6
:10107000580B0020C46E000810B5724CE06D401C87
:10108000E06547F23051884207D30FF2883000F014
:10109000F9FC0FF2E5006C49C8600FF2383000F03F
:1010A00000FD02F03DF9002808D00020E0650FF2B5
:1010B0001900A060BDE8104002F02AB910BD000080
:1010C000DC6E0008EC6E000810B55E4C206E401C13
:1010D000206647F23051884207D30FF2383000F0D3
:1010E000D1FC0FF295005849C8600FF2443000F06F
:1010F000D8FC02F015F9002809D0002020666648C7
:10110000A0600FF23C30BDE8104000F0BBBC10BD49
:10111000606E0008FC6F00086049002802D00020C3
:10112000086070470868B0F57A6F03D30020086044
:1011300001207047401C0860002070470C6F0008B9
:1011400010B5574C2068401C2060B0F57A7F03D161
:101150000121002000F0F2FE2068B0F5FA6F05D3FF
:101160000021084600F0EAFE0020206010BD0000CB
:10117000186F00082870000880B500F0FAFE0FF222
:10118000D42000F09CFC032000F060FD012000F062
:1011900076FD022000F05AFD42480168B1F57A7FE1
:1011A00006DA05DD40F2D172914201DB00210160D7
:1011B0000168491C016001BD680D002084710008B0
:1011C0004552524F52204144430000004E4558546E
:1011D0002053544550000000456A656374696F6E82
:1011E000426C6F6300000000417474656E64426C71
:1011F0006F63436875746500417474656E64417310
:10120000706972650000000056656E746F757365D5
:101210004D6F6E7465000000506F6E74566572738A
:10122000466F737365000000506F6E74566572737D
:101230004173630007480349486009480249C86090
:1012400070470000A40A0020F00C0020087200087B
:10125000430B0020AD020008520B0020B0710008C3
:1012600089010008E1090008DC7100083C730008EE
:10127000A4700008C870000830720008547000089C
:10128000E00D0020587200083C71000880720008D0
:1012900060730008F0700008F50A0008EC0D0020EB
:1012A000F00D0020F40D00205472692066696E690B
:1012B00021000000456E2064656C616920617661E3
:1012C0006E7420726573746172740000417272658D
:1012D00074000000546573747300000074657374C7
:1012E00020436F6C6F6E6E650000000046696E20D3
:1012F00064616E73203220736563000074657374DB
:1013000020456E7472656573000000004163742EA1
:1013100020566572696E204D61672E004465732EFC
:1013200020566572696E204D61672E004D6F6E7498
:101330006520456C65762E0044657363656E642098
:10134000456C65762E0000004163742E20436F6E5D
:10135000766F796575722E004465732E20436F6E2B
:10136000766F796575722E004163742E20456A652B
:1013700063746575722E00004465732E20456A659E
:1013800063746575722E000041637469766520414F
:10139000697200004465736163742E2041697200B4
:1013A00044657363656E642056656E7400000000CA
:1013B0004D6F6E74652056656E742E00546573749F
:1013C00020647520706F6E7420656E20636F757277
:1013D000730000004465706C6163652056656E742F
:1013E0002E0000004F757073212054696D656F7574
:1013F0007420696E697420706F6E742061747465F6
:10140000696E7400496E697420706F6E742066692D
:101410006E6900004F757073212054696D656F759A
:101420007420706F6E742061747465696E7421002D
:101430005265706C6163652056656E742E00000005
:10144000506F6E7420666F6E6374696F6E6E656C3C
:1014500000000000457272657572000080B501F0F1
:10146000A3FF01F0B8FF01F0D3FF01F0F5FF02F098
:1014700001F802F00DF802F019F802F022F802F07B
:1014800026F802F027F802F02EF802F054F800F0E7
:1014900009FC00F073FDBDE8014000F09FBE80B57F
:1014A00001F07FFF02F079F801F084FD02F0D7F837
:1014B000002002F0B5FBBDE80140FFF7BBBE70475E
:1014C0007CB5FFF7CBFF02F0F7FC00F0E0F800F08E
:1014D000AAF900F090F900F069F900F02DF900F098
:1014E00049F9FFF7DCFF012000F097FB022000F034
:1014F00094FB032000F091FB012000900223802246
:101500002B21002002F04AFB0120009002238022C0
:101510001B21002002F042FB0120009002238022C8
:101520000B21002002F03AFB052204210FF2246077
:1015300002F020FA052202210FF2306002F01AFABE
:10154000DFF8B445DFF8B46505E0052200210FF2AD
:10155000346002F00FFA01F024FF207D002840D013
:101560000020E07505461FE00523D2B207212020A8
:1015700002F072F90FE0282D0DDA2846A0F11402CE
:10158000E07D0028F0D10523D2B20721DFF87005F5
:10159000405D02F061F9DFF86805284440780028D2
:1015A00001D10120E0756D1C282D18DA142DE2DA26
:1015B000E07D00280AD1052328460246D2B2062142
:1015C000DFF83C05405D02F047F9E4E705232846D3
:1015D0000246D2B20621202002F03EF9DBE70020CD
:1015E0002075607D002820D00020E075054617E0BA
:1015F0000523D2B20221202002F02EF909E06A1D53
:10160000E07D0028F4D10523D2B20221605D02F012
:1016100023F960194078002801D10120E0756D1C84
:10162000681D1428EBDB00206075A07D002820D009
:101630000020E075054617E00523D2B204212020E2
:1016400002F00AF909E06A1DE07D0028F4D10523C3
:10165000D2B20421705D02F0FFF8701940780028C2
:1016600001D10120E0756D1C681D1428EBDB002002
:10167000A075DFF8900490F8540000283FF465AF9F
:10168000052200210FF2145002F074F963E780B5CF
:1016900092B00022302106A802F028FC002214217A
:1016A00001A802F023FC00200090DFF85C04016830
:1016B00041F080510160006800F080500090009877
:1016C00000200090DFF84404016841F4804101608B
:1016D000006800F4804000900098012006904FF4CC
:1016E0008030079002200C904FF480000D90042071
:1016F0000E90A8200F90022010900720119006A8AD
:1017000002F012FC002801D000F0E8F90F2001904F
:1017100002200290002003904FF4A05004904FF458
:1017200080500590052101A802F072FD002801D02B
:1017300000F0D4F913B000BD80B5DFF8D403DFF8B2
:10174000D4130160A821416000218160C1604FF481
:1017500000310161002141610176012141760021C2
:101760004183818302F032FE002802D0BDE80140AF
:10177000B4E101BD80B5DFF8A003DFF8A01301607C
:10178000DFF89C13416000218160C1604FF480410B
:101790000161002141618161C161016203F066F86C
:1017A000002802D0BDE8014098E101BD1CB500222F
:1017B0000821684602F09AFBDA4CDB4820600020E2
:1017C0006060A0604AF20F40E0600020A061204607
:1017D00003F00AFD002801D000F080F910200090ED
:1017E000002001906946204603F040FE002801D009
:1017F00000F074F913BD80B5CC48CD4901604FF4B9
:101800009641416000218160C16001610C2141610C
:1018100000218161C16103F049FE002802D0BDE8CA
:1018200001405BE101BD2DE9F04786B000221421A3
:10183000684602F05BFB00200590BE48016841F05D
:1018400010010160016801F0100105910599002166
:101850000591016841F004010160016801F0040193
:101860000591059900210591016841F08001016011
:10187000016801F080010591059900210591016839
:1018800041F001010160016801F001010591059934
:1018900000210591016841F002010160016801F039
:1018A00002010591059900210591016841F00801A7
:1018B0000160006800F00800059005989E4C002229
:1018C0004921204604F03EF89C4D0122114628464D
:1018D00004F038F89A4E0022E221304604F032F843
:1018E00047F63307DFF85C8200223946404604F0B1
:1018F00029F84FF6D079DFF850A200224946504629
:1019000004F020F84920009001200190002002906E
:1019100003906946204603F039FF4FF420500090B1
:101920000020019002906946284603F02FFF012015
:10193000009001900020029003906946284603F031
:1019400025FF0820009002200190002002900390C3
:10195000052004906946284603F018FF01200090F6
:101960007A480190002002906946304603F00EFF4D
:10197000E22000900120019000200290039069462F
:10198000304603F003FF1020009002200190002059
:1019900002900390062004906946304603F0F6FE5C
:1019A0000097012001900020029003906946404674
:1019B00003F0ECFE042000900020019002906946A4
:1019C000404603F0E3FE4FF47F400090002001907A
:1019D00002906946204603F0D9FE4FF480600090E3
:1019E0000220019000200290039005200490694697
:1019F000404603F0CBFECDF800900120019000207E
:101A0000029003906946504603F0C0FE4FF4A45084
:101A10000090022001900020029003900620049084
:101A20006946284603F0B2FE4FF400700090002093
:101A3000019002906946304603F0A8FE4FF4E05052
:101A40000090022001900020029003900A20049050
:101A50006946304603F09AFE202000900020019055
:101A600002906946504603F091FE022000903848EB
:101A70000190002002906946204603F087FE06B0E0
:101A8000BDE8F08701211C4A117500221C4B00E0C3
:101A9000521C282A04DA815C9954815C0029F7D110
:101AA0007047154A01215175002300E05B1C152B7E
:101AB00004DAC15CD154C15C0029F7D1704701211F
:101AC0000D4A917500220D4B00E0521C152A04DAD4
:101AD000815C9954815C0029F7D1704780B501F091
:101AE0005CFD01F061FC01F05CFC01224021164824
:101AF00003F028FFF3E700002C0D00208C0D0020E0
:101B0000A00C0020080B002040380240007000406C
:101B1000780C002000640040600B0020005400405E
:101B2000A0860100F80B002000100040380C0020B7
:101B300000440040303802400010024000080240DB
:101B40000000024000040240000C0240000011109E
:101B5000000012104D6F64653A20202020202020C4
:101B600020202020202020200000000045746174E7
:101B70003A417474656E6420426F75746F6E2020F4
:101B80000000000043414E20436F6E6E6563746534
:101B900064202020202020200000000043414E200F
:101BA000446973636F6E6E656374656420202020E2
:101BB0000000000010B5454C6068401C6060B0F546
:101BC0007A7F11D12078022802D1012003F0EFFEA4
:101BD0006078022802D1022003F0E9FEA0780228F2
:101BE00002D1032003F0E3FE6068B0F5FA6F13D36F
:101BF0002078022802D1012003F0C2FE607802287A
:101C000002D1022003F0BCFEA078022802D10320FA
:101C100003F0B6FE0020606010BD012804D014D38C
:101C200003280CD005D3704701202849087003F021
:101C3000BEBE012025494870022003F0B8BE012035
:101C400022498870032003F0B2BE7047012804D0F7
:101C500014D303280CD005D3704701201B4908700A
:101C600003F08EBE012019494870022003F088BE9F
:101C7000012016498870032003F082BE70470128B6
:101C800004D00ED3032809D004D3704702200F4993
:101C90000870704702200D494870704702200B49B8
:101CA0008870704780B5012003F06AFE022003F0BF
:101CB00067FE032003F064FE0448002101704170B8
:101CC000817003480349886101BD0000C80D0020F0
:101CD000B51B0008F00C002010B5DFF8BC43E0682D
:101CE000142820D30020E0602178722003F07AFECF
:101CF0006178782003F076FEA11C772003F07DFE4A
:101D0000E11C7A2003F079FE211D712003F075FE9D
:101D100004F108019B2003F070FEA078C043A0707E
:101D20002079C043207100F057F800F02EF800F041
:101D300004F8E068401CE06010BD38B5DFF85C5383
:101D4000A878401CA870C0B214281DD30020A87029
:101D5000EC781B2000F0DCF801280AD10A2C13D003
:101D6000641CEC70E4B20A2C0EDB01206870287051
:101D700031BD002C08D0601EE870C0B2002803D12D
:101D8000002068700120287031BD38B5C44DA87896
:101D9000401CA870C0B214281DD30020A870EC7895
:101DA0001C2000F0B5F801280AD10A2C13D0641CBD
:101DB000EC70E4B20A2C0EDB01206870287031BD93
:101DC000002C08D0601EE870C0B2002803D10020AB
:101DD00068700120287031BD70B5B24CE0780228DF
:101DE00030D1A568142D2DD3A678012E03D0002163
:101DF0000E2000F0A3F8202000F08AF8012821D15D
:101E0000502D1FD301210E2000F098F81F2000F064
:101E10007FF8012816D1642D14D301210A2000F087
:101E20008DF801210B2000F089F801210C2000F031
:101E300085F866700020A0700220207000202071BC
:101E4000A060E070E078012842D1A078401E03280D
:101E50003ED8DFE800F0020B1C2D0120207100218C
:101E60000D2000F06BF80220E07031E001202071BD
:101E700000210A2000F062F801210B2000F05EF83A
:101E800001210C2000F05AF80220E07020E001202F
:101E9000207101460A2000F051F800210B2000F0CB
:101EA0004DF801210C2000F049F80220E0700FE00D
:101EB0000120207100210A2000F040F801210B20B0
:101EC00000F03CF800210C2000F038F80220E0700F
:101ED0002079002803D0A068401CA06070BD0020BD
:101EE000A06070BD10B5044601F0E8FA01F0ECFA0C
:101EF0006C48847001210170002141700121C17082
:101F0000084610BD674840787047664800787047BB
:101F10006549614A51F830301A4412F8012C012306
:101F200001EBC000406883401A401046401E8041CB
:101F3000C043C00F70475848007A704770B45A4A7F
:101F400052F8303002EBC004584D0126002906D06B
:101F50001846295C606886400E43EE5407E0EB5C4F
:101F600061688E4023EA060652F830002E5470BC99
:101F700070474948FF210170417070474A4801216C
:101F800001600021416001210161022141610121C3
:101F90008160C16081610321C161012181620521EC
:101FA000C162012101620421416201218163072193
:101FB000C163012101630621416302210164002103
:101FC0004164022181640121C164022101654165EE
:101FD00081650321C1650221016604214166022158
:101FE00081660621C166022101670521416703213F
:101FF00081670021C1670321C0F8801000F18401CE
:1020000001220A6003224A6002228A600322CA6017
:102010000A614A6104228A610322CA6105220A62B6
:1020200003224A6206228A620322CA6207220A63E4
:1020300004224A6300228A630422CA6301220A64DA
:1020400004224A6402228A640422CA6403220A65C2
:1020500004224A658A65CA6505220A6604224A6620
:1020600006228A660522CA6602220A6705224A6794
:1020700001228A670522CA6700F58270002101608B
:1020800011464160032181600348FF2101704170C6
:102090000748084908617047A00D0020E00D0020A6
:1020A000E40D0020BC0D0020940900209F0D0020AD
:1020B000D91C0008F00C002080B54C48007800289E
:1020C00011D00021084603F0A5FC0021012003F0F7
:1020D000A1FC0021022003F09DFC00210320BDE8AB
:1020E000044003F097BC0121002003F093FC002181
:1020F000012003F08FFC0021022003F08BFC002163
:102100000320BDE8044003F085BC10B5384CA06A3C
:10211000401CA06214283FD30020A062E06A204443
:10212000007E002804D00121002003F073FC03E0AE
:102130000021084603F06EFCE06A2044007C002881
:1021400004D00121084603F065FC03E000210120D2
:1021500003F060FCE06A2044007A002804D00121EA
:10216000022003F057FC03E00021022003F052FCA0
:10217000E06A205C002804D00121032003F04AFC1F
:1021800003E00021032003F045FCE06A401CE0620C
:10219000082801D30020E0624FF40061154803F0E5
:1021A000C9FB002807D100206062022084F82000CB
:1021B00011481249C86110BD0146012905D101210C
:1021C0000A4A11700C490D4AD161022805D100203C
:1021D000064908700A480949C86170470020094942
:1021E000087007480549C86170470000F90D0020D4
:1021F0000000002000080240B9200008F00C002078
:102200000B210008F80D002010B400230C4601E05B
:10221000C2545B1CA342FBDB10BC704730B40222EB
:10222000022A1BD100220B465B1E012BF8DBC418CF
:1022300014F8014CFF2C04D01546012D04D10222C4
:1022400002E0150000D10122C55CFF2D04D1C45469
:10225000FF24C51805F8014C5B1EE6E730BC70474B
:1022600010B41478FF2C0DD0FE2C0BD1491E07E0C2
:10227000445CFF2C03D14354FD2111700021491E01
:102280000029F5DC10BC70470922DFF87C194B7A75
:10229000FF2B00D1704730B400230DE0AA24DFF8F3
:1022A0005C5A2C7203E0AA24DFF8505AEC71FF2428
:1022B0008C54521ED2B29B1C072B3ADCC45CAA2C55
:1022C000F9D18C5CFF2CF6D05624C4548C5CC51814
:1022D0006C708C5C082CEAD8DFE804F0080D12174B
:1022E0001C2126070600E2E7D8E7DCE7AA24DFF88E
:1022F0000C5A2C70DBE7AA24DFF8005A6C70D6E782
:10230000AA24DFF8F859AC70D1E7AA24DFF8EC5919
:10231000EC70CCE7AA24DFF8E4592C71C7E7AA24B3
:10232000DFF8D8596C71C2E7AA24DFF8D059AC7134
:10233000BDE730BC704700001722DFF8C419CB7D21
:10234000FF2B00D1704730B400230DE0AA24DFF842
:10235000AC59EC7703E0AA24DFF8A059AC77FF244E
:102360008C54521ED2B29B1C082B80F28880C45C15
:10237000AA2CF8D18C5CFF2CF5D04324C4548C5C7F
:10238000C5186C708C5C172CE9D8DFE804F00F14CA
:10239000191E23282D32373C41464B50555A5F6455
:1023A000696E730C0E0DDAE7D0E7D4E7AA24DFF8E4
:1023B0004C596C72D3E7AA24DFF84059AC72CEE7CF
:1023C000AA24DFF83859EC72C9E7AA24DFF82C599F
:1023D0002C73C4E7AA24DFF824596C73BFE7AA243E
:1023E000DFF81859AC73BAE7AA24DFF81059EC7378
:1023F000B5E7AA24DFF804592C74B0E7AA24DFF863
:10240000FC586C74ABE7AA24DFF8F058AC74A6E76C
:10241000AA24DFF8E858EC74A1E7AA24DFF8DC5816
:102420002C759CE7AA24DFF8D4586C7597E7AA248A
:10243000DFF8C858AC7592E7AA24DFF8C058EC75ED
:102440008DE7AA24DFF8B4582C7688E7AA24DFF8B1
:10245000AC586C7683E7AA24DFF8A058AC767EE708
:10246000AA24DFF89858EC7679E7AA24DFF88C588C
:102470002C7774E7AA24DFF884586C776FE730BCB8
:10248000704710B50446AA220821FFF7BDFE53206D
:10249000A071DFF8B00A0178E1718178FF2903D0DB
:1024A00057212171807860712046FFF7EDFE2046AC
:1024B000BDE8104040E770B5DFF8444818212046D9
:1024C000FFF7ACFEDFF840570A212846FFF7A6FECB
:1024D000DFF82868AB7BB21C0A212846FFF7C0FE54
:1024E0002B7B32460A212846FFF7BAFE6B7B721C13
:1024F0000A212846FFF7B4FEEB7BF21C0A2128468E
:10250000FFF7AEFE2B7C321D0A212846FFF7A8FEFE
:102510006B7C721D0A212846FFF7A2FEAB7CB21D20
:102520000A212846FFF79CFE2B7D06F108020A21AE
:102530002846FFF795FEEB7CF21D0A212846FFF79F
:102540008FFEDFF86C5A2B7C06F119021821204609
:10255000FFF786FE6B7C06F11A0218212046FFF772
:102560007FFE2B7D06F11D0218212046FFF778FE25
:102570006B7A06F1120218212046FFF771FE2B7AC2
:1025800006F1110218212046FFF76AFEEB7A06F1E8
:10259000140218212046FFF763FEAB7A06F11302FE
:1025A00018212046FFF75CFE6B7B06F1160218210E
:1025B0002046FFF755FE2B7B06F115021821204619
:1025C000FFF74EFEEB7B06F1180218212046FFF7BD
:1025D00047FEAB7B06F1170218212046FFF740FEAD
:1025E000AB7B06F1170218212046FFF739FE2B7846
:1025F00006F1090218212046FFF732FE6B7806F13A
:102600000A0218212046FFF72BFEAB7806F10B02D9
:1026100018212046FFF724FEEB7806F10C02182162
:102620002046FFF71DFE2B7906F10D0218212046EA
:10263000FFF716FE6B7906F10E0218212046FFF710
:102640000FFEAB7906F10F0218212046FFF708FEB6
:10265000EB7906F1100218212046FFF701FEAB7C52
:1026600006F11B0218212046FFF7FAFDEB7C06F16C
:102670001C0218212046FFF7F3FDAB7D06F11F0277
:1026800018212046FFF7ECFD6B7D06F11E02182194
:102690002046BDE87040E3E5F8B504460025DFF8C4
:1026A000586ADFF8587A08E0601940783146C874F3
:1026B00002E0022039460876AD1C082D80F299818F
:1026C000605D43283ED04D2808D0532800F0348167
:1026D000562800F0DD805728E6D0EDE760194078F5
:1026E00006281AD8DFE800F004070A0D10131600B8
:1026F000387C707413E0787C707410E0B87C70746F
:102700000DE0F87C70740AE0387D707407E0787D25
:10271000707404E0B87D707401E001203876707C3C
:10272000B97E814209D0B876002000F06FFA00200F
:1027300000F0B9FB002000F085FB0020F8617876FE
:102740003075B9E760194078172800F29D80DFE8FE
:1027500000F00C11161B20252A31383F464D545BE2
:10276000626970777E83889B8D94BB20DFF8901917
:102770004872A1E7BB20DFF8881988729CE7BB206C
:10278000DFF87C19C87297E7BB20DFF8741908736B
:1027900092E7BB20DFF8681948738DE7BB20DFF8AC
:1027A0006019887388E7DFF85809BB21C1730021DD
:1027B000017481E7DFF84809BB2101740021C1736E
:1027C0007AE7DFF83C09BB2141740021817473E78B
:1027D000DFF82C09BB218174002141746CE7DFF81C
:1027E0002009BB21C1740021017565E7DFF81009DC
:1027F000BB2101750021C1745EE7DFF80409BB212C
:1028000041750021817557E7DFF8F408BB21817518
:102810000021417550E7DFF8E808BB21C1750021B0
:10282000017649E7DFF8D808BB2101760021C175A0
:1028300042E7DFF8CC08BB214176002181763BE7F7
:10284000DFF8BC08BB2181760021417634E7BB204C
:10285000DFF8AC18C8762FE7BB20DFF8A41808779C
:102860002AE7BB20DFF89818487725E7DFF89008BB
:10287000BB2181770021C1771EE7DFF88408BB21E7
:10288000C1770021817717E703203946087613E7DF
:102890006019407808284BD8DFE800F0050D151DB9
:1028A000252D353C4300DFF85808BB21017000217D
:1028B0004180417000E7DFF84808BB2141700021EA
:1028C00001704180F8E6DFF83808BB2181700021F3
:1028D0000180C170F0E6DFF82808BB21C17000213B
:1028E00001808170E8E6DFF81808BB210171002142
:1028F00041718171E0E6DFF80808BB2141710021D8
:1029000001718171D8E6DFF8F807BB2181710021E0
:102910008180D1E6DFF8E807BB21C1710021017297
:10292000CAE6DFF8DC070021C171BB210172C3E6F2
:10293000042039460876BFE66019407810283FF633
:10294000B8AEDFE800F00B161A1E0A22262A2E3235
:10295000363C42464A4E5200ABE6ADE63046BB211D
:1029600001703946097C427C8A423FF4A5AE41742D
:10297000A2E6BB20314648709EE6BB2031468870F7
:102980009AE6BB203146C87096E6BB2031460871F6
:1029900092E6BB20314648718EE6BB2031468871F5
:1029A0008AE6BB203146C87186E6BB2031460872F4
:1029B00082E63046BB214172002181727CE63046BE
:1029C000BB2181720021417276E6BB203146C8727C
:1029D00072E6BB20314608736EE6BB203146487371
:1029E0006AE6BB203146887366E6BB203146C87371
:1029F00062E6F1BDDFF80417C869401C00EE100A5A
:102A000081ED070ADFF8682592F8540000280AD102
:102A1000BBEEEF0ABDEEC00A10EE100AC0B21423DE
:102A200090FBF3F04876487E0B2802DBFF2082F80B
:102A3000540070470278FF2A00D001707047F0B44C
:102A4000DFF8C411DFF828250346FF2B2DD193783A
:102A5000FD2B08D01378FD2B05D05378FD2B02D029
:102A6000D378FD2B1CD1002318E0CC5C8D7BAC42CD
:102A700001D1FF24CC54CC5C0D7BAC4201D1FF24AE
:102A8000CC54CC5C4D7BAC4201D1FF24CC54CC5C0B
:102A9000CD7BAC4201D1FF24CC545B1C0A2BE4DB80
:102AA000FF23937013705370D3700B7B04461D4645
:102AB000AC4227D19478FD2C05D05478FD2C02D05F
:102AC000D478FD2C16D1002412E00D5D8E7BB5422A
:102AD00001D1FF250D550D5D4E7BB54201D1FF257E
:102AE0000D550D5DCE7BB54201D1FF250D55641C02
:102AF0000A2CEADB1478FD2C01D0FE24147000248B
:102B0000548054708C7B05462646B54226D11578F4
:102B1000FD2D05D05578FD2D02D0D578FD2D15D190
:102B2000002511E04E5D9E4201D1FF264E554E5DBF
:102B30004F7BBE4201D1FF264E554E5DCF7BBE423C
:102B400001D1FF264E556D1C0A2DEBDB9578FD2D2E
:102B500001D0FE25957000251580D5704D7B064669
:102B60002F46BE4226D11678FD2E05D09678FD2E32
:102B700002D0D678FD2E15D1002611E08F5D9F4240
:102B800001D1FF278F558F5DA74201D1FF278F55B8
:102B90008F5D91F80FC0674501D1FF278F55761CD7
:102BA0000A2EEBDB5678FD2E01D0FE26567000264D
:102BB00016705680CE7BB04224D11078FD2805D007
:102BC0009078FD2802D05078FD2813D100200FE026
:102BD0000E5C9E4201D1FF260E540E5CA64201D12E
:102BE000FF260E540E5CAE4201D1FF260E54401C4F
:102BF0000A28EDDBD078FD2801D0FE20D07000201F
:102C000010705080F0BC70475C0D002038B5044651
:102C1000D74D214605F13D00FFF70CFF214605F198
:102C20003900FFF707FF214605F13A00FFF702FFE1
:102C3000214605F13200FFF7FDFE214605F1310086
:102C4000FFF7F8FE214605F13400FFF7F3FE2146B9
:102C500005F13300FFF7EEFE214605F13600FFF7E0
:102C6000E9FE214605F13500FFF7E4FE214605F1B6
:102C70003800FFF7DFFE214605F13700FFF7DAFEE7
:102C8000214605F12900FFF7D5FE214605F12A006E
:102C9000FFF7D0FE214605F12B00FFF7CBFE2146C2
:102CA00005F12C00FFF7C6FE214605F12D00FFF7C8
:102CB000C1FE214605F12E00FFF7BCFE214605F1BD
:102CC0003B00FFF7B7FE214605F13C00FFF7B2FEDF
:102CD000214605F13000FFF7ADFE214605F12F003A
:102CE000FFF7A8FE214605F13F00FFF7A3FE2146AE
:102CF00005F13E00BDE834409CE60000080B0020D2
:102D0000740D002038B50446994D214605F11D008B
:102D1000FFF790FE214605F11900FFF78BFE2146D3
:102D200005F11A00FFF786FE214605F11200FFF7B4
:102D300081FE214605F11100FFF77CFE214605F1D9
:102D40001400FFF777FE214605F11300FFF772FE2E
:102D5000214605F11600FFF76DFE214605F115002D
:102D6000FFF768FE214605F11800FFF763FE2146D4
:102D700005F11700FFF75EFE214605F10900FFF798
:102D800059FE214605F10A00FFF754FE214605F1E0
:102D90000B00FFF74FFE214605F10C00FFF74AFE3E
:102DA000214605F10D00FFF745FE214605F10E0015
:102DB000FFF740FE214605F11B00FFF73BFE2146D1
:102DC00005F11C00FFF736FE214605F11000FFF764
:102DD00031FE214605F10F00FFF72CFE214605F1DB
:102DE0001F00FFF727FE214605F11E00BDE8344015
:102DF00020E638B504465E4D2146A81CFFF71AFEB2
:102E000021462846FFF716FE2146681CFFF712FEF2
:102E10002146A81DFFF70EFE2146E81CFFF70AFE1B
:102E20002146281DFFF706FE214605F10800FFF7A1
:102E300001FE2146E81DFFF7FDFD2146681DBDE8A6
:102E40003440F7E538B50446494D214605F12200E6
:102E5000FFF7F0FD214605F12000FFF7EBFD2146CD
:102E600005F12100FFF7E6FD214605F12600FFF7F9
:102E7000E1FD214605F12300FFF7DCFD214605F1C8
:102E80002400FFF7D7FD214605F12800FFF7D2FD0A
:102E9000214605F12700FFF7CDFD214605F125006C
:102EA000BDE83440C6E538B50446314D214605F14C
:102EB0004400FFF7BFFD214605F14500FFF7BAFDCD
:102EC000214605F14600FFF7B5FD214605F1470013
:102ED000FFF7B0FD214605F14800FFF7ABFD2146A5
:102EE00005F14900FFF7A6FD214605F14A00FFF76D
:102EF000A1FD214605F14B00FFF79CFD214605F1A0
:102F00004C00FFF797FD214605F14D00FFF792FDBC
:102F1000214605F14E00FFF78DFD214605F14F00DA
:102F2000FFF788FD214605F14300FFF783FD2146A9
:102F300005F14100FFF77EFD214605F14000BDE8A7
:102F4000344077E5580B002010B502F09BFD0028B7
:102F50000CD06C4C204602F097FD002801D100F007
:102F60001CFB2046BDE81040FFF796BB10BD0000DB
:102F7000080B002010B5FFF73DFD604C607E012876
:102F800010D1E07E002811D104F12000FFF779FA7A
:102F9000082204F120014FF4007002F077FD0120B7
:102FA000E07610BDFFF787FA0020E07610BD000044
:102FB000440D002038B5514C00202074012060746D
:102FC0000220A0740320E0740420207505206075A1
:102FD0000620A07500202070012060700220A070E3
:102FE0000320E07005202071062060710720A07189
:102FF0000820E071092020720A2060720B20A07264
:103000000C20E0720D2020730E2060730F20A0733F
:103010001020E0733C480021017001214170022121
:1030200081700321C17004210171052141710621C4
:1030300081710721C17108210172092141720A21A0
:1030400081720B21C1720C2101730D2141730E217C
:1030500081730F21C1731021017411214174122158
:1030600081741321C1741421017516214175172132
:103070008175264D00202873012068730220A873F3
:103080000320E87304202874052068740620A874BF
:103090000720E874082028750020FFF7B7FD0020FE
:1030A000FFF7D0FE0020FFF7FEFEFF20FFF72AFE0D
:1030B000FF20FFF79EFE1648FF2181700021C1709E
:1030C000A1790170A17D417000210171AA2208211E
:1030D00004F12000FFF798F8FF2218210D48FFF7B0
:1030E00093F8FF220A212846FFF78EF80A480B4979
:1030F00081600B49416031BD480B0020C80C0020A5
:10310000280B0020D80D0020440D00205C0D00206D
:10311000580B0020740D0020F00C0020492F0008EF
:10312000752F000810B5984CA078012817D100F031
:103130000EF9002801D1002010BD01210B20FEF75F
:10314000FDFE01210C20FEF7F9FE00210A20FEF70A
:10315000F5FEA078401E8041C043C00F10BD02287C
:1031600009D100210E20FEF7E9FE00F0F3F8002857
:10317000EFD1002010BD0328EBD101210E20FEF776
:10318000DDFE00F0EAF8002807D000F0D1F80320B7
:1031900020700020A070012010BD002010BD10B5CF
:1031A000794CA078012817D100F0D1F8002801D17E
:1031B000002010BD01210A20FEF7C0FE01210C20D5
:1031C000FEF7BCFE00210B20FEF7B8FEA078401EE3
:1031D0008041C043C00F10BD022809D100210E203C
:1031E000FEF7ACFE00F0B6F80028EFD1002010BDCD
:1031F0000328EBD101210E20FEF7A0FE00F0ADF870
:10320000002807D000F094F8032020700020A07060
:10321000012010BD002010BD10B55B4CA078012826
:1032200017D100F094F8002801D1002010BD002132
:103230000A20FEF783FE01210B20FEF77FFE00210E
:103240000C20FEF77BFEA078401E8041C043C00FDB
:1032500010BD022809D100210E20FEF76FFE00F0FC
:1032600079F80028EFD1002010BD0328EBD101210F
:103270000E20FEF763FE00F070F8002805D0032052
:1032800020700020A070012010BD002010BD10B5DE
:103290003D4CA078002803D06068401C606001E0CD
:1032A000002060602078032802D100F016F901E0C8
:1032B00000F016F9A078002807D12078032802D062
:1032C0000120A07001E0002060606068C82802D181
:1032D0000221A17004E0B0F5FA7F01D10321A170B1
:1032E000062814D32078002803D1FFF71BFF607055
:1032F0000AE0012803D1FFF752FF607004E00228C2
:1033000002D1FFF789FF6070BDE810402FE010BDCB
:1033100000201D490870704702201B490870704743
:1033200019480078032801D1012070470020704718
:1033300080B501210A20FEF701FE01210B20FEF7D6
:10334000FDFD01210C20BDE80440FEF7F7BD1E2065
:10335000FEF7DEBD2020FEF7DBBD80B51F20FEF7A7
:10336000D7FD012801D1012002BD002002BD704718
:1033700080B500210D20FEF7E1FD03200249087011
:1033800002480349486101BDD00D00208F3200087A
:10339000F00C00200649884202D106480068004728
:1033A0007047034801F039BF03480249086070477D
:1033B000F80B0020E80D0020BF14000810B5002411
:1033C00004E00C4951F820008047641C2046C0B23C
:1033D0000828F6DB10BD0020074A064B02E043F840
:1033E0002120401C0146C9B20829F8DB03480449E2
:1033F00008607047F00C0020BF140008BD330008BF
:10340000E80D00200121014802F094BA00000240BA
:10341000704730B4002513E050F8042BD30744BFA5
:10342000A9F101039A18091F042942F8045BFAD292
:1034300013468C0744BF15809B1CC90748BF1D70ED
:1034400050F8041B0029E7D130BC704702464FF406
:103450000041044802F076BA00224FF400410148CE
:1034600002F070BA000C024002464FF400510448CA
:1034700002F068BA00224FF40051014802F062BA2B
:10348000000C024002464FF48051044802F05ABA40
:1034900000224FF48051014802F054BA000C02405F
:1034A00002464FF48041044802F04CBA00224FF427
:1034B0008041014802F046BA000C02400020FFF7AC
:1034C000C5BF0020FFF7C2BF0020FFF7CDBF00201F
:1034D000FFF7CABF0020FFF7D5BF0120FFF7E0BF0D
:1034E0000020FFF7DDBF0020FFF7DABF10B5184C52
:1034F0006068401C606014281CD300206060FFF7E7
:1035000081FF0128A0680AD10A2813D0401CA060BE
:103510000A280FD301202070A070607010BD002811
:1035200008D0401EA06005D1012020700020A070AE
:103530000120607010BD06480021018002218170C9
:1035400000214160052181600248034908607047FD
:10355000B00D0020ED340008F00C002000212348BD
:1035600001F071B980B50346224A00211F4801F0DD
:10357000DBF8401E8041C00F02BD10B51C4C20601E
:10358000226104F140030A462146184801F060F820
:10359000401E8041C043C00F10BD10B5144800212B
:1035A00041608160C160017542F26041816100212A
:1035B000C1610162416281620D21C162002101632A
:1035C000012141638163094C00F11801204600F09C
:1035D00096FF002801D0012010BD204601F007F819
:1035E000401E8041C043C00F10BD0000780C002079
:1035F000B40B0020100D002010B504460422012158
:10360000002002F065FA04E004220121002002F00B
:103610005FFA0006F8D444F0040422460121002099
:10362000BDE8104002F054BA38B504460D460422F5
:103630000121002002F04CFA04E0042201210020C4
:1036400002F046FA0006F8D404F00B0423460122E7
:103650000021284601B0BDE8304002F067BB10B53C
:103660003E210220FFF7E0FFC0210220FFF7DCFF30
:10367000B8210220FFF7D8FF40210220FFF7D4FF36
:103680003F210220FFF7D0FF3E210120FFF7CCFFB2
:10369000C0210120FFF7C8FFB8210120FFF7C4FFB8
:1036A00040210120FFF7C0FF3F210120FFF7BCFFB1
:1036B000002003460AE0DFF82C4304EBC004635407
:1036C000521C1146C9B20829F5DB401C802801DADA
:1036D0001A46F6E710BD2DE9F84F89460246DFF895
:1036E000041301EBC2074C462146C91000917B5CD4
:1036F000214601250E46B61001EB5676F610A1EBD9
:10370000C6018D4045EA03018B4240D0402A03DBCD
:103710004FF00108403801E04FF0020840F040004F
:10372000064608F0030A3146C9B25046FFF77CFF4F
:103730004FEAD90949F0B80949465046FFF774FFE6
:1037400048F00C0B5846FFF757FF3146C9B25046B8
:10375000FFF76AFF49465046FFF766FF5846FFF7F6
:103760004BFF83463146C9B25046FFF75DFF4946DD
:103770005046FFF759FF45EA0B0529460098395492
:10378000C9B248F008084046BDE8F44F4CE7BDE830
:10379000F18F2DE9F84F0E460146DFF8482202EB83
:1037A000C10734462246D2100092BB5C22464FF03D
:1037B00001081546AD1002EB5575ED10A2EBC502E0
:1037C00008FA02F842461D4682F0FF021A4095426E
:1037D00040D0402903DB4FF00909403801E04FF0A9
:1037E0000A0940F04000054609F0030A2946C9B21B
:1037F0005046FFF719FFF60846F0B8063146504626
:10380000FFF712FF49F00C0B5846FFF7F5FE29466B
:10381000C9B25046FFF708FF31465046FFF704FF94
:103820005846FFF7E9FE83462946C9B25046FFF7DE
:10383000FBFE31465046FFF7F7FE88F0FF080BEA23
:103840000808414649F008094846FFF7EDFE009890
:1038500007F80080BDE8F18F2DE9F0471F46A0F181
:1038600020056DB23846032800D19300052804D105
:10387000104600EB40035B001B1D3846072801D1B2
:10388000D20013461E46F6B2402E03DB4FF0090865
:10389000403B01E04FF00A080C4608F0070943F0EE
:1038A00040031946C9B24846FFF7BEFE44F0B801CE
:1038B0004846FFF7B9FE384603281CD14FF0000AEE
:1038C00016E0DFF8240105EB4501084410F80A90E2
:1038D000494648F00800FFF7A7FEDFF808010AEBA9
:1038E000060100EBC100214600F801900AF1010A2F
:1038F000BAF1030FE5DB384605281CD14FF0000A6A
:1039000016E0DFF8E80005EB8501084410F80A909E
:10391000494648F00800FFF787FEDFF8C8000AEBC9
:10392000060100EBC100214600F801900AF1010AEE
:10393000BAF1040FE5DD072F1AD14FF0000914E0AA
:10394000DFF8AC00C5EBC501084410F80970394632
:1039500048F00800FFF768FE224809EB060100EB7B
:10396000C1002146475409F10109B9F1060FE7DD0D
:10397000BDE8F087F8B504460D46164630460328E4
:103980000DD1002709E0032338460246D2B229466A
:10399000C9B2E05DFFF760FF7F1C202FF3DB3046EC
:1039A00005280DD1002709E0052338460246D2B28A
:1039B0002946C9B2E05DFFF74FFF7F1C142FF3DBF0
:1039C000072E0DD1002609E0072330460246D2B269
:1039D0002946C9B2A05DFFF73FFF761C102EF3DB2E
:1039E000F1BD00009405002030000020F40000200C
:1039F000DC02002038B52DED048BB0EE408AF0EEED
:103A0000608AB0EE419AF0EE619A044651EC180BD0
:103A10000022134602F008FB2AD851EC190B02F0E1
:103A200003FB25D8DFF8703402F016FB20D251ECEE
:103A3000180BDFF8783402F00FFB19D202F024FBE8
:103A4000054651EC190B02F01FFBE4B2012C0146B4
:103A5000C9B22846C0B205D1BDEC048BBDE83440E4
:103A6000FFF739BEBDEC048BBDE83440FFF791BED3
:103A7000BDEC048B31BDF8B52DED0E8BB0EE408A58
:103A8000F0EE608AB0EE419AF0EE619AB0EE42BA82
:103A9000F0EE62BAB0EE43CAF0EE63CA044651ECEF
:103AA000190B53EC1C2B02F00DFB41EC1A0B51ECE3
:103AB000180B53EC1B2B02F005FB41EC100B53ECE5
:103AC000102B02F071FB06460F4653EC1A2B51ECFB
:103AD0001A0B02F069FB32463B4602F037FC41EC20
:103AE000100B02F0F1FCB0EE40AAF0EE60AA51EC2F
:103AF0001B0B53EC182B02F0E5FA53EC1A2B02F0D7
:103B000065FD41EC1B0B51EC1C0B53EC192B02F027
:103B1000D9FA53EC1A2B02F059FD41EC1C0B00258D
:103B200027E02046C0B2044651EC1D0B53EC1C2B81
:103B300002F03AFB53EC192B02F008FC41EC110B9C
:103B4000B0EE41EAF0EE61EA51EC1D0B53EC1B2B99
:103B500002F02AFB53EC182B02F0F8FB41EC100B9F
:103B60002046B0EE4E1AF0EE6E1AFFF743FF6D1CC2
:103B7000EDB2284602F04EFE41EC1D0BB0EE4A0AB3
:103B8000F0EE6A0A02F054FE51EC100B53EC1D2BC0
:103B900002F04AFAC5D9BDEC0E8BF1BD2DE9F04714
:103BA0002DED028B92461E46044604EB0A02521E7D
:103BB000812A02DBC0F17F0082460D46A819401E13
:103BC000402802DBC1F13F010E46A0460A9F1CE0DF
:103BD000484602F061FE41EC110BB0EE418AF0EE76
:103BE000618A404602F058FE41EC100B3846B0EEB8
:103BF000481AF0EE681AFFF7FDFE09F1010955FABF
:103C000086F08145E4DB08F1010854FA8AF080452A
:103C100001DAA946F3E7BDEC028BBDE8F0870000AE
:103C200070B504460025032806D8DFE800F002043A
:103C300002047F2500E04025002646E0C6F13F0053
:103C400002F02AFE41EC110B0120B0EE413AF0EEF9
:103C5000613A9FED942B9FED960BFFF70CFFC6F199
:103C60003E0002F019FE41EC110B0120B0EE413A8A
:103C7000F0EE613A9FED8B2B9FED8D0BFFF7FBFE76
:103C800021E0C6F17F0002F007FE41EC100B01209D
:103C90009FED823BB0EE402AF0EE602A9FED841B40
:103CA000FFF7E9FEC6F17E0002F0F6FD41EC100BD5
:103CB00001209FED7A3BB0EE402AF0EE602A9FEDA6
:103CC0007C1BFFF7D8FEB61CF6B2AE424BDA20469C
:103CD0000328F8D8DFE800F005260403F3E7ADE792
:103CE000CFE7304602F096FD41EC100B01209FED2E
:103CF0006B3BB0EE402AF0EE602A9FED6D1BFFF7A4
:103D0000BAFE701C02F0C8FD41EC100B01209FEDC3
:103D1000633BB0EE402AF0EE602A9FED651BFFF793
:103D2000AAFED0E7304602F075FD41EC110B0120F0
:103D3000B0EE413AF0EE613A9FED5A2B9FED5C0BED
:103D4000FFF799FE701C02F0A7FD41EC110B01205A
:103D5000B0EE413AF0EE613A9FED522B9FED540BDD
:103D6000FFF789FEAFE7002646E0C6F13F0002F00C
:103D700093FD41EC110B0020B0EE413AF0EE613AB8
:103D80009FED482B9FED4A0BFFF775FEC6F13E00F5
:103D900002F082FD41EC110B0020B0EE413AF0EE52
:103DA000613A9FED402B9FED420BFFF764FE21E04F
:103DB000C6F17F0002F070FD41EC100B00209FED7A
:103DC000373BB0EE402AF0EE602A9FED391BFFF73B
:103DD00052FEC6F17E0002F05FFD41EC100B0020A8
:103DE0009FED2E3BB0EE402AF0EE602A9FED301B97
:103DF000FFF741FEB61CF6B2AE424BDA204603286E
:103E0000F8D8DFE800F005260403F3E7ADE7CFE7D5
:103E1000304602F0FFFC41EC100B00209FED1F3BF1
:103E2000B0EE402AF0EE602A9FED211BFFF723FE43
:103E3000701C02F031FD41EC100B00209FED173B90
:103E4000B0EE402AF0EE602A9FED191BFFF713FE3B
:103E5000D0E7304602F0DEFC41EC110B0020B0EE62
:103E6000413AF0EE613A9FED0F2B9FED110BFFF7FA
:103E700002FE701C02F010FD41EC110B0020B0EEB0
:103E8000413AF0EE613A9FED072B9FED090BFFF7EA
:103E9000F2FDAFE770BD00000000504000000000E0
:103EA0000000504000000000000060400000604042
:103EB000000000000000000080B50B48016841F4DC
:103EC00000710160016841F480610160016841F4A2
:103ED00080710160032002F04AFD002002F066FDBF
:103EE00002F088FD002002BD003C024062F30F2278
:103EF00062F31F4200B500BF130096469446103986
:103F000028BFA0E80C50FAD85FEA417C28BF0CC05B
:103F100048BF40F8042BC90728BF20F8022B48BF30
:103F200000F8012B00BD00002DE9FC41040016D073
:103F3000B34D2078C0074CD5A86800F00C000428C9
:103F400007D0A86800F00C0008280AD16868400271
:103F500007D5286880033CD56068002839D1012046
:103F60004BE16068B0F5803F04D1286840F48030B0
:103F7000286012E0B0F5A02F286807D140F4802017
:103F80002860286840F48030286006E020F4803003
:103F90002860286820F480202860606800280CD001
:103FA00002F00CFE06462868800312D402F006FEDA
:103FB000801B6528F7D303201FE102F0FFFD0646B2
:103FC0002868800305D502F0F9FD801B6528F7D32A
:103FD000F1E72078800718D5A86810F00C0F07D0FB
:103FE000A86800F00C00082824D16868400221D499
:103FF0002868800702D5E0680128B0D1286820F041
:10400000F800216940EAC10028602078000747D500
:104010007C496069002835D00120086002F0CEFD9F
:104020000646686F80073BD402F0C8FD801B02285B
:10403000F7D9C0E77449E068002815D0012008606E
:1040400002F0BCFD06462868800705D402F0B6FDE4
:10405000801B0228F7D9AEE7286820F0F800216914
:1040600040EAC1002860D0E70020086002F0A6FD09
:10407000064628688007C8D502F0A0FD801B0228EC
:10408000F7D998E70020086002F098FD0646686FAF
:10409000800705D502F092FD801B0228F7D98AE738
:1040A0002078400763D50026286CC0000BD430462A
:1040B0000090286C40F080502864286C00F08050FC
:1040C000009000980126514F3868C00510D4386818
:1040D00040F48070386002F071FD80463868C00599
:1040E00006D402F06BFDA0EB08000228F6D962E7C7
:1040F000A068012804D1286F40F00100286711E072
:104100000528286F07D140F004002867286F40F089
:104110000100286706E0400840002867286F20F06B
:1041200004002867A06800280DD002F047FD07466C
:10413000286F800715D402F041FDC01B41F2893180
:104140008842F5D337E702F039FD0746286F80072C
:1041500007D502F033FDC01B41F289318842F5D307
:1041600029E7012E03D1286C20F080502864A06933
:10417000002841D0A96801F00C0108293FF4EFAEF6
:10418000214E02282AD10020306602F017FD074692
:104190002868800105D502F011FDC01B0228F7D95F
:1041A00009E7E069216A0843616A40EA8110A16A6F
:1041B0004908491E40EA0140E16A40EA016068603E
:1041C0000120306602F0FAFC04462868800113D40E
:1041D00002F0F4FC001B0228F7D9ECE60020306660
:1041E00002F0ECFC04462868800105D502F0E6FCEC
:1041F000001B0228F7D9DEE60020BDE8F68100BFEB
:1042000000380240800E47420000474200700040E4
:104210002DE9F04104460F46002C5BD04C4E30682F
:1042200000F00F00B84205D23770306800F00F0080
:10423000B8424FD12068474D810712D5400703D5BA
:10424000A86840F4E050A8602078000703D5A8686B
:1042500040F46040A860A96821F0F001A068014323
:10426000A9602078C0072AD56068012803D1296891
:1042700089030BD42EE0022801D0032803D129683A
:10428000890103D426E02968890723D5A96889080C
:1042900050EA8100A86002F091FC8046A86800F016
:1042A0000C006168B0EB810F09D002F087FCA0EB35
:1042B000080041F289318842F0D303202DE03068B4
:1042C00000F00F00874207D23770306800F00F000F
:1042D000B84201D0012020E02078400705D5A96828
:1042E00021F4E051E0680143A9602078000706D579
:1042F000A86820F46040216940EAC100A86000F08D
:1043000033F81549AA68C2F30312895CC8401349FF
:104310000860002002F04AFB0020BDE8F0810F4851
:104320000068704780B5FFF7FAFF0E490C4A126823
:10433000C2F38222895CC84002BD80B5FFF7EFFF5F
:104340000849074A1268C2F34232895CC84002BD7C
:10435000003C024000380240EC6F0008900500204D
:10436000083802404C74000810B5154C606800F025
:104370000C00042802D0082802D01EE0114810BD0D
:10438000226802F03F020023206840022068C0F348
:10439000881005D50B49A1FB000102F015FC04E0D3
:1043A0000949A1FB000102F00FFC2168C1F30141A2
:1043B000491C4900B0FBF1F010BD034810BD00BF1F
:1043C0000438024000127A000024F40038B50400DA
:1043D00001D1012032BD94F82000002802D12046EE
:1043E00002F024FB2068016821F00201016002F064
:1043F000E5FB05462068416889070DD502F0DEFB24
:10440000401B0B28F6D3606A40F400306062052040
:1044100084F82000012032BD016841F001010160F3
:1044200002F0CCFB054620684168C9070DD402F0B4
:10443000C5FB401B0B28F6D3606A40F40030606275
:10444000052084F82000012032BD217E0129016869
:1044500003D141F08001016002E021F080010160A0
:104460002068617E0129016803D141F040010160AB
:1044700002E021F0400101602068A17E012901686D
:1044800003D141F02001016002E021F02001016030
:104490002068E17E0129016803D121F0100101604B
:1044A00002E041F0100101602068217F01290168CC
:1044B00003D141F00801016002E021F00801016030
:1044C0002068617F0129016803D141F00401016086
:1044D00002E021F004010160A168E0680143206965
:1044E0000143606901436068401E01432068C16167
:1044F00000206062012084F82000002032BDF0B46A
:1045000090F82020012A01D0022A69D14E4A106871
:1045100040F001001060106820F47C5010601068BA
:104520004B6A40EA0320106001200B7D03F01F035B
:1045300000FA03F3DC43D0692040D061C869002849
:1045400016D1D0682040D060404800F510754E6903
:10455000CF68D1F804C0CCEA074745F8367000F5BB
:1045600011704D698E680F68C7EA064640F83560DD
:10457000C869012816D1D0681843D060334800F5C7
:1045800010754E690F68D1F804C0CCEA074745F8AA
:10459000367000F511704D698E68CF68C7EA06461F
:1045A00040F8356088690028506802D1204050608A
:1045B00001E01843506008690028506902D10440A6
:1045C000546101E018435061086A012802D1D069A2
:1045D0000343D3611068400840001060002004E0ED
:1045E000416A41F4802141620120F0BC704738B536
:1045F000044694F8200001281FD1022084F82000EE
:104600002068016849084900016002F0D7FA0546B0
:1046100020684068C0070DD502F0D0FA401B0B2877
:10462000F6D3606A40F400306062052084F8200010
:10463000012032BD0020606232BD606A40F400207B
:104640006062012032BD000000660040006400404E
:10465000F0B490F820400568AD68012C01D0022C20
:104660005BD115F0E05F52D0C5F30164032C05D394
:10467000416A41F400014162012053E00125A54057
:104680001D60036803F5C0752401CE688B68002B9C
:1046900004D10B6846EA43562E5104E04F6843EAC2
:1046A000C7031E432E510B69056805F5C2752B51D2
:1046B000097D012906D1016801F5C2710B5943F446
:1046C00080730B51D17993791B0443EA01635179CB
:1046D00043EA012311790B4301682144C1F88C316D
:1046E000D17893781B0443EA0163517843EA0123AC
:1046F00011780B4301682144C1F88831006800F546
:10470000C070015941F00101015100200AE0416AE5
:1047100041F400114162012004E0416A41F480212A
:1047200041620120F0BC704770B490F82040012C29
:1047300002D0022C40F080800468002909D1E5688D
:1047400015F0030F0FD1416A41F4001141620120BD
:1047500077E0256915F0030F05D1416A41F4001196
:10476000416201206DE00D0104F5D874645904F034
:1047700004049460066806F5D876002C745902D1BA
:10478000640D146001E0E4085460046804F5D87412
:104790006459C4F34004D46004682C44D4F8B44190
:1047A00004F00F04146104682C44D4F8B441C4F339
:1047B0000724946104682C44D4F8B441240C546157
:1047C00002682A44D2F8B8211A7002682A44D2F842
:1047D000B821120A5A7002682A44D2F8B821120C81
:1047E0009A7002682A44D2F8B821120EDA70026870
:1047F0002A44D2F8BC211A7102682A44D2F8BC219A
:10480000120A5A7102682A44D2F8BC21120C9A7119
:1048100002682A44D2F8BC21120EDA71006800291D
:1048200004D1C16841F02001C16003E0016941F099
:1048300020010161002004E0416A41F480214162CD
:10484000012070BC70470246002092F82030012BF6
:1048500001D0022B09D11068002903D1C06800F0F3
:1048600003007047006900F003007047F8B50400CA
:1048700025D004F13C056878002804D10020287078
:10488000204602F006F92420687020680168490873
:1048900049000160FFF746FD0146DFF8002560682A
:1048A000904205D2DFF8F80481428041C00F04E055
:1048B000DFF8F00481428041C00F012801D10120BE
:1048C000F2BDDFF8E404B1FBF0F320684668B609F6
:1048D00053EA861646602668376A6068904201D2BD
:1048E0005B1C07E04FF4967043434FF47A70B3FBC0
:1048F000F0F35B1CBF0953EA871333622368DE6958
:104900006768491E974209D27F00B1FBF7F1491C45
:10491000C1F30B0104292ED204212CE0A068002849
:1049200007D107EB4702B1FBF2F2521CC2F30B02B4
:1049300008E019227A43B1FBF2F2521CC2F30B02D7
:1049400042F48042120501D1012114E0002807D170
:1049500007EB4707B1FBF7F1491CC1F30B0108E076
:1049600019204743B1FBF7F1491CC1F30B0141F496
:10497000804141F40041DFF8340406400E43DE611B
:1049800021680A6822F0C002E0690243206A0243FB
:104990000A6021688A68DFF818040240206902432F
:1049A000E06802438A602168CA68120AA3696069E4
:1049B000034353EA0222CA602068016841F0010102
:1049C0000160002068602020687000202063A870CB
:1049D000F2BD2DE9FC470646884691469A4602F00C
:1049E000EDF8044606F13C077878202840F08C80EA
:1049F000009419230122DFF8BC13304600F0B8FA06
:104A0000002840F08180387801287DD0012038705E
:104A100030680168C90703D4016841F001010160F1
:104A20000A9D3068016821F40061016021207870DE
:104A30001020B87000207860C6F82490A6F82AA04C
:104A4000708D3085DFF87003F06223462A464146B8
:104A5000304600F0B5F9002840D1002000903068C1
:104A600041690091806900900098308D002840D005
:104A700022462946304600F014FB002830D1706AE7
:104A8000007831680861706A401C7062708D401E49
:104A90007085308D401E308531684A6952070ED5C9
:104AA00080B200280BD0706A00780861706A401CE0
:104AB0007062708D401E7085308D401E308522469C
:104AC0002946304600F018FB0028CED0786804282C
:104AD00004D13068016841F400710160012014E0E4
:104AE00078680428FAD13068016841F400710160E7
:104AF000F4E73068016841F40071016020207870AB
:104B00000020B870387000E00220BDE8F6872DE97B
:104B1000FC470646884691469A4602F04FF80446FE
:104B200006F13C077878202840F03581009419235D
:104B30000122DFF88012304600F01AFA002840F017
:104B40002A813878012800F02681012038703068E9
:104B50000168C90703D4016841F0010101600A9DA1
:104B60003068016821F40061016022207870102013
:104B7000B87000207860C6F82490A6F82AA0708D3E
:104B80003085DFF83402F06223462A46414630463B
:104B900000F067F9002840F0D780308D3168002898
:104BA0000BD100200090486900908869009000981F
:104BB000086840F40070086047E0012810D10868D8
:104BC00020F4806008600020009030684169009106
:104BD000816900910099016841F40071016034E03D
:104BE0000228086810D120F48060086030680168ED
:104BF00041F400610160002000903068416900913B
:104C000080690090009820E040F4806008600020F7
:104C1000009030684169009180690090009814E02C
:104C200022462946304600F092FA002840F08C8057
:104C300030680069716A0870706A401C7062308D5B
:104C4000401E3085708D401E7085308D002800F02C
:104C50009C800146042970D20128E1D0DFF85C81F4
:104C6000022800942B4626D100224146304600F00F
:104C70007FF9002868D13068016841F40071016053
:104C800030680069716A0870706A401C7062308D0B
:104C9000401E3085708D401E708530680069716AD5
:104CA0000870706A401C7062308D401E3085708DB7
:104CB000401E7085C9E700224146304600F058F991
:104CC000002841D13068016821F4806101603068BA
:104CD0000069716A0870706A401C7062308D401EF5
:104CE0003085708D401E708500942B460022414611
:104CF000304600F03DF9002826D13068016841F4C3
:104D00000071016030680069716A0870706A401C47
:104D10007062308D401E3085708D401E7085306809
:104D20000069716A0870706A401C7062308D401EA4
:104D30003085708D401E708587E7224629463046B3
:104D400000F005FA002801D0012025E03068006954
:104D5000716A0870706A401C7062308D401E308528
:104D6000708D401E70853068416949077FF56DAFD1
:104D70000069716A0870706A401C7062308D401E54
:104D80003085708D401E70855FE720207870002090
:104D9000B870387000E00220BDE8F687A1860100F7
:104DA00080841E0000093D0040420F000030FFFFDC
:104DB000007CFFFF020010000000FFFF0400010064
:104DC000F8B504460D4616461F46E06A082804D08A
:104DD000012802D06349884205D12068016841F466
:104DE0008071016007E0206B122804D120680168FF
:104DF00041F4807101600097334600224FF00111A9
:104E0000204600F0B5F8002801D00120F2BD20684E
:104E10002169B1F5804F03D105F0FE05056114E06D
:104E20002946C90901F0060141F0F00101613B4644
:104E30003246DFF83411204600F0DCF8002801D0BB
:104E40000120F2BDEDB2206805613B463246DFF835
:104E50001C11204600F0CEF8401E8041C043C00F18
:104E6000F2BD2DE9FC4104460F4615461E46E06A98
:104E700021680A6842F480620A60082804D0012888
:104E800002D03849884205D12068016841F4807118
:104E9000016007E0206B112804D12068016841F40B
:104EA0008071016000962B4600224FF001112046D0
:104EB00000F05EF8002801D0012051E0206821694F
:104EC000B1F5804F04D147F00107FFB207613DE023
:104ED000B8464FEAD81808F0060848F0F00101611A
:104EE00033462A46DFF88010204600F083F8002879
:104EF00001D0012034E0FFB22068076133462A4622
:104F0000DFF86810204600F075F8002801D0012075
:104F100026E000200090206841690091816900919D
:104F20000099016841F48071016000962B460022CF
:104F30004FF00111204600F01BF8002801D001209D
:104F40000EE048F0F1082068C0F8108033462A4689
:104F50000649204600F04EF8401E8041C043C00F75
:104F6000BDE8F6810000FFFF08000100020001001B
:104F70002DE9F04105460E4617461C46DDF818801F
:104F800028683146090CC9B2012909D1406930406D
:104F900080B2B1B2884201D101200AE0002008E0CD
:104FA0008069304080B2B1B2884201D1012000E076
:104FB0000020394688421AD114F1010FE0D001F0E7
:104FC000FDFDA0EB0800844201D3002CD8D10020C5
:104FD000286305F13C002021417000218170416867
:104FE00041F02001416000210170012000E000201B
:104FF000BDE8F081F8B505460E4614461F46286800
:105000003146090CC9B2012909D14169314089B23F
:10501000B2B2914201D101210AE0002108E0816988
:10502000314089B2B2B2914201D1012100E00021A8
:10503000002934D14169490517D5016841F400714F
:1050400001606FF48060296848610020286305F1E1
:105050003C002021417000218170416841F0040131
:105060004160002101700120F2BD14F1010FC6D092
:1050700001F0A4FDC01B844201D3002CBFD100204D
:10508000286305F13C0020214170002181704168B6
:1050900041F020014160002101700120F2BD00209B
:1050A000F2BD70B505460C461646286840690006F4
:1050B00020D4284600F080F8002801D0012070BDDF
:1050C00014F1010FF1D001F079FD801B844201D36E
:1050D000002CEAD10020286305F13C00202141701A
:1050E00000218170416841F0200141600021017080
:1050F000012070BD002070BD70B505460C461646F7
:1051000028684069400720D4284600F055F8002858
:1051100001D0012070BD14F1010FF1D001F04EFD5E
:10512000801B844201D3002CEAD10020286305F1C2
:105130003C002021417000218170416841F0200134
:10514000416000210170012070BD002070BD70B56C
:1051500005460C4616462868416949062AD4416925
:10516000C90616D401F02AFD801B844201D3002C0D
:10517000F1D10020286305F13C002021417000217D
:105180008170416841F020014160002101700120DF
:1051900070BD6FF0100141610020286305F13C00F3
:1051A000202141700021817041684160002101701F
:1051B000012070BD002070BD01684A69520511D5FB
:1051C0006FF480624A61002101633C30202141700C
:1051D00000218170416841F00401416000210170AB
:1051E000012070470020704738B5040001D101202C
:1051F00032BD04F13C056878002804D100202870F5
:10520000204601F07AFC02206870211D206800F021
:10521000BEF801206870002032BD0168CA6842F003
:105220000102CA600068816801F00701062903D005
:10523000016841F0010101600020704710B504468B
:1052400020680169890717D5C168890714D56FF0EF
:1052500002010161012020772068806910F0030FAE
:10526000204602D001F0C8FD04E001F0C6FD204652
:1052700001F0C4FD0020207720680169490717D597
:10528000C168490714D56FF004010161022020773D
:105290002068806910F4407F204602D001F0ACFD08
:1052A00004E001F0AAFD204601F0A8FD00202077CF
:1052B00020680169090717D5C168090714D56FF07F
:1052C00008010161042020772068C06910F0030FF5
:1052D000204602D001F090FD04E001F08EFD204652
:1052E00001F08CFD0020207720680169C90617D5E0
:1052F000C168C90614D56FF010010161082020773C
:105300002068C06910F4407F204602D001F074FD8F
:1053100004E001F072FD204601F070FD00202077CE
:1053200020680169C90708D5C168C90705D56FF0AC
:10533000010101612046FEF72DF820680169090688
:1053400008D5C168090605D56FF0800101612046C6
:1053500001F055FD20680169490608D5C168490674
:1053600005D56FF040010161204601F049FD20683C
:10537000016989060AD5C168890607D56FF0200141
:1053800001612046BDE8104001F03BBD10BD10B4E6
:105390000468DFF8AC30984212D0B0F1804F0FD0E3
:1053A000DFF8A02090420BD0DFF89C20904207D07D
:1053B000DFF89820904203D0DFF89420904203D188
:1053C00024F070044A681443984220D0B0F1804F12
:1053D0001DD01C4A90421AD01B4A904217D01B4A3B
:1053E000904214D01A4A904211D01A4A90420ED0DC
:1053F000194A90420BD0194A904208D0184A90425C
:1054000005D0184A904202D0174A904203D124F4A2
:105410004074CA68144324F080044A691443046049
:105420008A68C2620A688262984202D0084A904240
:1054300001D1096901630121416110BC704700007D
:10544000000001400004004000080040000C004043
:105450000004014000400140004401400048014078
:1054600000180040001C00400020004070B400F113
:105470003C031A78012A01D1022015E001221A709A
:1054800002225A7004686568A66826F080064A6899
:10549000164325F0700509680D4365600068866055
:1054A000012058700020187070BC704738B5040097
:1054B00001D1012032BD04F138056878002804D1FB
:1054C00000202870204601F034FB242068702068FA
:1054D000C16821F40051C160204600F016F8206830
:1054E000016921F4904101612068416921F02A019C
:1054F00041612068C16841F40051C16000206860CA
:1055000020206870A870002032BD2DE9F0410446CB
:1055100021680A6922F44052E06802430A61216866
:10552000CA6897480240A068024320690243606944
:105530000243E0690243CA6021684A6922F440726A
:10554000A06902434A6120688E49E269B2F5004FC2
:1055500040F08B80884202D08B49884242D1FEF7CE
:10556000ECFE0546FEF7E9FE0646FEF7E6FE0746B8
:10557000FEF7E3FE8046FEF7E0FE61684900642224
:1055800019235D43B5FBF1F59446B5FBFCF55E438D
:10559000B6FBF1F65F43B7FBF1F7B7FBFCF702FB95
:1055A0001766F60032361746B6FBF7F6760006F4B5
:1055B000F87606EB051603FB08F8B8FBF1F5434354
:1055C000B3FBF1F01146B0FBF1F002FB1052D20038
:1055D00032320846B2FBF0F000F00700861920686E
:1055E0008660CAE0FEF79EFE0546FEF79BFE064675
:1055F000FEF798FE0746FEF795FE8046FEF792FE00
:1056000061684900642219235D43B5FBF1F59446B6
:10561000B5FBFCF55E43B6FBF1F65F43B7FBF1F774
:10562000B7FBFCF702FB1766F60032361746B6FBEF
:10563000F7F6760006F4F87606EB051603FB08F895
:10564000B8FBF1F54343B3FBF1F01146B0FBF1F0C9
:1056500002FB1052D20032320846B2FBF0F000F0EA
:10566000070086192068866087E0884202D0464994
:10567000884241D1FEF761FE0546FEF75EFE064612
:10568000FEF75BFE0746FEF758FE8046FEF755FE26
:1056900061688900642219235D43B5FBF1F59446E6
:1056A000B5FBFCF55E43B6FBF1F65F43B7FBF1F7E4
:1056B000B7FBFCF702FB1766360132361746B6FB1E
:1056C000F7F606F0F00606EB051603FB08F8B8FB44
:1056D000F1F54343B3FBF1F01146B0FBF1F002FBEF
:1056E0001052120132320846B2FBF0F000F00F0007
:1056F00086192068866040E0FEF714FE0546FEF736
:1057000011FE0646FEF70EFE0746FEF70BFE80462C
:10571000FEF708FE61688900642219235D43B5FB2A
:10572000F1F59446B5FBFCF55E43B6FBF1F65F433D
:10573000B7FBF1F7B7FBFCF702FB17663601323611
:105740001746B6FBF7F606F0F00606EB051603FB68
:1057500008F8B8FBF1F54343B3FBF1F01146B0FB99
:10576000F1F002FB1052120132320846B2FBF0F0A7
:1057700000F00F00861920688660BDE8F081000007
:10578000F369FFFF0010014000140140F8B400234A
:105790002DE04FF0080C05E0DFF8B8C16045F8D106
:1057A0004FF0070C0CFA06FC4CEA070C45F824C035
:1057B000694C2668D5432E404F68FF0300D5164339
:1057C000266066682E404F68BF0300D516436660AA
:1057D000A6682E404F68FF0200D51643A660E66813
:1057E0002E404D68AD0200D51643E6605B1C0F2BC2
:1057F00000F29E8001249C400A682240A242F5D11A
:105800004D68022D01D0122D13D11D46ED0800EB7D
:105810008506356A9F0007F01C074FF00F0C0CFA45
:1058200007FC25EA0C05D1F810C00CFA07F73D4338
:10583000356207685D000326AE40F643374091F8B5
:1058400004C00CF0030C0CFA05FC4CEA07070760D7
:105850004F68012F05D0022F03D0112F01D0122F36
:1058600010D187683740D1F80CC00CFA05FC4CEA1F
:10587000070787604768A7434C68C4F300149C403F
:1058800027434760C46834408E6806FA05F52C4308
:10589000C4604C68E400A9D5002400942F4C25680E
:1058A00045F480452560246804F480440094009CFD
:1058B0001C46A4082A4D55F824709E0006F00C06DC
:1058C0004FF00F0C0CFA06FC27EA0C07DFF894C027
:1058D000604502D14FF0000C64E7DFF88CC06045F2
:1058E00002D14FF0010C5DE7DFF880C0604502D1C6
:1058F0004FF0020C56E7DFF878C0604502D14FF058
:10590000030C4FE7DFF86CC0604502D14FF0040C88
:1059100048E7DFF864C0604502D14FF0050C41E76D
:10592000DFF858C060457FF437AF4FF0060C39E719
:10593000F1BC7047006901400846401E8041C043E9
:10594000C00F7047002A01D081617047090481614E
:1059500070470000001C0240003C014044380240F7
:1059600008380140000002400004024000080240E4
:10597000000C0240001002400014024000180240D7
:10598000012804D012D303280BD005D3704700227E
:1059900002211248FFF7D6BF002210211048FFF75E
:1059A000D1BF002220210E48FFF7CCBF704701284D
:1059B00004D012D303280BD005D370470122022153
:1059C0000648FFF7BFBF012210210548FFF7BABF05
:1059D000012220210248FFF7B5BF704700000240B6
:1059E0000004024003B581B00146C82000900123A5
:1059F00002AA0748FEF7EDFF07BD80B50A46C82199
:105A00000091012301460248FFF781F801BD000023
:105A1000600B002003282FD8DFE800F0020D1823C8
:105A20001648012903D101221146FFF78BBF00223E
:105A30000121FFF787BF1248012903D1012240212C
:105A4000FFF780BF00224021FFF77CBF0C480129EF
:105A500003D101228021FFF775BF00228021FFF7CB
:105A600071BF0748012903D101222021FFF76ABF36
:105A700000222021FFF766BF70470000001002409F
:105A800000000240FDF76ABDFDF76CBDFDF775BD76
:105A900000B585B04FF47F40009000200190029047
:105AA0006946DFF87805FFF771FE05B000BD00B567
:105AB00085B04FF47F4000900120019000200290BB
:105AC00003906946DFF85405FFF760FE05B000BD9E
:105AD0002DE9FC4106460D469046FFF7D9FFDFF859
