:020000040800F2
:1000000010180020ED50000841510008455100082B
:10001000495100084D5100085151000800000000EE
:100020000000000000000000000000005551000822
:1000300059510008000000005D5100080D510008F2
:100040006151000865510008695100086D510008B0
:100050007151000875510008795100087D51000860
:100060008151000885510008895100088D51000810
:100070009151000895510008995100089D510008C0
:10008000A1510008A5510008A9510008AD51000870
:10009000B1510008B5510008B9510008BD51000820
:1000A000C1510008C5510008C9510008CD510008D0
:1000B000D1510008D5510008D9510008DD51000880
:1000C000E1510008E5510008E9510008ED51000830
:1000D000F1510008F5510008F9510008FD510008E0
:1000E0000152000805520008095200080D5200088C
:1000F0001152000815520008195200081D5200083C
:100100002152000825520008295200082D520008EB
:1001100031520008355200081151000839520008C8
:100120003D5200084152000845520008495200085B
:100130004D5200085152000855520008595200080B
:100140005D520008615200086552000869520008BB
:100150006D5200087152000875520008795200086B
:100160007D5200088152000885520008895200081B
:100170008D520008915200089552000800000000BE
:10018000995200089D52000810B400230C4601E06B
:10019000C2545B1CA342FBDB10BC704730B402228C
:1001A000022A1BD100220B465B1E012BF8DBC41870
:1001B00014F8014CFF2C04D01546012D04D1022265
:1001C00002E0150000D10122C55CFF2D04D1C4540A
:1001D000FF24C51805F8014C5B1EE6E730BC7047EC
:1001E00010B41478FF2C0DD0FE2C0BD1491E07E063
:1001F000445CFF2C03D14354FD2111700021491EA2
:100200000029F5DC10BC70470922DFF894194B7AFD
:10021000FF2B00D1704730B400230DE0AA24DFF893
:1002200084592C7203E0AA24DFF87859EC71FF247A
:100230008C54521ED2B29B1C072B3ADCC45CAA2CF5
:10024000F9D18C5CFF2CF6D05624C4548C5CC518B4
:100250006C708C5C082CEAD8DFE804F0080D1217EB
:100260001C2126070600E2E7D8E7DCE7AA24DFF82E
:1002700034592C70DBE7AA24DFF828596C70D6E7D4
:10028000AA24DFF82059AC70D1E7AA24DFF814596A
:10029000EC70CCE7AA24DFF80C592C71C7E7AA242C
:1002A000DFF800596C71C2E7AA24DFF8F858AC7186
:1002B000BDE730BC704700001722DFF8DC19CB7DAA
:1002C000FF2B00D1704730B400230DE0AA24DFF8E3
:1002D000D458EC7703E0AA24DFF8C858AC77FF24A1
:1002E0008C54521ED2B29B1C082B80F28880C45CB6
:1002F000AA2CF8D18C5CFF2CF5D04324C4548C5C20
:10030000C5186C708C5C172CE9D8DFE804F00F146A
:10031000191E23282D32373C41464B50555A5F64F5
:10032000696E730C0E0DDAE7D0E7D4E7AA24DFF884
:1003300074586C72D3E7AA24DFF86858AC72CEE721
:10034000AA24DFF86058EC72C9E7AA24DFF85458F1
:100350002C73C4E7AA24DFF84C586C73BFE7AA24B7
:10036000DFF84058AC73BAE7AA24DFF83858EC73CA
:10037000B5E7AA24DFF82C582C74B0E7AA24DFF8DC
:1003800024586C74ABE7AA24DFF81858AC74A6E7BD
:10039000AA24DFF81058EC74A1E7AA24DFF8045867
:1003A0002C759CE7AA24DFF8FC576C7597E7AA2404
:1003B000DFF8F057AC7592E7AA24DFF8E857EC7540
:1003C0008DE7AA24DFF8DC572C7688E7AA24DFF82B
:1003D000D4576C7683E7AA24DFF8C857AC767EE75B
:1003E000AA24DFF8C057EC7679E7AA24DFF8B457DF
:1003F0002C7774E7AA24DFF8AC576C776FE730BC32
:10040000704710B50446AA220821FFF7BDFE53200D
:10041000A071DFF8C80A0178E1718178FF2903D063
:1004200057212171807860712046FFF7EDFE20464C
:10043000BDE8104040E770B5DFF85C481821204661
:10044000FFF7ACFEDFF858570A212846FFF7A6FE53
:10045000DFF85067AB7BB21C0A212846FFF7C0FECD
:100460002B7B32460A212846FFF7BAFE6B7B721CB3
:100470000A212846FFF7B4FEEB7BF21C0A2128462E
:10048000FFF7AEFE2B7C321D0A212846FFF7A8FE9F
:100490006B7C721D0A212846FFF7A2FEAB7CB21DC1
:1004A0000A212846FFF79CFE2B7D06F108020A214F
:1004B0002846FFF795FEEB7CF21D0A212846FFF740
:1004C0008FFEDFF87C5A2B7C06F11902182120469A
:1004D000FFF786FE6B7C06F11A0218212046FFF713
:1004E0007FFE2B7D06F11D0218212046FFF778FEC6
:1004F0006B7A06F1120218212046FFF771FE2B7A63
:1005000006F1110218212046FFF76AFEEB7A06F188
:10051000140218212046FFF763FEAB7A06F113029E
:1005200018212046FFF75CFE6B7B06F116021821AE
:100530002046FFF755FE2B7B06F1150218212046B9
:10054000FFF74EFEEB7B06F1180218212046FFF75D
:1005500047FEAB7B06F1170218212046FFF740FE4D
:10056000AB7B06F1170218212046FFF739FE2B78E6
:1005700006F1090218212046FFF732FE6B7806F1DA
:100580000A0218212046FFF72BFEAB7806F10B027A
:1005900018212046FFF724FEEB7806F10C02182103
:1005A0002046FFF71DFE2B7906F10D02182120468B
:1005B000FFF716FE6B7906F10E0218212046FFF7B1
:1005C0000FFEAB7906F10F0218212046FFF708FE57
:1005D000EB7906F1100218212046FFF701FEAB7CF3
:1005E00006F11B0218212046FFF7FAFDEB7C06F10D
:1005F0001C0218212046FFF7F3FDAB7D06F11F0218
:1006000018212046FFF7ECFD6B7D06F11E02182134
:100610002046BDE87040E3E5F8B504460025DFF864
:100620002469DFF824790BE0601940783146C874FA
:1006300005E03846017A3246117402210176AD1C7C
:10064000082D80F2A181605D432840D04D2808D05C
:10065000532800F03C81562800F0E2805728E3D070
:10066000EDE76019407806281AD8DFE800F00407A3
:100670000A0D10131600387C707415E0787C7074C5
:1006800012E0B87C70740FE0F87C70740CE0387D78
:10069000707409E0787D707406E0B87D707403E0D2
:1006A000387A307401203876707CB97E814209D066
:1006B000B876002000F078FA002000F0C0FB00209F
:1006C00000F08CFB0020F86178763075B7E7601990
:1006D0004078172800F29D80DFE800F00C11161B0F
:1006E00020252A31383F464D545B626970777E83FE
:1006F000889B8D94BB20DFF8981948729FE7BB2038
:10070000DFF88C1988729AE7BB20DFF88419C87269
:1007100095E7BB20DFF87819087390E7BB20DFF876
:10072000701948738BE7BB20DFF86419887386E77C
:10073000DFF85C09BB21C173002101747FE7DFF89A
:100740005009BB2101740021C17378E7DFF840092B
:10075000BB2141740021817471E7DFF83409BB21AA
:100760008174002141746AE7DFF82409BB21C17458
:100770000021017563E7DFF81809BB21017500212D
:10078000C1745CE7DFF80809BB2141750021817560
:1007900055E7DFF8FC08BB218175002141754EE764
:1007A000DFF8EC08BB21C1750021017647E7DFF8CF
:1007B000E008BB2101760021C17540E7DFF8D008D1
:1007C000BB2141760021817639E7DFF8C408BB21DF
:1007D00081760021417632E7BB20DFF8B418C87675
:1007E0002DE7BB20DFF8A818087728E7BB20DFF843
:1007F000A018487723E7DFF89808BB21817700210C
:10080000C1771CE7DFF88808BB21C1770021817719
:1008100015E73846017A32461174032101760EE756
:100820006019407808284BD8DFE800F0050D151D49
:10083000252D353C4300DFF85808BB21017000210D
:1008400041804170FBE6DFF84808BB214170002180
:1008500001704180F3E6DFF83808BB218170002188
:100860000180C170EBE6DFF82808BB21C1700021D0
:1008700001808170E3E6DFF81808BB2101710021D7
:1008800041718171DBE6DFF80808BB21417100216D
:1008900001718171D3E6DFF8F807BB218171002176
:1008A0008180CCE6DFF8E807BB21C171002101722D
:1008B000C5E6DFF8DC070021C171BB210172BEE68D
:1008C0003846017A3246117404210176B7E6601980
:1008D000407810283FF6ADAEDFE800F00B161A1E88
:1008E0000A22262A2E32363C42464A4E5200A0E6C2
:1008F000A5E63046BB2101703946097C427C8A421C
:100900003FF49DAE41749AE6BB203146487096E6AE
:10091000BB203146887092E6BB203146C8708EE617
:10092000BB20314608718AE6BB203146487186E615
:10093000BB203146887182E6BB203146C8717EE615
:10094000BB20314608727AE63046BB214172002155
:10095000817274E63046BB218172002141726EE6DD
:10096000BB203146C8726AE6BB203146087366E692
:10097000BB203146487362E6BB20314688735EE691
:10098000BB203146C8735AE6F1BDDFF8BC15C86913
:10099000401C00EE100A81ED070ADFF8642592F88A
:1009A000540000280AD1BBEEEF0ABDEEC00A10EEDB
:1009B000100AC0B2142390FBF3F04876487E0B284F
:1009C00002DBFF2082F8540070470278FF2A00D033
:1009D00001707047F0B4DFF8C811DFF82425034632
:1009E000FF2B2DD19378FD2B08D01378FD2B05D04C
:1009F0005378FD2B02D0D378FD2B1CD1002318E0B7
:100A0000CC5C8D7BAC4201D1FF24CC54CC5C0D7B03
:100A1000AC4201D1FF24CC54CC5C4D7BAC4201D123
:100A2000FF24CC54CC5CCD7BAC4201D1FF24CC5410
:100A30005B1C0A2BE4DBFF23937013705370D3709D
:100A40000B7B04461D46AC4227D19478FD2C05D083
:100A50005478FD2C02D0D478FD2C16D1002412E05D
:100A60000D5D8E7BB54201D1FF250D550D5D4E7B91
:100A7000B54201D1FF250D550D5DCE7BB54201D1AB
:100A8000FF250D55641C0A2CEADB1478FD2C01D0DF
:100A9000FE2414700024548054708C7B0546264636
:100AA000B54226D11578FD2D05D05578FD2D02D003
:100AB000D578FD2D15D1002511E04E5D9E4201D166
:100AC000FF264E554E5D4F7BBE4201D1FF264E554F
:100AD0004E5DCF7BBE4201D1FF264E556D1C0A2DC7
:100AE000EBDB9578FD2D01D0FE2595700025158056
:100AF000D5704D7B06462F46BE4226D11678FD2E78
:100B000005D09678FD2E02D0D678FD2E15D1002680
:100B100011E08F5D9F4201D1FF278F558F5DA74266
:100B200001D1FF278F558F5D91F80FC0674501D127
:100B3000FF278F55761C0A2EEBDB5678FD2E01D051
:100B4000FE265670002616705680CE7BB04224D109
:100B50001078FD2805D09078FD2802D05078FD2827
:100B600013D100200FE00E5C9E4201D1FF260E54EF
:100B70000E5CA64201D1FF260E540E5CAE4201D19E
:100B8000FF260E54401C0A28EDDBD078FD2801D04A
:100B9000FE20D070002010705080F0BC7047000024
:100BA000AC0700202005002038B50446D44D21466E
:100BB00005F13D00FFF709FF214605F13900FFF778
:100BC00004FF214605F13A00FFF7FFFE214605F13B
:100BD0003200FFF7FAFE214605F13100FFF7F5FE7E
:100BE000214605F13400FFF7F0FE214605F1330000
:100BF000FFF7EBFE214605F13600FFF7E6FE214642
:100C000005F13500FFF7E1FE214605F13800FFF759
:100C1000DCFE214605F13700FFF7D7FE214605F13E
:100C20002900FFF7D2FE214605F12A00FFF7CDFE8D
:100C3000214605F12B00FFF7C8FE214605F12C00E7
:100C4000FFF7C3FE214605F12D00FFF7BEFE21464A
:100C500005F12E00FFF7B9FE214605F13B00FFF735
:100C6000B4FE214605F13C00FFF7AFFE214605F139
:100C70003000FFF7AAFE214605F12F00FFF7A5FE81
:100C8000214605F13F00FFF7A0FE214605F13E0099
:100C9000BDE8344099E60000C407002038B504469A
:100CA000974D214605F11D00FFF78FFE214605F106
:100CB0001900FFF78AFE214605F11A00FFF785FEAD
:100CC000214605F11200FFF780FE214605F11100D3
:100CD000FFF77BFE214605F11400FFF776FE214663
:100CE00005F11300FFF771FE214605F11600FFF72D
:100CF0006CFE214605F11500FFF767FE214605F160
:100D00001800FFF762FE214605F11700FFF75DFEB0
:100D1000214605F10900FFF758FE214605F10A00BA
:100D2000FFF753FE214605F10B00FFF74EFE21466B
:100D300005F10C00FFF749FE214605F10D00FFF714
:100D400044FE214605F10E00FFF73FFE214605F166
:100D50001B00FFF73AFE214605F11C00FFF735FEA8
:100D6000214605F11000FFF730FE214605F10F0086
:100D7000FFF72BFE214605F11F00FFF726FE214657
:100D800005F11E00BDE834401FE638B504465C4D51
:100D90002146A81CFFF719FE21462846FFF715FE3D
:100DA0002146681CFFF711FE2146A81DFFF70DFE26
:100DB0002146E81CFFF709FE2146281DFFF705FE26
:100DC000214605F10800FFF700FE2146E81DFFF768
:100DD000FCFD2146681DBDE83440F6E538B5044603
:100DE000474D214605F12200FFF7EFFD214605F1B1
:100DF0002000FFF7EAFD214605F12100FFF7E5FDA0
:100E0000214605F12600FFF7E0FD214605F123000C
:100E1000FFF7DBFD214605F12400FFF7D6FD214653
:100E200005F12800FFF7D1FD214605F12700FFF766
:100E3000CCFD214605F12500BDE83440C5E538B5B7
:100E400004462F4D214605F14400FFF7BEFD214623
:100E500005F14500FFF7B9FD214605F14600FFF712
:100E6000B4FD214605F14700FFF7AFFD214605F12E
:100E70004800FFF7AAFD214605F14900FFF7A5FD4F
:100E8000214605F14A00FFF7A0FD214605F14B0080
:100E9000FFF79BFD214605F14C00FFF796FD21462B
:100EA00005F14D00FFF791FD214605F14E00FFF7DA
:100EB0008CFD214605F14F00FFF787FD214605F126
:100EC0004300FFF782FD214605F14100FFF77DFD5C
:100ED000214605F14000BDE8344076E5700500206C
:100EE00010B500F0E9F8002808D06A4C204600F060
:100EF000E5F82046BDE81040FFF78EBB10BD0000AE
:100F00002005002010B5FFF740FD634C607E0128EE
:100F100010D1E07E002811D104F12000FFF771FA12
:100F2000082204F120014FF4007000F0C9F80120FC
:100F3000E07610BDFFF77FFA0020E07610BD0000DC
:100F40009407002060050020E406002038B5524CCC
:100F500000202074012060740220A0740320E0743B
:100F600004202075052060750620A07500202070E3
:100F7000012060700220A0700320E0700520207125
:100F8000062060710720A0710820E07109202072FE
:100F90000A2060720B20A0720C20E0720D202073DA
:100FA0000E2060730F20A0731020E0733B480021D7
:100FB000017001214170022181700321C17004215F
:100FC000017105214171062181710721C17108213B
:100FD0000172092141720A2181720B21C1720C2117
:100FE00001730D2141730E2181730F21C1731021F3
:100FF000017411214174122181741321C1741421CF
:1010000001751621417517218175254D0020287322
:10101000012068730220A8730320E8730420287459
:10102000052068740620A8740720E8740820287535
:101030000020FFF7B9FD0020FFF7D0FE0020FFF7EA
:10104000FEFEFF20FFF72AFEFF20FFF79EFE154859
:10105000FF2181700021C170A1790170A17D4170D3
:1010600000210171AA22082104F12000FFF78CF869
:10107000FF2218210C48FFF787F8FF220A21284693
:10108000FFF782F809480A4941600A49816031BD89
:1010900040050020FC070020E40600209407002003
:1010A000AC07002070050020C40700207C0700204A
:1010B000E10E0008050F000800F004B800F006B8C3
:1010C00000F00FB80021234800F087BA80B503462E
:1010D000224A00211F4800F0F1F9401E8041C00F54
:1010E00002BD10B51C4C2060226104F140030A4689
:1010F0002146184800F076F9401E8041C043C00FD9
:1011000010BD10B51448002141608160C1600175B7
:1011100042F2604181610021C161016241628162EC
:101120000D21C16200210163012141638163094CEA
:1011300000F11801204600F0ACF8002801D0012091
:1011400010BD204600F01DF9401E8041C043C00F75
:1011500010BD0000BC060020CC0500203007002098
:1011600038B5040001D1012032BD94F820000028D8
:1011700002D1204600F060FA2068016821F00201E7
:10118000016000F021FB05462068416889070DD504
:1011900000F01AFB401B0B28F6D3606A40F40030C5
:1011A0006062052084F82000012032BD016841F012
:1011B0000101016000F008FB054620684168C9078D
:1011C0000DD400F001FB401B0B28F6D3606A40F4FD
:1011D00000306062052084F82000012032BD217EAD
:1011E0000129016803D141F08001016002E021F092
:1011F000800101602068617E0129016803D141F00E
:101200004001016002E021F0400101602068A17E00
:101210000129016803D141F02001016002E021F0C1
:10122000200101602068E17E0129016803D121F0DD
:101230001001016002E041F0100101602068217F8F
:101240000129016803D141F00801016002E021F0A9
:10125000080101602068617F0129016803D141F024
:101260000401016002E021F004010160A168E0686E
:10127000014320690143606901436068401E0143E6
:101280002068C16100206062012084F820000020F5
:1012900032BDF0B490F82020012A01D0022A69D191
:1012A0004E4A106840F001001060106820F47C5035
:1012B000106010684B6A40EA0320106001200B7D2B
:1012C00003F01F0300FA03F3DC43D0692040D06130
:1012D000C869002816D1D0682040D060404800F589
:1012E00010754E69CF68D1F804C0CCEA074745F8BD
:1012F000367000F511704D698E680F68C7EA0646B2
:1013000040F83560C869012816D1D0681843D0600C
:10131000334800F510754E690F68D1F804C0CCEA67
:10132000074745F8367000F511704D698E68CF6833
:10133000C7EA064640F8356088690028506802D13F
:101340002040506001E0184350600869002850694F
:1013500002D10440546101E018435061086A012839
:1013600002D1D0690343D361106840084000106087
:10137000002004E0416A41F4802141620120F0BC78
:10138000704738B5044694F8200001281FD1022088
:1013900084F820002068016849084900016000F0D5
:1013A00013FA054620684068C0070DD500F00CFA16
:1013B000401B0B28F6D3606A40F4003060620520C1
:1013C00084F82000012032BD0020606232BD606AD6
:1013D00040F400206062012032BD00000066004041
:1013E00000640040F0B490F820400568AD68012C1E
:1013F00001D0022C5BD115F0E05F52D0C5F301643F
:10140000032C05D3416A41F400014162012053E0FD
:101410000125A5401D60036803F5C0752401CE6851
:101420008B68002B04D10B6846EA43562E5104E02A
:101430004F6843EAC7031E432E510B69056805F543
:10144000C2752B51097D012906D1016801F5C271D0
:101450000B5943F480730B51D17993791B0443EA00
:101460000163517943EA012311790B430168214457
:10147000C1F88C31D17893781B0443EA0163517829
:1014800043EA012311780B4301682144C1F88831F4
:10149000006800F5C070015941F0010101510020C0
:1014A0000AE0416A41F400114162012004E0416A0E
:1014B00041F4802141620120F0BC704770B490F883
:1014C0002040012C02D0022C40F0808004680029CA
:1014D00009D1E56815F0030F0FD1416A41F40011FD
:1014E0004162012077E0256915F0030F05D1416ABB
:1014F00041F40011416201206DE00D0104F5D87442
:10150000645904F004049460066806F5D876002C4B
:10151000745902D1640D146001E0E4085460046859
:1015200004F5D8746459C4F34004D46004682C44AE
:10153000D4F8B44104F00F04146104682C44D4F8C6
:10154000B441C4F30724946104682C44D4F8B44132
:10155000240C546102682A44D2F8B8211A70026837
:101560002A44D2F8B821120A5A7002682A44D2F8E2
:10157000B821120C9A7002682A44D2F8B821120ECF
:10158000DA7002682A44D2F8BC211A7102682A442F
:10159000D2F8BC21120A5A7102682A44D2F8BC213E
:1015A000120C9A7102682A44D2F8BC21120EDA7128
:1015B0000068002904D1C16841F02001C16003E046
:1015C000016941F020010161002004E0416A41F419
:1015D00080214162012070BC70470246002092F8D1
:1015E0002030012B01D0022B09D11068002903D132
:1015F000C06800F003007047006900F00300704706
:1016000082B0002000906748416841F48041416009
:10161000416801F480410091009900210091016826
:1016200041F080510160006800F080500090009807
:10163000072002B000F027B910B586B0044600229A
:10164000142101A800F03EF920685749884224D1AE
:10165000002000905548016941F000710161016965
:1016600001F000710091009900210091016841F0A2
:1016700008010160006800F0080000900098032055
:101680000190022002900020039003200490092082
:10169000059001A9464800F04FF906B010BD10B5FD
:1016A00086B004460022142101A800F00BF920683E
:1016B0004049884225D1002000903C4C206840F0F1
:1016C00002002060206800F00200009000984FF4B3
:1016D00010700190122002900120039000200490CD
:1016E0000420059001A9344800F026F9002000905C
:1016F000206940F400102061206900F4001000907F
:10170000009806B010BD00682C49884200D0704790
:1017100080B5002000902348016841F0100101606D
:10172000006800F01000009000980022114636205A
:1017300000F0AAF83620BDE8024000F0B4B810B5B9
:1017400086B004460022142101A800F0BBF82068EE
:101750001B49884224D1002000901448016941F4BB
:1017600000310161016901F400310091009900210B
:101770000091016841F001010160006800F0010082
:10178000009000980C20019002200290012003900C
:10179000032004900720059001A90A4800F0CCF826
:1017A00006B010BD403802400064004030380240AE
:1017B000000C0240005400400004024000100040B1
:1017C000004400400000024001484068704700BFEC
:1017D00000000020354A13684FF6FF010B4000025D
:1017E00000F4E060184332490843106070472F4806
:1017F0000068C0F302207047010007D4012200F006
:101800001F018A402B49400941F8202070470901F7
:10181000020002D4284881547047284802F00F0281
:10182000104400F8041C704710B400F00700C0F129
:101830000703052B00D30423041D072C01D200202D
:1018400000E0C01E012404FA03F35B1E194081402E
:1018500004FA00F0401E1040084310BC704710B559
:10186000401EB0F1807F01D3012010BD144C606098
:101870000F214FF0FF30FFF7CAFF0020A0600720C4
:101880002060002010BDA5E770B504460D46164641
:10189000FFF7ADFF32462946FFF7C6FF0146204657
:1018A000BDE87040B3E7A7E7D9E700000CED00E022
:1018B0000000FA0500E100E000E400E018ED00E0BF
:1018C00010E000E062F30F2262F31F4200B500BF98
:1018D000130096469446103928BFA0E80C50FAD859
:1018E0005FEA417C28BF0CC048BF40F8042BC90701
:1018F00028BF20F8022B48BF00F8012B00BD30B4F0
:10190000002513E050F8042BD30744BFA9F10103CD
:101910009A18091F042942F8045BFAD213468C076F
:1019200044BF15809B1CC90748BF1D7050F8041B9D
:101930000029E7D130BC7047F8B400232DE04FF008
:10194000080C05E0DFF8B8C16045F8D14FF0070C8E
:101950000CFA06FC4CEA070C45F824C0694C2668D2
:10196000D5432E404F68FF0300D5164326606668B6
:101970002E404F68BF0300D516436660A6682E4010
:101980004F68FF0200D51643A660E6682E404D68FA
:10199000AD0200D51643E6605B1C0F2B00F29E8063
:1019A00001249C400A682240A242F5D14D68022DD4
:1019B00001D0122D13D11D46ED0800EB8506356AC6
:1019C0009F0007F01C074FF00F0C0CFA07FC25EAEC
:1019D0000C05D1F810C00CFA07F73D4335620768D3
:1019E0005D000326AE40F643374091F804C00CF08A
:1019F000030C0CFA05FC4CEA070707604F68012F3F
:101A000005D0022F03D0112F01D0122F10D18768DB
:101A10003740D1F80CC00CFA05FC4CEA0707876088
:101A20004768A7434C68C4F300149C4027434760B1
:101A3000C46834408E6806FA05F52C43C4604C68CF
:101A4000E400A9D5002400942F4C256845F4804576
:101A50002560246804F480440094009C1C46A4087B
:101A60002A4D55F824709E0006F00C064FF00F0C1E
:101A70000CFA06FC27EA0C07DFF894C0604502D197
:101A80004FF0000C64E7DFF88CC0604502D14FF0E6
:101A9000010C5DE7DFF880C0604502D14FF0020C19
:101AA00056E7DFF878C0604502D14FF0030C4FE7EE
:101AB000DFF86CC0604502D14FF0040C48E7DFF856
:101AC00064C0604502D14FF0050C41E7DFF858C013
:101AD00060457FF437AF4FF0060C39E7F1BC704733
:101AE000006901400846401E8041C043C00F704756
:101AF000002A01D0816170470904816170470000AC
:101B0000001C0240003C01404438024008380140BB
:101B1000000002400004024000080240000C0240A5
:101B200000100240001402400018024080B50FF27D
:101B3000C07000F03CFF032000F0A7FF012000F080
:101B4000A4FF022000F0BAFF1B2000F0CDFF012807
:101B500015D101F003F8022000F097FF0FF23110C9
:101B6000DFF8581748600FF24900DFF85417C860D3
:101B7000DFF850078079DFF8501781F85000DFF860
:101B80004C078078012812D100F0EBFF0FF21160B2
:101B9000DFF82C17C860DFF82C078078DFF82817EB
:101BA00081F850000220BDE8024000F06EBF01BD88
:101BB000F8B500210D2000F0AAFFDFF81457DFF878
:101BC000FC46DFF8106768783179884205D10FF25A
:101BD000287000F0DBFE60688047DFF8E876687800
:101BE0003178884207D10FF21C7000F0CFFE00F070
:101BF000A9FF3878287068787178884203D1FFF798
:101C000095FF787828706878B179884207D10FF20B
:101C1000007000F0BBFE00F095FFF878287068783F
:101C2000B178884205D10FF2F86000F0AFFEB879C4
:101C300028706878F178884207D10FF2F06000F0E0
:101C4000A5FE00F07FFFF87928702078002804D1E5
:101C5000DFF88406C078FEF7BDFE2078022804D1A4
:101C6000DFF874068078FEF7B5FE2078012804D1ED
:101C7000DFF864060078FEF7ADFE2078032806D171
:101C8000DFF854064078BDE8F240FEF7A3BEF1BD90
:101C900010B50FF2A46000F079FEDFF820460020B6
:101CA000207001460D2000F032FF0121002000F0DD
:101CB0002EFF0121062000F02AFF0021072000F05E
:101CC00026FF0121022000F022FF0021012000F068
:101CD0001EFF0121092000F01AFF0121082000F059
:101CE00016FF0FF20900606010BD000010B50FF282
:101CF000546000F04BFEDFF8C445A068401CA060B3
:101D000041F28831884208D30FF2486000F02DFE7E
:101D10000FF24550DFF8A815C860182000F0E4FE67
:101D200000283FD1172000F0DFFE01283AD1002122
:101D3000052000F0ECFE0121042000F0E8FE152053
:101D400000F0D2FE01282DD1132000F0CDFE012895
:101D500028D11A2000F0C8FE002823D1122000F05C
:101D6000C3FE00281ED1112000F0BEFE002819D1AC
:101D7000192000F0B9FE002814D10F2000F0B4FEA5
:101D800001280FD1102000F0AFFE00280AD1002159
:101D9000084600F0BCFE0FF2D45000F0F7FD0FF241
:101DA0000900606010BD000010B5DFF81805C078AC
:101DB000DFF8141581F85000DFF80045E068401C9A
:101DC000E060B0F57A7F04D30FF28D40DFF8F014B5
:101DD000C860082000F088FE012803D100210820F7
:101DE00000F095FE182000F07FFE01280AD10121A5
:101DF000082000F08CFE0FF2845000F0C7FD0FF2B7
:101E00000900606010BD000010B5DFF8B804C078AC
:101E1000DFF8B41481F85000DFF8A0442069401CBA
:101E2000206140F24C41884204D30FF22D41DFF88B
:101E30009024D1606428C0F08C80122000F054FE01
:101E400001281CD1112000F04FFE002817D11920C5
:101E500000F04AFE012812D1012020700FF22C5010
:101E600000F083FD032000F0F7FD012000F00DFEDF
:101E7000022000F00AFE0FF2DD00606010BD1220AB
:101E800000F032FE01281CD1112000F02DFE0028A8
:101E900017D1192000F028FE002812D1022020704E
:101EA0000FF2FC4000F061FD032000F007FE01206E
:101EB00000F0EBFD022000F0E8FD0FF299006060F9
:101EC00010BD122000F010FE01281CD1112000F0DE
:101ED0000BFE012817D1192000F006FE012812D1AF
:101EE000032020700FF2CC4000F03FFD032000F0F3
:101EF000CCFD012000F0C9FD022000F0ADFD0FF285
:101F00005500606010BD122000F0EEFD002815D1D4
:101F1000112000F0E9FD002810D1192000F0E4FDA7
:101F200000280BD1002020700FF29C4000F01DFD16
:101F30000FF22530DFF88813C86010BD0420207030
:101F40000FF29C4000F011FD0FF20D30DFF870131E
:101F5000C86010BD80B50FF2A04000F017FDDFF89B
:101F60006403C078DFF8601381F85000152000F09A
:101F7000BBFD01280DD10121052000F0C8FD002185
:101F8000042000F0C4FD0FF21900DFF830134860A0
:101F900001BD0FF2C520DFF82813C86001BD0000A5
:101FA00010B5DFF82003C078DFF81C1381F850006B
:101FB000DFF808436069401C606142F2107188429A
:101FC00004D30FF29520DFF8F812C860162000F055
:101FD0008BFD01280AD10021092000F098FD0FF2A5
:101FE000284000F0D3FC0FF20900606010BD000033
:101FF00080B5DFF8D002C078DFF8CC1281F850004D
:10200000062000F071FD012811D1132000F06CFDB5
:1020100001280CD1142000F067FD002807D1012110
:10202000072000F074FD0021062000F070FD06205E
:1020300000F05AFD002819D1132000F055FD0028AA
:1020400014D1142000F050FD01280FD100210720E9
:1020500000F05DFD0121062000F059FD0FF2B830BF
:1020600000F094FC0FF209009449486001BD0000A3
:1020700010B59448C078944981F850008F4CA069FD
:10208000401CA06142F21071884207D3012109204F
:1020900000F03DFD0FF2C1108949C8601A2000F020
:1020A00023FD01281CD1E069401CE061B0F57A7F76
:1020B00016D30121092000F02AFD0021022000F0A2
:1020C00026FD0121084600F022FD0021032000F03A
:1020D0001EFD0FF2543000F059FC0FF20900606051
:1020E00010BD000080B57748C078774981F850006E
:1020F0000121002000F00BFD1D2000F0F5FC002860
:102100000FD10121022000F002FD0021012000F08A
:10211000FEFC0FF2243000F039FC0FF20900674991
:10212000486001BD10B56748C078674981F8500024
:10213000624C206A401C206240F6B831884206D3C7
:10214000664800F012FC0FF211105D49C8600F20C4
:1021500000F0CAFC012815D1207801280BD011D33A
:10216000032808D00ED20FF2E02000F00FFC0FF28F
:102170001900606010BD0FF2E02000F007FC0FF2C4
:102180001500606010BD00004E48007B4E4981F88C
:10219000500070474B48C07A4B4981F85000704757
:1021A00070B548488078484981F850000FF2B42053
:1021B00000F0FDFB002425462646112000F094FC8B
:1021C000012800D10126122000F08EFC012800D148
:1021D0000125192000F088FC012800D101241A20D3
:1021E00000F082FC012801D101242546002C06D0F4
:1021F000022C08D00AD2022000F02EFC06E00220B9
:1022000000F043FC02E0022000F058FC002E06D053
:10221000022E08D00AD2032000F01EFC06E00320A4
:1022200000F033FC02E0032000F048FC002D06D053
:10223000022D08D00AD2012000F00EFC06E0012099
:1022400000F023FC02E0012000F038FC2448006884
:10225000BDE870400047000010B51A48007A1A49DE
:1022600081F8500081A000F0A2FB032000F00DFCDB
:10227000012000F0F1FB022000F007FC194C20685F
:10228000B0F57A7F01DA00F072FC2068B0F57A7F51
:1022900001DD00F069FC206840F2D171884201DB69
:1022A000002020602068401C206010BD0E480349BB
:1022B00048600E480249C860704700000C070020C3
:1022C0007C070020E406002020050020DC07002019
:1022D00070050020F4060020B80700200C5000080C
:1022E000080800200C080020911C00082D1B000885
:1022F000417474656E7465004F7065726174696FC6
:102300006E000000454D455247454E4359000000C0
:10231000496E697469616C6973696E6700000000D9
:10232000546563686E696369616E00004D61696E32
:1023300074656E616E6365004C616E636520496E05
:10234000697400004174742046696E20696E697476
:1023500000000000457272657572206427696E691D
:102360007469616C69736174696F6E00506F757325
:102370007365203120626C6F6300000044657465F2
:102380006374696F6E20626C6F63000053756363E2
:1023900065733A426C6F6320524F554745210000E8
:1023A0005375636365733A426C6F63204E4F4952B5
:1023B000210000005375636365733A426C6F6320BC
:1023C0004D4554414C2100004572726575723A4D7D
:1023D00061676173696E20766964652100000000A1
:1023E0004572726575723A426C6F6320696E636FF5
:1023F0006E6E752100000000456C65766174657530
:1024000072204D6F6E746500456A656374696F6E06
:10241000426C6F6300000000417474656E64426C2E
:102420006F63436875746500417474656E644173CD
:10243000706972650000000056656E746F75736593
:102440004D6F6E7465000000506F6E745665727348
:10245000466F737365000000506F6E74566572733B
:1024600041736300546573747300000045727265B4
:102470007572000000F088BB80B500F082FBFEF7AB
:1024800040FEFEF763FD00F0BCFB002000F08CFD79
:10249000BDE80140FFF70ABF704738B5FFF7EAFF14
:1024A00000F0CEFE00F06DF800F030F900F016F903
:1024B00000F0EFF800F0BAF800F0D2F8FFF7DCFF18
:1024C000DFF80C45DFF80C55002201212046FFF70C
:1024D0000FFB002240212846FFF70AFB0022802143
:1024E0002846FFF705FB012220212846FFF700FBC5
:1024F000642000F0BFFE002201212046FFF7F8FA19
:10250000002240212846FFF7F3FA012280212846C5
:10251000FFF7EEFA002220212846FFF7E9FA6420AF
:1025200000F0A8FE002201212046FFF7E1FA012277
:1025300040212846FFF7DCFA002280212846FFF7D9
:10254000D7FA002220212846FFF7D2FA642000F0B3
:1025500091FE012211462046FFF7CAFA00224021CF
:102560002846FFF7C5FA002280212846FFF7C0FA67
:10257000002220212846FFF7BBFA642000F07AFEF3
:10258000A2E780B592B00022302106A8FFF79AF9A1
:102590000022142101A8FFF795F900200090DFF830
:1025A0003804016841F080510160006800F08050FB
:1025B0000090009800200090DFF82004016841F4AA
:1025C00080410160006800F4804000900098012084
:1025D00006904FF48030079002200C904FF480005A
:1025E0000D9004200E90A8200F900220109007203C
:1025F000119006A800F052FE002801D000F014FA55
:102600000F20019002200290002003904FF4A05070
:1026100004904FF480500590052101A800F0B2FF0E
:10262000002801D000F000FA13B000BD80B5DFF83B
:10263000B003DFF8B0130160A82141600021816080
:10264000C1604FF4003101610021416181618183EA
:10265000FEF786FD002802D0BDE80140E4E101BD9F
:1026600080B5E148E1490160E149416000218160B4
:10267000C1604FF480410161002141618161C1610C
:10268000016201F05DF8002802D0BDE80140CBE115
:1026900001BD1CB5002208216846FFF713F9D54C8F
:1026A000D548206000206060A0604AF20F40E060E2
:1026B0000020A061204601F003F9002801D000F0BD
:1026C000B3F910200090002001906946204601F0E7
:1026D00039FA002801D000F0A7F913BD80B5C7482A
:1026E000C74901604FF49641416000218160C1609B
:1026F00001610C21416100218161C16101F042FA57
:10270000002802D0BDE801408EE101BD2DE9F0476F
:1027100086B0002214216846FFF7D4F80020059007
:10272000B848016841F010010160016801F0100132
:102730000591059900210591016841F004010160AE
:10274000016801F0040105910599002105910168D6
:1027500041F080010160016801F080010591059957
:1027600000210591016841F001010160016801F05B
:1027700001010591059900210591016841F00201CF
:102780000160016801F002010591059900210591A0
:10279000016841F008010160006800F00800059040
:1027A00005988B4C002249212046FFF7A1F9964D50
:1027B000012211462846FFF79BF9864E0022E221AE
:1027C0003046FFF795F947F63307DFF840820022DD
:1027D00039464046FFF78CF94FF69079DFF830A282
:1027E000002249465046FFF783F949200090012016
:1027F000019000200290039069462046FFF79CF864
:102800004FF4205000900020019002906946284625
:10281000FFF792F8012000900190002002900390B1
:1028200069462846FFF788F80820009002200190AA
:102830000020029003900520049069462846FFF787
:102840007BF80120009073480190002002906946B7
:102850003046FFF771F8E22000900120019000203F
:102860000290039069463046FFF766F8102000900A
:1028700002200190002002900390062004906946F7
:102880003046FFF759F80097012001900020029090
:10289000039069464046FFF74FF80420009000205F
:1028A0000190029069464046FFF746F84FF47F409A
:1028B000009000200190029069462046FFF73CF806
:1028C0004FF480600090022001900020029003905D
:1028D0000520049069464046FFF72EF8CDF8009099
:1028E0000120019000200290039069465046FFF7B6
:1028F00023F84FF4A4500090022001900020029091
:1029000003900620049069462846FFF715F84FF417
:102910000070009000200190029069463046FFF759
:102920000BF84FF4E050009002200190002002903C
:1029300003900A20049069463046FEF7FDFF2020F0
:10294000009000200190029069465046FEF7F4FF87
:1029500002200090304801900020029069462046F5
:10296000FEF7EAFF06B0BDE8F08710B42B4A01215C
:102970001170002300E05B1C282B05DAC15CD41821
:102980002171C15C0029F6D110BC704710B4244AF3
:1029900001211170002300E05B1C152B05DAC15CDE
:1029A000D4182171C15C0029F6D110BC704710B455
:1029B0001C4A01211170002300E05B1C152B05DA75
:1029C000C15CD4182171C15C0029F6D110BC7047DC
:1029D00000100240000002404038024000700040F9
:1029E000BC06002000640040780500200054004030
:1029F000A0860100100600200010004050060020B4
:102A00000044004030380240000802400004024008
:102A1000000C02400000111000001210900600206F
:102A20004C07002064070020FEE730B40EE0026887
:102A3000436802440830DC0744BFA9F10104E318ED
:102A400052F8045B43F8045B091FF9D150F8041BEA
:102A50000029ECD130BC7047012804D014D30328DE
:102A60000CD005D3704701201E49087001F011BA3F
:102A700001201C494870022001F00BBA01201949BD
:102A80008870032001F005BA7047012804D014D3E0
:102A900003280CD005D3704701201249087001F0BB
:102AA000E1B901200F494870022001F0DBB9012093
:102AB0000C498870032001F0D5B97047012804D073
:102AC0000ED3032809D004D37047022005490870AB
:102AD00070470220034948707047022001498870FE
:102AE00070470000F40700201A49194A51F83030A5
:102AF0001A4412F8012C012301EBC0004068834006
:102B00001A401046401E8041C043C00F704770B449
:102B1000104A52F8303002EBC0040F4D0126002954
:102B200006D01846295C606886400E43EE5407E0E4
:102B3000EB5C61688E4023EA060652F830002E54A2
:102B400070BC70470248FF2101704170704700005F
:102B5000E807002010040020E7070020012001F012
:102B6000B3B9012001F0B8B9012001F0BDB90020CE
:102B700001F0BAB90649884202D106480068004708
:102B80007047034800F0B5BE03480249086070472B
:102B900010060020040800209924000810B50446FF
:102BA00004220121002001F0C7F904E004220121E0
:102BB000002001F0C1F90006F8D444F004042246D4
:102BC00001210020BDE8104001F0B6B938B5044637
:102BD0000D4604220121002001F0AEF904E0042298
:102BE0000121002001F0A8F90006F8D404F00B043C
:102BF000234601220021284601B0BDE8304001F003
:102C0000C9BA10B53E210220FFF7E0FFC021022023
:102C1000FFF7DCFFB8210220FFF7D8FF4021022098
:102C2000FFF7D4FF3F210220FFF7D0FF3E21012014
:102C3000FFF7CCFFC0210120FFF7C8FFB82101201A
:102C4000FFF7C4FF40210120FFF7C0FF3F21012013
:102C5000FFF7BCFF002003460AE0DFF8A04104EBC9
:102C6000C0046354521C1146C9B20829F5DB401C4C
:102C7000802801DA1A46F6E710BD2DE9F84F89469B
:102C80000246DFF8781101EBC2074C462146C91015
:102C900000917B5C214601250E46B61001EB56766D
:102CA000F610A1EBC6018D4045EA03018B4240D0EE
:102CB000402A03DB4FF00108403801E04FF00208E2
:102CC00040F04000064608F0030A3146C9B25046BB
:102CD000FFF77CFF4FEAD90949F0B8094946504649
:102CE000FFF774FF48F00C0B5846FFF757FF3146CB
:102CF000C9B25046FFF76AFF49465046FFF766FFE4
:102D00005846FFF74BFF83463146C9B25046FFF79E
:102D10005DFF49465046FFF759FF45EA0B05294636
:102D200000983954C9B248F008084046BDE8F44F4D
:102D30004CE7BDE8F18F2DE9F84F0E460146DFF86C
:102D4000BC2002EBC10734462246D2100092BB5C85
:102D500022464FF001081546AD1002EB5575ED10F7
:102D6000A2EBC50208FA02F842461D4682F0FF02B5
:102D70001A40954240D0402903DB4FF00909403802
:102D800001E04FF00A0940F04000054609F0030A4F
:102D90002946C9B25046FFF719FFF60846F0B806B3
:102DA00031465046FFF712FF49F00C0B5846FFF72B
:102DB000F5FE2946C9B25046FFF708FF3146504696
:102DC000FFF704FF5846FFF7E9FE83462946C9B2DC
:102DD0005046FFF7FBFE31465046FFF7F7FE88F0FE
:102DE000FF080BEA0808414649F008094846FFF782
:102DF000EDFE009807F80080BDE8F18F100000207C
:102E000038B52DED048BB0EE408AF0EE608AB0EE5E
:102E1000419AF0EE619A044651EC180B00221346D9
:102E200001F036FB2AD851EC190B01F031FB25D803
:102E3000DFF8EC3301F044FB20D251EC180BDFF843
:102E4000F43301F03DFB19D201F052FB054651EC81
:102E5000190B01F04DFBE4B2012C0146C9B2284622
:102E6000C0B205D1BDEC048BBDE83440FFF705BF0F
:102E7000BDEC048BBDE83440FFF75DBFBDEC048BB7
:102E800031BDF8B52DED0E8BB0EE408AF0EE608AC4
:102E9000B0EE419AF0EE619AB0EE42BAF0EE62BA4C
:102EA000B0EE43CAF0EE63CA044651EC190B53EC82
:102EB0001C2B01F03BFB41EC1A0B51EC180B53ECB3
:102EC0001B2B01F033FB41EC100B53EC102B01F0EA
:102ED0009FFB06460F4653EC1A2B51EC1A0B01F0E0
:102EE00097FB32463B4601F065FC41EC100B01F0CC
:102EF0001FFDB0EE40AAF0EE60AA51EC1B0B53ECA4
:102F0000182B01F013FB53EC1A2B01F093FD41EC4D
:102F10001B0B51EC1C0B53EC192B01F007FB53EC72
:102F20001A2B01F087FD41EC1C0B002527E0204601
:102F3000C0B2044651EC1D0B53EC1C2B01F068FB96
:102F400053EC192B01F036FC41EC110BB0EE41EAC9
:102F5000F0EE61EA51EC1D0B53EC1B2B01F058FB1A
:102F600053EC182B01F026FC41EC100B2046B0EE80
:102F70004E1AF0EE6E1AFFF743FF6D1CEDB22846B5
:102F800001F07CFE41EC1D0BB0EE4A0AF0EE6A0A3D
:102F900001F082FE51EC100B53EC1D2B01F078FA7E
:102FA000C5D9BDEC0E8BF1BD70B5044600250328D4
:102FB00006D8DFE800F0020402047F2500E0402587
:102FC000002646E0C6F13F0001F09AFE41EC110BED
:102FD0000120B0EE413AF0EE613A9FED942B9FED67
:102FE000960BFFF74EFFC6F13E0001F089FE41EC63
:102FF000110B0120B0EE413AF0EE613A9FED8B2BC0
:103000009FED8D0BFFF73DFF21E0C6F17F0001F042
:1030100077FE41EC100B01209FED823BB0EE402A81
:10302000F0EE602A9FED841BFFF72BFFC6F17E00B8
:1030300001F066FE41EC100B01209FED7A3BB0EEF3
:10304000402AF0EE602A9FED7C1BFFF71AFFB61CAA
:10305000F6B2AE424BDA20460328F8D8DFE800F09B
:1030600005260403F3E7ADE7CFE7304601F006FE9F
:1030700041EC100B01209FED6B3BB0EE402AF0EECF
:10308000602A9FED6D1BFFF7FCFE701C01F038FEFF
:1030900041EC100B01209FED633BB0EE402AF0EEB7
:1030A000602A9FED651BFFF7ECFED0E7304601F08C
:1030B000E5FD41EC110B0120B0EE413AF0EE613A32
:1030C0009FED5A2B9FED5C0BFFF7DBFE701C01F0B0
:1030D00017FE41EC110B0120B0EE413AF0EE613ADF
:1030E0009FED522B9FED540BFFF7CBFEAFE7002671
:1030F00046E0C6F13F0001F003FE41EC110B002059
:10310000B0EE413AF0EE613A9FED482B9FED4A0B4D
:10311000FFF7B7FEC6F13E0001F0F2FD41EC110BE6
:103120000020B0EE413AF0EE613A9FED402B9FED6A
:10313000420BFFF7A6FE21E0C6F17F0001F0E0FDA3
:1031400041EC100B00209FED373BB0EE402AF0EE33
:10315000602A9FED391BFFF794FEC6F17E0001F057
:10316000CFFD41EC100B00209FED2E3BB0EE402A2E
:10317000F0EE602A9FED301BFFF783FEB61CF6B21F
:10318000AE424BDA20460328F8D8DFE800F00526E7
:103190000403F3E7ADE7CFE7304601F06FFD41EC04
:1031A000100B00209FED1F3BB0EE402AF0EE602A8E
:1031B0009FED211BFFF765FE701C01F0A1FD41ECA6
:1031C000100B00209FED173BB0EE402AF0EE602A76
:1031D0009FED191BFFF755FED0E7304601F04EFD7D
:1031E00041EC110B0020B0EE413AF0EE613A9FED58
:1031F0000F2B9FED110BFFF744FE701C01F080FDBB
:1032000041EC110B0020B0EE413AF0EE613A9FED37
:10321000072B9FED090BFFF734FEAFE770BD0000F1
:10322000000050400000000000005040000000007E
:10323000000060400000604000000000000000004E
:1032400080B50B48016841F400710160016841F4E8
:1032500080610160016841F4807101600320FEF724
:1032600012FB002001F05EFDFEF7CAF9002002BD4E
:10327000003C024038B50446FEF7A6FA054614F1B4
:10328000010F02D0044800782418FEF79DFA401B75
:10329000A042FAD331BD00BF000000202DE9FC415F
:1032A000040016D0B34D2078C0074CD5A86800F0B4
:1032B0000C00042807D0A86800F00C0008280AD1E8
:1032C0006868400207D5286880033CD560680028FC
:1032D00039D101204BE16068B0F5803F04D1286806
:1032E00040F48030286012E0B0F5A02F286807D1A4
:1032F00040F480202860286840F48030286006E090
:1033000020F480302860286820F4802028606068DD
:1033100000280CD0FEF758FA06462868800312D41D
:10332000FEF752FA801B6528F7D303201FE1FEF752
:103330004BFA06462868800305D5FEF745FA801B40
:103340006528F7D3F1E72078800718D5A86810F032
:103350000C0F07D0A86800F00C00082824D168687A
:10336000400221D42868800702D5E0680128B0D146
:10337000286820F0F800216940EAC1002860207820
:10338000000747D57C496069002835D001200860D6
:10339000FEF71AFA0646686F80073BD4FEF714FA68
:1033A000801B0228F7D9C0E77449E068002815D0CF
:1033B00001200860FEF708FA06462868800705D451
:1033C000FEF702FA801B0228F7D9AEE7286820F042
:1033D000F800216940EAC1002860D0E700200860B9
:1033E000FEF7F2F9064628688007C8D5FEF7ECF923
:1033F000801B0228F7D998E700200860FEF7E4F95F
:103400000646686F800705D5FEF7DEF9801B0228A7
:10341000F7D98AE72078400763D50026286CC000DA
:103420000BD430460090286C40F080502864286C03
:1034300000F08050009000980126514F3868C00578
:1034400010D4386840F480703860FEF7BDF98046CB
:103450003868C00506D4FEF7B7F9A0EB08000228CB
:10346000F6D962E7A068012804D1286F40F0010076
:10347000286711E00528286F07D140F0040028676D
:10348000286F40F00100286706E0400840002867E8
:10349000286F20F004002867A06800280DD0FEF7F0
:1034A00093F90746286F800715D4FEF78DF9C01BE6
:1034B00041F289318842F5D337E7FEF785F90746AF
:1034C000286F800707D5FEF77FF9C01B41F28931CD
:1034D0008842F5D329E7012E03D1286C20F08050D3
:1034E0002864A069002841D0A96801F00C010829CE
:1034F0003FF4EFAE214E02282AD100203066FEF7BD
:1035000063F907462868800105D5FEF75DF9C01B01
:103510000228F7D909E7E069216A0843616A40EAAD
:103520008110A16A4908491E40EA0140E16A40EA67
:103530000160686001203066FEF746F9044628689D
:10354000800113D4FEF740F9001B0228F7D9ECE6FE
:1035500000203066FEF738F904462868800105D55A
:10356000FEF732F9001B0228F7D9DEE60020BDE89D
:10357000F68100BF00380240800E474200004742FB
:10358000007000402DE9F04104460F46002C5BD04E
:103590004C4E306800F00F00B84205D237703068EA
:1035A00000F00F00B8424FD12068474D810712D577
:1035B000400703D5A86840F4E050A86020780007D1
:1035C00003D5A86840F46040A860A96821F0F00124
:1035D000A0680143A9602078C0072AD56068012847
:1035E00003D1296889030BD42EE0022801D00328D7
:1035F00003D12968890103D426E02968890723D5E6
:10360000A968890850EA8100A860FEF7DDF88046C5
:10361000A86800F00C006168B0EB810F09D0FEF7DC
:10362000D3F8A0EB080041F289318842F0D303209F
:103630002DE0306800F00F00874207D23770306805
:1036400000F00F00B84201D0012020E020784007B0
:1036500005D5A96821F4E051E0680143A96020780C
:10366000000706D5A86820F46040216940EAC1003F
:10367000A86000F033F81549AA68C2F30312895C08
:10368000C84013490860002001F04CFB0020BDE851
:10369000F0810F480068704780B5FFF7FAFF0E49C8
:1036A0000C4A1268C2F38222895CC84002BD80B510
:1036B000FFF7EFFF0849074A1268C2F34232895CFC
:1036C000C84002BD003C024000380240FC4F0008E8
:1036D0000C000020083802403851000810B5154C85
:1036E000606800F00C00042802D0082802D01EE018
:1036F000114810BD226802F03F02002320684002FA
:103700002068C0F3881005D50B49A1FB000101F02A
:103710002DFB04E00949A1FB000101F027FB216812
:10372000C1F30141491C4900B0FBF1F010BD034851
:1037300010BD00BF0438024000127A000024F400DB
:10374000F8B5040025D004F13C056878002804D1C0
:10375000002028702046FDF7A2FF24206870206812
:103760000168490849000160FFF796FF0146DFF84C
:1037700038216068904205D2DFF8300181428041F3
:10378000C00F04E0DFF8280181428041C00F01280A
:1037900001D10120F2BDDFF81C01B1FBF0F320687C
:1037A0004668B60953EA861646602668376A606836
:1037B000904201D25B1C07E04FF4967043434FF4F4
:1037C0007A70B3FBF0F35B1CBF0953EA87133362D3
:1037D0002368DE696768491E974209D27F00B1FB02
:1037E000F7F1491CC1F30B0104292ED204212CE06E
:1037F000A068002807D107EB4702B1FBF2F2521C88
:10380000C2F30B0208E019227A43B1FBF2F2521C18
:10381000C2F30B0242F48042120501D1012114E0EF
:10382000002807D107EB4707B1FBF7F1491CC1F3AB
:103830000B0108E019204743B1FBF7F1491CC1F324
:103840000B0141F4804141F40041DFF86C00064077
:103850000E43DE6121680A6822F0C002E06902437B
:10386000206A02430A6021688A68DFF8500002403B
:1038700020690243E06802438A602168CA68120A2C
:10388000A3696069034353EA0222CA6020680168A1
:1038900041F0010101600020686020206870002074
:1038A0002063A870F2BD0000A186010080841E0084
:1038B00000093D0040420F000030FFFF007CFFFF89
:1038C00038B5040001D1012032BD04F13C0568780F
:1038D000002804D1002028702046FDF714FF0220A4
:1038E0006870211D206800F0BEF80120687000207B
:1038F00032BD0168CA6842F00102CA60006881688E
:1039000001F00701062903D0016841F001010160BF
:103910000020704710B5044620680169890717D553
:10392000C168890714D56FF0020101610120207779
:103930002068806910F0030F204602D001F02EFBB2
:1039400004E001F02CFB204601F02AFB0020207748
:1039500020680169490717D5C168490714D56FF078
:1039600004010161022020772068806910F4407F03
:10397000204602D001F012FB04E001F010FB2046CB
:1039800001F00EFB0020207720680169090717D598
:10399000C168090714D56FF0080101610420207780
:1039A0002068C06910F0030F204602D001F0F6FA3B
:1039B00004E001F0F4FA204601F0F2FA002020774A
:1039C00020680169C90617D5C168C90614D56FF00A
:1039D00010010161082020772068C06910F4407F41
:1039E000204602D001F0DAFA04E001F0D8FA2046CD
:1039F00001F0D6FA0020207720680169C90708D5B0
:103A0000C168C90705D56FF0010101612046FFF7C4
:103A1000B1F820680169090608D5C168090605D50D
:103A20006FF080010161204601F0BBFA2068016956
:103A3000490608D5C168490605D56FF04001016106
:103A4000204601F0AFFA2068016989060AD5C168ED
:103A5000890607D56FF0200101612046BDE81040BE
:103A600001F0A1BA10BD10B40468DFF8AC30984280
:103A700012D0B0F1804F0FD0DFF8A02090420BD0D1
:103A8000DFF89C20904207D0DFF89820904203D0C6
:103A9000DFF89420904203D124F070044A68144364
:103AA000984220D0B0F1804F1DD01C4A90421AD0CD
:103AB0001B4A904217D01B4A904214D01A4A904297
:103AC00011D01A4A90420ED0194A90420BD0194A8E
:103AD000904208D0184A904205D0184A904202D02D
:103AE000174A904203D124F44074CA68144324F066
:103AF00080044A69144304608A68C2620A68826268
:103B0000984202D0084A904201D10969016301211B
:103B1000416110BC704700000000014000040040FB
:103B200000080040000C004000040140004001403B
:103B3000004401400048014000180040001C0040C3
:103B40000020004070B400F13C031A78012A01D132
:103B5000022015E001221A7002225A70046865687A
:103B6000A66826F080064A68164325F070050968A5
:103B70000D43656000688660012058700020187051
:103B800070BC704738B5040001D1012032BD04F18A
:103B900038056878002804D1002028702046FDF7F9
:103BA000CEFD242068702068C16821F40051C160F6
:103BB000204600F016F82068016921F49041016167
:103BC0002068416921F02A0141612068C16841F4FF
:103BD0000051C1600020686020206870A87000203B
:103BE00032BD2DE9F041044621680A6922F44052B1
:103BF000E06802430A612168CA6897480240A068E9
:103C000002432069024360690243E0690243CA60DB
:103C100021684A6922F44072A06902434A6120681F
:103C20008E49E269B2F5004F40F08B80884202D0A5
:103C30008B49884242D1FFF73AFD0546FFF737FD31
:103C40000646FFF734FD0746FFF731FD8046FFF7D4
:103C50002EFD61684900642219235D43B5FBF1F52F
:103C60009446B5FBFCF55E43B6FBF1F65F43B7FB4C
:103C7000F1F7B7FBFCF702FB1766F6003236174682
:103C8000B6FBF7F6760006F4F87606EB051603FBAE
:103C900008F8B8FBF1F54343B3FBF1F01146B0FB74
:103CA000F1F002FB1052D20032320846B2FBF0F0C3
:103CB00000F00700861920688660CAE0FFF7ECFC78
:103CC0000546FFF7E9FC0646FFF7E6FC0746FFF767
:103CD000E3FC8046FFF7E0FC616849006422192399
:103CE0005D43B5FBF1F59446B5FBFCF55E43B6FBD1
:103CF000F1F65F43B7FBF1F7B7FBFCF702FB176682
:103D0000F60032361746B6FBF7F6760006F4F8767C
:103D100006EB051603FB08F8B8FBF1F54343B3FBCC
:103D2000F1F01146B0FBF1F002FB1052D20032323A
:103D30000846B2FBF0F000F00700861920688660A4
:103D400087E0884202D04649884241D1FFF7AFFC64
:103D50000546FFF7ACFC0646FFF7A9FC0746FFF750
:103D6000A6FC8046FFF7A3FC616889006422192342
:103D70005D43B5FBF1F59446B5FBFCF55E43B6FB40
:103D8000F1F65F43B7FBF1F7B7FBFCF702FB1766F1
:103D9000360132361746B6FBF7F606F0F00606EBAC
:103DA000051603FB08F8B8FBF1F54343B3FBF1F04C
:103DB0001146B0FBF1F002FB1052120132320846FC
:103DC000B2FBF0F000F00F0086192068866040E03A
:103DD000FFF762FC0546FFF75FFC0646FFF75CFC59
:103DE0000746FFF759FC8046FFF756FC61688900DB
:103DF000642219235D43B5FBF1F59446B5FBFCF550
:103E00005E43B6FBF1F65F43B7FBF1F7B7FBFCF798
:103E100002FB1766360132361746B6FBF7F606F098
:103E2000F00606EB051603FB08F8B8FBF1F5434373
:103E3000B3FBF1F01146B0FBF1F002FB105212019E
:103E400032320846B2FBF0F000F00F00861920680D
:103E50008660BDE8F0810000F369FFFF00100140BB
:103E600000140140012804D012D303280BD005D33D
:103E70007047002202211248FDF73ABE00221021AD
:103E80001048FDF735BE002220210E48FDF730BE58
:103E90007047012804D012D303280BD005D37047F4
:103EA000012202210648FDF723BE01221021054808
:103EB000FDF71EBE012220210248FDF719BE704702
:103EC000000002400004024002464FF40041014855
:103ED000FDF70EBE000C024002464FF400510148AF
:103EE000FDF706BE000C024002464FF48041014837
:103EF000FDF7FEBD000C024000B585B04FF47F40D9
:103F000000900020019002906946DFF87805FDF7E7
:103F100013FD05B000BD00B585B04FF47F400090A3
:103F2000012001900020029003906946DFF85405BB
:103F3000FDF702FD05B000BD2DE9FC4106460D462A
:103F40009046FFF7D9FFDFF840755FEAC87006D5E5
:103F500001224FF480713846FDF7CAFD05E00022CA
:103F60004FF480713846FDF7C3FD5FEA887006D5CF
:103F700001224FF400713846FDF7BAFD05E000223A
:103F80004FF400713846FDF7B3FD5FEA487006D57F
:103F900001224FF480613846FDF7AAFD05E00022BA
:103FA0004FF480613846FDF7A3FD5FEA087006D53F
:103FB00001224FF400613846FDF79AFD05E000222A
:103FC0004FF400613846FDF793FDDFF8C0745FEAF7
:103FD000C86005D5012202213846FDF789FD04E0BD
:103FE000002202213846FDF783FD3046032842D8DF
:103FF000DFE800F002122232280006D100224FF43E
:1040000000613846FDF774FD35E001224FF4006190
:104010003846FDF76DFD2EE0280006D100224FF452
:1040200080513846FDF764FD25E001224FF48051B0
:104030003846FDF75DFD1EE0280006D100224FF452
:1040400000513846FDF754FD15E001224FF40051B0
:104050003846FDF74DFD0EE0280006D100224FF452
:1040600080413846FDF744FD05E001224FF48041D0
:104070003846FDF73DFD002201213846FDF738FDA9
:10408000DFF800844FF480714046FDF729FD60F3AE
:1040900000044FF400714046FDF722FD60F3410437
:1040A0004FF480614046FDF71BFD60F382044FF43E
:1040B00000614046FDF714FD60F3C3044FF48051E6
:1040C0004046FDF70DFD60F304144FF400514046E7
:1040D000FDF706FD60F345144FF480414046FDF7BF
:1040E000FFFC60F386144FF400414046FDF7F8FCF6
:1040F00060F3C7140094012211463846FDF7F8FC1E
:10410000032E42D8DFE806F002122232002D06D13B
:1041100001224FF400613846FDF7EAFC35E0002249
:104120004FF400613846FDF7E3FC2EE0002D06D188
:1041300001224FF480513846FDF7DAFC25E00022D9
:104140004FF480513846FDF7D3FC1EE0002D06D118
:1041500001224FF400513846FDF7CAFC15E0002259
:104160004FF400513846FDF7C3FC0EE0002D06D198
:1041700001224FF480413846FDF7BAFC05E00022E9
:104180004FF480413846FDF7B3FC9DF80000BDE8D0
:10419000F6810000F8B506460F4614461D46FFF7A7
:1041A000BAFE8DF80060B74E0098C00706D4002212
:1041B0004FF480713046FDF79BFC05E001224FF47F
:1041C00080713046FDF794FC0098C0F34000002851
:1041D00006D100224FF400713046FDF789FC05E05E
:1041E00001224FF400713046FDF782FC0098C0F3C5
:1041F0008000002806D100224FF480613046FDF790
:1042000077FC05E001224FF480613046FDF770FC39
:104210000098C0F3C000002806D100224FF40061CE
:104220003046FDF765FC05E001224FF400613046A1
:10423000FDF75EFC0098C0F30010002806D10022B4
:104240004FF480513046FDF753FC05E001224FF456
:1042500080513046FDF74CFC0098C0F34010002818
:1042600006D100224FF400513046FDF741FC05E035
:1042700001224FF400513046FDF73AFC0098C0F39C
:104280008010002806D100224FF480413046FDF70F
:104290002FFC05E001224FF480413046FDF728FC59
:1042A0000098C0F3C010002806D100224FF400414E
:1042B0003046FDF71DFC05E001224FF40041304679
:1042C000FDF716FC704EE80706D501224FF4807109
:1042D0003046FDF70DFC05E000224FF480713046BA
:1042E000FDF706FCA80706D501224FF40071304601
:1042F000FDF7FEFB05E000224FF400713046FDF7AC
:10430000F7FB680706D501224FF480613046FDF7C0
:10431000EFFB05E000224FF480613046FDF7E8FB3B
:10432000280706D501224FF400613046FDF7E0FB77
:1043300005E000224FF400613046FDF7D9FB534EF3
:10434000E80605D5012202213046FDF7D1FB04E045
:10435000002202213046FDF7CBFB3846032842D825
:10436000DFE800F002122232200006D100224FF4D2
:1043700000613046FDF7BCFB35E001224FF40061DF
:104380003046FDF7B5FB2EE0200006D100224FF4A9
:1043900080513046FDF7ACFB25E001224FF48051FF
:1043A0003046FDF7A5FB1EE0200006D100224FF4A9
:1043B00000513046FDF79CFB15E001224FF40051FF
:1043C0003046FDF795FB0EE0200006D100224FF4A9
:1043D00080413046FDF78CFB05E001224FF480411F
:1043E0003046FDF785FB032F4BD8DFE807F00214BA
:1043F0002638002C07D101224FF400613046BDE879
:10440000F840FDF775BB00224FF400613046BDE86F
:10441000F840FDF76DBB002C07D101224FF480510D
:104420003046BDE8F840FDF763BB00224FF48051F1
:104430003046BDE8F840FDF75BBB002C07D10122F8
:104440004FF400513046BDE8F840FDF751BB002263
:104450004FF400513046BDE8F840FDF749BB002C51
:1044600007D101224FF480413046BDE8F840FDF706
:104470003FBB00224FF480413046BDE8F840FDF7D5
:1044800037BBF1BD00100240000C024000040240A6
:104490004FF4001C1CEB410F94BF1CEB430F09E0D1
:1044A00041EA030C50EA4C0C52EA0C0C03D28B424A
:1044B00008BF8242704714BF994290427047000083
:1044C0004FF4001C1CEB410F94BF1CEB430F09E0A1
:1044D00041EA030C50EA4C0C52EA0C0C03D299420C
:1044E00008BF9042704714BF8B4282427047000061
:1044F000C1F30A5340F2FE329B1A14DDD3F12003BC
:104500004FEAE17208DDC90241EA505141F0004032
:10451000D84080185040704703F2E13010B1D243C8
:1045200082F00040704700207047000070B44FF0E8
:10453000004591EA030F40F145816B40841A71EB0D
:10454000030603D2001BB141121973414FF4001C42
:104550001CEB410F34BF7CEB430442E00C0DA4EB99
:104560001356352E4FDC45EAC323DB0A45EAC12149
:10457000C912B6F120050DDD63FA05F6EB4086EAB7
:104580000305124218BF45F00105C01851F10001A2
:104590000CD213E062FA06F5F2405540F3415A405E
:1045A000B340F3405A408018594107D349085FEAA5
:1045B00030005FEA350528BF45F0010501F580119F
:1045C000420875F1004250F1000041EB04514E00E9
:1045D00016F5001F70BC38BF70470020090D090593
:1045E00070471CEB410F10D252EA43060BD0BCEBD4
:1045F000410F05D80C0DAB43661E342EB6DD02E02C
:10460000AB438018594170BC704770BC70470000C4
:10461000B0B581EA030C0CF0004C40F2FF7515EACE
:1046200011541DBF15EA1357AC42AF4239E0E419EB
:1046300023EA455343F48013C90241F0004141EAA3
:10464000505EC7021100A7FB020200284FF00000D5
:10465000EEFB01204FF00001E3FB072118BF42F001
:104660000102401800214941E3FB0E01A4F58064DA
:104670000F0302D252004041494154F101046CDD64
:10468000470872F1004250F1000051EB0451A1F5CE
:1046900080115CBF41EA0C01B0BD4CEA055100201D
:1046A000B0BD05EA1357AC4214BFAF4241E050EA37
:1046B000410E1CBF52EA430E02E061460020B0BD2D
:1046C00024423C441BD15FEA070EF6D0090302BF27
:1046D00001460020AEF1140EB1FA81F7AEEB0704EB
:1046E00001FA07FE0C37C7F1200100FA07F7C840AE
:1046F0004EEA000E23EA455343F48013A2E733F059
:104700000043B3FA83F704BFB2FA82FE77440B3F4B
:10471000E41BB7F1200E2FBF02FA0EF3BB40C7F126
:10472000200E22FA0EFE38BF43EA0E03BA40641C84
:1047300082E750EA410E14BF52EA430E6FF00001C7
:104740004FF4001717EB430F8ABF194617EB410FC1
:10475000B5E74CEA05510020B0BDD4F10104B4F135
:1047600020070FDAC4F12007520828BF42F00102E7
:1047700010FA07F501FA07F7E1BF2A43E040384392
:10478000E1400FE0352C98DCC7F1200452EA4002EA
:1047900020FA07F218BF42F0010231FA07F0A140F7
:1047A0000A43002172F1004250F1000051EB0C016C
:1047B000B0BD000070B44FF0004591EA030F7FF5E3
:1047C000BDAE6B40841A71EB030604D26E40001B31
:1047D000B141121973414FF4001C1CEB410F34BF5F
:1047E0007CEB430683E00C0DA4EB1356362E00F34E
:1047F0007C80012E45EAC32341DC43EA525312BFB9
:10480000D20292025B08240545EAC12141EA5051D7
:10481000D2EBC020994125D407D1B0FA80F610FA26
:1048200006F162D00020203608E0B1FA81F6B140EE
:10483000C6F1200220FA02F21143B0404FEAF474AC
:10484000B4EB465434F001064FEA74040AD8D6F5A6
:104850000016760D04F00044F04061FA06F2504074
:10486000F1404840C00A40EA415021F0004128BFD1
:104870005FEA500550F1000044EBD12135E0DB0A3E
:1048800045EAC121C90AB6F120050EDD42EA02421D
:10489000120CC5F1200603FA06F6EB4042EA0605C3
:1048A0006D42984161F100010DE062FA06F5F240B7
:1048B000554063FA06FC82EA0C02F3405A406D420E
:1048C000904161EB030111F4801F05D1641E620564
:1048D00002D06D004041494121F48011430875F137
:1048E000004350F1000041EB045170BC70471CEBD9
:1048F000410F15D223F0004352EA43060BD04FEA92
:104900004C0CBCEB410F04D80C0D661E342EB7DDE9
:10491000EBE7801A994150EA410608BF0021E4E71D
:1049200008BF1CEB430F28BF6FF00001DDE700005C
:1049300051EC100B00B500F003F841EC100B00BD7A
:1049400040F2FF7C0B0D4DD0634566D230B421EAB6
:10495000035141F4801103F2FD3C5FEA5C0C01D38A
:1049600000184941890041EA907180004FF44014D9
:104970000023E202D50AB1F5100107D46D081DD25B
:10498000091B641900184941491BF7D56D080AD263
:104990000919641B00184941491BEFD56D08F7D36D
:1049A00001E0520817D0C01861419B1AAC410018B1
:1049B0004941801AA941F4D452080AD0C01AA14131
:1049C0009B186C4100184941801AA941E9D452084A
:1049D000F4D15B1C6C4161084FEA330001EB0C51D0
:1049E00030BC704750EA0103FBD030B4B1FA81F318
:1049F00011B9B0FA80F41B190B3BB3F120042FBF9F
:104A000000FA04F19940C3F1200420FA04F438BFFD
:104A100021439840D3F101039DE7634514BF50EA59
:104A2000410CDEE711F5801FDBD8D943AFF30080DE
:104A300070470000F0B540F2FF7581EA030C0CF0FE
:104A4000004C15EA11541DBF15EA1357AC42AF4292
:104A5000E5E0BC41C1F31301C3F31303801A99418C
:104A600043F4801304D2641E400049418018594128
:104A7000C90241EA5051B1FBF3F603FB1611A2FB48
:104A80000675D7EBC020A94102D2761E8018594185
:104A9000C90241EA5051B1FBF3FE03FB1E11A2FB18
:104AA0000E75D7EBC020A94103D2AEF1010E8018DC
:104AB0005941890241EA9051760546EA8E2EB1FBB2
:104AC000F3F603FB1611A2FB0675D7EB8020A94174
:104AD00002D2761E80185941C90241EA50514EEA6D
:104AE000060EB1FBF3F603FB1611A2FB0675D7EB1E
:104AF000C020A94102D2761E80185941C90241EA5C
:104B00005051B1FBF3F703FB1711A2FB0735D3EBB1
:104B1000C020A94167F100070CBF004247F0010720
:104B200066F3D5274FEA1E31B80814F5806412DD0C
:104B3000BD0775F1004250EB0E5051EB045111F5D9
:104B4000801F5CBF41EA0C01F0BD4CF07F6141F079
:104B5000E0410020F0BDBD076D0840EA0E5041F471
:104B60008011D4F10104B4F120060ADAC4F1200660
:104B70000200E04001FA06F3E1401843B240154359
:104B80000EE0342C13DCC6F1200445EA40056D0824
:104B900020FA06F2154321FA06F0A1400D43002148
:104BA00075F1004250F1000051EB0C01F0BD002006
:104BB0005FEA0C01F0BDCFB992185B41B3FA83F7FD
:104BC00004BFB2FA82F6BF190B3FB7F120062FBF20
:104BD00002FA06F3BB40C7F1200622FA06F638BFF8
:104BE0003343BA401CB1E419641E33E77F4231F00D
:104BF0000041B1FA81F404BFB0FA80F6A4190B3C6D
:104C0000B4F120062FBF00FA06F1A140C4F120063E
:104C100020FA06F638BF3143A0403C1B1AE7AC42ED
:104C20001ABF05EA1357AF4212E050EA41061CBF13
:104C300052EA4306BFE750EA4107304661461CBFCF
:104C400041EA0551F0BD52EA430C08BFC143F0BD33
:104C500000204FF4001616EB410F98BF16EB430FE0
:104C600008BF16EB410F24BFC14305E016EB430F0D
:104C70000CBF61464CEA0551F0BD0000014648B149
:104C8000B0FA80F18840C91CC1F58461090501EBC7
:104C9000D02140057047000051EC100B00B500F02A
:104CA00003F841EC100B00BD40F2FF7C1CEA1152EE
:104CB00040F2FE33D21A18DD352A1FDAB2F115039D
:104CC00009DA6FEA4C53D340094201D4401E5941DE
:104CD0000020994370476FF00002DA40094202D485
:104CE000801851F100019043704750EA41021CBF07
:104CF000591C090528BF4FF00041002070470000F3
:104D0000C11768B14840401AB0FA80F29040D21CF6
:104D1000C907C2F5846241EA025202EBD021400584
:104D20007047000038B504460E4D4FF47A7029786C
:104D3000B0FBF1F00C490968B1FBF0F0FCF7B4FDF1
:104D4000002801D0012032BD102C08D200222146BB
:104D50004FF0FF30FCF798FDAC60002032BD012021
:104D600032BD00BF000000200C000020BBBBE1B141
:104D7000B2F5803F80F07E80022A1ED98C46B1FBBE
:104D8000F2F102FB11C31B0443EA1043B3FBF2FC34
:104D900002FB1C3380B240EA0343B3FBF2F002FB98
:104DA000103240EA0C4000237047022A05D984469D
:104DB000B0FBF2F002FB10C270474AB105D100F01F
:104DC000010249085FEA3000704700220023704763
:104DD00000F0EAB80B00020000210020704790426A
:104DE00071EB030CF6D3B3F5803F2FD2F0B5B3FAD5
:104DF00083F7B1FA81F4A7F10F0E3D1B5340CEF1BA
:104E0000200602FA0EF2F3415340B5F10F0746D8DF
:104E10000F3C2C444140C4F12006A040F1414140E8
:104E2000B1FBF3F603FB1611A2FB0645001BA941DB
:104E300002D2761E8018594180EA010221FA0EF34F
:104E400062FA0EF200215A403046F0BD30B4B1FB98
:104E5000F3FC03FB1C11A2FB0C45001BA94103D270
:104E6000ACF1010C8018594130BC02460B4660463B
:104E700000217047B2F1807F65D3F0B5B2FA82F7B6
:104E8000B1FA81F4C7F10F063D1B22FA06F307F1D0
:104E9000110EF24120355A40B5F10F07B8D9414003
:104EA000C4F12006A040F1414140B1FBF3FC03FBFB
:104EB0001C11A2FB0C45001BA94103D2BCF1010C43
:104EC000801859410F2F12D30F3FC90341EA5041B7
:104ED000B1FBF3F603FB1611A2FB0645D4EBC03081
:104EE000A94102D2761E8018594146EACC3C07B34C
:104EF0004140C7F12006B840F1414140B1FBF3F613
:104F000003FB1611A2FB0645001BA94102D2761E27
:104F10008018594180EA010221FA0EF3C7F12004FA
:104F200062FA0EF20CFA07F05A402CFA04F1304300
:104F3000F0BD80EA010221FA0EF3002162FA0EF2BE
:104F400060465A40F0BD8C46B1FBF2F102FB11C342
:104F50001B0243EA1063B3FBF2FC02FB1C331B028F
:104F60004CEA002043EA1063B3FBF2FC02FB1C3363
:104F70001B024CEA002043EA1063B3FBF2FC02FB85
:104F80001C331B024CEA002043EA1063B3FBF2FC23
:104F900002FB1C324CEA0020002370477047704728
:104FA0007047704770477047704700000E480168AF
:104FB00041F4700101600D49086840F0010008608B
:104FC000002088600A680A4802400A600948486070
:104FD000086820F4802008600020C8604FF000605E
:104FE000054908607047000088ED00E00038024085
:104FF000FFFFF6FE1030002408ED00E00000000086
:1050000000000000010203040607080945727265EA
:1050100075723A2044656C6169206D6F6E746565C8
:105020002076656E746F757365206578706972653A
:105030007200000010B5074979441831064C7C44D1
:10504000163404E00A68081D114488470146A1424D
:10505000F8D110BD2C0000004C0000004EF6885125
:10506000CEF20001086840F470000860BFF34F8F73
:10507000BFF36F8F4FF00070E1EE100A7047000031
:105080007FC8FFFF000800001000002000000000A3
:105090009BD9FFFF100000008400000000000020EA
:1050A0000000000000F00DF8002801D0FFF7C2FF5B
:1050B000AFF300800020AFF30080FDF7EEF900F0C1
:1050C00002F80120704700F001B80000074638469A
:1050D00000F002F8FBE7000080B5AFF30080024A61
:1050E00011001820ABBEFBE72600020001488047F4
:1050F00001480047AD4F00082D51000802484168A3
:10510000027889184160704700000020FFF7F6BF61
:105110000148FEF7FFBB0000100600200100000060
:1051200000000000100000000024F400AFF3008035
:10513000FFF794FFFFF7B6FF000000000102030431
:10514000FFF7FEBFFFF7FEBFFFF7FEBFFFF7FEBF93
:10515000FFF7FEBFFFF7FEBFFFF7FEBFFFF7FEBF83
:10516000FFF7FEBFFFF7FEBFFFF7FEBFFFF7FEBF73
:10517000FFF7FEBFFFF7FEBFFFF7FEBFFFF7FEBF63
:10518000FFF7FEBFFFF7FEBFFFF7FEBFFFF7FEBF53
:10519000FFF7FEBFFFF7FEBFFFF7FEBFFFF7FEBF43
:1051A000FFF7FEBFFFF7FEBFFFF7FEBFFFF7FEBF33
:1051B000FFF7FEBFFFF7FEBFFFF7FEBFFFF7FEBF23
:1051C000FFF7FEBFFFF7FEBFFFF7FEBFFFF7FEBF13
:1051D000FFF7FEBFFFF7FEBFFFF7FEBFFFF7FEBF03
:1051E000FFF7FEBFFFF7FEBFFFF7FEBFFFF7FEBFF3
:1051F000FFF7FEBFFFF7FEBFFFF7FEBFFFF7FEBFE3
:10520000FFF7FEBFFFF7FEBFFFF7FEBFFFF7FEBFD2
:10521000FFF7FEBFFFF7FEBFFFF7FEBFFFF7FEBFC2
:10522000FFF7FEBFFFF7FEBFFFF7FEBFFFF7FEBFB2
:10523000FFF7FEBFFFF7FEBFFFF7FEBFFFF7FEBFA2
:10524000FFF7FEBFFFF7FEBFFFF7FEBFFFF7FEBF92
:10525000FFF7FEBFFFF7FEBFFFF7FEBFFFF7FEBF82
:10526000FFF7FEBFFFF7FEBFFFF7FEBFFFF7FEBF72
:10527000FFF7FEBFFFF7FEBFFFF7FEBFFFF7FEBF62
:10528000FFF7FEBFFFF7FEBFFFF7FEBFFFF7FEBF52
:10529000FFF7FEBFFFF7FEBFFFF7FEBFFFF7FEBF42
:040000050800512D71
:00000001FF
