:020000040800F2
:10000000C01D002069770008AD770008B1770008AF
:10001000B5770008B9770008BD7700080000000038
:10002000000000000000000000000000C177000890
:10003000C577000800000000C9770008897700082C
:10004000CD770008D1770008D5770008D977000868
:10005000DD770008E1770008E5770008E977000818
:10006000ED770008F1770008F5770008F9770008C8
:10007000FD77000801780008057800080978000875
:100080000D78000811780008157800081978000824
:100090001D780008217800082578000829780008D4
:1000A0002D78000831780008357800083978000884
:1000B0003D78000841780008457800084978000834
:1000C0004D780008517800085578000859780008E4
:1000D0005D78000861780008657800086978000894
:1000E0006D78000871780008757800087978000844
:1000F0007D780008817800088578000889780008F4
:100100008D780008917800089578000899780008A3
:100110009D780008A17800088D770008A578000870
:10012000A9780008AD780008B1780008B578000813
:10013000B9780008BD780008C1780008C5780008C3
:10014000C9780008CD780008D1780008D578000873
:10015000D9780008DD780008E1780008E578000823
:10016000E9780008ED780008F1780008F5780008D3
:10017000F9780008FD780008017900080000000007
:10018000057900080979000810B50FF2F40001F0B4
:100190009BFEDFF8600A01F07AFE032001F054FFB5
:1001A000012001F051FF022001F067FFDFF8484A0B
:1001B000DFF8480A0178012905D06178DFF87C2A48
:1001C0009278914222D1002101704078012805D017
:1001D0006078DFF8681A8978884217D1022001F028
:1001E00033FF0FF20140DFF8881A4860002108460B
:1001F00002F0A4F80FF29100DFF8781AC8601FA08F
:1002000001F045FEDFF8280B80792070DFF8680ADE
:100210000178012910D100210170407801280BD10B
:10022000022001F011FFDFF8540ADFF8481AC86015
:10023000DFF8FC0A80792070DFF8440A4178012950
:100240001BD1002141708078012816D1DFF8340AD3
:10025000DFF81C1A88600021084602F06FF8DFF80A
:10026000280ADFF8101AC860DFF8C40A8078207006
:100270000220BDE8104001F0E7BE10BD0000000004
:10028000417474656E7465002DE9F843DFF8A46A63
:10029000304601F019FEDFF8A00A00F14904217A86
:1002A00000F12908DFF8885ADFF8C479DFF88C9963
:1002B00099F80400814207D098F81200BB2828D191
:1002C00099F80200814224D1DFF8700A01F0DFFDC5
:1002D000304601F0EBFD2078BB2808D098F81200DA
:1002E000BB2807D1207A99F80210884202D1786899
:1002F00080470EE0DFF8940A01F0C9FD0FF2E52017
:100300007860287BE071CC2002F000FFCC2002F066
:100310002EFF207A99F8001088420BD1DFF8700A7E
:1003200001F0C4FDDFF86C0A01F0B1FD02F021F824
:100330002878E071207A99F80110884208D1DFF816
:10034000580A01F0B3FDBDA001F0A1FD6878E0718D
:10035000207A99F8061088420BD1DFF8400A01F0A4
:10036000A5FDDFF83C0A01F092FD02F002F8E87802
:10037000E071207A99F80210884240F0E580DFF8B9
:10038000240A01F093FD01F00BF998F80000BB2856
:1003900009D1CC2088F80000042001F0A3FF00213F
:1003A000082001F0CBFF98F80100BB2809D1CC2030
:1003B00088F80100022001F095FF0121082001F0DA
:1003C000BDFF98F80400BB2812D1CC2088F80400A7
:1003D0000021042001F0B2FF0121052001F0AEFF51
:1003E0000021012001F0AAFF0121022001F0A6FF57
:1003F00098F80500BB2812D1CC2088F8050001210F
:10040000042001F09BFF0021052001F097FF01214E
:10041000084601F093FF0021022001F08FFF98F8B9
:100420000200BB280ED1CC2088F802000121072051
:1004300001F084FF0021062001F080FF0021092047
:1004400001F07CFF98F80300BB280ED1CC2088F87F
:1004500003000121062001F071FF0021072001F0B7
:100460006DFF0121092001F069FF98F80800BB2801
:1004700005D1CC2088F80800022001F0CCFD98F8C6
:100480000900BB2805D1CC2088F80900022001F022
:10049000DBFD98F80A00BB2805D1CC2088F80A00BB
:1004A000032001F0B8FD98F80B00BB2805D1CC2043
:1004B00088F80B00032001F0C7FD98F80C00BB285A
:1004C00005D1CC2088F80C00012001F0A4FD98F89B
:1004D0000D00BB2805D1CC2088F80D00012001F0CB
:1004E000B3FD98F80E00BB2808D1CC2088F80E0088
:1004F00001224021DFF8500A03F054F898F80F0069
:10050000BB2808D1CC2088F80F0000224021DFF85A
:10051000380A03F047F898F80600BB2806D1CC202B
:1005200088F806000021032001F008FF98F8070072
:10053000BB2806D1CC2088F807000121032001F058
:10054000FDFEA879E07102E0CC2088F81200207A44
:1005500099F8031088420BD1DFF8680A01F0A6FC75
:10056000DFF8640A01F093FC01F003FFE879E07121
:100570003878002804D1DFF8540AC07802F0C2FBB2
:100580003878022804D1DFF8440A807802F0BAFBF8
:100590003878012804D1DFF8340A007802F0B2FB81
:1005A0003878032804D1DFF8240A407802F0AAFB47
:1005B000DFF8C4060178012912D1002101704078CA
:1005C00001280DD1022001F03FFD0121002001F0A2
:1005D000B5FE0FF26D70DFF89C16C860A879E07167
:1005E000BDE8F18310B5DFF8480A01F05FFCDFF8E1
:1005F000804600202070012001F074FE00210D20B3
:1006000001F09CFE0121062001F098FE0021072048
:1006100001F094FE0121022001F090FE0021012052
:1006200001F08CFE0121092001F088FE0121082043
:1006300001F084FE0FF20900606010BD2000000090
:1006400010B5DFF8680A01F031FCDFF82446E068F5
:10065000401CE0604CF25031884208D3DFF8500A69
:1006600001F015FCDFF87C0ADFF80816C8601820D6
:1006700001F04EFE002845D1172001F049FE012867
:1006800040D10021052001F059FE0121042001F094
:1006900055FE152001F03CFE012833D1132001F056
:1006A00037FE01282ED11A2001F032FE002829D170
:1006B000122001F02DFE002824D1112001F028FE87
:1006C00000281FD1192001F023FE00281AD10F2085
:1006D00001F01EFE012815D1102001F019FE00289E
:1006E00010D101F012FE02280CD101F00BFE0128FE
:1006F00008D1DFF8E40C01F0D9FB0020E0600FF234
:100700000900606010BD000010B5DFF82406C07855
:10071000DFF8241681F85000DFF854452069401CAA
:100720002061B0F57A7F0AD3DFF8640A01F0AFFBED
:1007300000202061DFF8AC09DFF83815C860082018
:1007400001F0E6FD012803D10021082001F0F6FDAB
:10075000182001F0DDFD01280CD10121082001F055
:10076000EDFDDFF8C40C01F0A1FB002020610FF2C9
:100770000900606010BD000070B5DFF87C44DFF850
:10078000B055E8782070DFF8E8647069401C70614B
:1007900041F2707188420AD3DFF8A00A01F077FBBA
:1007A00000207061DFF83C09DFF8C814C860706988
:1007B000B0F57A7FC0F0A680122001F0A9FD0128D3
:1007C0001ED1112001F0A4FD002819D1192001F03B
:1007D0009FFD012814D101203070DFF8640A01F078
:1007E00056FB032001F017FC012001F02DFC022034
:1007F00001F02AFC002070610FF20D10706070BDD6
:10080000122001F085FD01281ED1112001F080FD8C
:10081000002819D1192001F07BFD002814D10220F5
:100820003070DFF8680A01F032FB032001F025FC8C
:10083000012001F009FC022001F006FC002070619B
:100840000FF2C500706070BD122001F061FD01283B
:100850001ED1112001F05CFD012819D1192001F0F1
:1008600057FD012814D103203070DFF8880A01F009
:100870000EFB032001F0E8FB012001F0E5FB022064
:1008800001F0C9FB002070610FF27D00706070BD47
:10089000122001F03DFD002819D1112001F038FD92
:1008A000002814D1192001F033FD00280FD10020B9
:1008B0003070DFF8440A01F0EAFAE87B207000208B
:1008C0007061DFF82008DFF8AC13C86070BD042049
:1008D00030706078DFF86413897888420BD0DFF8D5
:1008E0001C0A01F0D4FA00207061DFF8F807DFF885
:1008F0008413C86070BDDFF8D406C078BDE87040CE
:1009000002F000BA70BD000080B5DFF8780A01F08F
:10091000CDFADFF81C04C078DFF81C1481F8500011
:10092000152001F0F5FC01280CD10121052001F072
:1009300005FD0021042001F001FD0FF21D00CC494E
:10094000486001BDDFF8940A01F0A1FADFF89407CE
:10095000C849C86001BD000010B5DFF8D403C078F5
:10096000DFF8D41381F85000C14CE069401CE0610D
:1009700042F2107188420AD3DFF8B00A01F087FA18
:100980000020A061E061DFF85C07BA49C86016206A
:1009900001F0BEFC012832D1DFF8940A01F077FAA9
:1009A000A069401CA061642829D3DFF8D00A01F0B7
:1009B0006EFA01F0C0FC0C280FDDDFF8E80A01F048
:1009C00066FADFF8E40A01F062FA0020A061E06153
:1009D000DFF81007A749C86010BDDFF8D00A01F0A2
:1009E00056FA0021092001F0A9FCDFF8800C01F083
:1009F0005DFA0020A061E0610FF20500606010BDAB
:100A000080B5CB48C078CC4981F85000062001F071
:100A10007FFC012811D1132001F07AFC01280CD1B0
:100A2000142001F075FC002807D10121072001F0F6
:100A300085FC0021062001F081FC062001F068FC05
:100A400000281AD1132001F063FC002815D11420CE
:100A500001F05EFC012810D10021072001F06EFC9E
:100A60000121062001F06AFC0FF6C42001F01EFAF5
:100A70000FF20900DFF8081C486001BD10B5AC4852
:100A8000C078AD4981F85000794C206A401C206242
:100A900042F2107188420FD30121092001F04EFC6F
:100AA000DFF8880A01F0F3F90020206260620FF697
:100AB0003120DFF8D01BC8601A2001F029FC012882
:100AC0000ED1606A401C6062B0F57A7F08D30220C4
:100AD00001F008FC0020206260620FF209006060F3
:100AE00010BD000080B501F010FC02281CD101F0FF
:100AF00009FC022818D10121092001F01FFC002166
:100B0000022001F01BFC0121084601F017FC002126
:100B1000032001F013FC0FF6282001F0C7F90FF2B3
:100B20000D00DFF85C1B486001BD000080B5804807
:100B3000C078814981F850001D2001F0E9FB0028B0
:100B400010D10121022001F0F9FB0021012001F068
:100B5000F5FB0FF6FC1001F0A9F90FF20D00DFF81C
:100B6000201B486001BD000010B57148C078724973
:100B700081F850003E4CA06A401CA06240F6B8319B
:100B800088420AD3DFF8000B01F081F90020A0624F
:100B90000FF64D10DFF8EC1AC8600F2001F0B8FB1B
:100BA000012825D12078012812D021D303280FD085
:100BB0001ED2032001F096FB002819D00FF6A010DA
:100BC00001F074F90020A0620FF23500606010BDE2
:100BD000042001F087FB00280AD00020A0620FF259
:100BE000610060600FF68810BDE8104001F05EB94A
:100BF00010BD000028760008200B0020A40D002066
:100C000080B501F082FB022810D101F07BFB0328A4
:100C10000CD10121084601F091FB0021022001F0D6
:100C20008DFB0FF269001249486001BD4048007B0E
:100C3000DFF8581A81F8500001BD0000A00C002018
:100C400080B501F062FB022810D101F05BFB0428A3
:100C50000CD10121084601F071FB0021022001F0B6
:100C60006DFB0FF22900DFF8181A486001BD000083
:100C7000740A0020D40C0020A80D0020410D0008AB
:100C8000740D0020670E0008A90D000838B5DFF8C4
:100C9000F049102001F03CFB012846D1DFF8F05963
:100CA0006078002825D10121032001F047FB0021B5
:100CB000012001F043FB0021022001F03FFB2078DE
:100CC000012801D0032802D11949C97A697502287F
:100CD00002D11748007B6875BC48C07802F012F852
:100CE0000FF6980001F0D3F8CC2028700120607036
:100CF00003E00FF6940001F0CAF8E87BBB280DD1A1
:100D0000CC20E8730A48007B6875CC2002F02FFAEB
:100D1000CC2002F0FBF9DFF87C0960602078022823
:100D200005D1DFF87009606031BD0020607031BD11
:100D3000900C002060700008D00A00206C70000841
:100D400080B50FF6A41001F0BFF8DFF84C0901F0F0
:100D50009EF801F00EFBDFF844090178012913D158
:100D600000210170407801280ED1022001F06CF9B9
:100D7000DFF82C09DFF80C19C860DFF82809807942
:100D8000DFF8081981F8500001BD00007C700008F0
:100D90009470000800720008A0700008A870000895
:100DA00028720008B870000870B5DFF8F80880787D
:100DB000DFF8D81881F850000FF6341001F084F8ED
:100DC000002425462646112001F0A2FA012800D170
:100DD0000126122001F09CFA012800D101251920DA
:100DE00001F096FA012800D101241A2001F090FAAE
:100DF000012801D101242546002C06D0022C08D060
:100E00000AD2022001F007F906E0022001F01CF9E5
:100E100002E0022001F031F9002E06D0022E08D0A7
:100E20000AD2032001F0F7F806E0032001F00CF9E4
:100E300002E0032001F021F9002D06D0022D08D098
:100E40000AD2012001F0E7F806E0012001F0FCF8E9
:100E500002E0012001F011F9DFF8240880688047E2
:100E6000BDE8704024E380B50FF68C0001F01EF859
:100E70000FF6940001F00BF8DFF80408C16A491C72
:100E8000C162B1F57A6F0DD30FF23101816001209B
:100E900001F0DAF8022001F0D7F80320BDE80240A3
:100EA00001F0D2B8012001F0B6F8022001F0B3F849
:100EB0000320BDE8024001F0AEB8000080B50FF697
:100EC000580000F0F3FFDFF8E00700F0E0FFDFF884
:100ED000CC07017801290DD100210170407801284B
:100EE00008D10FF21500DFF8981788600120BDE8DF
:100EF0000240C5E201BD000010B5DFF88447206B59
:100F0000401C206340F6B831884208D3DFF89C07C4
:100F100000F0BDFF0FF2C950DFF86817C860182055
:100F200001F0F6F90FF6000000F0C0FF00210820E4
:100F300001F004FA002000F0A3FA002802D00FF21A
:100F40000D00A06010BD0000000C024010B5DFF8DD
:100F50003047606B401C606340F6B831884208D36C
:100F6000DFF84C0700F093FF0FF27550DFF814170D
:100F7000C860172001F0CCF90FF2BC7000F096FFAA
:100F80000121082001F0DAF9172001F0C1F9012848
:100F900017D1DFF8200700F07AFFDFF800070178AB
:100FA00001290ED1002101704078012809D10FF2EA
:100FB0002100A060CEA000F06AFF0120BDE8104033
:100FC0005EE210BDC4700008547200082C0D0020B1
:100FD00010B5DFF8AC46A06B401CA06340F6B831FA
:100FE000884208D3DFF8D00600F051FF0FF2F1403D
:100FF000DFF89016C860162001F08AF90FF24870E9
:1010000000F054FF0021042001F098F9012105208F
:1010100001F094F9002000F033FA002806D00FF216
:101020001500A0600120BDE8104029E210BD0000BD
:10103000D070000838B5DFF84846E06B401CE0632C
:10104000DFF8785640F6B831884207D3284600F0DA
:101050001EFF0FF28D40DFF82C16C860152001F03E
:1010600057F90121042001F069F90021052001F060
:1010700065F90FF2E06000F019FF05F1280000F0BB
:1010800006FFDFF81806017801290ED10021017052
:101090004078012809D10FF21D00A06094A000F053
:1010A000F6FE0120BDE83240EAE131BDDC70000807
:1010B000EC70000880B50FF2AC6000F0F7FE002184
:1010C000092001F03BF9002000F0DAF9002808D0EF
:1010D0000FF21500DFF8A81588600120BDE8024076
:1010E000CEE101BDE114000880B50FF2886000F088
:1010F000DDFE0121092001F021F9DFF8C40500F02F
:10110000C6FEDFF898050178012910D10021017091
:10111000407801280BD10FF21900DFF864158860C0
:1011200073A000F0B4FE0120BDE80240A8E101BDBB
:1011300010B5DFF84C45206C401C206440F6B831F7
:10114000884208D3DFF87C0500F0A1FE0FF2913051
:10115000DFF83015C860142001F0DAF80FF22460CF
:1011600000F0A4FE0021062001F0E8F8012107208C
:1011700001F0E4F8002000F083F9002806D00FF217
:101180001500A0600120BDE8104079E110BD00000D
:101190004C76000838B5DFF8E844606C401C6064A9
:1011A000DFF8205540F6B831884207D3284600F0D2
:1011B0006EFE0FF22D30DFF8CC14C860142001F061
:1011C000A7F80FF2D05000F071FE0121062001F0C7
:1011D000B5F80021072001F0B1F805F1240000F076
:1011E00056FEDFF8B804017801290ED10021017004
:1011F0004078012809D10FF21500A0603CA000F052
:1012000046FE0120BDE832403AE131BD80B50FF223
:10121000945000F04BFE0021032001F08FF80020D5
:1012200000F02EF9002808D00FF21900DFF8501452
:1012300088600120BDE8024022E101BD707600080F
:101240002471000880B50FF2685000F02FFE0121D4
:10125000032001F073F8DFF8700400F018FEDFF8E7
:101260003C040178012910D1002101704078012847
:101270000BD10FF21D00DFF8081488601CA000F0ED
:1012800006FE0120BDE80240FAE001BD3871000809
:1012900010B5DFF8EC43A06C401CA06440F6B831F8
:1012A000884208D3DFF8240400F0F1FD0FF231206A
:1012B000DFF8D013C860102001F02AF80FF2FC40CC
:1012C00000F0F4FD0021022001F038F80121084669
:1012D00001F034F8002000F0D3F8002806D00FF217
:1012E0002100A0600120BDE81040C9E010BD000051
:1012F000000000004C71000860710008787100085F
:1013000038B5DFF87C43E06C401CE064DFF8C05384
:1013100040F6B831884207D3284600F0B8FD0FF2F6
:10132000C110DFF86013C8600F2000F0F1FF0FF26A
:101330009C4000F0BBFD0121022000F0FFFF0021D6
:10134000012000F0FBFF05F1280000F0A0FDDFF810
:101350004C030178012914D1002101704078012843
:101360000FD102F063FA0FF22100A060012000F01B
:10137000B9FF0FF2644000F08AFD0120BDE8324061
:101380007EE031BD9071000810B50FF2644000F0AE
:101390008DFDBB4C206D401C206547F230518842CA
:1013A00007D30FF25C4000F072FD0FF23510B54923
:1013B000C8601F2000F0ACFF01280CD10020206580
:1013C0000FF25C4000F063FD0FF21500A060BDE875
:1013D000104002F0FFB910BD04710008A0710008B0
:1013E00010B5A74C606D401C606547F230518842D3
:1013F00007D30FF23C4000F04AFD0FF2E500A1498F
:10140000C8600FF2EC3000F051FD02F0E7F900285F
:1014100008D0002060650FF21D00A060BDE81040FC
:1014200002F0D4B910BD0000147100085473000814
:10143000C071000810B5924CA06D401CA06547F229
:101440003051884207D30FF2E83000F020FD0FF250
:1014500091008C49C8600FF2F43000F027FD02F0D3
:10146000BDF9002809D00020A0659A48A0600FF2BD
:10147000EC30BDE8104000F00ABD10BDCC71000892
:101480009549002802D00020086070470868B0F530
:101490007A6F03D30020086001207047401C086069
:1014A00000207047D871000880730008E4710008BC
:1014B00010B58A4C2068401C2060B0F57A7F03D1BB
:1014C0000121002000F03AFF2068B0F5FA6F05D343
:1014D0000021084600F032FF0020206010BD00000F
:1014E00080B57048007A694981F8500000F041FFEA
:1014F0000FF27C3000F0E8FC032000F0A5FD012095
:1015000000F089FD022000F09FFD75480168B1F5EB
:101510007A7F06DA05DD40F2D172914201DB0021CB
:1015200001600168491C016001BD0000DC74000815
:10153000417474656E64426C6F63436875746500D2
:10154000417474656E6441737069726500000000D7
:1015500056656E746F7573654D6F6E74650000002F
:10156000506F6E7456657273466F7373650000003A
:10157000506F6E74566572734173630054726920C4
:1015800066696E6921000000456E2064656C6169C2
:10159000206176616E7420726573746172740000EC
:1015A00038B5504C122000F0B3FE01280BD11120A9
:1015B00000F0AEFE002806D1192000F0A9FE012897
:1015C00001D1012539E0122000F0A2FE01280BD143
:1015D000112000F09DFE002806D1192000F098FE91
:1015E000002801D1022528E0122000F091FE0128F8
:1015F0000BD1112000F08CFE012806D1192000F03B
:1016000087FE012801D1032517E0122000F080FE9B
:1016100000280ED1112000F07BFE002809D11920EE
:1016200000F076FE002804D10025E07801F06AFB86
:1016300003E00425E07801F065FB280002D1E078A2
:1016400001F060FB2846022802D1A07801F05AFB85
:101650002846012802D1207801F054FB032D04D143
:101660006078BDE8324001F04DBB31BDF07100083B
:101670000848034948600A480249C86070470000AA
:10168000740A0020D40C002060750008D00A0020E5
:101690000B0B0020E505000808750008A40D0020CC
:1016A00089010008900C0020347500089476000829
:1016B000FC7300082074000888750008AC730008EB
:1016C000B075000894740008D8750008B876000852
:1016D00048740008670E0008B00D0020B40D00200B
:1016E000B80D00202C0D00204172726574000000BE
:1016F00054657374730000007465737420436F6CD9
:101700006F6E6E650000000046696E2064616E7346
:1017100020322073656300007465737420456E7415
:1017200072656573000000004163742E2056657277
:10173000696E204D61672E004465732E20566572D8
:10174000696E204D61672E004D6F6E746520456C8B
:1017500065762E0044657363656E6420456C65761E
:101760002E0000004163742E20436F6E766F796502
:1017700075722E004465732E20436F6E766F796507
:1017800075722E004163742E20456A656374657519
:10179000722E00004465732E20456A65637465757A
:1017A000722E000041637469766520416972000001
:1017B0004465736163742E204169720044657363EC
:1017C000656E642056656E74000000004D6F6E7487
:1017D000652056656E742E00546573742064752000
:1017E000706F6E7420656E20636F757273000000F9
:1017F0004465706C6163652056656E742E00000050
:101800004F757073212054696D656F757420696E12
:10181000697420706F6E742061747465696E7400F1
:10182000496E697420706F6E742066696E6900007D
:101830004F757073212054696D656F757420706FDA
:101840006E742061747465696E7421005265706CE9
:101850006163652056656E742E000000506F6E74D3
:1018600020666F6E6374696F6E6E656C00000000B9
:10187000457272657572000080B501F0F3FF02F0E9
:1018800008F802F023F802F045F802F051F802F0EF
:101890005DF802F069F802F072F802F076F802F0F2
:1018A00077F802F07EF802F0A4F800F0F9FBBDE84A
:1018B000014000F063BD80B501F0D1FF02F0CBF82C
:1018C00001F0DEFC02F029F9002002F007FCBDE87F
:1018D0000140FFF7CDBE70477CB5FFF7CDFF02F0AA
:1018E00049FD00F0E0F800F0A3F900F089F900F0FC
:1018F00062F900F02DF900F045F9FFF7DCFF012057
:1019000000F089FB022000F086FB032000F083FB3F
:1019100001200090022380222B21002002F09CFB5A
:1019200001200090022380221B21002002F094FB62
:1019300001200090022380220B21002002F08CFB6A
:10194000052204210FF2086002F072FA052202213A
:101950000FF2146002F06CFADFF89845DFF8986532
:1019600005E0052200210FF2186002F061FA01F093
:1019700076FF207D002840D00020E07505461FE05E
:101980000523D2B20721202002F0C4F90FE0282D50
:101990000DDA2846A0F11402E07D0028F0D10523DD
:1019A000D2B20721DFF85405405D02F0B3F9DFF849
:1019B0004C0528444078002801D10120E0756D1CB9
:1019C000282D18DA142DE2DAE07D00280AD105234B
:1019D00028460246D2B20621DFF82005405D02F01B
:1019E00099F9E4E7052328460246D2B206212020D1
:1019F00002F090F9DBE700202075607D002820D000
:101A00000020E075054617E00523D2B20221202010
:101A100002F080F909E06A1DE07D0028F4D1052379
:101A2000D2B20221605D02F075F960194078002899
:101A300001D10120E0756D1C681D1428EBDB00202E
:101A40006075A07D002820D00020E075054617E0D5
:101A50000523D2B20421202002F05CF909E06A1DBE
:101A6000E07D0028F4D10523D2B20421705D02F09C
:101A700051F970194078002801D10120E0756D1CE2
:101A8000681D1428EBDB0020A075DFF8740490F8C3
:101A9000540000283FF465AF052200210FF2F84002
:101AA00002F0C6F963E780B592B00022302106A8A3
:101AB00002F07AFC0022142101A802F075FC00203B
:101AC0000090DFF84004016841F080510160006837
:101AD00000F080500090009800200090DFF828046B
:101AE000016841F480410160006800F4804000908A
:101AF0000098012006904FF48030079002200C904F
:101B00004FF480000D9004200E90A8200F9002202A
:101B100010900720119006A802F064FC002801D064
:101B200000F0E1F90F2001900220029000200390C4
:101B30004FF4A05004904FF480500590052101A867
:101B400002F0C4FD002801D000F0CDF913B000BDB3
:101B500080B5DFF8B803DFF8B8130160A821416051
:101B600000218160C1604FF40031016100214161B9
:101B70008161818302F088FE002802D0BDE8014027
:101B8000B1E101BD80B5E348E3490160E34941604B
:101B900000218160C1604FF48041016100214161F9
:101BA0008161C161016203F0BFF8002802D0BDE885
:101BB000014098E101BD1CB500220821684602F0F1
:101BC000F3FBD74CD748206000206060A0604AF249
:101BD0000F40E0600020A061204603F063FD002874
:101BE00001D000F080F9102000900020019069469B
:101BF000204603F099FE002801D000F074F913BDCF
:101C000080B5C948C94901604FF49641416000213F
:101C10008160C16001610C21416100218161C1616C
:101C200003F0A2FE002802D0BDE801405BE101BD47
:101C30002DE9F04786B000221421684602F0B4FB7B
:101C400000200590BA48016841F010010160016868
:101C500001F010010591059900210591016841F0FD
:101C600004010160016801F004010591059900215A
:101C70000591016841F080010160016801F0800177
:101C80000591059900210591016841F0010101606C
:101C9000016801F001010591059900210591016894
:101CA00041F002010160016801F00201059105990E
:101CB00000210591016841F008010160006800F011
:101CC0000800059005989B4C00224921204601F010
:101CD00069FC994D01221146284601F063FC974E9C
:101CE0000022E221304601F05DFC47F63307DFF8C1
:101CF000508200223946404601F054FC4FF6D0791C
:101D0000DFF840A200224946504601F04BFC492032
:101D10000090012001900020029003906946204627
:101D200001F064FB4FF400500090002001900290FD
:101D30006946284601F05AFB0120009001900020DE
:101D4000029003906946284601F050FB082000905D
:101D50000220019000200290039005200490694623
:101D6000284601F043FB01200090774801900020B5
:101D700002906946304601F039FBE22000900120D4
:101D800001900020029003906946304601F02EFB3E
:101D90001020009002200190002002900390062065
:101DA00004906946304601F021FB00970120019024
:101DB0000020029003906946404601F017FB042082
:101DC00000900020019002906946404601F00EFB11
:101DD0004FF47F4000900020019002906946204619
:101DE00001F004FB4FF4806000900220019000207D
:101DF00002900390052004906946404601F0F6FAEF
:101E0000CDF80090012001900020029003906946D7
:101E1000504601F0EBFA4FF4A450009002200190DC
:101E2000002002900390062004906946284601F0A5
:101E3000DDFA4FF400700090002001900290694696
:101E4000304601F0D3FA4FF4E050009002200190A8
:101E50000020029003900A2004906946304601F069
:101E6000C5FA20200090002001900290694650465B
:101E700001F0BCFA0220009034480190002002904A
:101E80006946204601F0B2FA06B0BDE8F0870121AC
:101E9000184A11750022194B00E0521C282A04DA56
:101EA000815C9954815C0029F7D17047114A012166
:101EB0005175002300E05B1C152B04DAC15CD15482
:101EC000C15C0029F7D1704701210A4A91750022AF
:101ED000094B00E0521C152A04DA815C9954815C9C
:101EE0000029F7D1704780B501224021154801F043
:101EF00059FBF9E7F00C0020500D0020680C002081
:101F0000D00A00204038024000700040400C002001
:101F100000640040280B002000540040A08601000F
:101F2000C00B002000100040000C002000440040C6
:101F30003038024000100240000802400000024019
:101F400000040240000C02400000111000001210BA
:101F50004D6F64653A202020202020202020202062
:101F60002020202000000000457461743A41747400
:101F7000656E6420426F75746F6E20200000000053
:101F800043414E20436F6E6E65637465642020206C
:101F9000202020200000000043414E20446973634C
:101FA0006F6E6E6563746564202020200000000061
:101FB00010B5464C6068401C6060B0F57A7F11D166
:101FC0002078022802D1012003F055FE6078022813
:101FD00002D1022003F04FFEA078022802D1032094
:101FE00003F049FE6068B0F5FA6F13D32078022839
:101FF00002D1012003F028FE6078022802D10220DD
:1020000003F022FEA078022802D1032003F01CFE78
:102010000020606010BD012804D014D303280CD028
:1020200005D3704701202949087003F024BE012020
:1020300026494870022003F01EBE01202349887003
:10204000032003F018BE7047012804D014D30328DE
:102050000CD005D3704701201C49087003F0F4BD73
:1020600001201A494870022003F0EEBD01201749F3
:102070008870032003F0E8BD7047012804D00ED318
:10208000032809D004D37047022010490870704714
:1020900002200E494870704702200C498870704732
:1020A00010B50A4C00206060012003F0CDFD022035
:1020B00003F0CAFD032003F0C7FD0020207060700C
:1020C000A07003480349886110BD00008C0D0020FA
:1020D000B11F0008D40C002010B5DFF8BC43E06845
:1020E000142820D30020E0602178722003F0DEFD68
:1020F0006178782003F0DAFDA11C772003F0E1FD80
:10210000E11C7A2003F0DDFD211D712003F0D9FDD3
:1021100004F108019B2003F0D4FDA078C043A07017
:102120002079C043207100F057F800F02EF800F03D
:1021300004F8E068401CE06010BD38B5DFF85C537F
:10214000A878401CA870C0B214281DD30020A87025
:10215000EC781B2000F0DCF801280AD10A2C13D0FF
:10216000641CEC70E4B20A2C0EDB0120687028704D
:1021700031BD002C08D0601EE870C0B2002803D129
:10218000002068700120287031BD38B5C44DA87892
:10219000401CA870C0B214281DD30020A870EC7891
:1021A0001C2000F0B5F801280AD10A2C13D0641CB9
:1021B000EC70E4B20A2C0EDB01206870287031BD8F
:1021C000002C08D0601EE870C0B2002803D10020A7
:1021D00068700120287031BD70B5B24CE0780228DB
:1021E00030D1A568142D2DD3A678012E03D000215F
:1021F0000E2000F0A3F8202000F08AF8012821D159
:10220000502D1FD301210E2000F098F81F2000F060
:102210007FF8012816D1642D14D301210A2000F083
:102220008DF801210B2000F089F801210C2000F02D
:1022300085F866700020A0700220207000202071B8
:10224000A060E070E078012842D1A078401E032809
:102250003ED8DFE800F0020B1C2D01202071002188
:102260000D2000F06BF80220E07031E001202071B9
:1022700000210A2000F062F801210B2000F05EF836
:1022800001210C2000F05AF80220E07020E001202B
:10229000207101460A2000F051F800210B2000F0C7
:1022A0004DF801210C2000F049F80220E0700FE009
:1022B0000120207100210A2000F040F801210B20AC
:1022C00000F03CF800210C2000F038F80220E0700B
:1022D0002079002803D0A068401CA06070BD0020B9
:1022E000A06070BD10B5044601F046FB01F04AFB4A
:1022F0006C48847001210170002141700121C1707E
:10230000084610BD674840787047664800787047B7
:102310006549614A51F830301A4412F8012C012302
:1023200001EBC000406883401A401046401E8041C7
:10233000C043C00F70475848007A704770B45A4A7B
:1023400052F8303002EBC004584D0126002906D067
:102350001846295C606886400E43EE5407E0EB5C4B
:1023600061688E4023EA060652F830002E5470BC95
:1023700070474948FF210170417070474A48012168
:1023800001600021416001210161022141610121BF
:102390008160C16081610321C161012181620521E8
:1023A000C16201210162042141620121816307218F
:1023B000C1630121016306214163022101640021FF
:1023C0004164022181640121C164022101654165EA
:1023D00081650321C1650221016604214166022154
:1023E00081660621C166022101670521416703213B
:1023F00081670021C1670321C0F8801000F18401CA
:1024000001220A6003224A6002228A600322CA6013
:102410000A614A6104228A610322CA6105220A62B2
:1024200003224A6206228A620322CA6207220A63E0
:1024300004224A6300228A630422CA6301220A64D6
:1024400004224A6402228A640422CA6403220A65BE
:1024500004224A658A65CA6505220A6604224A661C
:1024600006228A660522CA6602220A6705224A6790
:1024700001228A670522CA6700F582700021016087
:1024800011464160032181600348FF2101704170C2
:102490000748084908617047640D0020A40D00201A
:1024A000A80D0020800D002064090020630D00208D
:1024B000D9200008D40C002010B400230C4601E001
:1024C000C2545B1CA342FBDB10BC704730B4022239
:1024D000022A1BD100220B465B1E012BF8DBC4181D
:1024E00014F8014CFF2C04D01546012D04D1022212
:1024F00002E0150000D10122C55CFF2D04D1C454B7
:10250000FF24C51805F8014C5B1EE6E730BC704798
:1025100010B41478FF2C0DD0FE2C0BD1491E07E00F
:10252000445CFF2C03D14354FD2111700021491E4E
:102530000029F5DC10BC70470922DFF894194B7AAA
:10254000FF2B00D1704730B400230DE0AA24DFF840
:1025500084592C7203E0AA24DFF87859EC71FF2427
:102560008C54521ED2B29B1C072B3ADCC45CAA2CA2
:10257000F9D18C5CFF2CF6D05624C4548C5CC51861
:102580006C708C5C082CEAD8DFE804F0080D121798
:102590001C2126070600E2E7D8E7DCE7AA24DFF8DB
:1025A00034592C70DBE7AA24DFF828596C70D6E781
:1025B000AA24DFF82059AC70D1E7AA24DFF8145917
:1025C000EC70CCE7AA24DFF80C592C71C7E7AA24D9
:1025D000DFF800596C71C2E7AA24DFF8F858AC7133
:1025E000BDE730BC704700001722DFF8DC19CB7D57
:1025F000FF2B00D1704730B400230DE0AA24DFF890
:10260000D458EC7703E0AA24DFF8C858AC77FF244D
:102610008C54521ED2B29B1C082B80F28880C45C62
:10262000AA2CF8D18C5CFF2CF5D04324C4548C5CCC
:10263000C5186C708C5C172CE9D8DFE804F00F1417
:10264000191E23282D32373C41464B50555A5F64A2
:10265000696E730C0E0DDAE7D0E7D4E7AA24DFF831
:1026600074586C72D3E7AA24DFF86858AC72CEE7CE
:10267000AA24DFF86058EC72C9E7AA24DFF854589E
:102680002C73C4E7AA24DFF84C586C73BFE7AA2464
:10269000DFF84058AC73BAE7AA24DFF83858EC7377
:1026A000B5E7AA24DFF82C582C74B0E7AA24DFF889
:1026B00024586C74ABE7AA24DFF81858AC74A6E76A
:1026C000AA24DFF81058EC74A1E7AA24DFF8045814
:1026D0002C759CE7AA24DFF8FC576C7597E7AA24B1
:1026E000DFF8F057AC7592E7AA24DFF8E857EC75ED
:1026F0008DE7AA24DFF8DC572C7688E7AA24DFF8D8
:10270000D4576C7683E7AA24DFF8C857AC767EE707
:10271000AA24DFF8C057EC7679E7AA24DFF8B4578B
:102720002C7774E7AA24DFF8AC576C776FE730BCDE
:10273000704710B50446AA220821FFF7BDFE5320BA
:10274000A071DFF8C80A0178E1718178FF2903D010
:1027500057212171807860712046FFF7EDFE2046F9
:10276000BDE8104040E770B5DFF85C48182120460E
:10277000FFF7ACFEDFF858570A212846FFF7A6FE00
:10278000DFF85067AB7BB21C0A212846FFF7C0FE7A
:102790002B7B32460A212846FFF7BAFE6B7B721C60
:1027A0000A212846FFF7B4FEEB7BF21C0A212846DB
:1027B000FFF7AEFE2B7C321D0A212846FFF7A8FE4C
:1027C0006B7C721D0A212846FFF7A2FEAB7CB21D6E
:1027D0000A212846FFF79CFE2B7D06F108020A21FC
:1027E0002846FFF795FEEB7CF21D0A212846FFF7ED
:1027F0008FFEDFF8805A2B7C06F119021821204643
:10280000FFF786FE6B7C06F11A0218212046FFF7BF
:102810007FFE2B7D06F11D0218212046FFF778FE72
:102820006B7A06F1120218212046FFF771FE2B7A0F
:1028300006F1110218212046FFF76AFEEB7A06F135
:10284000140218212046FFF763FEAB7A06F113024B
:1028500018212046FFF75CFE6B7B06F1160218215B
:102860002046FFF755FE2B7B06F115021821204666
:10287000FFF74EFEEB7B06F1180218212046FFF70A
:1028800047FEAB7B06F1170218212046FFF740FEFA
:10289000AB7B06F1170218212046FFF739FE2B7893
:1028A00006F1090218212046FFF732FE6B7806F187
:1028B0000A0218212046FFF72BFEAB7806F10B0227
:1028C00018212046FFF724FEEB7806F10C021821B0
:1028D0002046FFF71DFE2B7906F10D021821204638
:1028E000FFF716FE6B7906F10E0218212046FFF75E
:1028F0000FFEAB7906F10F0218212046FFF708FE04
:10290000EB7906F1100218212046FFF701FEAB7C9F
:1029100006F11B0218212046FFF7FAFDEB7C06F1B9
:102920001C0218212046FFF7F3FDAB7D06F11F02C4
:1029300018212046FFF7ECFD6B7D06F11E021821E1
:102940002046BDE87040E3E5F8B504460025DFF811
:102950002869DFF828790BE0601940783146C8749F
:1029600005E03846017A3246117402210176AD1C29
:10297000082D80F2A181605D432840D04D2808D009
:10298000532800F03C81562800F0E2805728E3D01D
:10299000EDE76019407806281AD8DFE800F0040750
:1029A0000A0D10131600387C707415E0787C707472
:1029B00012E0B87C70740FE0F87C70740CE0387D25
:1029C000707409E0787D707406E0B87D707403E07F
:1029D000387A307401203876707CB97E814209D013
:1029E000B876002000F078FA002000F0C0FB00204C
:1029F00000F08CFB0020F86178763075B7E760193D
:102A00004078172800F29D80DFE800F00C11161BBB
:102A100020252A31383F464D545B626970777E83AA
:102A2000889B8D94BB20DFF89C1948729FE7BB20E0
:102A3000DFF8901988729AE7BB20DFF88819C8720E
:102A400095E7BB20DFF87C19087390E7BB20DFF81F
:102A5000741948738BE7BB20DFF86819887386E721
:102A6000DFF86009BB21C173002101747FE7DFF843
:102A70005409BB2101740021C17378E7DFF84409D0
:102A8000BB2141740021817471E7DFF83809BB2153
:102A90008174002141746AE7DFF82809BB21C17401
:102AA0000021017563E7DFF81C09BB2101750021D6
:102AB000C1745CE7DFF80C09BB2141750021817509
:102AC00055E7DFF80009BB218175002141754EE70C
:102AD000DFF8F008BB21C1750021017647E7DFF878
:102AE000E408BB2101760021C17540E7DFF8D40876
:102AF000BB2141760021817639E7DFF8C808BB2188
:102B000081760021417632E7BB20DFF8B818C8761D
:102B10002DE7BB20DFF8AC18087728E7BB20DFF8EB
:102B2000A418487723E7DFF89C08BB2181770021B0
:102B3000C1771CE7DFF88C08BB21C17700218177C2
:102B400015E73846017A32461174032101760EE703
:102B50006019407808284BD8DFE800F0050D151DF6
:102B6000252D353C4300DFF85C08BB2101700021B6
:102B700041804170FBE6DFF84C08BB214170002129
:102B800001704180F3E6DFF83C08BB218170002131
:102B90000180C170EBE6DFF82C08BB21C170002179
:102BA00001808170E3E6DFF81C08BB210171002180
:102BB00041718171DBE6DFF80C08BB214171002116
:102BC00001718171D3E6DFF8FC07BB21817100211F
:102BD0008180CCE6DFF8EC07BB21C17100210172D6
:102BE000C5E6DFF8E0070021C171BB210172BEE636
:102BF0003846017A3246117404210176B7E660192D
:102C0000407810283FF6ADAEDFE800F00B161A1E34
:102C10000A22262A2E32363C42464A4E5200A0E66E
:102C2000A5E63046BB2101703946097C427C8A42C8
:102C30003FF49DAE41749AE6BB203146487096E65B
:102C4000BB203146887092E6BB203146C8708EE6C4
:102C5000BB20314608718AE6BB203146487186E6C2
:102C6000BB203146887182E6BB203146C8717EE6C2
:102C7000BB20314608727AE63046BB214172002102
:102C8000817274E63046BB218172002141726EE68A
:102C9000BB203146C8726AE6BB203146087366E63F
:102CA000BB203146487362E6BB20314688735EE63E
:102CB000BB203146C8735AE6F1BDDFF8C015C869BC
:102CC000401C00EE100A81ED070ADFF8442592F857
:102CD000540000280AD1BBEEEF0ABDEEC00A10EE88
:102CE000100AC0B2142390FBF3F04876487E0B28FC
:102CF00002DBFF2082F8540070470278FF2A00D0E0
:102D000001707047F0B4DFF8C811DFF804250346FE
:102D1000FF2B2DD19378FD2B08D01378FD2B05D0F8
:102D20005378FD2B02D0D378FD2B1CD1002318E063
:102D3000CC5C8D7BAC4201D1FF24CC54CC5C0D7BB0
:102D4000AC4201D1FF24CC54CC5C4D7BAC4201D1D0
:102D5000FF24CC54CC5CCD7BAC4201D1FF24CC54BD
:102D60005B1C0A2BE4DBFF23937013705370D3704A
:102D70000B7B04461D46AC4227D19478FD2C05D030
:102D80005478FD2C02D0D478FD2C16D1002412E00A
:102D90000D5D8E7BB54201D1FF250D550D5D4E7B3E
:102DA000B54201D1FF250D550D5DCE7BB54201D158
:102DB000FF250D55641C0A2CEADB1478FD2C01D08C
:102DC000FE2414700024548054708C7B05462646E3
:102DD000B54226D11578FD2D05D05578FD2D02D0B0
:102DE000D578FD2D15D1002511E04E5D9E4201D113
:102DF000FF264E554E5D4F7BBE4201D1FF264E55FC
:102E00004E5DCF7BBE4201D1FF264E556D1C0A2D73
:102E1000EBDB9578FD2D01D0FE2595700025158002
:102E2000D5704D7B06462F46BE4226D11678FD2E24
:102E300005D09678FD2E02D0D678FD2E15D100262D
:102E400011E08F5D9F4201D1FF278F558F5DA74213
:102E500001D1FF278F558F5D91F80FC0674501D1D4
:102E6000FF278F55761C0A2EEBDB5678FD2E01D0FE
:102E7000FE265670002616705680CE7BB04224D1B6
:102E80001078FD2805D09078FD2802D05078FD28D4
:102E900013D100200FE00E5C9E4201D1FF260E549C
:102EA0000E5CA64201D1FF260E540E5CAE4201D14B
:102EB000FF260E54401C0A28EDDBD078FD2801D0F7
:102EC000FE20D070002010705080F0BC70470000D1
:102ED000200D0020D00A002038B50446CC4D2146F4
:102EE00005F13D00FFF709FF214605F13900FFF725
:102EF00004FF214605F13A00FFF7FFFE214605F1E8
:102F00003200FFF7FAFE214605F13100FFF7F5FE2A
:102F1000214605F13400FFF7F0FE214605F13300AC
:102F2000FFF7EBFE214605F13600FFF7E6FE2146EE
:102F300005F13500FFF7E1FE214605F13800FFF706
:102F4000DCFE214605F13700FFF7D7FE214605F1EB
:102F50002900FFF7D2FE214605F12A00FFF7CDFE3A
:102F6000214605F12B00FFF7C8FE214605F12C0094
:102F7000FFF7C3FE214605F12D00FFF7BEFE2146F7
:102F800005F12E00FFF7B9FE214605F13B00FFF7E2
:102F9000B4FE214605F13C00FFF7AFFE214605F1E6
:102FA0003000FFF7AAFE214605F12F00FFF7A5FE2E
:102FB000214605F13F00FFF7A0FE214605F13E0046
:102FC000BDE8344099E60000380D002038B50446CD
:102FD0008F4D214605F11D00FFF78FFE214605F1BB
:102FE0001900FFF78AFE214605F11A00FFF785FE5A
:102FF000214605F11200FFF780FE214605F1110080
:10300000FFF77BFE214605F11400FFF776FE21460F
:1030100005F11300FFF771FE214605F11600FFF7D9
:103020006CFE214605F11500FFF767FE214605F10C
:103030001800FFF762FE214605F11700FFF75DFE5D
:10304000214605F10900FFF758FE214605F10A0067
:10305000FFF753FE214605F10B00FFF74EFE214618
:1030600005F10C00FFF749FE214605F10D00FFF7C1
:1030700044FE214605F10E00FFF73FFE214605F113
:103080001B00FFF73AFE214605F11C00FFF735FE55
:10309000214605F11000FFF730FE214605F10F0033
:1030A000FFF72BFE214605F11F00FFF726FE214604
:1030B00005F11E00BDE834401FE638B50446544D06
:1030C0002146A81CFFF719FE21462846FFF715FEEA
:1030D0002146681CFFF711FE2146A81DFFF70DFED3
:1030E0002146E81CFFF709FE2146281DFFF705FED3
:1030F000214605F10800FFF700FE2146E81DFFF715
:10310000FCFD2146681DBDE83440F6E538B50446AF
:103110003F4D214605F12200FFF7EFFD214605F165
:103120002000FFF7EAFD214605F12100FFF7E5FD4C
:10313000214605F12600FFF7E0FD214605F12300B9
:10314000FFF7DBFD214605F12400FFF7D6FD214600
:1031500005F12800FFF7D1FD214605F12700FFF713
:10316000CCFD214605F12500BDE83440C5E538B564
:103170000446274D214605F14400FFF7BEFD2146D8
:1031800005F14500FFF7B9FD214605F14600FFF7BF
:10319000B4FD214605F14700FFF7AFFD214605F1DB
:1031A0004800FFF7AAFD214605F14900FFF7A5FDFC
:1031B000214605F14A00FFF7A0FD214605F14B002D
:1031C000FFF79BFD214605F14C00FFF796FD2146D8
:1031D00005F14D00FFF791FD214605F14E00FFF787
:1031E0008CFD214605F14F00FFF787FD214605F1D3
:1031F0004300FFF782FD214605F14100FFF77DFD09
:10320000214605F14000BDE8344076E5200B002062
:10321000D00A002010B502F061FD00280CD06A4CE5
:10322000204602F05DFD002801D100F014FC20468C
:10323000BDE81040FFF788BB10BD10B5FFF73DFD9E
:10324000624C607E012810D1E07E002811D104F18B
:103250002000FFF76EFA082204F120014FF40070FD
:1032600002F040FD0120E07610BDFFF77CFA00205F
:10327000E07610BD080D0020100B0020900C0020FF
:1032800038B5524C00202074012060740220A074D4
:103290000320E07404202075052060750620A075C9
:1032A00000202070012060700220A0700320E070D8
:1032B00005202071062060710720A0710820E071B0
:1032C000092020720A2060720B20A0720C20E0728C
:1032D0000D2020730E2060730F20A0731020E07368
:1032E0003B480021017001214170022181700321BE
:1032F000C1700421017105214171062181710721ED
:10330000C17108210172092141720A2181720B21C8
:10331000C1720C2101730D2141730E2181730F21A4
:10332000C173102101741121417412218174132180
:10333000C174142101751621417517218175254D20
:1033400000202873012068730220A8730320E8730B
:1033500004202874052068740620A8740720E874E7
:10336000082028750020FFF7B7FD0020FFF7CEFEEC
:103370000020FFF7FCFEFF20FFF728FEFF20FFF7ED
:103380009CFE1548FF2181700021C170A179017058
:10339000A17D417000210171AA22082104F12000C1
:1033A000FFF78AF8FF2218210C48FFF785F8FF2263
:1033B0000A212846FFF780F809480A4981600A492E
:1033C000416031BDF00A00209C0D0020900C0020CF
:1033D000080D0020200D0020200B0020380D0020BB
:1033E000D40C0020153200083B320008F8B400234A
:1033F0002DE04FF0080C05E0DFF8B8C16045F8D1CA
:103400004FF0070C0CFA06FC4CEA070C45F824C0F8
:10341000694C2668D5432E404F68FF0300D51643FC
:10342000266066682E404F68BF0300D5164366606D
:10343000A6682E404F68FF0200D51643A660E668D6
:103440002E404D68AD0200D51643E6605B1C0F2B85
:1034500000F29E8001249C400A682240A242F5D1DD
:103460004D68022D01D0122D13D11D46ED0800EB41
:103470008506356A9F0007F01C074FF00F0C0CFA09
:1034800007FC25EA0C05D1F810C00CFA07F73D43FC
:10349000356207685D000326AE40F643374091F879
:1034A00004C00CF0030C0CFA05FC4CEA070707609B
:1034B0004F68012F05D0022F03D0112F01D0122FFA
:1034C00010D187683740D1F80CC00CFA05FC4CEAE3
:1034D000070787604768A7434C68C4F300149C4003
:1034E00027434760C46834408E6806FA05F52C43CC
:1034F000C4604C68E400A9D5002400942F4C2568D2
:1035000045F480452560246804F480440094009CC0
:103510001C46A4082A4D55F824709E0006F00C069F
:103520004FF00F0C0CFA06FC27EA0C07DFF894C0EA
:10353000604502D14FF0000C64E7DFF88CC06045B5
:1035400002D14FF0010C5DE7DFF880C0604502D189
:103550004FF0020C56E7DFF878C0604502D14FF01B
:10356000030C4FE7DFF86CC0604502D14FF0040C4C
:1035700048E7DFF864C0604502D14FF0050C41E731
:10358000DFF858C060457FF437AF4FF0060C39E7DD
:10359000F1BC7047006901400846401E8041C043AD
:1035A000C00F7047002A01D0816170470904816112
:1035B00070470000001C0240003C014044380240BB
:1035C00008380140000002400004024000080240A8
:1035D000000C02400010024000140240001802409B
:1035E00010B5984CA078012817D100F00EF90028EA
:1035F00001D1002010BD01210B20FEF79FFE01210B
:103600000C20FEF79BFE00210A20FEF797FEA07813
:10361000401E8041C043C00F10BD022809D10021C7
:103620000E20FEF78BFE00F0F3F80028EFD100200B
:1036300010BD0328EBD101210E20FEF77FFE00F024
:10364000EAF8002807D000F0D1F80320207000200D
:10365000A070012010BD002010BD10B5794CA078DD
:10366000012817D100F0D1F8002801D1002010BDA9
:1036700001210A20FEF762FE01210C20FEF75EFE0A
:1036800000210B20FEF75AFEA078401E8041C04367
:10369000C00F10BD022809D100210E20FEF74EFEFA
:1036A00000F0B6F80028EFD1002010BD0328EBD1C0
:1036B00001210E20FEF742FE00F0ADF8002807D0F1
:1036C00000F094F8032020700020A070012010BDAD
:1036D000002010BD10B55B4CA078012817D100F078
:1036E00094F8002801D1002010BD00210A20FEF727
:1036F00025FE01210B20FEF721FE00210C20FEF704
:103700001DFEA078401E8041C043C00F10BD02289E
:1037100009D100210E20FEF711FE00F079F80028F3
:10372000EFD1002010BD0328EBD101210E20FEF7C0
:1037300005FE00F070F8002805D00320207000205E
:10374000A070012010BD002010BD10B53D4CA07828
:10375000002803D06068401C606001E000206060C9
:103760002078032802D100F016F901E000F016F9E4
:10377000A078002807D12078032802D00120A0706B
:1037800001E0002060606068C82802D10221A170B9
:1037900004E0B0F5FA7F01D10321A170062814D30B
:1037A0002078002803D1FFF71BFF60700AE0012892
:1037B00003D1FFF752FF607004E0022802D1FFF747
:1037C00089FF6070BDE810402FE010BD00201D494A
:1037D0000870704702201B4908707047194800782C
:1037E000032801D1012070470020704780B50121D6
:1037F0000A20FEF7A3FD01210B20FEF79FFD01210A
:103800000C20BDE80440FEF799BD1E20FEF780BDE8
:103810002020FEF77DBD80B51F20FEF779FD012831
:1038200001D1012002BD002002BD704780B50021FA
:103830000D20FEF783FD032002490870024803496A
:10384000486101BD940D00204B370008D40C0020C6
:103850000649884202D1064800680047704703487D
:1038600001F039BF0348024908607047C00B0020CF
:10387000AC0D0020D718000810B5002404E00C4956
:1038800051F820008047641C2046C0B20728F6DBB0
:1038900010BD0020074A064B02E043F82120401CDF
:1038A0000146C9B20729F8DB03480449086070479C
:1038B000D40C0020D718000879380008AC0D00207F
:1038C00001210148FFF766BE00000240704730B496
:1038D000002513E050F8042BD30744BFA9F10103DE
:1038E0009A18091F042942F8045BFAD213468C0780
:1038F00044BF15809B1CC90748BF1D7050F8041BAE
:103900000029E7D130BC704702464FF4004104481B
:10391000FFF748BE00224FF400410148FFF742BEC6
:10392000000C024002464FF400510448FFF73ABE33
:1039300000224FF400510148FFF734BE000C024052
:1039400002464FF480510448FFF72CBE00224FF48A
:1039500080510148FFF726BE000C024002464FF49A
:1039600080410448FFF71EBE00224FF48041014809
:10397000FFF718BE000C02400020FFF7C5BF002073
:10398000FFF7C2BF0020FFF7CDBF0020FFF7CABF7F
:103990000020FFF7D5BF0120FFF7E0BF0020FFF7B1
:1039A000DDBF0020FFF7DABF10B5184C6068401C7F
:1039B000606014281CD300206060FFF781FF01289D
:1039C000A0680AD10A2813D0401CA0600A280FD38F
:1039D00001202070A070607010BD002808D0401E2B
:1039E000A06005D1012020700020A070012060702F
:1039F00010BD064800210180022181700021416034
:103A0000052181600248034908607047740D002059
:103A1000A9390008D40C00200021234801F071B915
:103A200080B50346224A00211F4801F0DBF8401E02
:103A30008041C00F02BD10B51C4C2060226104F112
:103A400040030A462146184801F060F8401E8041B4
:103A5000C043C00F10BD10B5144800214160816003
:103A6000C160017542F2604181610021C161016262
:103A7000416281620D21C162002101630121416324
:103A80008163094C00F11801204600F096FF0028E0
:103A900001D0012010BD204601F007F8401E8041F2
:103AA000C043C00F10BD0000400C00207C0B002064
:103AB000B80C002010B5044604220121002002F0B9
:103AC00033F904E004220121002002F02DF9000660
:103AD000F8D444F00404224601210020BDE810403F
:103AE00002F022B938B504460D4604220121002017
:103AF00002F01AF904E004220121002002F014F976
:103B00000006F8D404F00B042346012200212846C5
:103B100001B0BDE8304002F035BA10B53E210220B8
:103B2000FFF7E0FFC0210220FFF7DCFFB8210220F1
:103B3000FFF7D8FF40210220FFF7D4FF3F210220EA
:103B4000FFF7D0FF3E210120FFF7CCFFC02101206D
:103B5000FFF7C8FFB8210120FFF7C4FF4021012073
:103B6000FFF7C0FF3F210120FFF7BCFF0020034605
:103B70000AE0DFF82C4304EBC0046354521C1146E6
:103B8000C9B20829F5DB401C802801DA1A46F6E79D
:103B900010BD2DE9F84F89460246DFF8041301EB0A
:103BA000C2074C462146C91000917B5C2146012585
:103BB0000E46B61001EB5676F610A1EBC6018D400D
:103BC00045EA03018B4240D0402A03DB4FF0010855
:103BD000403801E04FF0020840F04000064608F08F
:103BE000030A3146C9B25046FFF77CFF4FEAD909B4
:103BF00049F0B80949465046FFF774FF48F00C0BEE
:103C00005846FFF757FF3146C9B25046FFF76AFFE3
:103C100049465046FFF766FF5846FFF74BFF83467D
:103C20003146C9B25046FFF75DFF49465046FFF79F
:103C300059FF45EA0B05294600983954C9B248F0A6
:103C400008084046BDE8F44F4CE7BDE8F18F2DE988
:103C5000F84F0E460146DFF8482202EBC107344612
:103C60002246D2100092BB5C22464FF00108154656
:103C7000AD1002EB5575ED10A2EBC50208FA02F883
:103C800042461D4682F0FF021A40954240D040292C
:103C900003DB4FF00909403801E04FF00A0940F01A
:103CA0004000054609F0030A2946C9B25046FFF70D
:103CB00019FFF60846F0B80631465046FFF712FFE6
:103CC00049F00C0B5846FFF7F5FE2946C9B250469D
:103CD000FFF708FF31465046FFF704FF5846FFF74D
:103CE000E9FE83462946C9B25046FFF7FBFE31463E
:103CF0005046FFF7F7FE88F0FF080BEA0808414638
:103D000049F008094846FFF7EDFE009807F80080E3
:103D1000BDE8F18F2DE9F0471F46A0F120056DB2F7
:103D20003846032800D19300052804D1104600EB43
:103D300040035B001B1D3846072801D1D200134603
:103D40001E46F6B2402E03DB4FF00908403B01E06F
:103D50004FF00A080C4608F0070943F040031946E3
:103D6000C9B24846FFF7BEFE44F0B8014846FFF727
:103D7000B9FE384603281CD14FF0000A16E0DFF8E0
:103D8000240105EB4501084410F80A90494648F023
:103D90000800FFF7A7FEDFF808010AEB060100EBB9
:103DA000C100214600F801900AF1010ABAF1030F9F
:103DB000E5DB384605281CD14FF0000A16E0DFF895
:103DC000E80005EB8501084410F80A90494648F0E0
:103DD0000800FFF787FEDFF8C8000AEB060100EBDA
:103DE000C100214600F801900AF1010ABAF1040F5E
:103DF000E5DD072F1AD14FF0000914E0DFF8AC0021
:103E0000C5EBC501084410F80970394648F00800B0
:103E1000FFF768FE224809EB060100EBC1002146CE
:103E2000475409F10109B9F1060FE7DDBDE8F08754
:103E3000F8B504460D461646304603280DD1002736
:103E400009E0032338460246D2B22946C9B2E05DF2
:103E5000FFF760FF7F1C202FF3DB304605280DD1D4
:103E6000002709E0052338460246D2B22946C9B2E6
:103E7000E05DFFF74FFF7F1C142FF3DB072E0DD102
:103E8000002609E0072330460246D2B22946C9B2CD
:103E9000A05DFFF73FFF761C102EF3DBF1BD0000A5
:103EA0006405002000000020C4000020AC020020B7
:103EB00038B52DED048BB0EE408AF0EE608AB0EE9E
:103EC000419AF0EE619A044651EC180B0022134619
:103ED00002F0D6F92AD851EC190B02F0D1F925D805
:103EE000DFF8703402F0E4F920D251EC180BDFF85F
:103EF000783402F0DDF919D202F0F2F9054651ECFE
:103F0000190B02F0EDF9E4B2012C0146C9B22846C2
:103F1000C0B205D1BDEC048BBDE83440FFF739BE1B
:103F2000BDEC048BBDE83440FFF791BEBDEC048BC3
:103F300031BDF8B52DED0E8BB0EE408AF0EE608A03
:103F4000B0EE419AF0EE619AB0EE42BAF0EE62BA8B
:103F5000B0EE43CAF0EE63CA044651EC190B53ECC1
:103F60001C2B02F0DBF941EC1A0B51EC180B53EC53
:103F70001B2B02F0D3F941EC100B53EC102B02F089
:103F80003FFA06460F4653EC1A2B51EC1A0B02F07F
:103F900037FA32463B4602F005FB41EC100B02F0CB
:103FA000BFFBB0EE40AAF0EE60AA51EC1B0B53EC45
:103FB000182B02F0B3F953EC1A2B02F033FC41EC4E
:103FC0001B0B51EC1C0B53EC192B02F0A7F953EC13
:103FD0001A2B02F027FC41EC1C0B002527E02046A1
:103FE000C0B2044651EC1D0B53EC1C2B02F008FA36
:103FF00053EC192B02F0D6FA41EC110BB0EE41EA6A
:10400000F0EE61EA51EC1D0B53EC1B2B02F0F8F9BA
:1040100053EC182B02F0C6FA41EC100B2046B0EE20
:104020004E1AF0EE6E1AFFF743FF6D1CEDB22846F4
:1040300002F01CFD41EC1D0BB0EE4A0AF0EE6A0ADC
:1040400002F022FD51EC100B53EC1D2B02F018F97D
:10405000C5D9BDEC0E8BF1BD2DE9F0472DED028BDE
:1040600092461E46044604EB0A02521E812A02DBD7
:10407000C0F17F0082460D46A819401E402802DB91
:10408000C1F13F010E46A0460A9F1CE0484602F0DF
:104090002FFD41EC110BB0EE418AF0EE618A4046F3
:1040A00002F026FD41EC100B3846B0EE481AF0EE57
:1040B000681AFFF7FDFE09F1010955FA86F08145FE
:1040C000E4DB08F1010854FA8AF0804501DAA946D8
:1040D000F3E7BDEC028BBDE8F087000070B5044645
:1040E0000025032806D8DFE800F0020402047F253B
:1040F00000E04025002646E0C6F13F0002F0F8FC53
:1041000041EC110B0120B0EE413AF0EE613A9FED27
:10411000942B9FED960BFFF70CFFC6F13E0002F0CB
:10412000E7FC41EC110B0120B0EE413AF0EE613AB0
:104130009FED8B2B9FED8D0BFFF7FBFE21E0C6F172
:104140007F0002F0D5FC41EC100B01209FED823B7B
:10415000B0EE402AF0EE602A9FED841BFFF7E9FEE7
:10416000C6F17E0002F0C4FC41EC100B01209FED73
:104170007A3BB0EE402AF0EE602A9FED7C1BFFF701
:10418000D8FEB61CF6B2AE424BDA20460328F8D869
:10419000DFE800F005260403F3E7ADE7CFE730469C
:1041A00002F064FC41EC100B01209FED6B3BB0EE84
:1041B000402AF0EE602A9FED6D1BFFF7BAFE701CDF
:1041C00002F096FC41EC100B01209FED633BB0EE3A
:1041D000402AF0EE602A9FED651BFFF7AAFED0E7AC
:1041E000304602F043FC41EC110B0120B0EE413AA5
:1041F000F0EE613A9FED5A2B9FED5C0BFFF799FEB5
:10420000701C02F075FC41EC110B0120B0EE413A3C
:10421000F0EE613A9FED522B9FED540BFFF789FEB4
:10422000AFE7002646E0C6F13F0002F061FC41EC3A
:10423000110B0020B0EE413AF0EE613A9FED482BB1
:104240009FED4A0BFFF775FEC6F13E0002F050FCF1
:1042500041EC110B0020B0EE413AF0EE613A9FEDD7
:10426000402B9FED420BFFF764FE21E0C6F17F007B
:1042700002F03EFC41EC100B00209FED373BB0EE0E
:10428000402AF0EE602A9FED391BFFF752FEC6F17F
:104290007E0002F02DFC41EC100B00209FED2E3B28
:1042A000B0EE402AF0EE602A9FED301BFFF741FE92
:1042B000B61CF6B2AE424BDA20460328F8D8DFE847
:1042C00000F005260403F3E7ADE7CFE7304602F040
:1042D000CDFB41EC100B00209FED1F3BB0EE402AC0
:1042E000F0EE602A9FED211BFFF723FE701C02F009
:1042F000FFFB41EC100B00209FED173BB0EE402A76
:10430000F0EE602A9FED191BFFF713FED0E7304651
:1043100002F0ACFB41EC110B0020B0EE413AF0EEA4
:10432000613A9FED0F2B9FED110BFFF702FE701C02
:1043300002F0DEFB41EC110B0020B0EE413AF0EE52
:10434000613A9FED072B9FED090BFFF7F2FDAFE7F9
:1043500070BD000000005040000000000000504010
:10436000000000000000604000006040000000000D
:104370000000000080B50B48016841F40071016045
:10438000016841F480610160016841F4807101605D
:10439000032002F018FC002002F034FC02F056FC6E
:1043A000002002BD003C024062F30F2262F31F4274
:1043B00000B500BF130096469446103928BFA0E808
:1043C0000C50FAD85FEA417C28BF0CC048BF40F8C7
:1043D000042BC90728BF20F8022B48BF00F8012B87
:1043E00000BD00002DE9FC41040016D0B34D20783B
:1043F000C0074CD5A86800F00C00042807D0A868B6
:1044000000F00C0008280AD16868400207D5286827
:1044100080033CD56068002839D101204BE16068F9
:10442000B0F5803F04D1286840F48030286012E065
:10443000B0F5A02F286807D140F4802028602868B4
:1044400040F48030286006E020F48030286028683E
:1044500020F480202860606800280CD002F0DAFC8C
:1044600006462868800312D402F0D4FC801B65281D
:10447000F7D303201FE102F0CDFC06462868800335
:1044800005D502F0C7FC801B6528F7D3F1E720783B
:10449000800718D5A86810F00C0F07D0A86800F0A6
:1044A0000C00082824D16868400221D428688007BD
:1044B00002D5E0680128B0D1286820F0F800216911
:1044C00040EAC10028602078000747D57C49606930
:1044D000002835D00120086002F09CFC0646686F79
:1044E00080073BD402F096FC801B0228F7D9C0E776
:1044F0007449E068002815D00120086002F08AFCA9
:1045000006462868800705D402F084FC801B022838
:10451000F7D9AEE7286820F0F800216940EAC10029
:104520002860D0E70020086002F074FC0646286886
:104530008007C8D502F06EFC801B0228F7D998E7E7
:104540000020086002F066FC0646686F800705D50B
:1045500002F060FC801B0228F7D98AE72078400728
:1045600063D50026286CC0000BD430460090286C20
:1045700040F080502864286C00F080500090009833
:104580000126514F3868C00510D4386840F4807057
:10459000386002F03FFC80463868C00506D402F05F
:1045A00039FCA0EB08000228F6D962E7A0680128D0
:1045B00004D1286F40F00100286711E00528286F1A
:1045C00007D140F004002867286F40F001002867F9
:1045D00006E0400840002867286F20F004002867A4
:1045E000A06800280DD002F015FC0746286F800750
:1045F00015D402F00FFCC01B41F289318842F5D37B
:1046000037E702F007FC0746286F800707D502F05E
:1046100001FCC01B41F289318842F5D329E7012E04
:1046200003D1286C20F080502864A069002841D074
:10463000A96801F00C0108293FF4EFAE214E0228D1
:104640002AD10020306602F0E5FB07462868800189
:1046500005D502F0DFFBC01B0228F7D909E7E069A6
:10466000216A0843616A40EA8110A16A4908491E2B
:1046700040EA0140E16A40EA01606860012030667A
:1046800002F0C8FB04462868800113D402F0C2FB84
:10469000001B0228F7D9ECE60020306602F0BAFBD6
:1046A00004462868800105D502F0B4FB001B0228EF
:1046B000F7D9DEE60020BDE8F68100BF00380240F1
:1046C000800E474200004742007000402DE9F04153
:1046D00004460F46002C5BD04C4E306800F00F00B3
:1046E000B84205D23770306800F00F00B8424FD1A1
:1046F0002068474D810712D5400703D5A86840F4CC
:10470000E050A8602078000703D5A86840F4604016
:10471000A860A96821F0F001A0680143A960207891
:10472000C0072AD56068012803D1296889030BD402
:104730002EE0022801D0032803D12968890103D47F
:1047400026E02968890723D5A968890850EA8100ED
:10475000A86002F05FFB8046A86800F00C0061686A
:10476000B0EB810F09D002F055FBA0EB080041F23D
:1047700089318842F0D303202DE0306800F00F002B
:10478000874207D23770306800F00F00B84201D07E
:10479000012020E02078400705D5A96821F4E051E8
:1047A000E0680143A9602078000706D5A86820F4D6
:1047B0006040216940EAC100A86000F033F8154963
:1047C000AA68C2F30312895CC8401349086000203C
:1047D00002F018FA0020BDE8F0810F480068704729
:1047E00080B5FFF7FAFF0E490C4A1268C2F3822225
:1047F000895CC84002BD80B5FFF7EFFF0849074A52
:104800001268C2F34232895CC84002BD003C0240DB
:104810000038024044730008600500200838024058
:10482000A477000810B5154C606800F00C0004284F
:1048300002D0082802D01EE0114810BD226802F004
:104840003F020023206840022068C0F3881005D58D
:104850000B49A1FB000102F0E3FA04E00949A1FBC6
:10486000000102F0DDFA2168C1F30141491C490051
:10487000B0FBF1F010BD034810BD00BF043802408A
:1048800000127A000024F40038B5040001D10120A0
:1048900032BD94F82000002802D1204602F0F2F93F
:1048A0002068016821F00201016002F0B3FA0546B8
:1048B0002068416889070DD502F0ACFA401B0B282F
:1048C000F6D3606A40F400306062052084F820006E
:1048D000012032BD016841F00101016002F09AFA45
:1048E000054620684168C9070DD402F093FA401BC1
:1048F0000B28F6D3606A40F400306062052084F82B
:104900002000012032BD217E0129016803D141F040
:104910008001016002E021F0800101602068617E79
:104920000129016803D141F04001016002E021F05A
:10493000400101602068A17E0129016803D141F096
:104940002001016002E021F0200101602068E17E89
:104950000129016803D121F01001016002E041F05A
:10496000100101602068217F0129016803D141F015
:104970000801016002E021F0080101602068617F08
:104980000129016803D141F00401016002E021F036
:1049900004010160A168E068014320690143606986
:1049A00001436068401E01432068C16100206062CD
:1049B000012084F82000002032BDF0B490F82020BF
:1049C000012A01D0022A69D14E4A106840F0010044
:1049D0001060106820F47C50106010684B6A40EA48
:1049E0000320106001200B7D03F01F0300FA03F386
:1049F000DC43D0692040D061C869002816D1D06856
:104A00002040D060404800F510754E69CF68D1F85D
:104A100004C0CCEA074745F8367000F511704D69BF
:104A20008E680F68C7EA064640F83560C8690128F5
:104A300016D1D0681843D060334800F510754E6920
:104A40000F68D1F804C0CCEA074745F8367000F586
:104A500011704D698E68CF68C7EA064640F8356028
:104A600088690028506802D12040506001E0184356
:104A7000506008690028506902D10440546101E087
:104A800018435061086A012802D1D0690343D361F9
:104A90001068400840001060002004E0416A41F4C2
:104AA000802141620120F0BC704738B5044694F87B
:104AB000200001281FD1022084F82000206801680E
:104AC00049084900016002F0A5F9054620684068E0
:104AD000C0070DD502F09EF9401B0B28F6D3606A83
:104AE00040F400306062052084F82000012032BDCF
:104AF0000020606232BD606A40F4002060620120E4
:104B000032BD00000066004000640040F0B490F840
:104B100020400568AD68012C01D0022C5BD115F056
:104B2000E05F52D0C5F30164032C05D3416A41F420
:104B300000014162012053E00125A5401D6003688A
:104B400003F5C0752401CE688B68002B04D10B6877
:104B500046EA43562E5104E04F6843EAC7031E431A
:104B60002E510B69056805F5C2752B51097D012988
:104B700006D1016801F5C2710B5943F480730B51E2
:104B8000D17993791B0443EA0163517943EA012304
:104B900011790B4301682144C1F88C31D1789378A5
:104BA0001B0443EA0163517843EA012311780B4364
:104BB00001682144C1F88831006800F5C0700159CE
:104BC00041F00101015100200AE0416A41F4001165
:104BD0004162012004E0416A41F4802141620120E8
:104BE000F0BC704770B490F82040012C02D0022C29
:104BF00040F080800468002909D1E56815F0030FB2
:104C00000FD1416A41F400114162012077E025692A
:104C100015F0030F05D1416A41F4001141620120F2
:104C20006DE00D0104F5D874645904F00404946037
:104C3000066806F5D876002C745902D1640D14600C
:104C400001E0E4085460046804F5D8746459C4F3BE
:104C50004004D46004682C44D4F8B44104F00F0438
:104C6000146104682C44D4F8B441C4F3072494615B
:104C700004682C44D4F8B441240C546102682A44DA
:104C8000D2F8B8211A7002682A44D2F8B821120A60
:104C90005A7002682A44D2F8B821120C9A7002683D
:104CA0002A44D2F8B821120EDA7002682A44D2F8E7
:104CB000BC211A7102682A44D2F8BC21120A5A7126
:104CC00002682A44D2F8BC21120C9A7102682A4464
:104CD000D2F8BC21120EDA710068002904D1C16833
:104CE00041F02001C16003E0016941F02001016150
:104CF000002004E0416A41F480214162012070BC3F
:104D000070470246002092F82030012B01D0022B80
:104D100009D11068002903D1C06800F00300704772
:104D2000006900F003007047F8B5040025D004F1D5
:104D30003C056878002804D100202870204601F046
:104D4000D4FF242068702068016849084900016088
:104D5000FFF746FD0146DFF800256068904205D266
:104D6000DFF8F80481428041C00F04E0DFF8F0046E
:104D700081428041C00F012801D10120F2BDDFF83E
:104D8000E404B1FBF0F320684668B60953EA8616DE
:104D900046602668376A6068904201D25B1C07E073
:104DA0004FF4967043434FF47A70B3FBF0F35B1CFF
:104DB000BF0953EA871333622368DE696768491EB7
:104DC000974209D27F00B1FBF7F1491CC1F30B01F7
:104DD00004292ED204212CE0A068002807D107EB7B
:104DE0004702B1FBF2F2521CC2F30B0208E0192297
:104DF0007A43B1FBF2F2521CC2F30B0242F480423E
:104E0000120501D1012114E0002807D107EB470763
:104E1000B1FBF7F1491CC1F30B0108E0192047432E
:104E2000B1FBF7F1491CC1F30B0141F4804141F49E
:104E30000041DFF8340406400E43DE6121680A6851
:104E400022F0C002E0690243206A02430A6021683E
:104E50008A68DFF81804024020690243E0680243D0
:104E60008A602168CA68120AA3696069034353EA29
:104E70000222CA602068016841F00101016000203F
:104E800068602020687000202063A870F2BD2DE9C2
:104E9000FC470646884691469A4601F0BBFF044609
:104EA00006F13C077878202840F08C800094192384
:104EB0000122DFF8BC13304600F0B8FA002840F0B9
:104EC0008180387801287DD00120387030680168F1
:104ED000C90703D4016841F0010101600A9D3068EF
:104EE000016821F400610160212078701020B87001
:104EF00000207860C6F82490A6F82AA0708D30852E
:104F0000DFF87003F06223462A464146304600F03F
:104F1000B5F9002840D10020009030684169009127
:104F2000806900900098308D002840D022462946A4
:104F3000304600F014FB002830D1706A00783168E8
:104F40000861706A401C7062708D401E7085308DE3
:104F5000401E308531684A6952070ED580B200285C
:104F60000BD0706A00780861706A401C7062708DA6
:104F7000401E7085308D401E3085224629463046C1
:104F800000F018FB0028CED07868042804D13068DF
:104F9000016841F400710160012014E07868042880
:104FA000FAD13068016841F400710160F4E73068BB
:104FB000016841F400710160202078700020B87011
:104FC000387000E00220BDE8F6872DE9FC47064670
:104FD000884691469A4601F01DFF044606F13C07BB
:104FE0007878202840F03581009419230122DFF8D9
:104FF0008012304600F01AFA002840F02A813878F2
:10500000012800F026810120387030680168C90746
:1050100003D4016841F0010101600A9D3068016814
:1050200021F400610160222078701020B870002007
:105030007860C6F82490A6F82AA0708D3085DFF835
:105040003402F06223462A464146304600F067F9B2
:10505000002840F0D780308D316800280BD1002027
:10506000009048690090886900900098086840F4B2
:105070000070086047E0012810D1086820F48060C3
:1050800008600020009030684169009181690091BA
:105090000099016841F40071016034E00228086859
:1050A00010D120F4806008603068016841F400612C
:1050B0000160002000903068416900918069009093
:1050C000009820E040F48060086000200090306884
:1050D0004169009180690090009814E022462946B9
:1050E000304600F092FA002840F08C803068006969
:1050F000716A0870706A401C7062308D401E308585
:10510000708D401E7085308D002800F09C80014617
:10511000042970D20128E1D0DFF85C8102280094D4
:105120002B4626D100224146304600F07FF9002868
:1051300068D13068016841F400710160306800692D
:10514000716A0870706A401C7062308D401E308534
:10515000708D401E708530680069716A0870706AD1
:10516000401C7062308D401E3085708D401E7085F1
:10517000C9E700224146304600F058F9002841D1E5
:105180003068016821F48061016030680069716AEB
:105190000870706A401C7062308D401E3085708DC2
:1051A000401E708500942B4600224146304600F098
:1051B0003DF9002826D13068016841F40071016092
:1051C00030680069716A0870706A401C7062308DC6
:1051D000401E3085708D401E708530680069716A90
:1051E0000870706A401C7062308D401E3085708D72
:1051F000401E708587E722462946304600F005FAB2
:10520000002801D0012025E030680069716A08702B
:10521000706A401C7062308D401E3085708D401E5B
:1052200070853068416949077FF56DAF0069716A23
:105230000870706A401C7062308D401E3085708D21
:10524000401E70855FE7202078700020B8703870AD
:1052500000E00220BDE8F687A186010080841E00E0
:1052600000093D0040420F000030FFFF007CFFFFBF
:10527000020010000000FFFF04000100F8B5044622
:105280000D4616461F46E06A082804D0012802D0C1
:105290006349884205D12068016841F4807101604A
:1052A00007E0206B122804D12068016841F4807166
:1052B00001600097334600224FF00111204600F0B4
:1052C000B5F8002801D00120F2BD20682169B1F5B0
:1052D000804F03D105F0FE05056114E02946C90998
:1052E00001F0060141F0F00101613B463246DFF872
:1052F0003411204600F0DCF8002801D00120F2BD76
:10530000EDB2206805613B463246DFF81C112046AD
:1053100000F0CEF8401E8041C043C00FF2BD2DE921
:10532000FC4104460F4615461E46E06A21680A689D
:1053300042F480620A60082804D0012802D038496B
:10534000884205D12068016841F48071016007E05E
:10535000206B112804D12068016841F4807101603C
:1053600000962B4600224FF00111204600F05EF817
:10537000002801D0012051E020682169B1F5804F5B
:1053800004D147F00107FFB207613DE0B8464FEA9C
:10539000D81808F0060848F0F001016133462A46A3
:1053A000DFF88010204600F083F8002801D00120AB
:1053B00034E0FFB22068076133462A46DFF8681000
:1053C000204600F075F8002801D0012026E00020DA
:1053D00000902068416900918169009100990168FD
:1053E00041F48071016000962B4600224FF00111BC
:1053F000204600F01BF8002801D001200EE048F004
:10540000F1082068C0F8108033462A460649204635
:1054100000F04EF8401E8041C043C00FBDE8F68149
:105420000000FFFF08000100020001002DE9F0412B
:1054300005460E4617461C46DDF81880286831469A
:10544000090CC9B2012909D14069304080B2B1B21A
:10545000884201D101200AE0002008E08069304044
:1054600080B2B1B2884201D1012000E0002039466B
:1054700088421AD114F1010FE0D001F0CBFCA0EB6F
:105480000800844201D3002CD8D10020286305F104
:105490003C002021417000218170416841F02001D1
:1054A000416000210170012000E00020BDE8F08192
:1054B000F8B505460E4614461F4628683146090CC5
:1054C000C9B2012909D14169314089B2B2B29142D0
:1054D00001D101210AE0002108E08169314089B24F
:1054E000B2B2914201D1012100E00021002934D162
:1054F0004169490517D5016841F4007101606FF4F5
:105500008060296848610020286305F13C00202163
:10551000417000218170416841F004014160002127
:1055200001700120F2BD14F1010FC6D001F072FC30
:10553000C01B844201D3002CBFD10020286305F199
:105540003C002021417000218170416841F0200120
:105550004160002101700120F2BD0020F2BD70B554
:1055600005460C46164628684069000620D42846A1
:1055700000F080F8002801D0012070BD14F1010F67
:10558000F1D001F047FC801B844201D3002CEAD10A
:105590000020286305F13C0020214170002181702A
:1055A000416841F02001416000210170012070BD7F
:1055B000002070BD70B505460C4616462868406947
:1055C000400720D4284600F055F8002801D00120DB
:1055D00070BD14F1010FF1D001F01CFC801B84425E
:1055E00001D3002CEAD10020286305F13C002021E2
:1055F000417000218170416841F02001416000212B
:105600000170012070BD002070BD70B505460C46CC
:1056100016462868416949062AD44169C90616D444
:1056200001F0F8FB801B844201D3002CF1D1002053
:10563000286305F13C002021417000218170416800
:1056400041F02001416000210170012070BD6FF028
:10565000100141610020286305F13C0020214170C8
:10566000002181704168416000210170012070BDFE
:10567000002070BD01684A69520511D56FF480623F
:105680004A61002101633C3020214170002181707A
:10569000416841F004014160002101700120704720
:1056A0000020704738B5040001D1012032BD04F15B
:1056B0003C056878002804D100202870204601F0BD
:1056C00048FB02206870211D206800F0BEF8012010
:1056D0006870002032BD0168CA6842F00102CA60E9
:1056E0000068816801F00701062903D0016841F0D4
:1056F000010101600020704710B50446206801696F
:10570000890717D5C168890714D56FF002010161B7
:10571000012020772068806910F0030F204602D016
:1057200001F096FC04E001F094FC204601F092FCAC
:105730000020207720680169490717D5C16849070B
:1057400014D56FF004010161022020772068806980
:1057500010F4407F204602D001F07AFC04E001F012
:1057600078FC204601F076FC002020772068016953
:10577000090717D5C168090714D56FF00801016141
:10578000042020772068C06910F0030F204602D063
:1057900001F05EFC04E001F05CFC204601F05AFCE4
:1057A0000020207720680169C90617D5C168C9069D
:1057B00014D56FF010010161082020772068C069BE
:1057C00010F4407F204602D001F042FC04E001F0DA
:1057D00040FC204601F03EFC002020772068016953
:1057E000C90708D5C168C90705D56FF00101016176
:1057F0002046FEF72DF820680169090608D5C16822
:10580000090605D56FF080010161204601F023FCF7
:1058100020680169490608D5C168490605D56FF0B9
:1058200040010161204601F017FC206801698906EA
:105830000AD5C168890607D56FF0200101612046AD
:10584000BDE8104001F009BC10BD10B40468DFF8D9
:10585000AC30984212D0B0F1804F0FD0DFF8A020CA
:1058600090420BD0DFF89C20904207D0DFF89820C0
:10587000904203D0DFF89420904203D124F07004CA
:105880004A681443984220D0B0F1804F1DD01C4A82
:1058900090421AD01B4A904217D01B4A904214D013
:1058A0001A4A904211D01A4A90420ED0194A904298
:1058B0000BD0194A904208D0184A904205D0184A95
:1058C000904202D0174A904203D124F44074CA682F
:1058D000144324F080044A69144304608A68C26255
:1058E0000A688262984202D0084A904201D109694E
:1058F00001630121416110BC7047000000000140BC
:105900000004004000080040000C0040000401407A
:1059100000400140004401400048014000180040A0
:10592000001C00400020004070B400F13C031A78D5
:10593000012A01D1022015E001221A7002225A70B8
:1059400004686568A66826F080064A68164325F054
:10595000700509680D436560006886600120587015
:105960000020187070BC704738B5040001D10120C8
:1059700032BD04F138056878002804D10020287071
:10598000204601F002FA242068702068C16821F4E2
:105990000051C160204600F016F82068016921F42A
:1059A000904101612068416921F02A01416120682C
:1059B000C16841F40051C160002068602020687017
:1059C000A870002032BD2DE9F041044621680A6923
:1059D00022F44052E06802430A612168CA6897488D
:1059E0000240A06802432069024360690243E06903
:1059F0000243CA6021684A6922F44072A0690243E6
:105A00004A6120688E49E269B2F5004F40F08B8010
:105A1000884202D08B49884242D1FEF7ECFE05460F
:105A2000FEF7E9FE0646FEF7E6FE0746FEF7E3FE52
:105A30008046FEF7E0FE61684900642219235D4359
:105A4000B5FBF1F59446B5FBFCF55E43B6FBF1F60C
:105A50005F43B7FBF1F7B7FBFCF702FB1766F600F5
:105A600032361746B6FBF7F6760006F4F87606EB04
:105A7000051603FB08F8B8FBF1F54343B3FBF1F05F
:105A80001146B0FBF1F002FB1052D2003232084650
:105A9000B2FBF0F000F00700861920688660CAE0CB
:105AA000FEF79EFE0546FEF79BFE0646FEF798FEB5
:105AB0000746FEF795FE8046FEF792FE61684900B4
:105AC000642219235D43B5FBF1F59446B5FBFCF563
:105AD0005E43B6FBF1F65F43B7FBF1F7B7FBFCF7AC
