:020000040800F2
:10000000A0060020B9340008E9340008ED340008E7
:10001000F1340008F5340008F9340008000000004D
:10002000000000000000000000000000FD34000897
:100030000135000800000000053500089134000873
:10004000093500080D350008113500081535000880
:10005000193500081D350008213500082535000830
:10006000293500082D3500083135000835350008E0
:10007000393500083D350008413500084535000890
:10008000493500084D350008513500085535000840
:10009000593500085D3500086135000865350008F0
:1000A000693500086D3500087135000875350008A0
:1000B000793500087D350008813500088535000850
:1000C000893500088D350008913500089535000800
:1000D000993500089D350008A1350008A5350008B0
:1000E000A9350008AD350008B1350008B535000860
:1000F000B9350008BD350008C1350008C535000810
:10010000C9350008CD350008D1350008D5350008BF
:10011000D9350008DD35000899340008E1350008BC
:10012000E5350008E9350008ED350008F13500082F
:10013000F5350008F9350008FD35000801360008DE
:1001400005360008093600080D360008113600088B
:1001500015360008193600081D360008213600083B
:1001600025360008293600082D36000831360008EB
:1001700035360008393600083D360008000000001A
:10018000413600084536000870B50400002C01D146
:100190000120D5E094F83D00002805D1002084F826
:1001A0003C00200000F0C7FD242084F83D002068BA
:1001B0000068400840002168086000F0F7FE010078
:1001C000DFF8E0056268824208D2DFF8DC25914260
:1001D00001D2012200E00022D2B207E0DFF8CC25F4
:1001E000914201D2012200E00022D2B2012A01D1C3
:1001F0000120A5E0DFF8B825B1FBF2F223685B68C7
:100200009B099B01134325686B6023681B6A656823
:10021000854201D2551C08E04FF4967505FB02F5A6
:100220004FF47A76B5FBF6F56D1C9B099B012B43C9
:1002300025682B622368DB696568854214D2481EF5
:1002400065686D00B0FBF5F0401C0005000D04284A
:1002500001D204253EE0481E65686D00B0FBF5F54F
:100260006D1C2D052D0D35E0A068002809D14D1E0F
:10027000666803204643B5FBF6F0401C0005000D00
:100280000AE04D1E666819204643B5FBF6F0401C97
:100290000005000D50F48040000501D1012519E052
:1002A000A068002809D14D1E666803204643B5FBAF
:1002B000F6F56D1C2D052D0D0AE04D1E6668192002
:1002C0004643B5FBF6F56D1C2D052D0D55F4804507
:1002D00055F40045DFF8DC0403402B432068C3617C
:1002E0002068036833F0C003E0690343206A0343D6
:1002F0002068036020688368DFF8BC04034020693D
:100300000343E0680343206883602068C3681B0AD6
:100310001B02A569606905432B432068C360206800
:10032000006850F00100236818600020206420203D
:1003300084F83D0000202063002084F83E00002067
:1003400070BD2DE9F84304000D0016001F00DDF814
:10035000208000F09BFE814694F83D00202840F06C
:10036000A280CDF8009019230122DFF8501420005C
:1003700000F022FB002801D0022095E094F83C0018
:10038000012801D102208FE0012084F83C00206880
:100390000068C00705D42068006850F0010021689B
:1003A00008602068006830F400602168086021203F
:1003B00084F83D00102084F83E000020206466622E
:1003C0006785608D2085DFF8F803E0624B46424682
:1003D000290089B2200000F0F7F9002801D001209F
:1003E00062E00020009020684069009020688069E9
:1003F00000900098208D002844D04A4641462000B5
:1004000000F07EFB00280AD0206C042805D120686B
:10041000006850F4007021680860012044E0606AC0
:10042000007821680861606A401C6062608D401E2F
:100430006085208D401E20852068406940070FD5CB
:10044000208D00280CD0606A007821680861606AFD
:10045000401C6062608D401E6085208D401E20859E
:100460004A464146200000F077FB0028C2D0206CAD
:10047000042805D12068006850F4007021680860E5
:10048000012011E02068006850F4007021680860C5
:10049000202084F83D00002084F83E00002084F8ED
:1004A0003C00002000E00220BDE8F2832DE9FC477B
:1004B00004000D0016001F00DDF8288000F0E6FDA6
:1004C000814694F83D00202840F06981CDF80090E5
:1004D00019230122DFF8E412200000F06DFA002851
:1004E00001D002205CE194F83C00012801D10220F7
:1004F00056E1012084F83C0020680068C00705D45C
:100500002068006850F001002168086020680068D9
:1005100030F4006021680860222084F83D0010203B
:1005200084F83E000020206466626785608D208527
:10053000DFF88C02E0624B464246290089B2200077
:1005400000F0A0F9002801D0012029E1208D002829
:100550000FD10020009020684069009020688069D9
:10056000009000982068006850F4007021680860CE
:1005700040E0208D012815D12068006830F48060AB
:100580002168086000200090206840690090206881
:100590008069009000982068006850F4007021681D
:1005A000086027E0208D022815D12068006830F40B
:1005B0008060216808602068006850F4006021684D
:1005C00008600020009020684069009020688069E1
:1005D000009000980EE02068006850F48060216868
:1005E00008600020009020684069009020688069C1
:1005F00000900098208D002800F0C680208D0428EF
:1006000080F09980208D012816D14A46414620006D
:1006100000F0CEFA002801D00120C1E02068006976
:10062000616A0870606A401C6062208D401E2085EF
:10063000608D401E6085DDE7208D02282DD1CDF82C
:10064000009043460022DFF87C11200000F0B4F94E
:10065000002801D00120A3E02068006850F4007059
:100660002168086020680069616A0870606A401C3F
:100670006062208D401E2085608D401E6085206850
:100680000069616A0870606A401C6062208D401ECB
:100690002085608D401E6085ACE7DFF828A1CDF88D
:1006A0000090434600225146200000F085F90028C2
:1006B00001D0012074E02068006830F48060216877
:1006C000086020680069616A0870606A401C6062A6
:1006D000208D401E2085608D401E6085CDF80090E5
:1006E000434600225146200000F066F9002801D060
:1006F000012055E02068006850F40070216808600F
:1007000020680069616A0870606A401C6062208D20
:10071000401E2085608D401E608520680069616AEA
:100720000870606A401C6062208D401E2085608DCC
:10073000401E60855EE74A464146200000F038FAD8
:10074000002801D001202BE020680069616A087050
:10075000606A401C6062208D401E2085608D401EB6
:1007600060852068406940077FF544AF20680069D4
:10077000616A0870606A401C6062208D401E20859E
:10078000608D401E608535E7202084F83D00002004
:1007900084F83E00002084F83C00002000E00220A5
:1007A000BDE8F687A186010080841E0000093D0097
:1007B00040420F000030FFFF007CFFFF02001000EE
:1007C0000000FFFF040001002DE9FC4104000D00C2
:1007D00016001F00D4F82C80B8F1080F05D0B8F12E
:1007E000010F02D02648804506D12068006850F4E9
:1007F00080702168086008E0206B122805D120680D
:10080000006850F48070216808600097330000226F
:100810005FF00111200000F0CFF8002801D0012086
:100820002CE02069B0F5804F04D115F0FE0021685E
:10083000086117E015F4407080B2C00950F0F00074
:10084000C0B2216808613B003200DFF8601120006F
:1008500000F0F8F8002801D001200FE02800C0B215
:10086000216808613B003200DFF84411200000F0ED
:10087000E9F8002801D0012000E00020BDE8F68161
:100880000000FFFF2DE9FC4104000D0016001F00D1
:10089000D4F82C802068006850F4806021680860DB
:1008A000B8F1080F06D0B8F1010F03D0DFF804014A
:1008B000804506D12068006850F480702168086087
:1008C00008E0206B112805D12068006850F4807082
:1008D000216808600097330000225FF001112000BA
:1008E00000F06AF8002801D001205CE02069B0F532
:1008F000804F05D155F00100C0B22168086146E083
:1009000015F4407080B2C00950F0F000C0B2216808
:1009100008613B003200DFF89410200000F092F8EC
:10092000002801D001203EE02800C0B22168086103
:100930003B003200DFF87810200000F083F8002838
:1009400001D001202FE00020009020684069009035
:1009500020688069009000982068006850F48070DA
:10096000216808600097330000225FF00111200029
:1009700000F022F8002801D0012014E015F44070A6
:1009800080B2C00950F0F100C0B2216808613B009C
:100990003200DFF81C10200000F054F8002801D0CD
:1009A000012000E00020BDE8F68100000800010001
:1009B000020001000000FFFF2DE9F04105000E00DC
:1009C00017001C00DDF818803000000CC0B20128B0
:1009D0000AD128684069304080B2B1B2884201D162
:1009E00001200BE0002009E028688069304080B2D7
:1009F000B1B2884201D1012000E000203900C0B22C
:100A0000C9B288421BD114F1010FDDD000F03EFBCA
:100A1000B0EB0800844201D3002CD5D1002028631C
:100A2000202085F83D00002085F83E00286C50F01D
:100A300020002864002085F83C00012000E0002010
:100A4000BDE8F081F8B505000E0014001F0030006D
:100A5000000CC0B201280AD128684069304080B239
:100A6000B1B2884201D101200BE0002009E02868E2
:100A70008069304080B2B1B2884201D1012000E0EB
:100A80000020C0B2002839D12868406940051AD535
:100A90002868006850F40070296808607FF480605E
:100AA0002968486100202863202085F83D00002047
:100AB00085F83E00286C50F004002864002085F87A
:100AC0003C0001201BE014F1010FC0D000F0DEFA61
:100AD000C01B844201D3002CB9D100202863202000
:100AE00085F83D00002085F83E00286C50F020007D
:100AF0002864002085F83C00012000E00020F2BDC1
:100B000070B505000C00160028684069000621D465
:100B1000280000F086F8002801D001201BE014F125
:100B2000010FF1D000F0B2FA801B844201D3002CF7
:100B3000EAD100202863202085F83D00002085F8B8
:100B40003E00286C50F020002864002085F83C000E
:100B5000012000E0002070BD70B505000C001600FB
:100B600028684069400721D4280000F05AF800287E
:100B700001D001201BE014F1010FF1D000F086FA42
:100B8000801B844201D3002CEAD10020286320205E
:100B900085F83D00002085F83E00286C50F02000CC
:100BA0002864002085F83C00012000E0002070BD92
:100BB00070B505000C0016002868406940062ED468
:100BC00028684069C00612D57FF010002968486186
:100BD00000202863202085F83D00002085F83E0095
:100BE000286C2864002085F83C00012018E000F003
:100BF0004DFA801B844201D3002CDDD100202863F4
:100C0000202085F83D00002085F83E00286C50F03B
:100C100020002864002085F83C00012000E000202E
:100C200070BD010008684069400514D57FF48060FC
:100C30000A68506100200863202081F83D000020F0
:100C400081F83E00086C50F004000864002081F830
:100C50003C00012000E00020704730B4002513E084
:100C600050F8042BD30744BFA9F101039A18091FB8
:100C7000042942F8045BFAD213468C0744BF15805E
:100C80009B1CC90748BF1D7050F8041B0029E7D101
:100C900030BC704780B5002000906948016851F46D
:100CA00080410160006810F48040009000980020AE
:100CB00000906448016851F080510160006810F0B4
:100CC000805000900098072000F05AFA01BD10B53E
:100CD00086B004001422002101A800F089FA2068DF
:100CE0005949884225D1002000905648016851F0AA
:100CF00000710160006810F0007000900098002002
:100D000000905248016851F008010160006810F03D
:100D1000080000900098032001900220029000201B
:100D20000390032004900920059001A9484800F091
:100D300069FA06B010BD10B586B004001422002177
:100D400001A800F055FA20684249884226D10020C7
:100D500000903E48016851F002010160006810F007
:100D60000200009000984FF4107001901220029041
:100D700001200390002004900420059001A936482A
:100D800000F040FA002000902E48016851F4001154
:100D90000160006810F400100090009806B010BDCB
:100DA0001CB5040020682D49884213D10020009012
:100DB0002448016851F010010160006810F0100033
:100DC0000090009800220021362000F0DFF9362044
:100DD00000F0F1F913BD10B586B004001422002113
:100DE00001A800F005FA20681D49884225D100209D
:100DF00000901448016851F400310160006810F45B
:100E0000003000900098002000901048016851F0D8
:100E100001010160006810F00100009000980C20B2
:100E200001900220029001200390032004900720EB
:100E3000059001A90B4800F0E5F906B010BD0000CF
:100E400044380240403802400064004030380240DC
:100E5000000C02400054004000040240001000401A
:100E600000440040000002402DE9F04104000D0064
:100E7000002C01D1012094E0574F386810F00F008A
:100E8000A84207D23D70386810F00F00A84201D088
:100E9000012086E02078800716D52078400704D509
:100EA0004E48016851F4E05101602078000704D5F4
:100EB0004A48016851F46041016048490A6832F0CB
:100EC000F002A06802430A602078C00738D5606845
:100ED000012805D142480068800313D4012060E056
:100EE0006068022802D06068032805D13C48006889
:100EF000800107D4012054E039480068800701D4FC
:100F000001204EE0DFF8D480D8F80010890889006D
:100F100060680143C8F8001000F0B8F80600D8F87F
:100F2000000010F00C006168B0EB810F08D000F0F9
:100F3000ADF8801B41F289318842F0D3032030E0C4
:100F4000386810F00F00854207D23D70386810F005
:100F50000F00A84201D0012023E02078400706D5E9
:100F60001E490A6832F4E052E06802430A602078C1
:100F7000000707D51948016831F46041226951EA38
:100F8000C201016000F034F81649144A1268C2F335
:100F90000312895CC84014490860002000F064FA1C
:100FA0000020BDE8F08110480068704780B5FFF769
:100FB000FAFF0E49094A1268C2F38222895CC840CE
:100FC00002BD80B5FFF7EFFF0849044A1268C2F37B
:100FD0004232895CC84002BD003C024008380240F1
:100FE00000380240A834000804000020E034000863
:100FF0002DE9F04100240025002600271F48006845
:1010000010F00C00002804D0042804D0082804D0D4
:1010100031E01B4830E01B482EE0DFF86C80D8F848
:10102000000010F03F000400D8F8000040020CD58A
:10103000D8F80000C0F388101249A1FB000122007B
:10104000002300F037FA05000BE0D8F80000C0F3E9
:1010500088100B49A1FB00012200002300F02AFAAE
:101060000500D8F80000C0F30140401C4000060015
:10107000B5FBF6F000E00248BDE8F0810838024018
:101080000024F40000127A0004380240014800688D
:10109000704700BF9402002010B410F00703DFF87F
:1010A000304122684FF6FF010A40DFF8281151EA6B
:1010B00003210A43226010BC7047DFF81401006866
:1010C000C0F302207047010049B2002909D401226F
:1010D00010F01F018A40404903005BB25B0941F8F0
:1010E0002320704710B4020052B2002A05D40A012E
:1010F0003A4B040064B21A5508E00A01384B040068
:1011000064B214F00F04234403F8042C10BC70479D
:1011100070B4030013F00704D4F10700052801D3CD
:10112000042001E0D4F10700251D072D01D2002580
:1011300000E0E51E012616FA00F0401E0140A9401D
:1011400016FA05F56D1E2A401143080070BC704761
:1011500010B50400601EB0F1807F01D301200EE0C5
:10116000601E204908600F215FF0FF30FFF7BAFFD3
:1011700000201D49086007201C490860002010BDA0
:1011800010B504002000FFF787FF10BD2DE9F041E6
:1011900004000D0016000027FFF78FFF8046320085
:1011A00029004046FFF7B4FF0100200040B2FFF7DE
:1011B00099FFBDE8F08110B50400200040B2FFF7B0
:1011C00082FF10BD10B504002000FFF7C1FF10BD65
:1011D0000CED00E00000FA0500E100E000E400E0B2
:1011E00018ED00E014E000E018E000E010E000E09E
:1011F00010B5044610460A460146204600F072FA31
:10120000204610BD2DE9F8410023002400260025CA
:10121000102D80F0FD80012717FA05F213000A68EF
:101220001A4014009C4240F0F1804A68022A02D021
:101230004A68122A1FD12A00D20800EB8202D2F893
:1012400020C05FF00F0E15F00702D2B292001EFA16
:1012500002FE3CEA0E0CD1F810E015F00702D2B203
:1012600092001EFA02FE5EEA0C0C66462A00D208C4
:1012700000EB82021662D0F800C05FF0030E2A0075
:10128000D2B252001EFA02F23CEA020C91F804803B
:1012900018F003082A00D2B2520018FA02F858EAED
:1012A0000C0CC0F800C04A68012A08D04A68022A1B
:1012B00005D04A68112A02D04A68122A1BD18668D2
:1012C0002A00D2B252001EFA02F29643D1F80C80E4
:1012D0002A00D2B2520018FA02F858EA06068660CE
:1012E0004268AF40BA434F68C7F30017AF403A4374
:1012F0009446C0F804C0C6682A00D2B252001EFA52
:1013000002FE36EA0E068F682A00D2B252009740DB
:101310003E43C6604A68D20078D500220092DFF8CA
:101320001021176857F480471760126812F4804242
:101330000092009ADFF8FCC02A0092085CF8227044
:101340005FF00F0E15F00302D2B292001EFA02FEF9
:1013500037EA0E07384A904201D1002623E0374A87
:10136000904201D101261EE0354A904201D1022669
:1013700019E0344A904201D1032614E0324A9042E7
:1013800001D104260FE0314A904201D105260AE03E
:101390002F4A904201D1062605E02E4A904201D103
:1013A000072600E00826F6B215F00302D2B292003A
:1013B000964037432A0092084CF82270264E326835
:1013C000A243D1F804C05FEACC3C00D5224332608E
:1013D000224F3E68A643D1F804C05FEA8C3C00D59A
:1013E00026433E601E4F3A68A243D1F804C05FEA2C
:1013F000CC2C00D522433A601A4F3E68A643D1F860
:1014000004C05FEA8C2C00D526433E606D1CFFE6CD
:10141000BDE8F1811300DBB2002B03D00B009BB2BF
:10142000836103E00B009BB21B04836170470000E3
:1014300044380240083801400000024000040240E5
:1014400000080240000C024000100240001402405C
:1014500000180240001C0240003C0140043C0140D6
:10146000083C01400C3C014010B504004FF47A7078
:101470000D490978B0FBF1F00C490968B1FBF0F0B7
:10148000FFF7A0FE002801D001200CE0102C09D2AB
:10149000002221005FF0FF30FFF778FE044804606F
:1014A000002000E0012010BD080000200400002002
:1014B00000000020BBBBE1B1B2F5803F80F07E8030
:1014C000022A1ED98C46B1FBF2F102FB11C31B04A8
:1014D00043EA1043B3FBF2FC02FB1C3380B240EA48
:1014E0000343B3FBF2F002FB103240EA0C4000234E
:1014F0007047022A05D98446B0FBF2F002FB10C205
:1015000070474AB105D100F0010249085FEA300096
:10151000704700220023704700F02EB90B00020034
:10152000002100207047904271EB030CF6D3B3F515
:10153000803F2FD2F0B5B3FA83F7B1FA81F4A7F167
:101540000F0E3D1B5340CEF1200602FA0EF2F3417E
:101550005340B5F10F0746D80F3C2C444140C4F12D
:101560002006A040F1414140B1FBF3F603FB161108
:10157000A2FB0645001BA94102D2761E80185941E4
:1015800080EA010221FA0EF362FA0EF200215A40BB
:101590003046F0BD30B4B1FBF3FC03FB1C11A2FBE1
:1015A0000C45001BA94103D2ACF1010C8018594134
:1015B00030BC02460B46604600217047B2F1807F86
:1015C00065D3F0B5B2FA82F7B1FA81F4C7F10F062C
:1015D0003D1B22FA06F307F1110EF24120355A4065
:1015E000B5F10F07B8D94140C4F12006A040F14140
:1015F0004140B1FBF3FC03FB1C11A2FB0C45001B9B
:10160000A94103D2BCF1010C801859410F2F12D30C
:101610000F3FC90341EA5041B1FBF3F603FB16113A
:10162000A2FB0645D4EBC030A94102D2761E801839
:10163000594146EACC3C07B34140C7F12006B840C7
:10164000F1414140B1FBF3F603FB1611A2FB064545
:10165000001BA94102D2761E8018594180EA01027E
:1016600021FA0EF3C7F1200462FA0EF20CFA07F029
:101670005A402CFA04F13043F0BD80EA010221FA0D
:101680000EF3002162FA0EF260465A40F0BD8C461D
:10169000B1FBF2F102FB11C31B0243EA1063B3FB7F
:1016A000F2FC02FB1C331B024CEA002043EA1063ED
:1016B000B3FBF2FC02FB1C331B024CEA002043EAA2
:1016C0001063B3FBF2FC02FB1C331B024CEA00204C
:1016D00043EA1063B3FBF2FC02FB1C324CEA00202D
:1016E0000023704762F30F2262F31F42401810F08C
:1016F000030308D0C91A1FD3DB0748BF00F8012D28
:1017000028BF20F8022D130030B4144615461039B6
:1017100028BF20E93C00FAD8490728BF20E90C007F
:1017200048BF40F8042D890028BF20F8022D48BF8B
:1017300000F8012D30BC7047C91818BF00F8012D02
:10174000CB0728BF00F8012D704730B40EE00268C7
:10175000436802440830DC0744BFA9F10104E318E0
:1017600052F8045B43F8045B091FF9D150F8041BDD
:101770000029ECD130BC70477047000080B500F004
:1017800051FA00F059FA00F063FA00F075FA00F02F
:1017900087FA00F099FA00F0B0FA00F0C7FA00F00A
:1017A000CAFA00F0D2FA00F0DFFA00F0AEFC00F066
:1017B0001EFE01BD80B500F0E7FE00F02EFA01BD6F
:1017C000704780B5FFF7DAFF00F014FF00F00DF866
:1017D00000F0DEF800F0C2F800F09AF800F059F8D6
:1017E00000F07AF8FFF7E6FFFEE780B592B030220E
:1017F000002106A8FFF7FCFC1422002101A8FFF736
:10180000F7FC00200090DFF8B003016851F0805130
:101810000160006810F08050009000980020009057
:10182000E648016851F480410160006810F480408E
:1018300000900098012006905FF48030079002200D
:101840000C905FF480000D9004200E90A8200F9063
:10185000022010900720119006A800F0E5FE002855
:1018600001D000F0CFF90F2001900220029000205B
:1018700003904FF4A05004904FF480500590052140
:1018800001A8FFF7F1FA002801D000F0BBF913B06E
:1018900000BD80B5CA48CB490160A82141605FF016
:1018A000804181600021C1605FF40031016100214D
:1018B00041610021017600214176002181760021DD
:1018C000C176002101770021417701F06DF80028F1
:1018D00001D000F097F901BD80B5BB48BB4901605C
:1018E000BB494160002181600021C1604FF480410B
:1018F000016100214161002181610021C16100215C
:101900000162FEF741FC002801D000F07BF901BD27
:101910001CB5082200216846FFF76AFCAD4CAE48B2
:101920002060002060600020A0604AF20F40E0606C
:101930000020A061200001F0B1F9002801D000F0E2
:1019400061F910200090002001906946200001F00C
:1019500007FB002801D000F055F913BD80B59F4862
:101960009F4901604FF49641416000218160002150
:10197000C160002101610C214161002181610021D0
:10198000C16101F015FB002801D000F03BF901BD59
:101990002DE9F84386B0142200216846FFF728FCA1
:1019A000002005908F48016851F010010160016826
:1019B00011F010010591059900210591016851F080
:1019C00004010160016811F00401059105990021ED
:1019D0000591016851F080010160016811F08001FA
:1019E0000591059900210591016851F001010160FF
:1019F000016811F001010591059900210591016827
:101A000051F002010160016811F002010591059990
:101A100000210591016851F008010160006810F093
:101A2000080005900598704C002208212000FFF75F
:101A3000F1FC6E4D012201212800FFF7EBFC4FF273
:101A400010066B4F002231003800FFF7E3FC08203E
:101A50000090012001900020029000200390694630
:101A60002000FFF7CFFB0120009001200190002013
:101A700002900020039069462800FFF7C3FB08206E
:101A80000090022001900020029000200390052089
:101A9000049069462800FFF7B5FB012000905548E7
:101AA000019000200290DFF8508169464046FFF720
:101AB000A9FB10200090022001900020029000203D
:101AC00003900620049069464046FFF79BFBE02008
:101AD0000090022001900020029000200390052039
:101AE000049069464046FFF78DFB042000900020DB
:101AF000019000200290DFF8049169464846FFF704
:101B000081FB4FF480600090022001900020029041
:101B1000002003900520049069464846FFF772FBB9
:101B20000096012001900020029000200390694659
:101B30003800FFF767FB4FF4A4500090022001909B
:101B4000002002900020039006200490694628009F
:101B5000FFF758FB4FF40070009000200190002028
:101B6000029069464046FFF74DFB4FF4E05000906D
:101B70000220019000200290002003900A2004908F
:101B800069464046FFF73EFB202000900020019070
:101B90000020029069463800FFF734FB02200090D5
:101BA000174801900020029069462000FFF72AFBA9
:101BB00007B0BDE8F08300004038024000700040EC
:101BC000F0010020006400401C010020005400408F
:101BD000A08601007001002000100040B00100202C
:101BE000004400403038024000100240000802402B
:101BF000000C0240000011100000024000040240EE
:101C000000001210FEE7000010B5040007488442EF
:101C100002D107480068804710BD80B5034801F035
:101C200059F801BD0348024908607047700100205F
:101C300070020020C11700087047000010B50400B2
:101C40002200D2B24FF400410548FFF7E3FB10BD7C
:101C500080B500224FF400410148FFF7DBFB01BDD6
:101C6000000C024010B504002200D2B24FF4005123
:101C70000548FFF7CFFB10BD80B500224FF400519F
:101C80000148FFF7C7FB01BD000C024010B504007E
:101C90002200D2B24FF480510548FFF7BBFB10BDC4
:101CA00080B500224FF480510148FFF7B3FB01BD1E
:101CB000000C024010B504002200D2B24FF4804163
:101CC0000548FFF7A7FB10BD80B500224FF4804107
:101CD0000148FFF79FFB01BD000C024010B5002436
:101CE0002000C0B2022807DA0C482100C9B250F81F
:101CF00021008047641CF3E710BD00200100C9B239
:101D0000022907DA0649054A0300DBB242F823102C
:101D1000401CF3E70349044A116070476002002049
:101D2000C1170008DD1C00087002002080B50020EB
:101D3000FFF784FF01BD80B50020FFF793FF01BDD1
:101D400080B50120FFF7A2FF01BD80B50020FFF79D
:101D50009DFF01BD80B50120FFF7ACFF01BD80B53F
:101D60000020FFF7A7FF01BD80B50020FFF7A2FF0D
:101D700001BD000080B51B2000F0EBFA012804D162
:101D80000FF20900DFF8C413086001BD80B5DFF869
:101D9000C0030068804701BD80B50020DFF8B413A0
:101DA00008700121002000F0EAFA0121062000F06D
:101DB000E6FA0021072000F0E2FA0121022000F0FB
:101DC000DEFA0021012000F0DAFA0121092000F0FA
:101DD000D6FA0121082000F0D2FA0FF20D00DFF848
:101DE0007013086001BD000080B5DFF86C03016866
:101DF000491C0160006841F28831884204D30FF227
:101E00001930DFF848130860182000F0A2FA002803
:101E10003CD1172000F09DFA012837D10021052080
:101E200000F0ADFA0121042000F0A9FA152000F01D
:101E300090FA01282AD1132000F08BFA012825D12D
:101E40001A2000F086FA002820D1122000F081FA32
:101E500000281BD1112000F07CFA002816D119208F
:101E600000F077FA002811D10F2000F072FA012853
:101E70000CD1102000F06DFA002807D100210020BD
:101E800000F07DFA0FF20900B149086001BD0000C1
:101E900080B5B2480168491C01600068B0F57A7FDE
:101EA00003D30FF27520A9490860082000F051FA09
:101EB000012803D10021082000F061FA182000F069
:101EC00048FA012807D10121082000F058FA0FF242
:101ED00009009F49086001BD80B5A1480168491CFF
:101EE0000160016840F24C42914203D30FF2292174
:101EF000964A11600068642857D3122000F029FA2E
:101F0000012810D1112000F024FA00280BD119204B
:101F100000F01FFA012806D101208E4908700FF247
:101F20008D008B490860122000F013FA012810D1AF
:101F3000112000F00EFA00280BD1192000F009FA48
:101F4000002806D10220834908700FF26100804901
:101F50000860122000F0FDF9012810D1112000F0D6
:101F6000F8F901280BD1192000F0F3F9012806D166
:101F70000320784908700FF2350075490860122077
:101F800000F0E7F9002810D1112000F0E2F9002854
:101F90000BD1192000F0DDF9002806D100206D4991
:101FA00008700FF275106949086001BD80B51520F1
:101FB00000F0CFF901280CD10121052000F0DFF954
:101FC0000021042000F0DBF90FF2110060490860E5
:101FD00003E00FF245105D49086001BD80B561481E
:101FE0000168491C0160006842F21071884203D305
:101FF0000FF2251055490860162000F0AAF90128B3
:1020000007D10021092000F0BAF90FF20900504968
:10201000086001BD80B5062000F09BF9012811D1B0
:10202000132000F096F901280CD1142000F091F94A
:10203000002807D10121072000F0A1F90021062086
:1020400000F09DF9062000F084F9002815D1132036
:1020500000F07FF9002810D1142000F07AF901284F
:102060000BD10021072000F08AF90121062000F0A1
:1020700086F90FF209003649086001BD80B53A487B
:102080000168491C0160006842F21071884207D360
:102090000121092000F073F90FF27D002B4908603F
:1020A0001A2000F056F901281BD130480168491C5C
:1020B00001600068B0F57A7F13D30121092000F098
:1020C0005EF90021022000F05AF90121012000F000
:1020D00056F90021032000F052F90FF209001C49C3
:1020E000086001BD80B50121002000F048F91D20E5
:1020F00000F02FF9002807D10121022000F03FF95C
:102100000021012000F03BF901BD19481049086089
:1021100018480E490860704710B5174C2068B0F594
:102120007A7F01DAFFF71BFE206840F2E93188422E
:1021300001DBFFF70FFE206840F2D171884201DB1E
:10214000002020602068401C206010BD600200203C
:10215000740200209C020020780200207C020020F3
:102160008002002084020020880200208C020020CF
:10217000991D0008751D00089002002070B5DFF859
:10218000E043206814281AD300202060DFF8D453DD
:102190002978722001F0C0F86978782001F0BCF845
:1021A000A91C772001F0C5F8E91C7A2001F0C1F8DC
:1021B000291D712001F0BDF8A878C043A8702068DF
:1021C000401C2060DFF8A0432078012807D0C0F031
:1021D000A880032856D02DD304287BD0A1E0DFF8B7
:1021E0008C630120307000210A2000F0C8F8002123
:1021F0000E2000F0C4F8202000F0ABF8002800F01A
:102200009080DFF86C530120287001210A2000F033
:10221000B6F801210E2000F0B2F800202070002056
:1022200030700220D34908700020D3490860002094
:10223000287076E0CD4E0120307000210A2000F099
:102240009EF800210E2000F09AF8202000F081F87E
:10225000002866D0C64D0120287001210A2000F018
:102260008EF801210E2000F08AF800202070002056
:1022700030700220BF4908700020BF49086000206C
:1022800028704EE0B94E0120307000210B2000F084
:1022900076F800210E2000F072F8202000F059F8A6
:1022A00000283ED0B24D0120287001210B2000F003
:1022B00066F801210E2000F062F800202070002056
:1022C00030700320AB4908700020AB490860002043
:1022D000287026E0A54E0120307000210C2000F06F
:1022E0004EF800210E2000F04AF8202000F031F8CE
:1022F000002816D09E4D0120287001210C2000F0EE
:102300003EF801210E2000F03AF800202070002055
:102310003070042097490870002097490860002019
:10232000287095490868C92812D391480078002878
:102330000ED0086849F64142904209D38B48007894
:10234000002803D00868401C086001E000200860F5
:1023500070BD8A49834A0300DBB251F833301A4416
:1023600012F8012C0123C0B201EBC0004068834089
:102370001A4201D0012000E00020C0B2704770B4C2
:102380000A00D2B2002A18D07C4A764B0400E4B28C
:1023900052F834401C440500EDB252F835502B443D
:1023A00013F8013C01250600F6B202EBC6025268A2
:1023B00095402B4304F8013C17E0704A694B040038
:1023C000E4B252F834401C440500EDB252F83550E6
:1023D0002B4413F8013C01250600F6B202EBC602BD
:1023E00052689540AB4304F8013C70BC704780B51F
:1023F000FFF7A6FC61480121016000214160012135
:10240000016102214161012181600121C16001213D
:1024100081610321C161012181620521C162012124
:10242000016204214162012181630721C16301210D
:1024300001630621416302210164002141640221FC
:1024400081640121C16402210165022141650221EB
:1024500081650321C16502210166042141660221D3
:1024600081660521C16602210167062141670321BA
:1024700081670021C1670321C0F880100121C0F8E5
:1024800084100321C0F888100221C0F88C100321A9
:10249000C0F890100321C0F894100321C0F89810E0
:1024A0000421C0F89C100321C0F8A0100521C0F839
:1024B000A4100321C0F8A8100621C0F8AC10032115
:1024C000C0F8B0100721C0F8B4100421C0F8B8104B
:1024D0000021C0F8BC100421C0F8C0100121C0F8D0
:1024E000C4100421C0F8C8100221C0F8CC10042187
:1024F000C0F8D0100321C0F8D4100421C0F8D810BF
:102500000421C0F8DC100421C0F8E0100521C0F857
:10251000E4100421C0F8E8100621C0F8EC100521F1
:10252000C0F8F0100021C0F8F4100521C0F8F81030
:102530000121C0F8FC100521C0F800110221C0F8EB
:1025400004110521C0F808110321C0F80C11054839
:10255000FF21017041700A480A49486001BD00002E
:102560006802002058020020990200209A020020F0
:102570009B020020980200206C0200200C0000202A
:102580007D2100086002002010B51848002141603C
:10259000002181600021C16000210175144942F2CF
:1025A0006040086000204860002088600020C8600B
:1025B000002008610D204861002088610120C86169
:1025C00001200862084C200000F0A4FA002801D085
:1025D000012007E0200000F031FB002801D001209D
:1025E00000E0002010BD0000F001002040020020AB
:1025F0001802002080B50B48016851F40071016099
:10260000016851F480610160016851F480710160DA
:102610000320FEF7B5FD0020FEF726FFFEF73AFB8C
:10262000002002BD003C02402DE9FC410400002CCA
:1026300001D10120A2E12078C0075CD5DFF840037A
:10264000016811F00C01042909D0006810F00C0099
:1026500008280ED1DFF82C030068400209D5DFF806
:1026600028030068800346D56068002843D1012014
:1026700084E16068B0F5803F06D1DFF80C030168A3
:1026800051F48031016017E06068B0F5A02F0AD1E5
:10269000DFF8F402016851F480210160016851F40F
:1026A0008031016008E0B848016831F48031016090
:1026B000016831F480210160606800280DD0FEF7C8
:1026C000E5FC0500B0480068800314D4FEF7DEFC8A
:1026D000401B6528F6D3032050E1FEF7D7FC050028
:1026E000A9480068800306D5FEF7D0FC401B65288A
:1026F000F6D3032042E1207880074BD5A04801683B
:1027000011F00C0F08D0006810F00C00082814D14C
:102710009C480068400210D49B480168890704D592
:10272000E168012901D0012028E1016831F0F801B8
:10273000226951EAC20101602CE0E068002818D04B
:10274000012092490860FEF7A1FC05008E4801684F
:10275000890706D4FEF79AFC401B0328F6D3032012
:102760000CE1016831F0F801226951EAC20101600F
:1027700010E0002085490860FEF788FC05008248CB
:102780000068800706D5FEF781FC401B0328F6D3BE
:102790000320F3E02078000724D56069002810D0DA
:1027A00001207B490860FEF771FC0500794800684C
:1027B000800717D4FEF76AFC401B0328F6D30320DA
:1027C000DCE0002072490860FEF760FC05007148FB
:1027D0000068800706D5FEF759FC401B0328F6D396
:1027E0000320CBE02078400775D500266A4F386873
:1027F000C0000CD400200090386850F08050386041
:10280000386810F080500090009801200600DFF832
:102810008C81D8F80000C00513D4D8F8000050F41B
:102820008070C8F80000FEF731FC0500D8F8000001
:10283000C00506D4FEF72AFC401B0328F6D303206C
:102840009CE0A068012805D15548016851F00101BC
:10285000016015E0A068052809D15148016851F0D0
:1028600004010160016851F00101016008E04C4879
:102870000168490849000160016831F00401016004
:10288000A06800280FD0FEF701FC0500444800684E
:10289000800718D4FEF7FAFB401B41F289318842C9
:1028A000F4D303206AE0FEF7F1FB05003C48006822
:1028B000800708D5FEF7EAFB401B41F289318842C8
:1028C000F4D303205AE03000C0B2012803D13868A5
:1028D00030F080503860A06900284ED02848006849
:1028E00010F00C00082846D0A069022832D12D4EE5
:1028F00000203060FEF7CAFB0700DFF88C80D8F8B4
:102900000000800106D5FEF7C1FBC01B0328F4D3ED
:10291000032033E0E169206A0143606A51EA8011D3
:10292000A06A4008401E51EA0041E06A51EA006195
:102930001448016001203060FEF7A8FB0500D8F8BC
:102940000000800119D4FEF7A1FB401B0328F6D339
:10295000032013E0002013490860FEF797FB0500F1
:1029600009480068800108D5FEF790FB401B03284A
:10297000F6D3032002E0012000E00020BDE8F6814C
:102980000838024004380240003802400000474244
:10299000800E4742743802404038024000700040C8
:1029A000703802406000474270B50400002C01D12D
:1029B0000120AEE094F82000002802D12000FEF7AC
:1029C00086F92068006830F0020021680860FEF790
:1029D0005DFB05002068406880070DD5FEF756FBBB
:1029E000401B0B28F6D3606A50F40030606205206B
:1029F00084F8200001208CE02068006850F001007D
:102A000021680860FEF742FB060020684068C007A6
:102A10000DD4FEF73BFB801B0B28F6D3606A50F405
:102A200000306062052084F82000012071E0207EE3
:102A3000012806D12068006850F0800021680860F5
:102A400005E02068006830F0800021680860607E42
:102A5000012806D12068006850F040002168086015
:102A600005E02068006830F0400021680860A07E22
:102A7000012806D12068006850F020002168086015
:102A800005E02068006830F0200021680860E07EE2
:102A9000012806D12068006830F010002168086025
:102AA00005E02068006850F0100021680860207F71
:102AB000012806D12068006850F0080021680860ED
:102AC00005E02068006830F0080021680860607F39
:102AD000012806D12068006850F0040021680860D1
:102AE00005E02068006830F0040021680860A168F3
:102AF000E068014320690143606901436068401E4A
:102B000001432068C16100206062012084F8200038
:102B1000002070BDF0B40200146892F82030180054
:102B2000C0B2012804D01800C0B2022840F07F8053
:102B3000594DD5F8000250F00100C5F80002D5F853
:102B4000000230F47C50C5F80002D5F800024E6A4D
:102B500050EA0620C5F8000201200E7D16F01F067F
:102B600010FA06F6D5F81C02B043C5F81C02C86975
:102B7000002816D1D5F80C02B043C5F80C024869FC
:102B800005EBC000CC684F68C7EA0444C0F8404277
:102B9000486905EBC0008C680F68C7EA0444C0F8B8
:102BA0004442C869012816D1D5F80C023043C5F853
:102BB0000C02486905EBC0000C684F68C7EA044482
:102BC000C0F84042486905EBC0008C68CF68C7EA8E
:102BD0000444C0F844428869002805D1D5F80402AD
:102BE000B043C5F8040204E0D5F804023043C5F848
:102BF00004020869002805D1D5F81402B043C5F8CD
:102C0000140204E0D5F814023043C5F81402086A2F
:102C1000012804D1D5F81C023043C5F81C02D5F8B0
:102C2000000240084000C5F80002002004E0506A9D
:102C300050F4802050620120F0BC704738B5040089
:102C400094F82000012821D1022084F82000206877
:102C500000684008400021680860FEF717FA050088
:102C600020684068C0070DD5FEF710FA401B0B28FE
:102C7000F6D3606A50F400306062052084F82000CA
:102C8000012008E000206062002004E0606A50F447
:102C900000206062012032BD0064004010B50400D5
:102CA000002C01D1012014E094F83D00002805D14A
:102CB000002084F83C002000FEF772F8022084F81F
:102CC0003D00211D206800F0D5F8012084F83D006A
:102CD000002010BD01000868C06850F001000A68BB
:102CE000D0600868826812F00702062A05D00868DA
:102CF000006850F001000B6818600020704710B5A4
:102D000004002068006980071AD52068C068800721
:102D100016D57FF002002168086101202077206825
:102D2000806910F0030F03D0200000F013FB05E0D2
:102D3000200000F010FB200000F00EFB00202077A8
:102D40002068006940071AD52068C068400716D57A
:102D50007FF00400216808610220207720688069E4
:102D600010F4407F03D0200000F0F4FA05E02000CA
:102D700000F0F1FA200000F0EFFA00202077206840
:102D8000006900071AD52068C068000716D57FF0D3
:102D9000080021680861042020772068C06910F0CD
:102DA000030F03D0200000F0D5FA05E0200000F06A
:102DB000D2FA200000F0D0FA0020207720680069C5
:102DC000C0061AD52068C068C00616D57FF010006E
:102DD00021680861082020772068C06910F4407FCE
:102DE00003D0200000F0B6FA05E0200000F0B3FAAE
:102DF000200000F0B1FA0020207720680069C007A9
:102E00000AD52068C068C00706D57FF00100216898
:102E100008612000FEF7F8FE2068006900060AD568
:102E20002068C068000606D57FF080002168086130
:102E3000200000F092FA2068006940060AD5206858
:102E4000C068400606D57FF0400021680861200078
:102E500000F084FA2068006980060AD52068C068FE
:102E6000800606D57FF0200021680861200000F070
:102E700076FA10BD10B40468DFF8B830984212D06A
:102E8000B0F1804F0FD0DFF8B02090420BD0DFF8C8
:102E9000AC20904207D0DFF8A820904203D0DFF8A2
:102EA000A420904203D134F070044A68144398423D
:102EB00028D0B0F1804F25D0DFF87C20904221D07F
:102EC000DFF8782090421DD0DFF87420904219D0AE
:102ED000DFF87020904215D0DFF86C20904211D0BE
:102EE000DFF8682090420DD0DFF86420904209D0CE
:102EF000DFF86020904205D0174A904202D0174A6E
:102F0000904203D134F44074CA68144334F080040E
:102F10004A69144304608A68C2620A6882629842FD
:102F200002D0084A904201D10A690263012242613B
:102F300010BC704700000140000400400008004041
:102F4000000C0040000401400040014000440140EA
:102F50000048014000180040001C004000200040D4
:102F600010B4020092F83C00012801D102201CE0BC
:102F7000012082F83C00022082F83D00106843687E
:102F80001068846833F070030868034334F08004E9
:102F9000486804431068436010688460012082F828
:102FA0003D00002082F83C00002010BC704700006B
:102FB00010B50400002C01D1012033E0A0690028E5
:102FC000FFD194F83900002805D1002084F838009A
:102FD0002000FDF700FF242084F839002068C06835
:102FE00030F400502168C860200000F01CF8206810
:102FF000006930F49040216808612068406930F031
:103000002A00216848612068C06850F40050216897
:10301000C8600020E063202084F83900202084F874
:103020003A00002010BD2DE9F84304002068016932
:1030300031F44051E068014320680161A5682069CE
:10304000054360690543E06905432068C168AF48EE
:10305000014029432068C1602068416931F4407112
:10306000A069014320684161E069B0F5004F40F07C
:10307000A6802068A649884203D02068A5498842D6
:103080004ED1FDF79EFF0600FDF79BFF0700FDF701
:1030900098FF8046FDF795FF8146FDF792FF64217A
:1030A0001922564363685B00B6FBF3F36426B3FB57
:1030B000F6F3574366687600B7FBF6F602FB08F8AE
:1030C00067687F00B8FBF7F75FF0640CB7FBFCF7AD
:1030D00001FB1766F60032366427B6FBF7F676007A
:1030E00016F4F87616EB031602FB09F963685B0029
:1030F000B9FBF3F302FB00F260684000B2FBF0F0B2
:103100006422B0FBF2F001FB1031C80032306421C0
:10311000B0FBF1F010F00700861920688660F1E03E
:10312000FDF744FF0600FDF741FF0700FDF73EFFF6
:103130008046FDF73BFF8146FDF738FF64211922E9
:10314000564363685B00B6FBF3F36426B3FBF6F308
:10315000574366687600B7FBF6F602FB08F8676827
:103160007F00B8FBF7F75FF0640CB7FBFCF701FBDF
:103170001766F60032366427B6FBF7F6760016F4CB
:10318000F87616EB031602FB09F963685B00B9FBDE
:10319000F3F302FB00F260684000B2FBF0F064223F
:1031A000B0FBF2F001FB1031C80032306421B0FBFB
:1031B000F1F010F00700861920688660A2E0206810
:1031C0005349884203D02068524988424DD1FDF7C7
:1031D000F8FE0600FDF7F5FE0700FDF7F2FE80465B
:1031E000FDF7EFFE8146FDF7ECFE64211922564300
:1031F00063689B00B6FBF3F36426B3FBF6F3574317
:103200006668B600B7FBF6F602FB08F86768BF0011
:10321000B8FBF7F75FF0640CB7FBFCF701FB176630
:10322000360132366427B6FBF7F616F0F00616EBD9
:10323000031602FB09F963689B00B9FBF3F302FB79
:1032400000F260688000B2FBF0F06422B0FBF2F0A4
:1032500001FB1031080132306421B0FBF1F010F0B5
:103260000F008619206886604CE0FDF79FFE06007F
:10327000FDF79CFE0700FDF799FE8046FDF796FEE0
:103280008146FDF793FE64211922564363689B0033
:10329000B6FBF3F36426B3FBF6F357436668B60058
:1032A000B7FBF6F602FB08F86768BF00B8FBF7F754
:1032B0005FF0640CB7FBFCF701FB17663601323692
:1032C0006427B6FBF7F616F0F00616EB031602FBC2
:1032D00009F963689B00B9FBF3F302FB00F2606835
:1032E0008000B2FBF0F06422B0FBF2F001FB103181
:1032F000080132306421B0FBF1F010F00F008619A4
:1033000020688660BDE8F18300000000F369FFFFDC
:10331000001001400014014013B50400C8200090C3
:10332000012301AA2100C9B289B20948FDF709F8B1
:1033300013BD38B504000D00C820009001232A00F9
:103340002100C9B289B20248FDF7B0F831BD0000D2
:103350001C010020704770477047704770477047E6
:103360000F48016851F4700101600E49086850F07F
:103370000100086000200C4A10600A680B480240F7
:103380000A600B480B4A1060086830F4802008601F
:103390000020094908605FF0006008490860704734
:1033A00088ED00E00038024008380240FFFFF6FEDA
:1033B00010300024043802400C38024008ED00E0D0
:1033C00010B5074979441831064C7C44163404E0A2
:1033D0000A68081D114488470146A142F8D110BD72
:1033E0002C0000004C0000004EF68851CEF2000187
:1033F000086840F470000860BFF34F8FBFF36F8F11
:103400004FF00070E1EE100A704700004FD8FFFF48
:10341000940200000C000020000000002FE3FFFFDA
:103420000C000000B00000000000002000000000C0
:1034300000F00DF8002801D0FFF7C2FFAFF30080C5
:103440000020AFF30080FEF7BCF900F002F8012085
:10345000704700F001B800000746384600F002F857
:10346000FBE7000080B5AFF30080024A110018208E
:10347000ABBEFBE72600020003480168034A12784E
:1034800089180160704700BF9402002008000020E6
:1034900080B5FFF7F1FF01BD80B50248FFF72FFCB3
:1034A00001BD0000700100200000000000000000CD
:1034B0000102030406070809014880470148004744
:1034C00061330008C9340008AFF30080FFF78CFFB8
:1034D000FFF7AEFF100000000024F4000100000020
:1034E0000000000001020304FFF7FEBFFFF7FEBF6C
:1034F000FFF7FEBFFFF7FEBFFFF7FEBFFFF7FEBF00
:10350000FFF7FEBFFFF7FEBFFFF7FEBFFFF7FEBFEF
:10351000FFF7FEBFFFF7FEBFFFF7FEBFFFF7FEBFDF
:10352000FFF7FEBFFFF7FEBFFFF7FEBFFFF7FEBFCF
:10353000FFF7FEBFFFF7FEBFFFF7FEBFFFF7FEBFBF
:10354000FFF7FEBFFFF7FEBFFFF7FEBFFFF7FEBFAF
:10355000FFF7FEBFFFF7FEBFFFF7FEBFFFF7FEBF9F
:10356000FFF7FEBFFFF7FEBFFFF7FEBFFFF7FEBF8F
:10357000FFF7FEBFFFF7FEBFFFF7FEBFFFF7FEBF7F
:10358000FFF7FEBFFFF7FEBFFFF7FEBFFFF7FEBF6F
:10359000FFF7FEBFFFF7FEBFFFF7FEBFFFF7FEBF5F
:1035A000FFF7FEBFFFF7FEBFFFF7FEBFFFF7FEBF4F
:1035B000FFF7FEBFFFF7FEBFFFF7FEBFFFF7FEBF3F
:1035C000FFF7FEBFFFF7FEBFFFF7FEBFFFF7FEBF2F
:1035D000FFF7FEBFFFF7FEBFFFF7FEBFFFF7FEBF1F
:1035E000FFF7FEBFFFF7FEBFFFF7FEBFFFF7FEBF0F
:1035F000FFF7FEBFFFF7FEBFFFF7FEBFFFF7FEBFFF
:10360000FFF7FEBFFFF7FEBFFFF7FEBFFFF7FEBFEE
:10361000FFF7FEBFFFF7FEBFFFF7FEBFFFF7FEBFDE
:10362000FFF7FEBFFFF7FEBFFFF7FEBFFFF7FEBFCE
:10363000FFF7FEBFFFF7FEBFFFF7FEBFFFF7FEBFBE
:08364000FFF7FEBFFFF7FEBF1C
:04000005080034C9F2
:00000001FF
