:020000040800F2
:10000000001E0020CD790008117A0008157A00083A
:10001000197A00081D7A0008217A00080000000003
:10002000000000000000000000000000257A000829
:10003000297A0008000000002D7A0008ED790008F8
:10004000317A0008357A0008397A00083D7A0008CC
:10005000417A0008457A0008497A00084D7A00087C
:10006000517A0008557A0008597A00085D7A00082C
:10007000617A0008657A0008697A00086D7A0008DC
:10008000717A0008757A0008797A00087D7A00088C
:10009000817A0008857A0008897A00088D7A00083C
:1000A000917A0008957A0008997A00089D7A0008EC
:1000B000A17A0008A57A0008A97A0008AD7A00089C
:1000C000B17A0008B57A0008B97A0008BD7A00084C
:1000D000C17A0008C57A0008C97A0008CD7A0008FC
:1000E000D17A0008D57A0008D97A0008DD7A0008AC
:1000F000E17A0008E57A0008E97A0008ED7A00085C
:10010000F17A0008F57A0008F97A0008FD7A00080B
:10011000017B0008057B0008F1790008097B0008D5
:100120000D7B0008117B0008157B0008197B000877
:100130001D7B0008217B0008257B0008297B000827
:100140002D7B0008317B0008357B0008397B0008D7
:100150003D7B0008417B0008457B0008497B000887
:100160004D7B0008517B0008557B0008597B000837
:100170005D7B0008617B0008657B000800000000D3
:10018000697B00086D7B000810B50FF2F40001F0E8
:10019000EAFEDFF8640A01F0C9FE032001F0AAFFBD
:1001A000012001F0A7FF022001F0BDFFDFF84C4A5B
:1001B000DFF84C0A0178012905D06178DFF8442A7C
:1001C0009278914222D1002101704078012805D017
:1001D0006078DFF8301A8978884217D1022001F060
:1001E00089FF0FF20140DFF88C1A486000210846B1
:1001F00002F0FAF80FF29100DFF87C1AC8601FA035
:1002000001F094FEDFF8340B80792070DFF86C0A7F
:100210000178012910D100210170407801280BD10B
:10022000022001F067FFDFF8580ADFF84C1AC860B7
:10023000DFF8080B80792070DFF8480A417801293F
:100240001BD1002141708078012816D1DFF8380ACF
:10025000DFF8201A88600021084602F0C5F8DFF8B0
:100260002C0ADFF8141AC860DFF8D00A80782070F2
:100270000220BDE8104001F03DBF10BD00000000AD
:10028000417474656E7465002DE9F843DFF8006A07
:10029000304601F068FEDFF8FC0900F14904217ADC
:1002A00000F12908DFF8945ADFF8C879DFF854998B
:1002B00099F80400814207D098F81200BB2828D191
:1002C00099F80200814224D1DFF8740A01F02EFE71
:1002D000304601F03AFE2078BB2808D098F812008A
:1002E000BB2807D1207A99F80210884202D1786899
:1002F00080470EE0DFF89C0A01F018FE0FF2E520BF
:100300007860287BE071CC2002F04AFFCC2002F01C
:1003100078FF207A99F8001088420BD1DFF8780A2C
:1003200001F013FEDFF8740A01F000FE02F077F826
:100330002878E071207A99F80110884208D1DFF816
:10034000600A01F002FEBFA001F0F0FD6878E071E4
:10035000207A99F8061088420BD1DFF8940A01F050
:10036000F4FDDFF8900A01F0E1FD02F058F8E878BA
:10037000E071207A99F80210884240F0E580DFF8B9
:10038000780A01F0E2FD01F053F998F80000BB286B
:1003900009D1CC2088F80000042001F0F9FF0021E9
:1003A000082002F021F898F80100BB2809D1CC20E0
:1003B00088F80100022001F0EBFF0121082002F083
:1003C00013F898F80400BB2812D1CC2088F8040058
:1003D0000021042002F008F80121052002F004F8B1
:1003E0000021012002F000F80121022001F0FCFFB1
:1003F00098F80500BB2812D1CC2088F8050001210F
:10040000042001F0F1FF0021052001F0EDFF0121A2
:10041000084601F0E9FF0021022001F0E5FF98F80D
:100420000200BB280ED1CC2088F802000121072051
:1004300001F0DAFF0021062001F0D6FF002109209B
:1004400001F0D2FF98F80300BB280ED1CC2088F829
:1004500003000121062001F0C7FF0021072001F061
:10046000C3FF0121092001F0BFFF98F80800BB2855
:1004700005D1CC2088F80800022001F022FE98F86F
:100480000900BB2805D1CC2088F80900022001F022
:1004900031FE98F80A00BB2805D1CC2088F80A0064
:1004A000032001F00EFE98F80B00BB2805D1CC20EC
:1004B00088F80B00032001F01DFE98F80C00BB2803
:1004C00005D1CC2088F80C00012001F0FAFD98F845
:1004D0000D00BB2805D1CC2088F80D00012001F0CB
:1004E00009FE98F80E00BB2808D1CC2088F80E0031
:1004F00001224021DFF8500A03F09EF898F80F001F
:10050000BB2808D1CC2088F80F0000224021DFF85A
:10051000380A03F091F898F80600BB2806D1CC20E1
:1005200088F806000021032001F05EFF98F807001C
:10053000BB2806D1CC2088F807000121032001F058
:1005400053FFA879E07102E0CC2088F81200207AED
:1005500099F8031088420BD1DFF82C0A01F0F5FC62
:10056000DFF8280A01F0E2FC01F059FFE879E071B8
:100570003878002804D1DFF85C0AC07802F00DFC5E
:100580003878022804D1DFF84C0A807802F005FCA4
:100590003878012804D1DFF83C0A007802F0FDFB2E
:1005A0003878032804D1DFF82C0A407802F0F5FBF4
:1005B000DFF8C8060178012912D1002101704078C6
:1005C00001280DD1022001F095FD0121002001F04C
:1005D0000BFF0FF2D170DFF8A016C860A879E071A8
:1005E000BDE8F18310B5DFF8600A01F0AEFCDFF87A
:1005F000844600202070012001F0CAFE00210D2059
:1006000001F0F2FE0121062001F0EEFE002107209C
:1006100001F0EAFE022003F0ADF80121022001F012
:10062000E3FE0021012001F0DFFE0121092001F09D
:10063000DBFE0121082001F0D7FE0FF20D00606003
:1006400010BD00002000000010B5DFF8000A01F026
:100650007CFCDFF82046E068401CE0604CF2503142
:10066000884208D3DFF84C0A01F060FCDFF8480A42
:10067000DFF80416C860182001F0A0FE002845D15C
:10068000172001F09BFE012840D10021052001F038
:10069000ABFE0121042001F0A7FE152001F08EFE23
:1006A000012833D1132001F089FE01282ED11A2010
:1006B00001F084FE002829D1122001F07FFE0028DD
:1006C00024D1112001F07AFE00281FD1192001F059
:1006D00075FE00281AD10F2001F070FE012815D1F7
:1006E000102001F06BFE002810D101F064FE0228FA
:1006F0000CD101F05DFE012808D1DFF8900C01F06B
:1007000024FC0020E0600FF20900606010BD0000D2
:1007100010B5DFF82806C078DFF8781581F85000AA
:10072000DFF850452069401C2061B0F57A7F0AD37C
:10073000DFF8340A01F0FAFB00202061DFF87809C5
:10074000DFF83415C860082001F038FE012803D115
:100750000021082001F048FE182001F02FFE01289A
:100760000CD10121082001F03FFEDFF8B00C01F0B0
:10077000ECFB002020610FF20900606010BD00005A
:1007800070B5DFF87844DFF8B455E8782070DFF80A
:10079000E4647069401C706141F2707188420AD350
:1007A000DFF8740A01F0C2FB00207061DFF808096D
:1007B000DFF8C414C8607069B0F57A7FC0F0A58016
:1007C000122001F0FBFD01281ED1112001F0F6FDE1
:1007D000002819D1192001F0F1FD012814D10120C0
:1007E0003070DFF8380A01F0A1FB032001F069FC4A
:1007F000012001F07FFC022001F07CFC00207061F0
:100800000FF20910706070BD122001F0D7FD0128B1
:100810001ED1112001F0D2FD002819D1192001F0BC
:10082000CDFD002814D102203070DFF8700A01F0ED
:100830007DFB032001F077FC012001F05BFC02202E
:1008400001F058FC002070610FF2C100706070BDB3
:10085000122001F0B3FD01281ED1112001F0AEFDE0
:10086000012819D1192001F0A9FD012814D1032074
:100870003070DFF85C0A01F059FB032001F03AFC0C
:10088000012001F037FC022001F01BFC0020706108
:100890000FF27900706070BD122001F08FFD00280A
:1008A00019D1112001F08AFD002814D1192001F07E
:1008B00085FD00280FD100203070DFF8600A01F0BC
:1008C00035FBE87B207000207061DFF8EC07DFF873
:1008D000A813C86070BD042030706078C949897859
:1008E00088420BD0DFF8380A01F020FB002070614D
:1008F000DFF8C407DFF88013C86070BDDFF8D406E6
:10090000C078BDE8704002F048BA70BD80B5DFF82D
:10091000800A01F01AFBDFF82404C078DFF87413B2
:1009200081F85000152001F049FD01280CD101216A
:10093000052001F059FD0021042001F055FD0FF2C2
:100940001D00CC49486001BDDFF8480A01F0EEFA0D
:10095000DFF86407C849C86001BD000010B5DFF8C2
:10096000DC03C078CB4981F85000C24CE069401CE0
:10097000E06142F2107188420AD3DFF8A40A01F064
:10098000D5FA0020A061E061DFF82C07BA49C86001
:10099000162001F013FD012832D1DFF8880A01F09A
:1009A000C5FAA069401CA061642829D3DFF8C80AF1
:1009B00001F0BCFA01F015FD0C280FDDDFF8BC0AD0
:1009C00001F0B4FADFF8B80A01F0B0FA0020A06133
:1009D000E061DFF8E406A849C86010BDDFF8A40AAA
:1009E00001F0A4FA0021092001F0FEFCDFF8D00B91
:1009F00001F0ABFA0020A061E0610FF20900606035
:100A000010BD000080B5CD48C078A24981F85000E3
:100A1000062001F0D3FC012811D1132001F0CEFCF7
:100A200001280CD1142001F0C9FC002807D10121B4
:100A3000072001F0D9FC0021062001F0D5FC06209A
:100A400001F0BCFC00281AD1132001F0B7FC0028EB
:100A500015D1142001F0B2FC012810D1002107208B
:100A600001F0C2FC0121062001F0BEFCDFF8CC0A37
:100A700001F06BFA0FF20900DFF8901C486001BD2D
:100A800010B5AE48C078834981F85000794C206A8F
:100A9000401C206242F2107188420FD301210920CC
:100AA00001F0A2FCDFF8C80A01F040FA0020206241
:100AB0006062DFF80406DFF8581CC8601A2001F0F5
:100AC0007DFC01280ED1606A401C6062B0F57A7F1F
:100AD00008D3022001F05CFC0020206260620FF26B
:100AE0000900606010BD000080B501F064FC0228C0
:100AF0001CD101F05DFC022818D10121092001F070
:100B000073FC0021022001F06FFC0121084601F076
:100B10006BFC0021032001F067FC0FF6AC2001F014
:100B200014FA0FF20D00DFF8E41B486001BD00006D
:100B300080B58248C078574981F850001D2001F0E7
:100B40003DFC002810D10121022001F04DFC0021C4
:100B5000012001F049FC0FF6802001F0F6F90FF2B8
:100B60000D00DFF8A81B486001BD000010B57348F8
:100B7000C078484981F850003E4CA06A401CA062F1
:100B800040F6B83188420AD3DFF8380A01F0CEF9CE
:100B90000020A0620FF6DD10DFF8741BC8600F2084
:100BA00001F00CFC012825D12078012812D021D396
:100BB00003280FD01ED2032001F0EAFB002819D031
:100BC0000FF6242001F0C1F90020A0620FF23900D5
:100BD000606010BD042001F0DBFB00280AD000207B
:100BE000A0620FF2610060600FF60C20BDE81040BB
:100BF00001F0ABB910BD00008C780008580B002044
:100C0000E00D0020D80C002080B501F0D4FB0228B4
:100C100010D101F0CDFB03280CD10121084601F0D1
:100C2000E3FB0021022001F0DFFB0FF26D00114910
:100C3000486001BD4148007BDFF8D81A81F85000B8
:100C400001BD000080B501F0B6FB022810D101F013
:100C5000AFFB04280CD10121084601F0C5FB00219F
:100C6000022001F0C1FB0FF23100DFF8A01A48604A
:100C700001BD0000A40A0020F00C0020E40D0020BB
:100C8000A50D0008B00D0020F50E0008FD0D0008B0
:100C9000B4720008080B002010B5DFF8704A10206D
:100CA00001F08CFB012845D16078002813D1012187
:100CB000032001F099FB0021012001F095FB0021A8
:100CC000022001F091FBCC20DFF8481A81F83B00AC
:100CD0000120607010BD2078022811D11748007BD8
:100CE000DFF8341A4875BB48C07802F056F80FF6A2
:100CF000141001F01BF900206070DFF8200A60601A
:100D00002078012801D0032816D10FF6041001F035
:100D10000DF9E06A401CE06240F6A17188420BD3F5
:100D200000206070E062012002F024FD0FF2150047
:100D3000606010BD0020607010BD0000C80C002075
:100D4000C072000870B5DFF8C449206B401C2063F6
:100D500044F6216188421BD300202063DFF8C0598C
:100D6000DFF8C069F07AA8712878BB2810D19948BB
:100D7000C07802F012F8CC202870307BA871CC200B
:100D800002F03FFACC2002F00BFADFF89009606025
:100D900070BD0000D0720008E8720008647400089A
:100DA000F472000880B50FF6800001F0DCF8DFF87F
:100DB000780901F0BBF801F032FBDFF87009017827
:100DC000012913D100210170407801280ED10220A1
:100DD00001F090F9DFF85809DFF83419C860DFF83E
:100DE00044098079DFF82C1981F8500001BD00001A
:100DF000FC7200088C7400080C7300082DE9F041A7
:100E0000DFF81049DFF81C59A87884F850000FF675
:100E10006C1001F0A8F800263746B046112001F00A
:100E2000CDFA012801D14FF00108122001F0C6FAD5
:100E3000012800D10127192001F0C0FA012800D1B2
:100E400001261A2001F0BAFA012801D101263746FD
:100E5000002E06D0022E08D00AD2022001F031F96D
:100E600006E0022001F046F902E0022001F05BF901
:100E7000B8F1000F07D0B8F1020F08D00AD2032052
:100E800001F01FF906E0032001F034F902E003202D
:100E900001F049F9002F06D0022F08D00AD2012014
:100EA00001F00FF906E0012001F024F902E0012031
:100EB00001F039F9DFF87C080178012913D100210C
:100EC0000170407801280ED1022001F013F90121B0
:100ED000002001F089FADFF86008DFF83418C860F4
:100EE000A87984F85000DFF8240880688047BDE8BE
:100EF000F04125E380B50FF68C0001F026F80FF6DF
:100F0000940001F013F8DFF80408416B491C4163B9
:100F1000B1F57A6F0DD30FF235018160012001F038
:100F2000E9F8022001F0E6F80320BDE8024001F0F4
:100F3000E1B8012001F0C5F8022001F0C2F8032059
:100F4000BDE8024001F0BDB8000C024080B50FF6CC
:100F5000540000F0FAFFDFF8E40700F0E7FFDFF8E5
:100F6000CC07017801290DD10021017040780128BA
:100F700008D10FF21D00DFF8941788600120BDE84A
:100F80000240C9E201BD000018730008B8740008EF
:100F900010B5DFF87847A06B401CA06340F63C71A9
:100FA000884203D3DFF8980700F0C0FF182001F053
:100FB00005FA0FF6000000F0C8FF0021082001F03C
:100FC00013FA002000F0A8FA002802D00FF209005E
:100FD000A06010BD680D002010B5DFF83047E06B51
:100FE000401CE06340F63C71884203D3DFF85407AD
:100FF00000F09CFF172001F0E1F90FF2C87000F03B
:10100000A4FF0121082001F0EFF9172001F0D6F923
:10101000012817D1DFF8300700F088FFDFF80C0750
:10102000017801290ED1002101704078012809D1F1
:101030000FF21D00A060D4A000F078FF0120BDE8F1
:10104000104069E210BD00002473000830730008EE
:1010500010B5DFF8B846206C401C206440F63C71A7
:10106000884208D3DFF8E40600F060FF0FF2055075
:10107000DFF89C16C860162001F0A0F90FF254703A
:1010800000F063FF0021042001F0AEF901210520EA
:1010900001F0AAF9002000F03FFA002808D0002053
:1010A00020640FF21900A0600120BDE8104033E277
:1010B00010BD0000407300087515000838B5DFF852
:1010C0004C46606C401C6064DFF8845640F63C710E
:1010D000884207D3284600F029FF0FF29940DFF835
:1010E0003016C860152001F069F90121042001F0D3
:1010F0007BF90021052001F077F90FF2E46000F0A0
:1011000024FF05F1280000F011FFDFF82006017828
:10111000012910D100210170407801280BD1084627
:1011200060640FF21500A06097A000F0FFFE0120A0
:10113000BDE83240F0E131BD80B50FF2B46000F09F
:1011400004FF0021092001F04FF9002000F0E4F92C
:10115000002808D00FF21500DFF8B01588600120D4
:10116000BDE80240D8E101BDB078000880B50FF2BB
:10117000906000F0EAFE0121092001F035F9DFF866
:10118000D40500F0D3FEDFF8A4050178012910D1C1
:1011900000210170407801280BD10FF21900DFF80F
:1011A0006C15886078A000F0C1FE0120BDE8024007
:1011B000B2E101BD10B5DFF85445A06C401CA0643D
:1011C00040F63C71884208D3DFF88C0500F0AEFE93
:1011D0000FF2A130DFF83815C860142001F0EEF8E6
:1011E0000FF22C6000F0B1FE0021062001F0FCF8A7
:1011F0000121072001F0F8F8002000F08DF9002807
:1012000008D00020A0640FF21900A0600120BDE802
:10121000104081E110BD0000D47800087873000808
:1012200038B5DFF8E844E06C401CE064DFF828558E
:1012300040F63C71884207D3284600F077FE0FF253
:101240003530DFF8CC14C860142001F0B7F80FF285
:10125000D05000F07AFE0121062001F0C5F80021EF
:10126000072001F0C1F805F1240000F05FFEDFF86F
:10127000BC040178012910D10021017040780128B7
:101280000BD10846E0640FF21900A0603EA000F008
:101290004DFE0120BDE832403EE131BD8C730008B7
:1012A00080B50FF28C5000F050FE0021032001F0B9
:1012B0009BF8002000F030F9002808D00FF215004C
:1012C000DFF8481488600120BDE8024024E101BD38
:1012D000A073000880B50FF2645000F036FE0121C3
:1012E000032001F081F8DFF8740400F01FFEDFF83E
:1012F0003C040178012910D10021017040780128B7
:101300000BD10FF22100DFF8041488601EA000F05A
:101310000DFE0120BDE80240FEE001BDB4730008EF
:10132000CC73000810B5DFF8E443206D401C206545
:1013300040F63C71884208D3DFF8240400F0F6FD43
:101340000FF23120DFF8C813C860102001F036F822
:101350000FF2F44000F0F9FD0021022001F044F802
:101360000121084601F040F8002000F0D5F80028DF
:1013700008D0002020650FF22100A0600120BDE808
:101380001040C9E010BD00000000000058730008C4
:10139000E4730008F473000838B5DFF87043606D3B
:1013A000401C6065DFF8BC5340F63C71884207D3AF
:1013B000284600F0BBFD0FF2BD10DFF85413C860E3
:1013C0000F2000F0FBFF0FF2904000F0BEFD012166
:1013D000022001F009F80021012001F005F805F1D3
:1013E000280000F0A3FDDFF844030178012914D19F
:1013F00000210170407801280FD102F009FB0FF2A3
:101400002900A060012000F0C3FF0FF2584000F057
:101410008DFD0120BDE832407EE031BD68730008DB
:10142000B87500081474000810B50FF2504000F0B1
:101430008CFDB64CA06D401CA06547F2305188422F
:1014400007D30FF2484000F071FD0FF22910B049A8
:10145000C8601F2000F0B2FF01280CD10020A06559
:101460000FF2484000F062FD0FF21D00A060BDE8E1
:10147000104002F0A1BA10BD207400082C740008BE
:10148000E47500083874000810B5A04CE06D401CED
:10149000E06547F23051884207D30FF2204000F058
:1014A00045FD0FF2D1009A49C8600FF2D03000F02C
:1014B0004CFD02F085FA002808D00020E0650FF20C
:1014C0001100A060BDE8104002F072BA10BD00002B
:1014D00010B58E4C206E401C206647F23051884279
:1014E00007D30FF2D83000F021FD0FF289008849B0
:1014F000C8600FF2E43000F028FD02F061FA002825
:1015000009D0002020669848A0600FF2DC30BDE8CA
:10151000104000F00BBD10BD9449002802D00020FF
:10152000086070470868B0F57A6F03D30020086040
:1015300001207047401C0860002070475474000868
:1015400010B58B4C2068401C2060B0F57A7F03D129
:101550000121002000F048FF2068B0F5FA6F05D3A4
:101560000021084600F040FF0020206010BD000070
:101570004077000880B56B48007A664981F85000D2
:1015800000F04DFF0FF2743000F0EDFC032000F08E
:10159000B1FD012000F0C7FD022000F0ABFD754851
:1015A0000168B1F57A7F06DA05DD40F2D172914229
:1015B00001DB002101600168491C016001BD0000E0
:1015C00044740008C4770008417474656E64417304
:1015D000706972650000000056656E746F75736502
:1015E0004D6F6E7465000000506F6E7456657273B7
:1015F000466F737365000000506F6E7456657273AA
:10160000417363005472692066696E6921000000AD
:10161000456E2064656C6169206176616E7420722C
:101620006573746172740000417272657400000029
:1016300038B5514C122000F0C1FE01280BD1112009
:1016400000F0BCFE002806D1192000F0B7FE0128EA
:1016500001D1012539E0122000F0B0FE01280BD1A4
:10166000112000F0ABFE002806D1192000F0A6FEE4
:10167000002801D1022528E0122000F09FFE012859
:101680000BD1112000F09AFE012806D1192000F09C
:1016900095FE012801D1032517E0122000F08EFEEF
:1016A00000280ED1112000F089FE002809D1192050
:1016B00000F084FE002804D10025E07801F06DFBE5
:1016C00003E00425E07801F068FB280002D1E0780F
:1016D00001F063FB2846022802D1A07801F05DFBEF
:1016E0002846012802D1207801F057FB032D04D1B0
:1016F0006078BDE8324001F050BB31BD0748034976
:1017000048600B480249C86070470000A40A0020E6
:10171000F00C0020080B0020430B0020E50500081A
:10172000520B0020C80C00206C770008E00D002050
:1017300089010008E40D0020A50D00089877000835
:10174000F87800086076000884760008EC770008D6
:101750001076000814780008F87600083C78000835
:101760001C790008AC760008F50E0008EC0D00208E
:10177000F00D0020F40D0020680D002054657374F6
:10178000730000007465737420436F6C6F6E6E6538
:101790000000000046696E2064616E732032207381
:1017A000656300007465737420456E7472656573BB
:1017B000000000004163742E20566572696E204D52
:1017C00061672E004465732E20566572696E204D48
:1017D00061672E004D6F6E746520456C65762E0036
:1017E00044657363656E6420456C65762E00000069
:1017F0004163742E20436F6E766F796575722E008B
:101800004465732E20436F6E766F796575722E0076
:101810004163742E20456A6563746575722E0000FD
:101820004465732E20456A6563746575722E0000E9
:101830004163746976652041697200004465736193
:1018400063742E204169720044657363656E642081
:1018500056656E74000000004D6F6E74652056650D
:101860006E742E005465737420647520706F6E74EE
:1018700020656E20636F7572730000004465706CA4
:101880006163652056656E742E0000004F7570739D
:10189000212054696D656F757420696E69742070BC
:1018A0006F6E742061747465696E7400496E69743A
:1018B00020706F6E742066696E6900004F757073DA
:1018C000212054696D656F757420706F6E7420618E
:1018D000747465696E7421005265706C6163652073
:1018E00056656E742E000000506F6E7420666F6E29
:1018F0006374696F6E6E656C0000000045727265FE
:101900007572000080B502F09FF802F0B4F802F0A2
:10191000CFF802F0F1F802F0FDF802F009F902F058
:1019200015F902F01EF902F022F902F023F902F093
:101930002AF902F050F900F009FC00F075FDBDE84D
:10194000014001F029BF80B502F07BF802F075F983
:1019500001F0DEFC02F0D3F9002002F0B1FCBDE89A
:101960000140FFF7CBBE70477CB5FFF7CBFF02F01D
:10197000F3FD00F0E0F800F0AAF900F090F900F0B3
:1019800069F900F02DF900F049F9FFF7DCFF0120BB
:1019900000F097FB022000F094FB032000F091FB85
:1019A00001200090022380222B21002002F046FC1F
:1019B00001200090022380221B21002002F03EFC27
:1019C00001200090022380220B21002002F036FC2F
:1019D000052204210FF2246002F01CFB05220221E3
:1019E0000FF2306002F016FBDFF8B445DFF8B465A3
:1019F00005E0052200210FF2346002F00BFB02F03B
:101A000020F8207D002840D00020E07505461FE02A
:101A10000523D2B20721202002F06EFA0FE0282D14
:101A20000DDA2846A0F11402E07D0028F0D105234C
:101A3000D2B20721DFF87005405D02F05DFADFF8F1
:101A4000680528444078002801D10120E0756D1C0C
:101A5000282D18DA142DE2DAE07D00280AD10523BA
:101A600028460246D2B20621DFF83C05405D02F06E
:101A700043FAE4E7052328460246D2B20621202095
:101A800002F03AFADBE700202075607D002820D0C4
:101A90000020E075054617E00523D2B20221202080
:101AA00002F02AFA09E06A1DE07D0028F4D105233E
:101AB000D2B20221605D02F01FFA6019407800285E
:101AC00001D10120E0756D1C681D1428EBDB00209E
:101AD0006075A07D002820D00020E075054617E045
:101AE0000523D2B20421202002F006FA09E06A1D83
:101AF000E07D0028F4D10523D2B20421705D02F00C
:101B0000FBF970194078002801D10120E0756D1CA7
:101B1000681D1428EBDB0020A075DFF8900490F816
:101B2000540000283FF465AF052200210FF2145045
:101B300002F070FA63E780B592B00022302106A867
:101B400002F024FD0022142101A802F01FFD002054
:101B50000090DFF85C04016841F08051016000688A
:101B600000F080500090009800200090DFF84404BE
:101B7000016841F480410160006800F480400090F9
:101B80000098012006904FF48030079002200C90BE
:101B90004FF480000D9004200E90A8200F9002209A
:101BA00010900720119006A802F00EFD002801D029
:101BB00000F0E8F90F20019002200290002003902D
:101BC0004FF4A05004904FF480500590052101A8D7
:101BD00002F06EFE002801D000F0D4F913B000BD71
:101BE00080B5DFF8D403DFF8D4130160A821416089
:101BF00000218160C1604FF4003101610021416129
:101C000001760121417600214183818302F02EFF7C
:101C1000002802D0BDE80140B4E101BD80B5DFF885
:101C2000A003DFF8A0130160DFF89C1341600021DE
:101C30008160C1604FF48041016100214161816197
:101C4000C161016203F062F9002802D0BDE80140E1
:101C500098E101BD1CB500220821684602F096FCFF
:101C6000DA4CDB48206000206060A0604AF20F4040
:101C7000E0600020A061204603F006FE002801D0AD
:101C800000F080F910200090002001906946204665
:101C900003F03CFF002801D000F074F913BD80B5BB
:101CA000CC48CD4901604FF49641416000218160EC
:101CB000C16001610C21416100218161C16103F0BA
:101CC00045FF002802D0BDE801405BE101BD2DE9E0
:101CD000F04786B000221421684602F057FC00202D
:101CE0000590BE48016841F010010160016801F0F3
:101CF00010010591059900210591016841F0040149
:101D00000160016801F00401059105990021059128
:101D1000016841F080010160016801F080010591D6
:101D2000059900210591016841F0010101600168F8
:101D300001F001010591059900210591016841F02B
:101D400002010160016801F002010591059900217D
:101D50000591016841F008010160006800F0080089
:101D6000059005989E4C00224921204601F064FC14
:101D70009C4D01221146284601F05EFC9A4E00223D
:101D8000E221304601F058FC47F63307DFF85C8269
:101D900000223946404601F04FFC4FF6D079DFF87B
:101DA00050A200224946504601F046FC49200090CE
:101DB000012001900020029003906946204601F026
:101DC0005FFB4FF420500090002001900290694684
:101DD000284601F055FB0120009001900020029060
:101DE00003906946284601F04BFB08200090022032
:101DF0000190002002900390052004906946284637
:101E000001F03EFB012000907A48019000200290F2
:101E10006946304601F034FBE22000900120019039
:101E20000020029003906946304601F029FB102003
:101E30000090022001900020029003900620049060
:101E40006946304601F01CFB0097012001900020FC
:101E5000029003906946404601F012FB0420009076
:101E60000020019002906946404601F009FB4FF4C2
:101E70007F4000900020019002906946204601F0CA
:101E8000FFFA4FF480600090022001900020029041
:101E90000390052004906946404601F0F1FACDF820
:101EA0000090012001900020029003906946504666
:101EB00001F0E6FA4FF4A4500090022001900020B7
:101EC00002900390062004906946284601F0D8FA53
:101ED0004FF4007000900020019002906946304657
:101EE00001F0CEFA4FF4E050009002200190002063
:101EF000029003900A2004906946304601F0C0FA2F
:101F0000202000900020019002906946504601F088
:101F1000B7FA0220009038480190002002906946EC
:101F2000204601F0ADFA06B0BDE8F08701211C4A59
:101F3000117500221C4B00E0521C282A04DA815C37
:101F40009954815C0029F7D17047154A01215175D8
:101F5000002300E05B1C152B04DAC15CD154C15C8A
:101F60000029F7D1704701210D4A917500220D4BD0
:101F700000E0521C152A04DA815C9954815C002926
:101F8000F7D1704780B501F058FE01F05DFD01F01A
:101F900058FD01224021164801F04EFBF3E70000F6
:101FA0002C0D00208C0D0020A00C0020080B002020
:101FB0004038024000700040780C0020006400406F
:101FC000600B002000540040A0860100F80B0020A8
:101FD00000100040380C002000440040303802401F
:101FE00000100240000802400000024000040240CD
:101FF000000C024000001110000012104D6F6465CB
:102000003A202020202020202020202020202020B6
:1020100000000000457461743A417474656E642078
:10202000426F75746F6E20200000000043414E2007
:10203000436F6E6E6563746564202020202020202D
:102040000000000043414E20446973636F6E6E656B
:1020500063746564202020200000000010B5464C09
:102060006068401C6060B0F57A7F11D1207802284A
:1020700002D1012003F0F1FE6078022802D1022093
:1020800003F0EBFEA078022802D1032003F0E5FE66
:102090006068B0F5FA6F13D32078022802D10120CE
:1020A00003F0C4FE6078022802D1022003F0BEFED5
:1020B000A078022802D1032003F0B8FE002060605F
:1020C00010BD012804D014D303280CD005D37047C9
:1020D00001202949087003F0C0BE0120264948703C
:1020E000022003F0BABE012023498870032003F0C8
:1020F000B4BE7047012804D014D303280CD005D3F4
:10210000704701201C49087003F090BE01201A4955
:102110004870022003F08ABE01201749887003200E
:1021200003F084BE7047012804D00ED3032809D0E1
:1021300004D37047022010490870704702200E49EE
:102140004870704702200C498870704710B50A4CDF
:1021500000206060012003F069FE022003F066FEAB
:10216000032003F063FE002020706070A07003481D
:102170000349886110BD0000C80D00205D200008E3
:10218000F00C002010B5DFF8BC43E068142820D321
:102190000020E0602178722003F07AFE61787820D8
:1021A00003F076FEA11C772003F07DFEE11C7A206F
:1021B00003F079FE211D712003F075FE04F1080182
:1021C0009B2003F070FEA078C043A0702079C0432C
:1021D000207100F057F800F02EF800F004F8E068E5
:1021E000401CE06010BD38B5DFF85C53A878401C97
:1021F000A870C0B214281DD30020A870EC781B2052
:1022000000F0DCF801280AD10A2C13D0641CEC7011
:10221000E4B20A2C0EDB01206870287031BD002C5E
:1022200008D0601EE870C0B2002803D1002068709A
:102230000120287031BD38B5C44DA878401CA87065
:10224000C0B214281DD30020A870EC781C2000F028
:10225000B5F801280AD10A2C13D0641CEC70E4B242
:102260000A2C0EDB01206870287031BD002C08D0CC
:10227000601EE870C0B2002803D100206870012001
:10228000287031BD70B5B24CE078022830D1A56815
:10229000142D2DD3A678012E03D000210E2000F09E
:1022A000A3F8202000F08AF8012821D1502D1FD357
:1022B00001210E2000F098F81F2000F07FF801287F
:1022C00016D1642D14D301210A2000F08DF80121CC
:1022D0000B2000F089F801210C2000F085F86670D1
:1022E0000020A0700220207000202071A060E0700B
:1022F000E078012842D1A078401E03283ED8DFE8CC
:1023000000F0020B1C2D0120207100210D2000F097
:102310006BF80220E07031E00120207100210A20DA
:1023200000F062F801210B2000F05EF801210C2082
:1023300000F05AF80220E07020E0012020710146F0
:102340000A2000F051F800210B2000F04DF8012187
:102350000C2000F049F80220E0700FE0012020710D
:1023600000210A2000F040F801210B2000F03CF889
:1023700000210C2000F038F80220E07020790028BD
:1023800003D0A068401CA06070BD0020A06070BD9C
:1023900010B5044601F0E2FB01F0E6FB6C488470E6
:1023A00001210170002141700121C170084610BD5A
:1023B0006748407870476648007870476549614AC9
:1023C00051F830301A4412F8012C012301EBC000FF
:1023D000406883401A401046401E8041C043C00FF1
:1023E00070475848007A704770B45A4A52F83030F3
:1023F00002EBC004584D0126002906D01846295C7E
:10240000606886400E43EE5407E0EB5C61688E40E6
:1024100023EA060652F830002E5470BC7047494833
:10242000FF210170417070474A480121016000217D
:102430004160012101610221416101218160C1608E
:1024400081610321C161012181620521C1620121F4
:10245000016204214162012181630721C1630121DD
:1024600001630621416302210164002141640221CC
:1024700081640121C16402210165416581650321F7
:10248000C16502210166042141660221816606219F
:10249000C16602210167052141670321816700218F
:1024A000C1670321C0F8801000F1840101220A6095
:1024B00003224A6002228A600322CA600A614A61DA
:1024C00004228A610322CA6105220A6203224A6247
:1024D00006228A620322CA6207220A6304224A632E
:1024E00000228A630422CA6301220A6404224A6425
:1024F00002228A640422CA6403220A6504224A650D
:102500008A65CA6505220A6604224A6606228A6628
:102510000522CA6602220A6705224A6701228A67E3
:102520000522CA6700F582700021016011464160F2
:10253000032181600348FF21017041700748084969
:1025400008617047A00D0020E00D0020E40D002080
:10255000BC0D0020940900209F0D0020852100085B
:10256000F00C002010B400230C4601E0C2545B1CA8
:10257000A342FBDB10BC704730B40222022A1BD1FD
:1025800000220B465B1E012BF8DBC41814F8014C2B
:10259000FF2C04D01546012D04D1022202E01500C3
:1025A00000D10122C55CFF2D04D1C454FF24C518FD
:1025B00005F8014C5B1EE6E730BC704710B4147898
:1025C000FF2C0DD0FE2C0BD1491E07E0445CFF2CE4
:1025D00003D14354FD2111700021491E0029F5DC6F
:1025E00010BC70470922DFF87C194B7AFF2B00D111
:1025F000704730B400230DE0AA24DFF85C5A2C7237
:1026000003E0AA24DFF8505AEC71FF248C54521EC8
:10261000D2B29B1C072B3ADCC45CAA2CF9D18C5C8F
:10262000FF2CF6D05624C4548C5CC5186C708C5C9E
:10263000082CEAD8DFE804F0080D12171C21260741
:102640000600E2E7D8E7DCE7AA24DFF80C5A2C7092
:10265000DBE7AA24DFF8005A6C70D6E7AA24DFF87B
:10266000F859AC70D1E7AA24DFF8EC59EC70CCE74C
:10267000AA24DFF8E4592C71C7E7AA24DFF8D85957
:102680006C71C2E7AA24DFF8D059AC71BDE730BC49
:10269000704700001722DFF8C419CB7DFF2B00D153
:1026A000704730B400230DE0AA24DFF8AC59EC7772
:1026B00003E0AA24DFF8A059AC77FF248C54521E03
:1026C000D2B29B1C082B80F28880C45CAA2CF8D163
:1026D0008C5CFF2CF5D04324C4548C5CC5186C7002
:1026E0008C5C172CE9D8DFE804F00F14191E23289E
:1026F0002D32373C41464B50555A5F64696E730C1E
:102700000E0DDAE7D0E7D4E7AA24DFF84C596C7253
:10271000D3E7AA24DFF84059AC72CEE7AA24DFF849
:102720003859EC72C9E7AA24DFF82C592C73C4E796
:10273000AA24DFF824596C73BFE7AA24DFF81859DC
:10274000AC73BAE7AA24DFF81059EC73B5E7AA24F2
:10275000DFF804592C74B0E7AA24DFF8FC586C7435
:10276000ABE7AA24DFF8F058AC74A6E7AA24DFF898
:10277000E858EC74A1E7AA24DFF8DC582C759CE734
:10278000AA24DFF8D4586C7597E7AA24DFF8C85854
:10279000AC7592E7AA24DFF8C058EC758DE7AA243F
:1027A000DFF8B4582C7688E7AA24DFF8AC586C76AA
:1027B00083E7AA24DFF8A058AC767EE7AA24DFF8E6
:1027C0009858EC7679E7AA24DFF88C582C7774E7D0
:1027D000AA24DFF884586C776FE730BC704710B5D7
:1027E0000446AA220821FFF7BDFE5320A071DFF89E
:1027F000B00A0178E1718178FF2903D05721217156
:10280000807860712046FFF7EDFE2046BDE810405D
:1028100040E770B5DFF8444818212046FFF7ACFECA
:10282000DFF840570A212846FFF7A6FEDFF82868A0
:10283000AB7BB21C0A212846FFF7C0FE2B7B324639
:102840000A212846FFF7BAFE6B7B721C0A21284634
:10285000FFF7B4FEEB7BF21C0A212846FFF7AEFE21
:102860002B7C321D0A212846FFF7A8FE6B7C721DC7
:102870000A212846FFF7A2FEAB7CB21D0A2128469A
:10288000FFF79CFE2B7D06F108020A212846FFF780
:1028900095FEEB7CF21D0A212846FFF78FFEDFF83C
:1028A0006C5A2B7C06F1190218212046FFF786FE90
:1028B0006B7C06F11A0218212046FFF77FFE2B7D64
:1028C00006F11D0218212046FFF778FE6B7A06F10B
:1028D000120218212046FFF771FE2B7A06F1110231
:1028E00018212046FFF76AFEEB7A06F11402182140
:1028F0002046FFF763FEAB7A06F11302182120464B
:10290000FFF75CFE6B7B06F1160218212046FFF7ED
:1029100055FE2B7B06F1150218212046FFF74EFECF
:10292000EB7B06F1180218212046FFF747FEAB7B30
:1029300006F1170218212046FFF740FEAB7B06F197
:10294000170218212046FFF739FE2B7806F10902FD
:1029500018212046FFF732FE6B7806F10A02182193
:102960002046FFF72BFEAB7806F10B02182120461C
:10297000FFF724FEEB7806F10C0218212046FFF742
:102980001DFE2B7906F10D0218212046FFF716FED9
:102990006B7906F10E0218212046FFF70FFEAB7986
:1029A00006F10F0218212046FFF708FEEB7906F129
:1029B000100218212046FFF701FEAB7C06F11B0236
:1029C00018212046FFF7FAFDEB7C06F11C021821C6
:1029D0002046FFF7F3FDAB7D06F11F0218212046CC
:1029E000FFF7ECFD6B7D06F11E0218212046BDE8C5
:1029F0007040E3E5F8B504460025DFF8586ADFF8D3
:102A0000587A08E0601940783146C87402E0022024
:102A100039460876AD1C082D80F29981605D432807
:102A20003ED04D2808D0532800F03481562800F0BD
:102A3000DD805728E6D0EDE76019407806281AD8DF
:102A4000DFE800F004070A0D10131600387C7074DC
:102A500013E0787C707410E0B87C70740DE0F87C42
:102A600070740AE0387D707407E0787D707404E05B
:102A7000B87D707401E001203876707CB97E8142A7
:102A800009D0B876002000F06FFA002000F0B9FB02
:102A9000002000F085FB0020F86178763075B9E7FA
:102AA00060194078172800F29D80DFE800F00C11D3
:102AB000161B20252A31383F464D545B62697077DA
:102AC0007E83889B8D94BB20DFF890194872A1E724
:102AD000BB20DFF8881988729CE7BB20DFF87C19DF
:102AE000C87297E7BB20DFF87419087392E7BB2020
:102AF000DFF8681948738DE7BB20DFF86019887329
:102B000088E7DFF85809BB21C1730021017481E710
:102B1000DFF84809BB2101740021C1737AE7DFF8AF
:102B20003C09BB2141740021817473E7DFF82C0953
:102B3000BB218174002141746CE7DFF82009BB21BF
:102B4000C1740021017565E7DFF81009BB2101752B
:102B50000021C1745EE7DFF80409BB214175002143
:102B6000817557E7DFF8F408BB21817500214175B5
:102B700050E7DFF8E808BB21C1750021017649E77D
:102B8000DFF8D808BB2101760021C17542E7DFF8E4
:102B9000CC08BB214176002181763BE7DFF8BC08F9
:102BA000BB2181760021417634E7BB20DFF8AC18E9
:102BB000C8762FE7BB20DFF8A41808772AE7BB20E8
:102BC000DFF89818487725E7DFF89008BB21817770
:102BD0000021C1771EE7DFF88408BB21C1770021FF
:102BE000817717E703203946087613E760194078A4
:102BF00008284BD8DFE800F0050D151D252D353CC4
:102C00004300DFF85808BB2101700021418041706A
:102C100000E7DFF84808BB214170002101704180C6
:102C2000F8E6DFF83808BB21817000210180C1700F
:102C3000F0E6DFF82808BB21C17000210180817017
:102C4000E8E6DFF81808BB210171002141718171AC
:102C5000E0E6DFF80808BB214171002101718171B4
:102C6000D8E6DFF8F807BB21817100218180D1E629
:102C7000DFF8E807BB21C17100210172CAE6DFF865
:102C8000DC070021C171BB210172C3E60420394673
:102C90000876BFE66019407810283FF6B8AEDFE846
:102CA00000F00B161A1E0A22262A2E32363C424605
:102CB0004A4E5200ABE6ADE63046BB2101703946C4
:102CC000097C427C8A423FF4A5AE4174A2E6BB2057
:102CD000314648709EE6BB20314688709AE6BB209C
:102CE0003146C87096E6BB203146087192E6BB209B
:102CF000314648718EE6BB20314688718AE6BB209A
:102D00003146C87186E6BB203146087282E63046FD
:102D1000BB214172002181727CE63046BB21817269
:102D20000021417276E6BB203146C87272E6BB20B4
:102D3000314608736EE6BB20314648736AE6BB2015
:102D40003146887366E6BB203146C87362E6F1BD42
:102D5000DFF80417C869401C00EE100A81ED070A6D
:102D6000DFF8682592F8540000280AD1BBEEEF0A7C
:102D7000BDEEC00A10EE100AC0B2142390FBF3F0AF
:102D80004876487E0B2802DBFF2082F8540070470B
:102D90000278FF2A00D001707047F0B4DFF8C41148
:102DA000DFF828250346FF2B2DD19378FD2B08D083
:102DB0001378FD2B05D05378FD2B02D0D378FD2B53
:102DC0001CD1002318E0CC5C8D7BAC4201D1FF24E8
:102DD000CC54CC5C0D7BAC4201D1FF24CC54CC5CF8
:102DE0004D7BAC4201D1FF24CC54CC5CCD7BAC42BA
:102DF00001D1FF24CC545B1C0A2BE4DBFF2393702E
:102E000013705370D3700B7B04461D46AC4227D120
:102E10009478FD2C05D05478FD2C02D0D478FD2C6C
:102E200016D1002412E00D5D8E7BB54201D1FF2545
:102E30000D550D5D4E7BB54201D1FF250D550D5D44
:102E4000CE7BB54201D1FF250D55641C0A2CEADB6F
:102E50001478FD2C01D0FE2414700024548054708A
:102E60008C7B05462646B54226D11578FD2D05D02A
:102E70005578FD2D02D0D578FD2D15D1002511E016
:102E80004E5D9E4201D1FF264E554E5D4F7BBE42A8
:102E900001D1FF264E554E5DCF7BBE4201D1FF26AC
:102EA0004E556D1C0A2DEBDB9578FD2D01D0FE25CE
:102EB000957000251580D5704D7B06462F46BE4285
:102EC00026D11678FD2E05D09678FD2E02D0D67824
:102ED000FD2E15D1002611E08F5D9F4201D1FF2705
:102EE0008F558F5DA74201D1FF278F558F5D91F8D8
:102EF0000FC0674501D1FF278F55761C0A2EEBDBEB
:102F00005678FD2E01D0FE2656700026167056808B
:102F1000CE7BB04224D11078FD2805D09078FD28D2
:102F200002D05078FD2813D100200FE00E5C9E42A5
:102F300001D1FF260E540E5CA64201D1FF260E548D
:102F40000E5CAE4201D1FF260E54401C0A28EDDB78
:102F5000D078FD2801D0FE20D07000201070508065
:102F6000F0BC70475C0D002038B50446D74D2146B3
:102F700005F13D00FFF70CFF214605F13900FFF791
:102F800007FF214605F13A00FFF702FF214605F150
:102F90003200FFF7FDFE214605F13100FFF7F8FE94
:102FA000214605F13400FFF7F3FE214605F1330019
:102FB000FFF7EEFE214605F13600FFF7E9FE214658
:102FC00005F13500FFF7E4FE214605F13800FFF773
:102FD000DFFE214605F13700FFF7DAFE214605F155
:102FE0002900FFF7D5FE214605F12A00FFF7D0FEA4
:102FF000214605F12B00FFF7CBFE214605F12C0001
:10300000FFF7C6FE214605F12D00FFF7C1FE214660
:1030100005F12E00FFF7BCFE214605F13B00FFF74E
:10302000B7FE214605F13C00FFF7B2FE214605F14F
:103030003000FFF7ADFE214605F12F00FFF7A8FE97
:10304000214605F13F00FFF7A3FE214605F13E00B2
:10305000BDE834409CE60000080B0020740D002001
:1030600038B50446994D214605F11D00FFF790FE45
:10307000214605F11900FFF78BFE214605F11A00E4
:10308000FFF786FE214605F11200FFF781FE21467B
:1030900005F11100FFF77CFE214605F11400FFF752
:1030A00077FE214605F11300FFF772FE214605F178
:1030B0001600FFF76DFE214605F11500FFF768FECB
:1030C000214605F11800FFF763FE214605F11700C0
:1030D000FFF75EFE214605F10900FFF759FE214684
:1030E00005F10A00FFF754FE214605F10B00FFF73A
:1030F0004FFE214605F10C00FFF74AFE214605F17F
:103100000D00FFF745FE214605F10E00FFF740FEDA
:10311000214605F11B00FFF73BFE214605F11C008F
:10312000FFF736FE214605F11000FFF731FE21467C
:1031300005F10F00FFF72CFE214605F11F00FFF7F8
:1031400027FE214605F11E00BDE8344020E638B5D3
:1031500004465E4D2146A81CFFF71AFE214628466C
:10316000FFF716FE2146681CFFF712FE2146A81D38
:10317000FFF70EFE2146E81CFFF70AFE2146281D38
:10318000FFF706FE214605F10800FFF701FE214684
:10319000E81DFFF7FDFD2146681DBDE83440F7E559
:1031A00038B50446494D214605F12200FFF7F0FDF0
:1031B000214605F12000FFF7EBFD214605F1210036
:1031C000FFF7E6FD214605F12600FFF7E1FD214668
:1031D00005F12300FFF7DCFD214605F12400FFF790
:1031E000D7FD214605F12800FFF7D2FD214605F164
:1031F0002700FFF7CDFD214605F12500BDE834404D
:10320000C6E538B50446314D214605F14400FFF7C7
:10321000BFFD214605F14500FFF7BAFD214605F146
:103220004600FFF7B5FD214605F14700FFF7B0FD69
:10323000214605F14800FFF7ABFD214605F14900A5
:10324000FFF7A6FD214605F14A00FFF7A1FD214643
:1032500005F14B00FFF79CFD214605F14C00FFF7FF
:1032600097FD214605F14D00FFF792FD214605F13E
:103270004E00FFF78DFD214605F14F00FFF788FD59
:10328000214605F14300FFF783FD214605F141008A
:10329000FFF77EFD214605F14000BDE8344077E5AB
:1032A000580B002010B502F00BFE00280CD06C4C1F
:1032B000204602F007FE002801D100F0BEFC2046A7
:1032C000BDE81040FFF796BB10BD0000080B0020C2
:1032D00010B5FFF73DFD604C607E012810D1E07E07
:1032E000002811D104F12000FFF779FA082204F137
:1032F00020014FF4007002F0E7FD0120E07610BDE0
:10330000FFF787FA0020E07610BD0000440D002092
:1033100038B5514C00202074012060740220A07444
:103320000320E07404202075052060750620A07538
:1033300000202070012060700220A0700320E07047
:1033400005202071062060710720A0710820E0711F
:10335000092020720A2060720B20A0720C20E072FB
:103360000D2020730E2060730F20A0731020E073D7
:103370003C4800210170012141700221817003212C
:10338000C17004210171052141710621817107215C
:10339000C17108210172092141720A2181720B2138
:1033A000C1720C2101730D2141730E2181730F2114
:1033B000C1731021017411214174122181741321F0
:1033C000C174142101751621417517218175264D8F
:1033D00000202873012068730220A8730320E8737B
:1033E00004202874052068740620A8740720E87457
:1033F000082028750020FFF7B7FD0020FFF7D0FE5A
:103400000020FFF7FEFEFF20FFF72AFEFF20FFF758
:103410009EFE1648FF2181700021C170A1790170C4
:10342000A17D417000210171AA22082104F1200030
:10343000FFF798F8FF2218210D48FFF793F8FF22B5
:103440000A212846FFF78EF80A480B4981600B498C
:10345000416031BD480B0020C80C0020280B002023
:10346000D80D0020440D00205C0D0020580B0020DA
:10347000740D0020F00C0020A5320008D1320008A5
:10348000F8B400232DE04FF0080C05E0DFF8B8C1D8
:103490006045F8D14FF0070C0CFA06FC4CEA070C1B
:1034A00045F824C0694C2668D5432E404F68FF0379
:1034B00000D51643266066682E404F68BF0300D5CE
:1034C00016436660A6682E404F68FF0200D516437B
:1034D000A660E6682E404D68AD0200D51643E66052
:1034E0005B1C0F2B00F29E8001249C400A68224046
:1034F000A242F5D14D68022D01D0122D13D11D46E7
:10350000ED0800EB8506356A9F0007F01C074FF0B9
:103510000F0C0CFA07FC25EA0C05D1F810C00CFAC8
:1035200007F73D43356207685D000326AE40F6436A
:10353000374091F804C00CF0030C0CFA05FC4CEA7F
:10354000070707604F68012F05D0022F03D0112F06
:1035500001D0122F10D187683740D1F80CC00CFA77
:1035600005FC4CEA070787604768A7434C68C4F32B
:1035700000149C4027434760C46834408E6806FAB4
:1035800005F52C43C4604C68E400A9D500240094E0
:103590002F4C256845F480452560246804F4804458
:1035A0000094009C1C46A4082A4D55F824709E00E7
:1035B00006F00C064FF00F0C0CFA06FC27EA0C077D
:1035C000DFF894C0604502D14FF0000C64E7DFF8EB
:1035D0008CC0604502D14FF0010C5DE7DFF880C080
:1035E000604502D14FF0020C56E7DFF878C0604525
:1035F00002D14FF0030C4FE7DFF86CC0604502D1F9
:103600004FF0040C48E7DFF864C0604502D14FF08A
:10361000050C41E7DFF858C060457FF437AF4FF045
:10362000060C39E7F1BC7047006901400846401EAE
:103630008041C043C00F7047002A01D081617047AC
:103640000904816170470000001C0240003C0140F9
:1036500044380240083801400000024000040240A3
:1036600000080240000C024000100240001402401A
:103670000018024080B54C480078002811D0002185
:10368000084602F023FC0021012002F01FFC00216B
:10369000022002F01BFC00210320BDE8044002F0E0
:1036A00015BC0121002002F011FC0021012002F0D4
:1036B0000DFC0021022002F009FC00210320BDE8DE
:1036C000044002F003BC10B5384CA06A401CA06254
:1036D00014283FD30020A062E06A2044007E002826
:1036E00004D00121002002F0F1FB03E00021084694
:1036F00002F0ECFBE06A2044007C002804D00121A9
:10370000084602F0E3FB03E00021012002F0DEFBAB
:10371000E06A2044007A002804D00121022002F04F
:10372000D5FB03E00021022002F0D0FBE06A205C20
:10373000002804D00121032002F0C8FB03E000218F
:10374000032002F0C3FBE06A401CE062082801D3BA
:103750000020E0624FF400611548FFF765FF002884
:1037600007D100206062022084F82000114812492D
:10377000C86110BD0146012905D101210A4A117015
:103780000C490D4AD161022805D100200649087074
:103790000A480949C861704700200949087007486C
:1037A0000549C86170470000F90D002000000020A5
:1037B0000008024075360008F00C0020C7360008EB
:1037C000F80D002010B5984CA078012817D100F012
:1037D0000EF9002801D1002010BD01210B20FEF7B9
:1037E00003FE01210C20FEF7FFFD00210A20FEF759
:1037F000FBFDA078401E8041C043C00F10BD0228D1
:1038000009D100210E20FEF7EFFD00F0F3F80028AB
:10381000EFD1002010BD0328EBD101210E20FEF7CF
:10382000E3FD00F0EAF8002807D000F0D1F803200B
:1038300020700020A070012010BD002010BD10B528
:10384000794CA078012817D100F0D1F8002801D1D7
:10385000002010BD01210A20FEF7C6FD01210C2029
:10386000FEF7C2FD00210B20FEF7BEFDA078401E32
:103870008041C043C00F10BD022809D100210E2095
:10388000FEF7B2FD00F0B6F80028EFD1002010BD21
:103890000328EBD101210E20FEF7A6FD00F0ADF8C4
:1038A000002807D000F094F8032020700020A070BA
:1038B000012010BD002010BD10B55B4CA078012880
:1038C00017D100F094F8002801D1002010BD00218C
:1038D0000A20FEF789FD01210B20FEF785FD00215E
:1038E0000C20FEF781FDA078401E8041C043C00F30
:1038F00010BD022809D100210E20FEF775FD00F051
:1039000079F80028EFD1002010BD0328EBD1012168
:103910000E20FEF769FD00F070F8002805D00320A6
:1039200020700020A070012010BD002010BD10B537
:103930003D4CA078002803D06068401C606001E026
:10394000002060602078032802D100F016F901E021
:1039500000F016F9A078002807D12078032802D0BB
:103960000120A07001E0002060606068C82802D1DA
:103970000221A17004E0B0F5FA7F01D10321A1700A
:10398000062814D32078002803D1FFF71BFF6070AE
:103990000AE0012803D1FFF752FF607004E002281B
:1039A00002D1FFF789FF6070BDE810402FE010BD25
:1039B00000201D490870704702201B49087070479D
:1039C00019480078032801D1012070470020704772
:1039D00080B501210A20FEF707FD01210B20FEF72B
:1039E00003FD01210C20BDE80440FEF7FDBC1E20B4
:1039F000FEF7E4BC2020FEF7E1BC80B51F20FEF7F7
:103A0000DDFC012801D1012002BD002002BD70476C
:103A100080B500210D20FEF7E7FC03200249087065
:103A200002480349486101BDD00D00202F3900082C
:103A3000F00C00200649884202D106480068004781
:103A40007047034801F039BF0348024908607047D6
:103A5000F80B0020E80D00206719000810B50024BD
:103A600004E00C4951F820008047641C2046C0B295
:103A70000828F6DB10BD0020074A064B02E043F899
:103A80002120401C0146C9B20829F8DB034804493B
:103A900008607047F00C0020671900085D3A0008C4
:103AA000E80D002001210148FFF7BEBD00000240E3
:103AB000704730B4002513E050F8042BD30744BFFF
:103AC000A9F101039A18091F042942F8045BFAD2EC
:103AD00013468C0744BF15809B1CC90748BF1D7047
:103AE00050F8041B0029E7D130BC704702464FF460
:103AF00000410448FFF7A0BD00224FF400410148F7
:103B0000FFF79ABD000C024002464FF400510448F2
:103B1000FFF792BD00224FF400510148FFF78CBD22
:103B2000000C024002464FF480510448FFF784BD68
:103B300000224FF480510148FFF77EBD000C024087
:103B400002464FF480410448FFF776BD00224FF44F
:103B500080410148FFF770BD000C02400020FFF7D4
:103B6000C5BF0020FFF7C2BF0020FFF7CDBF002078
:103B7000FFF7CABF0020FFF7D5BF0120FFF7E0BF66
:103B80000020FFF7DDBF0020FFF7DABF10B5184CAB
:103B90006068401C606014281CD300206060FFF740
:103BA00081FF0128A0680AD10A2813D0401CA06018
:103BB0000A280FD301202070A070607010BD00286B
:103BC00008D0401EA06005D1012020700020A07008
:103BD0000120607010BD0648002101800221817023
:103BE0000021416005218160024803490860704757
:103BF000B00D00208D3B0008F00C00200021234870
:103C000001F071B980B50346224A00211F4801F036
:103C1000DBF8401E8041C00F02BD10B51C4C206077
:103C2000226104F140030A462146184801F060F879
:103C3000401E8041C043C00F10BD10B51448002184
:103C400041608160C160017542F260418161002183
:103C5000C1610162416281620D21C1620021016383
:103C6000012141638163094C00F11801204600F0F5
:103C700096FF002801D0012010BD204601F007F872
:103C8000401E8041C043C00F10BD0000780C0020D2
:103C9000B40B0020100D002010B5044604220121B1
:103CA000002002F06BF904E004220121002002F060
:103CB00065F90006F8D444F00404224601210020EE
:103CC000BDE8104002F05AB938B504460D4604224A
:103CD0000121002002F052F904E004220121002019
:103CE00002F04CF90006F8D404F00B04234601223C
:103CF0000021284601B0BDE8304002F06DBA10B591
:103D00003E210220FFF7E0FFC0210220FFF7DCFF89
:103D1000B8210220FFF7D8FF40210220FFF7D4FF8F
:103D20003F210220FFF7D0FF3E210120FFF7CCFF0B
:103D3000C0210120FFF7C8FFB8210120FFF7C4FF11
:103D400040210120FFF7C0FF3F210120FFF7BCFF0A
:103D5000002003460AE0DFF82C4304EBC004635460
:103D6000521C1146C9B20829F5DB401C802801DA33
:103D70001A46F6E710BD2DE9F84F89460246DFF8EE
:103D8000041301EBC2074C462146C91000917B5C2D
:103D9000214601250E46B61001EB5676F610A1EB32
:103DA000C6018D4045EA03018B4240D0402A03DB27
:103DB0004FF00108403801E04FF0020840F04000A9
:103DC000064608F0030A3146C9B25046FFF77CFFA9
:103DD0004FEAD90949F0B80949465046FFF774FF40
:103DE00048F00C0B5846FFF757FF3146C9B2504612
:103DF000FFF76AFF49465046FFF766FF5846FFF750
:103E00004BFF83463146C9B25046FFF75DFF494636
:103E10005046FFF759FF45EA0B05294600983954EB
:103E2000C9B248F008084046BDE8F44F4CE7BDE889
:103E3000F18F2DE9F84F0E460146DFF8482202EBDC
:103E4000C10734462246D2100092BB5C22464FF096
:103E500001081546AD1002EB5575ED10A2EBC50239
:103E600008FA02F842461D4682F0FF021A409542C7
:103E700040D0402903DB4FF00909403801E04FF002
:103E80000A0940F04000054609F0030A2946C9B274
:103E90005046FFF719FFF60846F0B806314650467F
:103EA000FFF712FF49F00C0B5846FFF7F5FE2946C5
:103EB000C9B25046FFF708FF31465046FFF704FFEE
:103EC0005846FFF7E9FE83462946C9B25046FFF738
:103ED000FBFE31465046FFF7F7FE88F0FF080BEA7D
:103EE0000808414649F008094846FFF7EDFE0098EA
:103EF00007F80080BDE8F18F2DE9F0471F46A0F1DB
:103F000020056DB23846032800D19300052804D15E
:103F1000104600EB40035B001B1D3846072801D10B
:103F2000D20013461E46F6B2402E03DB4FF00908BE
:103F3000403B01E04FF00A080C4608F0070943F047
:103F400040031946C9B24846FFF7BEFE44F0B80127
:103F50004846FFF7B9FE384603281CD14FF0000A47
:103F600016E0DFF8240105EB4501084410F80A903B
:103F7000494648F00800FFF7A7FEDFF808010AEB02
:103F8000060100EBC100214600F801900AF1010A88
:103F9000BAF1030FE5DB384605281CD14FF0000AC3
:103FA00016E0DFF8E80005EB8501084410F80A90F8
:103FB000494648F00800FFF787FEDFF8C8000AEB23
:103FC000060100EBC100214600F801900AF1010A48
:103FD000BAF1040FE5DD072F1AD14FF0000914E004
:103FE000DFF8AC00C5EBC501084410F8097039468C
:103FF00048F00800FFF768FE224809EB060100EBD5
:10400000C1002146475409F10109B9F1060FE7DD66
:10401000BDE8F087F8B504460D461646304603283D
:104020000DD1002709E0032338460246D2B22946C3
:10403000C9B2E05DFFF760FF7F1C202FF3DB304645
:1040400005280DD1002709E0052338460246D2B2E3
:104050002946C9B2E05DFFF74FFF7F1C142FF3DB49
:10406000072E0DD1002609E0072330460246D2B2C2
:104070002946C9B2A05DFFF73FFF761C102EF3DB87
:10408000F1BD00009405002030000020F400002065
:10409000DC02002038B52DED048BB0EE408AF0EE46
:1040A000608AB0EE419AF0EE619A044651EC180B2A
:1040B0000022134602F00EFA2AD851EC190B02F036
:1040C00009FA25D8DFF8703402F01CFA20D251EC3E
:1040D000180BDFF8783402F015FA19D202F02AFA38
:1040E000054651EC190B02F025FAE4B2012C014609
:1040F000C9B22846C0B205D1BDEC048BBDE834403E
:10410000FFF739BEBDEC048BBDE83440FFF791BE2C
:10411000BDEC048B31BDF8B52DED0E8BB0EE408AB1
:10412000F0EE608AB0EE419AF0EE619AB0EE42BADB
:10413000F0EE62BAB0EE43CAF0EE63CA044651EC48
:10414000190B53EC1C2B02F013FA41EC1A0B51EC37
:10415000180B53EC1B2B02F00BFA41EC100B53EC39
:10416000102B02F077FA06460F4653EC1A2B51EC4F
:104170001A0B02F06FFA32463B4602F03DFB41EC6F
:10418000100B02F0F7FBB0EE40AAF0EE60AA51EC83
:104190001B0B53EC182B02F0EBF953EC1A2B02F02B
:1041A0006BFC41EC1B0B51EC1C0B53EC192B02F07C
:1041B000DFF953EC1A2B02F05FFC41EC1C0B0025DD
:1041C00027E02046C0B2044651EC1D0B53EC1C2BDB
:1041D00002F040FA53EC192B02F00EFB41EC110BEC
:1041E000B0EE41EAF0EE61EA51EC1D0B53EC1B2BF3
:1041F00002F030FA53EC182B02F0FEFA41EC100BEF
:104200002046B0EE4E1AF0EE6E1AFFF743FF6D1C1B
:10421000EDB2284602F054FD41EC1D0BB0EE4A0A07
:10422000F0EE6A0A02F05AFD51EC100B53EC1D2B14
:1042300002F050F9C5D9BDEC0E8BF1BD2DE9F04768
:104240002DED028B92461E46044604EB0A02521ED6
:10425000812A02DBC0F17F0082460D46A819401E6C
:10426000402802DBC1F13F010E46A0460A9F1CE038
:10427000484602F067FD41EC110BB0EE418AF0EECA
:10428000618A404602F05EFD41EC100B3846B0EE0C
:10429000481AF0EE681AFFF7FDFE09F1010955FA18
:1042A00086F08145E4DB08F1010854FA8AF0804584
:1042B00001DAA946F3E7BDEC028BBDE8F087000008
:1042C00070B504460025032806D8DFE800F0020494
:1042D00002047F2500E04025002646E0C6F13F00AD
:1042E00002F030FD41EC110B0120B0EE413AF0EE4E
:1042F000613A9FED942B9FED960BFFF70CFFC6F1F3
:104300003E0002F01FFD41EC110B0120B0EE413ADE
:10431000F0EE613A9FED8B2B9FED8D0BFFF7FBFECF
:1043200021E0C6F17F0002F00DFD41EC100B0120F1
:104330009FED823BB0EE402AF0EE602A9FED841B99
:10434000FFF7E9FEC6F17E0002F0FCFC41EC100B29
:1043500001209FED7A3BB0EE402AF0EE602A9FEDFF
:104360007C1BFFF7D8FEB61CF6B2AE424BDA2046F5
:104370000328F8D8DFE800F005260403F3E7ADE7EB
:10438000CFE7304602F09CFC41EC100B01209FED82
:104390006B3BB0EE402AF0EE602A9FED6D1BFFF7FD
:1043A000BAFE701C02F0CEFC41EC100B01209FED18
:1043B000633BB0EE402AF0EE602A9FED651BFFF7ED
:1043C000AAFED0E7304602F07BFC41EC110B012045
:1043D000B0EE413AF0EE613A9FED5A2B9FED5C0B47
:1043E000FFF799FE701C02F0ADFC41EC110B0120AF
:1043F000B0EE413AF0EE613A9FED522B9FED540B37
:10440000FFF789FEAFE7002646E0C6F13F0002F065
:1044100099FC41EC110B0020B0EE413AF0EE613A0C
:104420009FED482B9FED4A0BFFF775FEC6F13E004E
:1044300002F088FC41EC110B0020B0EE413AF0EEA6
:10444000613A9FED402B9FED420BFFF764FE21E0A8
:10445000C6F17F0002F076FC41EC100B00209FEDCE
:10446000373BB0EE402AF0EE602A9FED391BFFF794
:1044700052FEC6F17E0002F065FC41EC100B0020FC
:104480009FED2E3BB0EE402AF0EE602A9FED301BF0
:10449000FFF741FEB61CF6B2AE424BDA20460328C7
:1044A000F8D8DFE800F005260403F3E7ADE7CFE72F
:1044B000304602F005FC41EC100B00209FED1F3B45
:1044C000B0EE402AF0EE602A9FED211BFFF723FE9D
:1044D000701C02F037FC41EC100B00209FED173BE5
:1044E000B0EE402AF0EE602A9FED191BFFF713FE95
:1044F000D0E7304602F0E4FB41EC110B0020B0EEB7
:10450000413AF0EE613A9FED0F2B9FED110BFFF753
:1045100002FE701C02F016FC41EC110B0020B0EE04
:10452000413AF0EE613A9FED072B9FED090BFFF743
:10453000F2FDAFE770BD0000000050400000000039
:10454000000050400000000000006040000060409B
:10455000000000000000000080B50B48016841F435
:1045600000710160016841F480610160016841F4FB
:1045700080710160032002F050FC002002F06CFC0E
:1045800002F08EFC002002BD003C024062F30F22CC
:1045900062F31F4200B500BF1300964694461039DF
:1045A00028BFA0E80C50FAD85FEA417C28BF0CC0B5
:1045B00048BF40F8042BC90728BF20F8022B48BF8A
:1045C00000F8012B00BD00002DE9FC41040016D0CD
:1045D000B34D2078C0074CD5A86800F00C00042823
:1045E00007D0A86800F00C0008280AD168684002CB
:1045F00007D5286880033CD56068002839D10120A0
:104600004BE16068B0F5803F04D1286840F4803009
:10461000286012E0B0F5A02F286807D140F4802070
:104620002860286840F48030286006E020F480305C
:104630002860286820F480202860606800280CD05A
:1046400002F012FD06462868800312D402F00CFD29
:10465000801B6528F7D303201FE102F005FD064605
:104660002868800305D502F0FFFC801B6528F7D37E
:10467000F1E72078800718D5A86810F00C0F07D054
:10468000A86800F00C00082824D16868400221D4F2
:104690002868800702D5E0680128B0D1286820F09A
:1046A000F800216940EAC10028602078000747D55A
:1046B0007C496069002835D00120086002F0D4FCF4
:1046C0000646686F80073BD402F0CEFC801B0228B0
:1046D000F7D9C0E77449E068002815D001200860C8
:1046E00002F0C2FC06462868800705D402F0BCFC34
:1046F000801B0228F7D9AEE7286820F0F80021696E
:1047000040EAC1002860D0E70020086002F0ACFC5D
:10471000064628688007C8D502F0A6FC801B022840
:10472000F7D998E70020086002F09EFC0646686F03
:10473000800705D502F098FC801B0228F7D98AE78C
:104740002078400763D50026286CC0000BD4304683
:104750000090286C40F080502864286C00F0805055
:10476000009000980126514F3868C00510D4386871
:1047700040F48070386002F077FC80463868C005ED
:1047800006D402F071FCA0EB08000228F6D962E71B
:10479000A068012804D1286F40F00100286711E0CB
:1047A0000528286F07D140F004002867286F40F0E3
:1047B0000100286706E0400840002867286F20F0C5
:1047C00004002867A06800280DD002F04DFC0746C1
:1047D000286F800715D402F047FCC01B41F28931D5
:1047E0008842F5D337E702F03FFC0746286F800781
:1047F00007D502F039FCC01B41F289318842F5D35C
:1048000029E7012E03D1286C20F080502864A0698C
:10481000002841D0A96801F00C0108293FF4EFAE4F
:10482000214E02282AD10020306602F01DFC0746E6
:104830002868800105D502F017FCC01B0228F7D9B3
:1048400009E7E069216A0843616A40EA8110A16AC8
:104850004908491E40EA0140E16A40EA0160686097
:104860000120306602F000FC04462868800113D461
:1048700002F0FAFB001B0228F7D9ECE600203066B4
:1048800002F0F2FB04462868800105D502F0ECFB3B
:10489000001B0228F7D9DEE60020BDE8F68100BF44
:1048A00000380240800E474200004742007000403E
:1048B0002DE9F04104460F46002C5BD04C4E306889
:1048C00000F00F00B84205D23770306800F00F00DA
:1048D000B8424FD12068474D810712D5400703D514
:1048E000A86840F4E050A8602078000703D5A868C5
:1048F00040F46040A860A96821F0F001A06801437D
:10490000A9602078C0072AD56068012803D12968EA
:1049100089030BD42EE0022801D0032803D1296893
:10492000890103D426E02968890723D5A968890865
:1049300050EA8100A86002F097FB8046A86800F06A
:104940000C006168B0EB810F09D002F08DFBA0EB89
:10495000080041F289318842F0D303202DE030680D
:1049600000F00F00874207D23770306800F00F0068
:10497000B84201D0012020E02078400705D5A96881
:1049800021F4E051E0680143A9602078000706D5D2
:10499000A86820F46040216940EAC100A86000F0E6
:1049A00033F81549AA68C2F30312895CC840134959
:1049B0000860002002F050FA0020BDE8F0810F48A6
:1049C0000068704780B5FFF7FAFF0E490C4A12687D
:1049D000C2F38222895CC84002BD80B5FFF7EFFFB9
:1049E0000849074A1268C2F34232895CC84002BDD6
:1049F000003C024000380240A875000890050020E5
:104A000008380240087A000810B5154C606800F0BC
:104A10000C00042802D0082802D01EE0114810BD66
:104A2000226802F03F020023206840022068C0F3A1
:104A3000881005D50B49A1FB000102F01BFB04E027
:104A40000949A1FB000102F015FB2168C1F30141F6
:104A5000491C4900B0FBF1F010BD034810BD00BF78
:104A60000438024000127A000024F40038B5040033
:104A700001D1012032BD94F82000002802D1204647
:104A800002F02AFA2068016821F00201016002F0B8
:104A9000EBFA05462068416889070DD502F0E4FA73
:104AA000401B0B28F6D3606A40F40030606205209A
:104AB00084F82000012032BD016841F0010101604D
:104AC00002F0D2FA054620684168C9070DD402F009
:104AD000CBFA401B0B28F6D3606A40F400306062CA
:104AE000052084F82000012032BD217E01290168C3
:104AF00003D141F08001016002E021F080010160FA
:104B00002068617E0129016803D141F04001016004
:104B100002E021F0400101602068A17E01290168C6
:104B200003D141F02001016002E021F02001016089
:104B30002068E17E0129016803D121F010010160A4
:104B400002E041F0100101602068217F0129016825
:104B500003D141F00801016002E021F00801016089
:104B60002068617F0129016803D141F004010160DF
:104B700002E021F004010160A168E06801432069BE
:104B80000143606901436068401E01432068C161C0
:104B900000206062012084F82000002032BDF0B4C3
:104BA00090F82020012A01D0022A69D14E4A1068CB
:104BB00040F001001060106820F47C501060106814
:104BC0004B6A40EA0320106001200B7D03F01F03B5
:104BD00000FA03F3DC43D0692040D061C8690028A3
:104BE00016D1D0682040D060404800F510754E695D
:104BF000CF68D1F804C0CCEA074745F8367000F515
:104C000011704D698E680F68C7EA064640F8356036
:104C1000C869012816D1D0681843D060334800F520
:104C200010754E690F68D1F804C0CCEA074745F803
:104C3000367000F511704D698E68CF68C7EA064678
:104C400040F8356088690028506802D120405060E3
:104C500001E01843506008690028506902D10440FF
:104C6000546101E018435061086A012802D1D069FB
:104C70000343D3611068400840001060002004E046
:104C8000416A41F4802141620120F0BC704738B58F
:104C9000044694F8200001281FD1022084F8200047
:104CA0002068016849084900016002F0DDF9054605
:104CB00020684068C0070DD502F0D6F9401B0B28CC
:104CC000F6D3606A40F400306062052084F820006A
:104CD000012032BD0020606232BD606A40F40020D5
:104CE0006062012032BD00000066004000640040A8
:104CF000F0B490F820400568AD68012C01D0022C7A
:104D00005BD115F0E05F52D0C5F30164032C05D3ED
:104D1000416A41F400014162012053E00125A540B0
:104D20001D60036803F5C0752401CE688B68002BF5
:104D300004D10B6846EA43562E5104E04F6843EA1B
:104D4000C7031E432E510B69056805F5C2752B512B
:104D5000097D012906D1016801F5C2710B5943F49F
:104D600080730B51D17993791B0443EA0163517924
:104D700043EA012311790B4301682144C1F88C31C6
:104D8000D17893781B0443EA0163517843EA012305
:104D900011780B4301682144C1F88831006800F59F
:104DA000C070015941F00101015100200AE0416A3F
:104DB00041F400114162012004E0416A41F4802184
:104DC00041620120F0BC704770B490F82040012C83
:104DD00002D0022C40F080800468002909D1E568E7
:104DE00015F0030F0FD1416A41F400114162012017
:104DF00077E0256915F0030F05D1416A41F40011F0
:104E0000416201206DE00D0104F5D874645904F08D
:104E100004049460066806F5D876002C745902D113
:104E2000640D146001E0E4085460046804F5D8746B
:104E30006459C4F34004D46004682C44D4F8B441E9
:104E400004F00F04146104682C44D4F8B441C4F392
:104E50000724946104682C44D4F8B441240C5461B0
:104E600002682A44D2F8B8211A7002682A44D2F89B
:104E7000B821120A5A7002682A44D2F8B821120CDA
:104E80009A7002682A44D2F8B821120EDA700268C9
:104E90002A44D2F8BC211A7102682A44D2F8BC21F3
:104EA000120A5A7102682A44D2F8BC21120C9A7173
:104EB00002682A44D2F8BC21120EDA710068002977
:104EC00004D1C16841F02001C16003E0016941F0F3
:104ED00020010161002004E0416A41F48021416227
:104EE000012070BC70470246002092F82030012B50
:104EF00001D0022B09D11068002903D1C06800F04D
:104F000003007047006900F003007047F8B5040023
:104F100025D004F13C056878002804D100202870D1
:104F2000204602F00CF824206870206801684908C7
:104F300049000160FFF746FD0146DFF80025606883
:104F4000904205D2DFF8F80481428041C00F04E0AE
:104F5000DFF8F00481428041C00F012801D1012017
:104F6000F2BDDFF8E404B1FBF0F320684668B6094F
:104F700053EA861646602668376A6068904201D216
:104F80005B1C07E04FF4967043434FF47A70B3FB19
:104F9000F0F35B1CBF0953EA871333622368DE69B1
:104FA0006768491E974209D27F00B1FBF7F1491C9F
:104FB000C1F30B0104292ED204212CE0A0680028A3
:104FC00007D107EB4702B1FBF2F2521CC2F30B020E
:104FD00008E019227A43B1FBF2F2521CC2F30B0231
:104FE00042F48042120501D1012114E0002807D1CA
:104FF00007EB4707B1FBF7F1491CC1F30B0108E0D0
:1050000019204743B1FBF7F1491CC1F30B0141F4EF
:10501000804141F40041DFF8340406400E43DE6174
:1050200021680A6822F0C002E0690243206A024354
:105030000A6021688A68DFF8180402402069024388
:10504000E06802438A602168CA68120AA36960693D
:10505000034353EA0222CA602068016841F001015B
:105060000160002068602020687000202063A87024
:10507000F2BD2DE9FC470646884691469A4601F066
:10508000F3FF044606F13C077878202840F08C8036
:10509000009419230122DFF8BC13304600F0B8FA5F
:1050A000002840F08180387801287DD001203870B8
:1050B00030680168C90703D4016841F0010101604B
:1050C0000A9D3068016821F4006101602120787038
:1050D0001020B87000207860C6F82490A6F82AA0A6
:1050E000708D3085DFF87003F06223462A46414612
:1050F000304600F0B5F9002840D10020009030681B
:1051000041690091806900900098308D002840D05E
:1051100022462946304600F014FB002830D1706A40
:10512000007831680861706A401C7062708D401EA2
:105130007085308D401E308531684A6952070ED522
:1051400080B200280BD0706A00780861706A401C39
:105150007062708D401E7085308D401E30852246F5
:105160002946304600F018FB0028CED07868042885
:1051700004D13068016841F400710160012014E03D
:1051800078680428FAD13068016841F40071016040
:10519000F4E73068016841F4007101602020787004
:1051A0000020B870387000E00220BDE8F6872DE9D5
:1051B000FC470646884691469A4601F055FF04464C
:1051C00006F13C077878202840F0358100941923B7
:1051D0000122DFF88012304600F01AFA002840F071
:1051E0002A813878012800F0268101203870306843
:1051F0000168C90703D4016841F0010101600A9DFB
:105200003068016821F4006101602220787010206C
:10521000B87000207860C6F82490A6F82AA0708D97
:105220003085DFF83402F06223462A464146304694
:1052300000F067F9002840F0D780308D31680028F1
:105240000BD1002000904869009088690090009878
:10525000086840F40070086047E0012810D1086831
:1052600020F480600860002000903068416900915F
:10527000816900910099016841F40071016034E096
:105280000228086810D120F4806008603068016846
:1052900041F4006101600020009030684169009194
:1052A00080690090009820E040F480600860002051
:1052B000009030684169009180690090009814E086
:1052C00022462946304600F092FA002840F08C80B1
:1052D00030680069716A0870706A401C7062308DB5
:1052E000401E3085708D401E7085308D002800F086
:1052F0009C800146042970D20128E1D0DFF85C814E
:10530000022800942B4626D100224146304600F068
:105310007FF9002868D13068016841F400710160AC
:1053200030680069716A0870706A401C7062308D64
:10533000401E3085708D401E708530680069716A2E
:105340000870706A401C7062308D401E3085708D10
:10535000401E7085C9E700224146304600F058F9EA
:10536000002841D13068016821F480610160306813
:105370000069716A0870706A401C7062308D401E4E
:105380003085708D401E708500942B46002241466A
:10539000304600F03DF9002826D13068016841F41C
:1053A0000071016030680069716A0870706A401CA1
:1053B0007062308D401E3085708D401E7085306863
:1053C0000069716A0870706A401C7062308D401EFE
:1053D0003085708D401E708587E72246294630460D
:1053E00000F005FA002801D0012025E030680069AE
:1053F000716A0870706A401C7062308D401E308582
:10540000708D401E70853068416949077FF56DAF2A
:105410000069716A0870706A401C7062308D401EAD
:105420003085708D401E70855FE7202078700020E9
:10543000B870387000E00220BDE8F687A186010050
:1054400080841E0000093D0040420F000030FFFF35
:10545000007CFFFF020010000000FFFF04000100BD
:10546000F8B504460D4616461F46E06A082804D0E3
:10547000012802D06349884205D12068016841F4BF
:105480008071016007E0206B122804D12068016858
:1054900041F4807101600097334600224FF0011102
:1054A000204600F0B5F8002801D00120F2BD2068A8
:1054B0002169B1F5804F03D105F0FE05056114E0C7
:1054C0002946C90901F0060141F0F00101613B469E
:1054D0003246DFF83411204600F0DCF8002801D015
:1054E0000120F2BDEDB2206805613B463246DFF88F
:1054F0001C11204600F0CEF8401E8041C043C00F72
:10550000F2BD2DE9FC4104460F4615461E46E06AF1
:1055100021680A6842F480620A60082804D00128E1
:1055200002D03849884205D12068016841F4807171
:10553000016007E0206B112804D12068016841F464
:105540008071016000962B4600224FF00111204629
:1055500000F05EF8002801D0012051E020682169A8
:10556000B1F5804F04D147F00107FFB207613DE07C
:10557000B8464FEAD81808F0060848F0F001016173
:1055800033462A46DFF88010204600F083F80028D2
:1055900001D0012034E0FFB22068076133462A467B
:1055A000DFF86810204600F075F8002801D00120CF
:1055B00026E00020009020684169009181690091F7
:1055C0000099016841F48071016000962B46002229
:1055D0004FF00111204600F01BF8002801D00120F7
:1055E0000EE048F0F1082068C0F8108033462A46E3
:1055F0000649204600F04EF8401E8041C043C00FCF
:10560000BDE8F6810000FFFF080001000200010074
:105610002DE9F04105460E4617461C46DDF8188078
:1056200028683146090CC9B2012909D140693040C6
:1056300080B2B1B2884201D101200AE0002008E026
:105640008069304080B2B1B2884201D1012000E0CF
:105650000020394688421AD114F1010FE0D001F040
:1056600003FDA0EB0800844201D3002CD8D1002018
:10567000286305F13C0020214170002181704168C0
:1056800041F02001416000210170012000E0002074
:10569000BDE8F081F8B505460E4614461F46286859
:1056A0003146090CC9B2012909D14169314089B299
:1056B000B2B2914201D101210AE0002108E08169E2
:1056C000314089B2B2B2914201D1012100E0002102
:1056D000002934D14169490517D5016841F40071A9
:1056E00001606FF48060296848610020286305F13B
:1056F0003C002021417000218170416841F004018B
:105700004160002101700120F2BD14F1010FC6D0EB
:1057100001F0AAFCC01B844201D3002CBFD10020A1
:10572000286305F13C00202141700021817041680F
:1057300041F020014160002101700120F2BD0020F4
:10574000F2BD70B505460C4616462868406900064D
:1057500020D4284600F080F8002801D0012070BD38
:1057600014F1010FF1D001F07FFC801B844201D3C2
:10577000002CEAD10020286305F13C002021417073
:1057800000218170416841F02001416000210170D9
:10579000012070BD002070BD70B505460C46164650
:1057A00028684069400720D4284600F055F80028B2
:1057B00001D0012070BD14F1010FF1D001F054FCB3
:1057C000801B844201D3002CEAD10020286305F11C
:1057D0003C002021417000218170416841F020018E
:1057E000416000210170012070BD002070BD70B5C6
:1057F00005460C4616462868416949062AD441697F
:10580000C90616D401F030FC801B844201D3002C61
:10581000F1D10020286305F13C00202141700021D6
:105820008170416841F02001416000210170012038
:1058300070BD6FF0100141610020286305F13C004C
:105840002021417000218170416841600021017078
:10585000012070BD002070BD01684A69520511D554
:105860006FF480624A61002101633C302021417065
:1058700000218170416841F0040141600021017004
:10588000012070470020704738B5040001D1012085
:1058900032BD04F13C056878002804D1002028704E
:1058A000204601F080FB02206870211D206800F076
:1058B000BEF801206870002032BD0168CA6842F05D
:1058C0000102CA600068816801F00701062903D05F
:1058D000016841F0010101600020704710B50446E5
:1058E00020680169890717D5C168890714D56FF049
:1058F00002010161012020772068806910F0030F08
:10590000204602D001F0CEFC04E001F0CCFC2046A1
:1059100001F0CAFC0020207720680169490717D5EB
:10592000C168490714D56FF0040101610220207796
:105930002068806910F4407F204602D001F0B2FC5C
:1059400004E001F0B0FC204601F0AEFC002020771E
:1059500020680169090717D5C168090714D56FF0D8
:1059600008010161042020772068C06910F0030F4E
:10597000204602D001F096FC04E001F094FC2046A1
:1059800001F092FC0020207720680169C90617D534
:10599000C168C90614D56FF0100101610820207795
:1059A0002068C06910F4407F204602D001F07AFCE4
:1059B00004E001F078FC204601F076FC002020771E
:1059C00020680169C90708D5C168C90705D56FF006
:1059D000010101612046FEF72DF8206801690906E2
:1059E00008D5C168090605D56FF080010161204620
:1059F00001F05BFC20680169490608D5C1684906C9
:105A000005D56FF040010161204601F04FFC206890
:105A1000016989060AD5C168890607D56FF020019A
:105A200001612046BDE8104001F041BC10BD10B43A
:105A30000468DFF8AC30984212D0B0F1804F0FD03C
:105A4000DFF8A02090420BD0DFF89C20904207D0D6
:105A5000DFF89820904203D0DFF89420904203D1E1
:105A600024F070044A681443984220D0B0F1804F6B
:105A70001DD01C4A90421AD01B4A904217D01B4A94
:105A8000904214D01A4A904211D01A4A90420ED035
:105A9000194A90420BD0194A904208D0184A9042B5
:105AA00005D0184A904202D0174A904203D124F4FC
:105AB0004074CA68144324F080044A6914430460A3
:105AC0008A68C2620A688262984202D0084A90429A
:105AD00001D1096901630121416110BC70470000D7
