:020000040800F2
:10000000601D0020ED770008317800083578000881
:10001000397800083D7800084178000800000000A9
:10002000000000000000000000000000457800080B
:1000300049780008000000004D7800080D7800089D
:100040005178000855780008597800085D78000854
:100050006178000865780008697800086D78000804
:100060007178000875780008797800087D780008B4
:100070008178000885780008897800088D78000864
:100080009178000895780008997800089D78000814
:10009000A1780008A5780008A9780008AD780008C4
:1000A000B1780008B5780008B9780008BD78000874
:1000B000C1780008C5780008C9780008CD78000824
:1000C000D1780008D5780008D9780008DD780008D4
:1000D000E1780008E5780008E9780008ED78000884
:1000E000F1780008F5780008F9780008FD78000834
:1000F0000179000805790008097900080D790008E0
:100100001179000815790008197900081D7900088F
:10011000217900082579000811780008297900085C
:100120002D790008317900083579000839790008FF
:100130003D790008417900084579000849790008AF
:100140004D7900085179000855790008597900085F
:100150005D7900086179000865790008697900080F
:100160006D790008717900087579000879790008BF
:100170007D79000881790008857900080000000079
:10018000897900088D7900082DE9F0412DED048B67
:1001900016461C4602F00102A24202D14FF00108AD
:1001A00001E04FF0000805462F46084601F0B2FA7C
:1001B00041EC190BB0EE491AF0EE691AB0EE418A23
:1001C000F0EE618AF81C01F0B3FA41EC100B4046E6
:1001D000B0EE481AF0EE681A01F0BCFAC6F340001F
:1001E000A04201D1012000E000208046B81C01F0AF
:1001F0009FFA41EC100B4046B0EE481AF0EE681A38
:1002000001F0A8FAC6F38000A04201D1012000E06D
:10021000002080467F1C384601F08AFA41EC100B22
:100220004046B0EE481AF0EE681A01F093FAC6F3B1
:10023000C000A04201D1012000E000200446284671
:1002400001F068FA41EC100B2046B0EE481AF0EECF
:10025000681ABDEC048BBDE8F04101F07BBA0000E8
:1002600070B504460D461E46203A952A01F23482A6
:10027000DFE812F09600B700D800F9001A013B0140
:100280005C017D019E01BF01E001010222024302E7
:1002900064028502A602C702E80209032A034B038F
:1002A0006C038E03B003D203F403160438045A041B
:1002B0007C049E04C004E2040405260548056A0582
:1002C0008C05AE05D005F2051406360658067A06EA
:1002D0009C06BE06E00602072407460768078A0751
:1002E000AC07CE07F00712083408560878089A08B9
:1002F000BC08DE080009E2040405260548056A0575
:100300008C05AE05D005F2051406360658067A06A9
:100310009C06BE06E00602072407460768078A0710
:10032000AC07CE07F0071208340822094409660911
:100330006609320A320A320A320A320A320A320AAA
:10034000320A320A320A320A320A320A320A320ACD
:10035000320A320A320A320A320A320A320A320ABD
:10036000320A320A320A320A320A320A320A320AAD
:10037000320A320A320A320A320A320A320A320A9D
:10038000CC09320A320A320A320A320A8809320A9F
:10039000320A320AEE09100A320A320A320AAA096D
:1003A0000022FFF7F1FE33460022691CC9B2204645
:1003B000FFF7EAFE33460022A91CC9B22046FFF728
:1003C000E3FE33460022E91CC9B22046FFF7DCFEFB
:1003D000334600222D1D2946C9B22046BDE8704093
:1003E000D2E60422FFF7D0FE33460422691CC9B2CC
:1003F0002046FFF7C9FE33460422A91CC9B2204695
:10040000FFF7C2FE33460022E91CC9B22046FFF7BF
:10041000BBFE334604222D1D2946C9B22046BDE845
:100420007040B1E60A22FFF7AFFE33460A22691C8C
:10043000C9B22046FFF7A8FE33460022A91CC9B264
:100440002046FFF7A1FE33460022E91CC9B2204630
:10045000FFF79AFE334600222D1D2946C9B22046D9
:10046000BDE8704090E60522FFF78EFE33460F226E
:10047000691CC9B22046FFF787FE33460622A91C35
:10048000C9B22046FFF780FE33460F22E91CC9B2ED
:100490002046FFF779FE33460A222D1D2946C9B2B0
:1004A0002046BDE870406FE60622FFF76DFE33463A
:1004B0000C22691CC9B22046FFF766FE33460622AD
:1004C000A91CC9B22046FFF75FFE33460C22E91C87
:1004D000C9B22046FFF758FE334604222D1D294697
:1004E000C9B22046BDE870404EE60022FFF74CFE40
:1004F00033460D22691CC9B22046FFF745FE33463C
:100500000A22A91CC9B22046FFF73EFE3346052247
:10051000E91CC9B22046FFF737FE33460B222D1DDA
:100520002946C9B22046BDE870402DE60422FFF7F7
:100530002BFE33460A22691CC9B22046FFF724FE6F
:1005400033460422A91CC9B22046FFF71DFE3346DC
:100550000A22E91CC9B22046FFF716FE33460522DF
:100560002D1D2946C9B22046BDE870400CE6062282
:10057000FFF70AFE33460622691CC9B22046FFF780
:1005800003FE33460622A91CC9B22046FFF7FCFD34
:1005900033460022E91CC9B22046FFF7F5FD334679
:1005A00000222D1D2946C9B22046BDE87040EBE56A
:1005B0000222FFF7E9FD33460422691CC9B2204636
:1005C000FFF7E2FD33460422A91CC9B22046FFF71B
:1005D000DBFD33460422E91CC9B22046FFF7D4FDF7
:1005E000334602222D1D2946C9B22046BDE870407F
:1005F000CAE50422FFF7C8FD33460222691CC9B2CE
:100600002046FFF7C1FD33460222A91CC9B220468D
:10061000FFF7BAFD33460222E91CC9B22046FFF7B4
:10062000B3FD334604222D1D2946C9B22046BDE83C
:100630007040A9E50A22FFF7A7FD33460422691C92
:10064000C9B22046FFF7A0FD33460A22A91CC9B251
:100650002046FFF799FD33460022E91CC9B2204627
:10066000FFF792FD334600222D1D2946C9B22046D0
:10067000BDE8704088E50022FFF786FD334604227E
:10068000691CC9B22046FFF77FFD33460E22A91C24
:10069000C9B22046FFF778FD33460422E91CC9B2EF
:1006A0002046FFF771FD334600222D1D2946C9B2B1
:1006B0002046BDE8704067E50022FFF765FD334640
:1006C0000022691CC9B22046FFF75EFD33460022B6
:1006D000A91CC9B22046FFF757FD33460222E91C88
:1006E000C9B22046FFF750FD334604222D1D29468E
:1006F000C9B22046BDE8704046E50022FFF744FD40
:1007000033460022691CC9B22046FFF73DFD33463F
:100710000E22A91CC9B22046FFF736FD334600223F
:10072000E91CC9B22046FFF72FFD334600222D1DDC
:100730002946C9B22046BDE8704025E50022FFF7F2
:1007400023FD33460022691CC9B22046FFF71CFD79
:1007500033460022A91CC9B22046FFF715FD3346D7
:100760000022E91CC9B22046FFF70EFD33460422E1
:100770002D1D2946C9B22046BDE8704004E501227E
:10078000FFF702FD33460222691CC9B22046FFF77B
:10079000FBFC33460622A91CC9B22046FFF7F4FC35
:1007A00033460422E91CC9B22046FFF7EDFC33466C
:1007B00008222D1D2946C9B22046BDE87040E3E459
:1007C0000622FFF7E1FC33460B22691CC9B2204622
:1007D000FFF7DAFC33460F22A91CC9B22046FFF707
:1007E000D3FC33460D22E91CC9B22046FFF7CCFCEE
:1007F000334606222D1D2946C9B22046BDE8704069
:10080000C2E40422FFF7C0FC33460C22691CC9B2C3
:100810002046FFF7B9FC33460422A91CC9B2204682
:10082000FFF7B2FC33460422E91CC9B22046FFF7A9
:10083000ABFC33460E222D1D2946C9B22046BDE829
:100840007040A1E40E22FFF79FFC33460122691C91
:10085000C9B22046FFF798FC33460F22A91CC9B243
:100860002046FFF791FC33460822E91CC9B2204616
:10087000FFF78AFC33460F222D1D2946C9B22046B8
:10088000BDE8704080E40E22FFF77EFC3346012273
:10089000691CC9B22046FFF777FC33460F22A91C1A
:1008A000C9B22046FFF770FC33460122E91CC9B2E9
:1008B0002046FFF769FC33460E222D1D2946C9B29A
:1008C0002046BDE870405FE40922FFF75DFC334637
:1008D0000922691CC9B22046FFF756FC334607229D
:1008E000A91CC9B22046FFF74FFC33460122E91C80
:1008F000C9B22046FFF748FC334601222D1D294688
:10090000C9B22046BDE870403EE40F22FFF73CFC30
:1009100033460822691CC9B22046FFF735FC33462E
:100920000F22A91CC9B22046FFF72EFC3346012234
:10093000E91CC9B22046FFF727FC33460E222D1DC5
:100940002946C9B22046BDE870401DE40722FFF7E2
:100950001BFC33460822691CC9B22046FFF714FC71
:1009600033460F22A91CC9B22046FFF70DFC3346BF
:100970000922E91CC9B22046FFF706FC33460E22C5
:100980002D1D2946C9B22046BDE87040FFF7FCBBCB
:100990000E22FFF7F9FB33460122691CC9B220463B
:1009A000FFF7F2FB33460122A91CC9B22046FFF72C
:1009B000EBFB33460122E91CC9B22046FFF7E4FBFA
:1009C000334601222D1D2946C9B22046BDE870409C
:1009D000FFF7DABB0F22FFF7D7FB33460922691C6A
:1009E000C9B22046FFF7D0FB33460622A91CC9B284
:1009F0002046FFF7C9FB33460922E91CC9B220464D
:100A0000FFF7C2FB33460F222D1D2946C9B22046EF
:100A1000BDE87040FFF7B8BB0F22FFF7B5FB3346C8
:100A20000822691CC9B22046FFF7AEFB33460F22ED
:100A3000A91CC9B22046FFF7A7FB33460122E91CD7
:100A4000C9B22046FFF7A0FB334601222D1D2946DF
:100A5000C9B22046BDE87040FFF796BB0022FFF701
:100A600093FB33460422691CC9B22046FFF78CFB76
:100A700033460022A91CC9B22046FFF785FB334646
:100A80000422E91CC9B22046FFF77EFB3346002250
:100A90002D1D2946C9B22046BDE87040FFF774BB42
:100AA0000022FFF771FB33460422691CC9B22046BD
:100AB000FFF76AFB33460022A91CC9B22046FFF7A4
:100AC00063FB33460422E91CC9B22046FFF75CFBF6
:100AD000334608222D1D2946C9B22046BDE8704084
:100AE000FFF752BB0322FFF74FFB33460422691C7A
:100AF000C9B22046FFF748FB33460822A91CC9B2F9
:100B00002046FFF741FB33460422E91CC9B22046C8
:100B1000FFF73AFB334603222D1D2946C9B2204672
:100B2000BDE87040FFF730BB0022FFF72DFB3346D6
:100B30000F22691CC9B22046FFF726FB334600226C
:100B4000A91CC9B22046FFF71FFB33460F22E91C40
:100B5000C9B22046FFF718FB334600222D1D294657
:100B6000C9B22046BDE87040FFF70EBB0C22FFF76C
:100B70000BFB33460222691CC9B22046FFF704FB77
:100B800033460122A91CC9B22046FFF7FDFA3346BD
:100B90000222E91CC9B22046FFF7F6FA33460C22BE
:100BA0002D1D2946C9B22046BDE87040FFF7ECBABA
:100BB0000F22FFF7E9FA33460122691CC9B2204629
:100BC000FFF7E2FA33460622A91CC9B22046FFF716
:100BD000DBFA33460022E91CC9B22046FFF7D4FAFB
:100BE000334604222D1D2946C9B22046BDE8704077
:100BF000FFF7CABA0622FFF7C7FA33460922691C73
:100C0000C9B22046FFF7C0FA33460D22A91CC9B26B
:100C10002046FFF7B9FA33460F22E91CC9B2204635
:100C2000FFF7B2FA334606222D1D2946C9B22046E7
:100C3000BDE87040FFF7A8BA0F22FFF7A5FA3346C8
:100C40000022691CC9B22046FFF79EFA33460F22E4
:100C5000A91CC9B22046FFF797FA33460922E91CBE
:100C6000C9B22046FFF790FA334609222D1D2946C6
:100C7000C9B22046BDE87040FFF786BA0F22FFF7E1
:100C800083FA33460122691CC9B22046FFF77CFA79
:100C900033460A22A91CC9B22046FFF775FA33462B
:100CA0000122E91CC9B22046FFF76EFA33460F2233
:100CB0002D1D2946C9B22046BDE87040FFF764BA31
:100CC0000722FFF761FA33460822691CC9B22046A1
:100CD000FFF75AFA33460822A91CC9B22046FFF78B
:100CE00053FA33460822E91CC9B22046FFF74CFAF2
:100CF00033460F222D1D2946C9B22046BDE870405B
:100D0000FFF742BA0E22FFF73FFA33460122691C71
:100D1000C9B22046FFF738FA33460922A91CC9B2E6
:100D20002046FFF731FA33460122E91CC9B22046BA
:100D3000FFF72AFA33460E222D1D2946C9B2204656
:100D4000BDE87040FFF720BA0F22FFF71DFA3346C7
:100D50000022691CC9B22046FFF716FA33460E225C
:100D6000A91CC9B22046FFF70FFA33460022E91C3E
:100D7000C9B22046FFF708FA33460F222D1D294637
:100D8000C9B22046BDE87040FFF7FEB90F22FFF759
:100D9000FBF933460022691CC9B22046FFF7F4F97B
:100DA00033460E22A91CC9B22046FFF7EDF933469F
:100DB0000822E91CC9B22046FFF7E6F933460822AB
:100DC0002D1D2946C9B22046BDE87040FFF7DCB9A9
:100DD0000722FFF7D9F933460822691CC9B2204619
:100DE000FFF7D2F933460B22A91CC9B22046FFF700
:100DF000CBF933460922E91CC9B22046FFF7C4F9F2
:100E000033460E222D1D2946C9B22046BDE870404A
:100E1000FFF7BAB90922FFF7B7F933460922691C6F
:100E2000C9B22046FFF7B0F933460F22A91CC9B258
:100E30002046FFF7A9F933460922E91CC9B220462A
:100E4000FFF7A2F9334609222D1D2946C9B22046D3
:100E5000BDE87040FFF798B90F22FFF795F93346C8
:100E60000622691CC9B22046FFF78EF933460622D6
:100E7000A91CC9B22046FFF787F933460622E91CB0
:100E8000C9B22046FFF780F933460F222D1D2946AF
:100E9000C9B22046BDE87040FFF776B90F22FFF7D0
:100EA00073F933460222691CC9B22046FFF76CF978
:100EB00033460222A91CC9B22046FFF765F9334622
:100EC0000A22E91CC9B22046FFF75EF93346062222
:100ED0002D1D2946C9B22046BDE87040FFF754B920
:100EE0000922FFF751F933460222691CC9B2204694
:100EF000FFF74AF933460C22A91CC9B22046FFF776
:100F000043F933460222E91CC9B22046FFF73CF9F7
:100F1000334609222D1D2946C9B22046BDE870403E
:100F2000FFF732B90822FFF72FF933460822691C70
:100F3000C9B22046FFF728F933460822A91CC9B2D6
:100F40002046FFF721F933460822E91CC9B22046A2
:100F5000FFF71AF933460F222D1D2946C9B2204644
:100F6000BDE87040FFF710B90922FFF70DF93346CD
:100F70000F22691CC9B22046FFF706F93346092241
:100F8000A91CC9B22046FFF7FFF833460922E91C25
:100F9000C9B22046FFF7F8F8334609222D1D29462D
:100FA000C9B22046BDE87040FFF7EEB80922FFF74E
:100FB000EBF833460D22691CC9B22046FFF7E4F86E
:100FC00033460B22A91CC9B22046FFF7DDF8334691
:100FD0000922E91CC9B22046FFF7D6F83346092298
:100FE0002D1D2946C9B22046BDE87040FFF7CCB898
:100FF0000622FFF7C9F833460922691CC9B2204608
:10100000FFF7C2F833460922A91CC9B22046FFF7F0
:10101000BBF833460922E91CC9B22046FFF7B4F8F1
:10102000334606222D1D2946C9B22046BDE8704030
:10103000FFF7AAB80F22FFF7A7F833460122691C71
:10104000C9B22046FFF7A0F833460F22A91CC9B247
:101050002046FFF799F833460822E91CC9B220461A
:10106000FFF792F8334608222D1D2946C9B22046C3
:10107000BDE87040FFF788B80E22FFF785F83346C9
:101080000922691CC9B22046FFF77EF833460922BF
:10109000A91CC9B22046FFF777F833460B22E91C9A
:1010A000C9B22046FFF770F8334607222D1D2946A6
:1010B000C9B22046BDE87040FFF766B80F22FFF7BF
:1010C00063F833460122691CC9B22046FFF75CF879
:1010D00033460A22A91CC9B22046FFF755F8334609
:1010E0000122E91CC9B22046FFF74EF83346092217
:1010F0002D1D2946C9B22046BDE87040FFF744B80F
:101100000722FFF741F833460822691CC9B220467E
:10111000FFF73AF833460F22A91CC9B22046FFF761
:1011200033F833460122E91CC9B22046FFF72CF8F8
:1011300033460E222D1D2946C9B22046BDE8704017
:10114000FFF722B80F22FFF71FF833460622691C6B
:10115000C9B22046FFF718F833460622A91CC9B2C7
:101160002046FFF711F833460622E91CC9B2204693
:10117000FFF70AF8334606222D1D2946C9B220463C
:10118000BDE87040FFF700B80922FEF7FDFF3346C7
:101190000922691CC9B22046FEF7F6FF3346092230
:1011A000A91CC9B22046FEF7EFFF33460922E91C0D
:1011B000C9B22046FEF7E8FF33460F222D1D29460F
:1011C000C9B22046BDE87040FEF7DEBF0922FEF737
:1011D000DBFF33460922691CC9B22046FEF7D4FF63
:1011E00033460922A91CC9B22046FEF7CDFF33467B
:1011F0000922E91CC9B22046FEF7C6FF3346062283
:101200002D1D2946C9B22046BDE87040FEF7BCBF7F
:101210000922FEF7B9FF33460922691CC9B22046EC
:10122000FEF7B2FF33460922A91CC9B22046FEF7D9
:10123000ABFF33460F22E91CC9B22046FEF7A4FFDC
:10124000334609222D1D2946C9B22046BDE870400B
:10125000FEF79ABF0922FEF797FF33460922691C61
:10126000C9B22046FEF790FF33460622A91CC9B238
:101270002046FEF789FF33460922E91CC9B2204601
:10128000FEF782FF334609222D1D2946C9B22046AA
:10129000BDE87040FEF778BF0922FEF775FF3346C0
:1012A0000922691CC9B22046FEF76EFF33460622AA
:1012B000A91CC9B22046FEF767FF33460622E91C87
:1012C000C9B22046FEF760FF334606222D1D29468F
:1012D000C9B22046BDE87040FEF756BF0F22FEF7A8
:1012E00053FF33460122691CC9B22046FEF74CFF6A
:1012F00033460622A91CC9B22046FEF745FF3346F5
:101300000822E91CC9B22046FEF73EFF33460F22F1
:101310002D1D2946C9B22046BDE87040FEF734BFF6
:101320000622FEF731FF33460422691CC9B220466B
:10133000FEF72AFF33460422A91CC9B22046FEF755
:1013400023FF33460422E91CC9B22046FEF71CFFE6
:10135000334606222D1D2946C9B22046BDE87040FD
:10136000FEF712BF0822FEF70FFF33460422691C66
:10137000C9B22046FEF708FF33460622A91CC9B2AF
:101380002046FEF701FF33460222E91CC9B220467F
:10139000FEF7FAFE334601222D1D2946C9B220462A
:1013A000BDE87040FEF7F0BE0622FEF7EDFE3346C4
:1013B0000222691CC9B22046FEF7E6FE334602222D
:1013C000A91CC9B22046FEF7DFFE33460222E91C03
:1013D000C9B22046FEF7D8FE334606222D1D294607
:1013E000C9B22046BDE87040FEF7CEBE0622FEF729
:1013F000CBFE33460922691CC9B22046FEF7C4FE63
:1014000033460022A91CC9B22046FEF7BDFE334672
:101410000022E91CC9B22046FEF7B6FE3346002280
:101420002D1D2946C9B22046BDE87040FEF7ACBE6E
:101430000022FEF7A9FE33460022691CC9B22046ED
:10144000FEF7A2FE33460022A91CC9B22046FEF7D1
:101450009BFE33460022E91CC9B22046FEF794FEEB
:1014600033460F222D1D2946C9B22046BDE87040E3
:10147000FEF78ABE0422FEF787FE33460222691C6D
:10148000C9B22046FEF780FE33460022A91CC9B22D
:101490002046FEF779FE33460022E91CC9B22046F9
:1014A000FEF772FE334600222D1D2946C9B22046A2
:1014B000BDE87040FEF768BE0622FEF765FE3346C3
:1014C0000422691CC9B22046FEF75EFE334608229C
:1014D000A91CC9B22046FEF757FE33460422E91C78
:1014E000C9B22046FEF750FE334606222D1D29467E
:1014F000C9B22046BDE87040FEF746BE0422FEF7A2
:1015000043FE33460422691CC9B22046FEF73CFE66
:1015100033460422A91CC9B22046FEF735FE3346E5
:101520000422E91CC9B22046FEF72EFE33460422EF
:101530002D1D2946C9B22046BDE87040FEF724BEE5
:101540000622FEF721FE33460222691CC9B220465C
:10155000FEF71AFE33460122A91CC9B22046FEF747
:1015600013FE33460222E91CC9B22046FEF70CFEE8
:10157000334606222D1D2946C9B22046BDE87040DB
:10158000FEF702BE0022FEF7FFFD33460022691C73
:10159000C9B22046FEF7F8FD33460F22A91CC9B296
:1015A0002046FEF7F1FD33460122E91CC9B2204670
:1015B000FEF7EAFD334600222D1D2946C9B220461A
:1015C000BDE87040FEF7E0BD0022FEF7DDFD3346CA
:1015D0000A22691CC9B22046FEF7D6FD33460A220C
:1015E000A91CC9B22046FEF7CFFD33460D22E91CE7
:1015F000C9B22046FEF7C8FD334608222D1D2946F4
:10160000C9B22046BDE87040FEF7BEBD0422FEF719
:10161000BBFD33460422691CC9B22046FEF7B4FD67
:1016200033460022A91CC9B22046FEF7ADFD334661
:101630000422E91CC9B22046FEF7A6FD3346042267
:101640002D1D2946C9B22046BDE87040FEF79CBD5D
:101650000622FEF799FD33460A22691CC9B22046CC
:10166000FEF792FD33460C22A91CC9B22046FEF7B4
:101670008BFD33460022E91CC9B22046FEF784FDEB
:10168000334600222D1D2946C9B22046BDE87040D0
:10169000FEF77ABD0422FEF777FD33460E22691C61
:1016A000C9B22046FEF770FD33460422A91CC9B218
:1016B0002046FEF769FD33460022E91CC9B22046E8
:1016C000FEF762FD33460E222D1D2946C9B2204683
:1016D000BDE87040FEF758BD70BD30B4002513E082
:1016E00050F8042BD30744BFA9F101039A18091F2E
:1016F000042942F8045BFAD213468C0744BF1580D4
:101700009B1CC90748BF1D7050F8041B0029E7D176
:1017100030BC7047014648B1B0FA80F18840C91C1E
:10172000C1F58461090501EBD02140057047000037
:10173000C11768B14840401AB0FA80F29040D21CFC
:10174000C907C2F5846241EA025202EBD02140058A
:101750007047000038B52DED048BB0EE408AF0EEF6
:10176000608AB0EE419AF0EE619A044651EC180B93
:101770000022134600F0BCFA2AD851EC190B00F0F5
:10178000B7FA25D8DFF8703400F0CAFA20D251EC4D
:10179000180BDFF8783400F0C3FA19D200F0D8FA49
:1017A000054651EC190B00F0D3FAE4B2012C0146C6
:1017B000C9B22846C0B205D1BDEC048BBDE83440A7
:1017C00000F053BBBDEC048BBDE8344000F0ABBB74
:1017D000BDEC048B31BDF8B52DED0E8BB0EE408A1B
:1017E000F0EE608AB0EE419AF0EE619AB0EE42BA45
:1017F000F0EE62BAB0EE43CAF0EE63CA044651ECB2
:10180000190B53EC1C2B00F085FD41EC1A0B51EC2D
:10181000180B53EC1B2B00F07DFD41EC100B53EC2F
:10182000102B00F0E9FD06460F4653EC1A2B51EC45
:101830001A0B00F0E1FD32463B4600F0AFFE41ECF2
:10184000100B00F069FFB0EE40AAF0EE60AA51EC78
:101850001B0B53EC182B00F05DFD53EC1A2B00F022
:10186000DDFF41EC1B0B51EC1C0B53EC192B00F072
:1018700051FD53EC1A2B00F0D1FF41EC1C0B00255D
:1018800027E02046C0B2044651EC1D0B53EC1C2B44
:1018900000F0B2FD53EC192B00F080FE41EC110B6F
:1018A000B0EE41EAF0EE61EA51EC1D0B53EC1B2B5C
:1018B00000F0A2FD53EC182B00F070FE41EC100B71
:1018C0002046B0EE4E1AF0EE6E1AFFF743FF6D1C85
:1018D000EDB22846FFF71EFF41EC1D0BB0EE4A0AA1
:1018E000F0EE6A0A01F0BEF851EC100B53EC1D2B20
:1018F00000F0FEF9C5D9BDEC0E8BF1BD2DE9F04726
:101900002DED028B92461E46044604EB0A02521E3F
:10191000812A02DBC0F17F0082460D46A819401ED5
:10192000402802DBC1F13F010E46A0460A9F1CE0A1
:101930004846FFF7FDFE41EC110BB0EE418AF0EE98
:10194000618A4046FFF7F4FE41EC100B3846B0EEDA
:10195000481AF0EE681AFFF7FDFE09F1010955FA81
:1019600086F08145E4DB08F1010854FA8AF08045ED
:1019700001DAA946F3E7BDEC028BBDE8F087000071
:1019800070B504460025032806D8DFE800F00204FD
:1019900002047F2500E04025002646E0C6F13F0016
:1019A000FFF7C6FE41EC110B0120B0EE413AF0EE1C
:1019B000613A9FED942B9FED960BFFF70CFFC6F15C
:1019C0003E00FFF7B5FE41EC110B0120B0EE413AAD
:1019D000F0EE613A9FED8B2B9FED8D0BFFF7FBFE39
:1019E00021E0C6F17F00FFF7A3FE41EC100B0120C0
:1019F0009FED823BB0EE402AF0EE602A9FED841B03
:101A0000FFF7E9FEC6F17E00FFF792FE41EC100BF6
:101A100001209FED7A3BB0EE402AF0EE602A9FED68
:101A20007C1BFFF7D8FEB61CF6B2AE424BDA20465E
:101A30000328F8D8DFE800F005260403F3E7ADE754
:101A4000CFE73046FFF766FE41EC100B01209FED1B
:101A50006B3BB0EE402AF0EE602A9FED6D1BFFF766
:101A6000BAFE701CFFF764FE41EC100B01209FEDE5
:101A7000633BB0EE402AF0EE602A9FED651BFFF756
:101A8000AAFED0E73046FFF745FE41EC110B0120DE
:101A9000B0EE413AF0EE613A9FED5A2B9FED5C0BB0
:101AA000FFF799FE701CFFF743FE41EC110B01207C
:101AB000B0EE413AF0EE613A9FED522B9FED540BA0
:101AC000FFF789FEAFE7002646E0C6F13F00FFF7CB
:101AD0002FFE41EC110B0020B0EE413AF0EE613ADE
:101AE0009FED482B9FED4A0BFFF775FEC6F13E00B8
:101AF000FFF71EFE41EC110B0020B0EE413AF0EE74
:101B0000613A9FED402B9FED420BFFF764FE21E011
:101B1000C6F17F00FFF70CFE41EC100B00209FED9B
:101B2000373BB0EE402AF0EE602A9FED391BFFF7FD
:101B300052FEC6F17E00FFF7FBFD41EC100B0020CA
:101B40009FED2E3BB0EE402AF0EE602A9FED301B59
:101B5000FFF741FEB61CF6B2AE424BDA2046032830
:101B6000F8D8DFE800F005260403F3E7ADE7CFE798
:101B70003046FFF7CFFD41EC100B00209FED1F3BDF
:101B8000B0EE402AF0EE602A9FED211BFFF723FE06
:101B9000701CFFF7CDFD41EC100B00209FED173BB3
:101BA000B0EE402AF0EE602A9FED191BFFF713FEFE
:101BB000D0E73046FFF7AEFD41EC110B0020B0EE50
:101BC000413AF0EE613A9FED0F2B9FED110BFFF7BD
:101BD00002FE701CFFF7ACFD41EC110B0020B0EED3
:101BE000413AF0EE613A9FED072B9FED090BFFF7AD
:101BF000F2FDAFE770BD00000000504000000000A3
:101C00000000504000000000000060400000604004
:101C1000000000000000000082B0130000D120226C
:101C2000029B02B0FEF71CBB2DE9F84306460F46A7
:101C30009046089DB8F1000F52D40124994627E040
:101C400004233032D2B23946C0B2FFF7E5FF1EE0BE
:101C5000B2FBF0F20A2AFBD2B8F1640F02DA032CCD
:101C600000D1FF22B8F10A0F02DA022C00D1FF22C4
:101C7000A9EB040000EB80003018FF2A29460091F0
:101C8000DED1042320223946C0B2FFF7C5FF641C11
:101C90004846A04229D301210A464046002304E0D9
:101CA00002EB820C4FEA4C025B1C9C465FFA8CFCF8
:101CB000A445F5D3002304E001EB810C4FEA4C016D
:101CC0005B1C9C465FFA8CFCA4F1010EF445F3D337
:101CD000B0FBF2F302FB1300B0FBF1F20A20B9E70C
:101CE000009504232D22FFF797FFBDE8F183000044
:101CF0004FF4001C1CEB410F94BF1CEB430F09E099
:101D000041EA030C50EA4C0C52EA0C0C03D28B4211
:101D100008BF8242704714BF99429042704700004A
:101D20004FF4001C1CEB410F94BF1CEB430F09E068
:101D300041EA030C50EA4C0C52EA0C0C03D29942D3
:101D400008BF9042704714BF8B4282427047000028
:101D5000C1F30A5340F2FE329B1A14DDD3F1200383
:101D60004FEAE17208DDC90241EA505141F00040FA
:101D7000D84080185040704703F2E13010B1D24390
:101D800082F00040704700207047000010B5044604
:101D900004220121002000F0B9FE04E00422012108
:101DA000002000F0B3FE0006F8D444F004042246FC
:101DB00001210020BDE8104000F0A8BE38B504465F
:101DC0000D4604220121002000F0A0FE04E00422C0
:101DD0000121002000F09AFE0006F8D404F00B0464
:101DE000234601220021284601B0BDE8304000F022
:101DF000BBBF10B53E210220FFF7E0FFC02102204B
:101E0000FFF7DCFFB8210220FFF7D8FF40210220B6
:101E1000FFF7D4FF3F210220FFF7D0FF3E21012032
:101E2000FFF7CCFFC0210120FFF7C8FFB821012038
:101E3000FFF7C4FF40210120FFF7C0FF3F21012031
:101E4000FFF7BCFF002003460AE0DFF8B84404EBCC
:101E5000C0046354521C1146C9B20829F5DB401C6A
:101E6000802801DA1A46F6E710BD2DE9F84F8946B9
:101E70000246DFF8901401EBC2074C462146C91018
:101E800000917B5C214601250E46B61001EB56768B
:101E9000F610A1EBC6018D4045EA03018B4240D00C
:101EA000402A03DB4FF00108403801E04FF0020800
:101EB00040F04000064608F0030A3146C9B25046D9
:101EC000FFF77CFF4FEAD90949F0B8094946504667
:101ED000FFF774FF48F00C0B5846FFF757FF3146E9
:101EE000C9B25046FFF76AFF49465046FFF766FF02
:101EF0005846FFF74BFF83463146C9B25046FFF7BD
:101F00005DFF49465046FFF759FF45EA0B05294654
:101F100000983954C9B248F008084046BDE8F44F6B
:101F20004CE7BDE8F18F2DE9F84F0E460146DFF88A
:101F3000D42302EBC10734462246D2100092BB5C88
:101F400022464FF001081546AD1002EB5575ED1015
:101F5000A2EBC50208FA02F842461D4682F0FF02D3
:101F60001A40954240D0402903DB4FF00909403820
:101F700001E04FF00A0940F04000054609F0030A6D
:101F80002946C9B25046FFF719FFF60846F0B806D1
:101F900031465046FFF712FF49F00C0B5846FFF749
:101FA000F5FE2946C9B25046FFF708FF31465046B4
:101FB000FFF704FF5846FFF7E9FE83462946C9B2FA
:101FC0005046FFF7FBFE31465046FFF7F7FE88F01C
:101FD000FF080BEA0808414649F008094846FFF7A0
:101FE000EDFE009807F80080BDE8F18F2DE9F0477D
:101FF0001F46A0F120056DB23846032800D193009A
:10200000052804D1104600EB40035B001B1D384639
:10201000072801D1D20013461E46F6B2402E03DB3C
:102020004FF00908403B01E04FF00A080C4608F069
:10203000070943F040031946C9B24846FFF7BEFE00
:1020400044F0B8014846FFF7B9FE384603281CD1D2
:102050004FF0000A16E0DFF8B00205EB4501084436
:1020600010F80A90494648F00800FFF7A7FEDFF88D
:1020700094020AEB060100EBC100214600F8019032
:102080000AF1010ABAF1030FE5DB384605281CD135
:102090004FF0000A16E0DFF8740205EB85010844F2
:1020A00010F80A90494648F00800FFF787FEDFF86D
:1020B00054020AEB060100EBC100214600F8019032
:1020C0000AF1010ABAF1040FE5DD072F1AD14FF02A
:1020D000000914E0DFF83802C5EBC501084410F828
:1020E0000970394648F00800FFF768FE854809EB9B
:1020F000060100EBC1002146475409F10109B9F17D
:10210000060FE7DDBDE8F0872DE9F0471F46A0F197
:1021100020056DB23846032800D19300052804D16C
:10212000104600EB40035B001B1D3846072801D119
:10213000D20013461E46F6B2402E03DB4FF00908CC
:10214000403B01E04FF00A080C4608F0070943F055
:1021500040031946C9B24846FFF730FE44F0B801C3
:102160004846FFF72BFE384603281CD14FF0000AE3
:1021700016E0654805EB4501084410F80A9089F01F
:10218000FF09494648F00800FFF718FE5D480AEBD2
:10219000060100EBC100214600F801900AF1010A96
:1021A000BAF1030FE5DB384605281CD14FF0000AD1
:1021B00016E0564805EB8501084410F80A9089F0AE
:1021C000FF09494648F00800FFF7F8FD4D480AEBC3
:1021D000060100EBC100214600F801900AF1010A56
:1021E000BAF1040FE5DD072F1BD14FF0000915E010
:1021F0004748C5EBC501084410F8097087F0FF0790
:10220000394648F00800FFF7D9FD3E4809EB0601C2
:1022100000EBC1002146475409F10109B9F1060F4D
:10222000E6DDBDE8F087F8B504460D4616463046B3
:1022300003280DD1002709E0032338460246D2B215
:102240002946C9B2E05DFFF7D1FE7F1C202FF3DBEA
:10225000304605280DD1002709E0052338460246FF
:10226000D2B22946C9B2E05DFFF7C0FE7F1C142F31
:10227000F3DB072E0DD1002609E007233046024686
:10228000D2B22946C9B2A05DFFF7B0FE761C102E6F
:10229000F3DBF1BDF8B504460D461646304603287B
:1022A0000DD1002709E0032338460246D2B2294661
:1022B000C9B2E05DFFF728FF7F1C202FF3DB30461B
:1022C00005280DD1002709E0052338460246D2B281
:1022D0002946C9B2E05DFFF717FF7F1C142FF3DB1F
:1022E000072E0DD1002609E0072330460246D2B260
:1022F0002946C9B2A05DFFF707FF761C102EF3DB5D
:10230000F1BD00006405002000000020C400002092
:10231000AC02002070B44FF0004591EA030F40F189
:1023200045816B40841A71EB030603D2001BB14157
:10233000121973414FF4001C1CEB410F34BF7CEBAE
:10234000430442E00C0DA4EB1356352E4FDC45EA56
:10235000C323DB0A45EAC121C912B6F120050DDD10
:1023600063FA05F6EB4086EA0305124218BF45F012
:102370000105C01851F100010CD213E062FA06F514
:10238000F2405540F3415A40B340F3405A40801860
:10239000594107D349085FEA30005FEA350528BF95
:1023A00045F0010501F58011420875F1004250F138
:1023B000000041EB04514E0016F5001F70BC38BF01
:1023C00070470020090D090570471CEB410F10D222
:1023D00052EA43060BD0BCEB410F05D80C0DAB43C2
:1023E000661E342EB6DD02E0AB438018594170BC46
:1023F000704770BC70470000B0B581EA030C0CF068
:10240000004C40F2FF7515EA11541DBF15EA135731
:10241000AC42AF4239E0E41923EA455343F4801358
:10242000C90241F0004141EA505EC7021100A7FB1A
:10243000020200284FF00000EEFB01204FF00001E7
:10244000E3FB072118BF42F0010240180021494177
:10245000E3FB0E01A4F580640F0302D25200404159
:10246000494154F101046CDD470872F1004250F11A
:10247000000051EB0451A1F580115CBF41EA0C0151
:10248000B0BD4CEA05510020B0BD05EA1357AC427F
:1024900014BFAF4241E050EA410E1CBF52EA430E66
:1024A00002E061460020B0BD24423C441BD15FEAFB
:1024B000070EF6D0090302BF01460020AEF1140E4C
:1024C000B1FA81F7AEEB070401FA07FE0C37C7F14A
:1024D000200100FA07F7C8404EEA000E23EA4553F0
:1024E00043F48013A2E733F00043B3FA83F704BF49
:1024F000B2FA82FE77440B3FE41BB7F1200E2FBFE8
:1025000002FA0EF3BB40C7F1200E22FA0EFE38BFCE
:1025100043EA0E03BA40641C82E750EA410E14BF3E
:1025200052EA430E6FF000014FF4001717EB430F10
:102530008ABF194617EB410FB5E74CEA0551002059
:10254000B0BDD4F10104B4F120070FDAC4F12007C3
:10255000520828BF42F0010210FA07F501FA07F706
:10256000E1BF2A43E0403843E1400FE0352C98DCDE
:10257000C7F1200452EA400220FA07F218BF42F0E5
:10258000010231FA07F0A1400A43002172F1004232
:1025900050F1000051EB0C01B0BD000070B44FF0E1
:1025A000004591EA030F7FF5BDAE6B40841A71EBD5
:1025B000030604D26E40001BB141121973414FF45F
:1025C000001C1CEB410F34BF7CEB430683E00C0D79
:1025D000A4EB1356362E00F37C80012E45EAC3236C
:1025E00041DC43EA525312BFD20292025B08240537
:1025F00045EAC12141EA5051D2EBC020994125D48E
:1026000007D1B0FA80F610FA06F162D00020203629
:1026100008E0B1FA81F6B140C6F1200220FA02F2D8
:102620001143B0404FEAF474B4EB465434F0010661
:102630004FEA74040AD8D6F50016760D04F000446B
:10264000F04061FA06F25040F1404840C00A40EACA
:10265000415021F0004128BF5FEA500550F10000D1
:1026600044EBD12135E0DB0A45EAC121C90AB6F1C4
:1026700020050EDD42EA0242120CC5F1200603FAE3
:1026800006F6EB4042EA06056D42984161F1000111
:102690000DE062FA06F5F240554063FA06FC82EA64
:1026A0000C02F3405A406D42904161EB030111F47A
:1026B000801F05D1641E620502D06D004041494172
:1026C00021F48011430875F1004350F1000041EB03
:1026D000045170BC70471CEB410F15D223F000432E
:1026E00052EA43060BD04FEA4C0CBCEB410F04D826
:1026F0000C0D661E342EB7DDEBE7801A994150EAC7
:10270000410608BF0021E4E708BF1CEB430F28BFC8
:102710006FF00001DDE7000051EC100B00B500F098
:1027200003F841EC100B00BD40F2FF7C0B0D4DD0C7
:10273000634566D230B421EA035141F4801103F2BB
:10274000FD3C5FEA5C0C01D300184941890041EA75
:10275000907180004FF440140023E202D50AB1F5D5
:10276000100107D46D081DD2091B641900184941D6
:10277000491BF7D56D080AD20919641B0018494195
:10278000491BEFD56D08F7D301E0520817D0C018E8
:1027900061419B1AAC4100184941801AA941F4D407
:1027A00052080AD0C01AA1419B186C410018494137
:1027B000801AA941E9D45208F4D15B1C6C4161082C
:1027C0004FEA330001EB0C5130BC704750EA010373
:1027D000FBD030B4B1FA81F311B9B0FA80F41B190F
:1027E0000B3BB3F120042FBF00FA04F19940C3F171
:1027F000200420FA04F438BF21439840D3F10103A8
:102800009DE7634514BF50EA410CDEE711F5801FD8
:10281000DBD8D943AFF3008070470000F0B540F239
:10282000FF7581EA030C0CF0004C15EA11541DBF32
:1028300015EA1357AC42AF42E5E0BC41C1F31301C6
:10284000C3F31303801A994143F4801304D2641E26
:102850004000494180185941C90241EA5051B1FB39
:10286000F3F603FB1611A2FB0675D7EBC020A941B6
:1028700002D2761E80185941C90241EA5051B1FB7B
:10288000F3FE03FB1E11A2FB0E75D7EBC020A9417E
:1028900003D2AEF1010E80185941890241EA9051EC
:1028A000760546EA8E2EB1FBF3F603FB1611A2FB6A
:1028B0000675D7EB8020A94102D2761E80185941B7
:1028C000C90241EA50514EEA060EB1FBF3F603FB92
:1028D0001611A2FB0675D7EBC020A94102D2761EC5
:1028E00080185941C90241EA5051B1FBF3F703FB8B
:1028F0001711A2FB0735D3EBC020A94167F10007F0
:102900000CBF004247F0010766F3D5274FEA1E319E
:10291000B80814F5806412DDBD0775F1004250EB74
:102920000E5051EB045111F5801F5CBF41EA0C01C0
:10293000F0BD4CF07F6141F0E0410020F0BDBD07EB
:102940006D0840EA0E5041F48011D4F10104B4F155
:1029500020060ADAC4F120060200E04001FA06F37C
:10296000E1401843B24015430EE0342C13DCC6F1AD
:10297000200445EA40056D0820FA06F2154321FAC5
:1029800006F0A1400D43002175F1004250F1000016
:1029900051EB0C01F0BD00205FEA0C01F0BDCFB996
:1029A00092185B41B3FA83F704BFB2FA82F6BF19FB
:1029B0000B3FB7F120062FBF02FA06F3BB40C7F169
:1029C000200622FA06F638BF3343BA401CB1E41998
:1029D000641E33E77F4231F00041B1FA81F404BF55
:1029E000B0FA80F6A4190B3CB4F120062FBF00FA10
:1029F00006F1A140C4F1200620FA06F638BF3143A3
:102A0000A0403C1B1AE7AC421ABF05EA1357AF427D
:102A100012E050EA41061CBF52EA4306BFE750EA03
:102A20004107304661461CBF41EA0551F0BD52EAFC
:102A3000430C08BFC143F0BD00204FF4001616EB55
:102A4000410F98BF16EB430F08BF16EB410F24BF91
:102A5000C14305E016EB430F0CBF61464CEA05513C
:102A6000F0BD000051EC100B00B500F003F841EC94
:102A7000100B00BD40F2FF7C1CEA115240F2FE3305
:102A8000D21A18DD352A1FDAB2F1150309DA6FEA16
:102A90004C53D340094201D4401E59410020994370
:102AA00070476FF00002DA40094202D4801851F1F9
:102AB00000019043704750EA41021CBF591C0905B0
:102AC00028BF4FF0004100207047000000B585B0DE
:102AD0004FF47F4000900020019002906946DFF89B
:102AE000780500F0BFFA05B000BD00B585B04FF421
:102AF0007F400090012001900020029003906946E1
:102B0000DFF8540500F0AEFA05B000BD2DE9FC4138
:102B100006460D469046FFF7D9FFDFF840755FEA9D
:102B2000C87006D501224FF48071384600F076FB5C
:102B300005E000224FF48071384600F06FFB5FEA39
:102B4000887006D501224FF40071384600F066FB0C
:102B500005E000224FF40071384600F05FFB5FEAA9
:102B6000487006D501224FF48061384600F056FBCC
:102B700005E000224FF48061384600F04FFB5FEA29
:102B8000087006D501224FF40061384600F046FB7C
:102B900005E000224FF40061384600F03FFBDFF80B
:102BA000C0745FEAC86005D501220221384600F0F2
:102BB00035FB04E000220221384600F02FFB3046AE
:102BC000032842D8DFE800F002122232280006D1A2
:102BD00000224FF40061384600F020FB35E001226E
:102BE0004FF40061384600F019FB2EE0280006D1B2
:102BF00000224FF48051384600F010FB25E00122FE
:102C00004FF48051384600F009FB1EE0280006D141
:102C100000224FF40051384600F000FB15E001227D
:102C20004FF40051384600F0F9FA0EE0280006D1C2
:102C300000224FF48041384600F0F0FA05E001220E
:102C40004FF48041384600F0E9FA0022012138466D
:102C500000F0E4FADFF800844FF48071404600F0A1
:102C6000D5FA60F300044FF40071404600F0CEFA4C
:102C700060F341044FF48061404600F0C7FA60F30E
:102C800082044FF40061404600F0C0FA60F3C304D0
:102C90004FF48051404600F0B9FA60F304144FF449
:102CA0000051404600F0B2FA60F345144FF4804101
:102CB000404600F0ABFA60F386144FF40041404602
:102CC00000F0A4FA60F3C7140094012211463846BC
:102CD00000F0A4FA032E42D8DFE806F002122232F6
:102CE000002D06D101224FF40061384600F096FA1B
:102CF00035E000224FF40061384600F08FFA2EE0F4
:102D0000002D06D101224FF48051384600F086FA9A
:102D100025E000224FF48051384600F07FFA1EE093
:102D2000002D06D101224FF40051384600F076FA0A
:102D300015E000224FF40051384600F06FFA0EE023
:102D4000002D06D101224FF48041384600F066FA8A
:102D500005E000224FF48041384600F05FFA9DF80C
:102D60000000BDE8F6810000F8B506460F4614469F
:102D70001D46FFF7BAFE8DF80060B74E0098C007F9
:102D800006D400224FF48071304600F047FA05E087
:102D900001224FF48071304600F040FA0098C0F3F1
:102DA0004000002806D100224FF40071304600F0A8
:102DB00035FA05E001224FF40071304600F02EFA9A
:102DC0000098C0F38000002806D100224FF48061F3
:102DD000304600F023FA05E001224FF480613046CE
:102DE00000F01CFA0098C0F3C000002806D10022B1
:102DF0004FF40061304600F011FA05E001224FF473
:102E00000061304600F00AFA0098C0F30010002874
:102E100006D100224FF48051304600F0FFF905E062
:102E200001224FF48051304600F0F8F90098C0F3C9
:102E30004010002806D100224FF40051304600F027
:102E4000EDF905E001224FF40051304600F0E6F9BB
:102E50000098C0F38010002806D100224FF4804172
:102E6000304600F0DBF905E001224FF480413046A6
:102E700000F0D4F90098C0F3C010002806D1002259
:102E80004FF40041304600F0C9F905E001224FF44B
:102E90000041304600F0C2F9704EE80706D5012225
:102EA0004FF48071304600F0B9F905E000224FF48C
:102EB0008071304600F0B2F9A80706D501224FF420
:102EC0000071304600F0AAF905E000224FF40071CD
:102ED000304600F0A3F9680706D501224FF480615F
:102EE000304600F09BF905E000224FF48061304647
:102EF00000F094F9280706D501224FF4006130460E
:102F000000F08CF905E000224FF40061304600F03B
:102F100085F9534EE80605D501220221304600F01E
:102F20007DF904E000220221304600F077F93846AE
:102F3000032842D8DFE800F002122232200006D136
:102F400000224FF40061304600F068F935E00122BC
:102F50004FF40061304600F061F92EE0200006D108
:102F600000224FF48051304600F058F925E001224C
:102F70004FF48051304600F051F91EE0200006D198
:102F800000224FF40051304600F048F915E00122CC
:102F90004FF40051304600F041F90EE0200006D118
:102FA00000224FF48041304600F038F905E001225C
:102FB0004FF48041304600F031F9032F4BD8DFE861
:102FC00007F002142638002C07D101224FF40061CB
:102FD0003046BDE8F84000F021B900224FF400610E
:102FE0003046BDE8F84000F019B9002C07D10122A5
:102FF0004FF480513046BDE8F84000F00FB9002290
:103000004FF480513046BDE8F84000F007B9002C7D
:1030100007D101224FF400513046BDE8F84000F0DE
:10302000FDB800224FF400513046BDE8F84000F0F2
:10303000F5B8002C07D101224FF480413046BDE89D
:10304000F84000F0EBB800224FF480413046BDE874
:10305000F84000F0E3B8F1BD00100240000C02405F
:1030600000040240F8B400232DE04FF0080C05E006
:10307000DFF8B8C16045F8D14FF0070C0CFA06FC38
:103080004CEA070C45F824C0694C2668D5432E400D
:103090004F68FF0300D51643266066682E404F68D0
:1030A000BF0300D516436660A6682E404F68FF0236
:1030B00000D51643A660E6682E404D68AD0200D5E7
:1030C0001643E6605B1C0F2B00F29E8001249C409F
:1030D0000A682240A242F5D14D68022D01D0122D7E
:1030E00013D11D46ED0800EB8506356A9F0007F0F9
:1030F0001C074FF00F0C0CFA07FC25EA0C05D1F861
:1031000010C00CFA07F73D43356207685D000326DF
:10311000AE40F643374091F804C00CF0030C0CFAB3
:1031200005FC4CEA070707604F68012F05D0022F06
:1031300003D0112F01D0122F10D187683740D1F85A
:103140000CC00CFA05FC4CEA070787604768A743E8
:103150004C68C4F300149C4027434760C468344063
:103160008E6806FA05F52C43C4604C68E400A9D5C6
:10317000002400942F4C256845F480452560246880
:1031800004F480440094009C1C46A4082A4D55F881
:1031900024709E0006F00C064FF00F0C0CFA06FC93
:1031A00027EA0C07DFF894C0604502D14FF0000C0D
:1031B00064E7DFF88CC0604502D14FF0010C5DE799
:1031C000DFF880C0604502D14FF0020C56E7DFF80F
:1031D00078C0604502D14FF0030C4FE7DFF86CC0B8
:1031E000604502D14FF0040C48E7DFF864C0604549
:1031F00002D14FF0050C41E7DFF858C060457FF47D
:1032000037AF4FF0060C39E7F1BC70470069014059
:103210000846401E8041C043C00F7047002A01D0BD
:10322000816170470904816170470000001C024001
:10323000003C014044380240083801400000024090
:103240000004024000080240000C0240001002404E
:10325000001402400018024010B400230C4601E0A4
:10326000C2545B1CA342FBDB10BC704730B402228B
:10327000022A1BD100220B465B1E012BF8DBC4186F
:1032800014F8014CFF2C04D01546012D04D1022264
:1032900002E0150000D10122C55CFF2D04D1C45409
:1032A000FF24C51805F8014C5B1EE6E730BC7047EB
:1032B00010B41478FF2C0DD0FE2C0BD1491E07E062
:1032C000445CFF2C03D14354FD2111700021491EA1
:1032D0000029F5DC10BC70470922DFF894194B7AFD
:1032E000FF2B00D1704730B400230DE0AA24DFF893
:1032F00084592C7203E0AA24DFF87859EC71FF247A
:103300008C54521ED2B29B1C072B3ADCC45CAA2CF4
:10331000F9D18C5CFF2CF6D05624C4548C5CC518B3
:103320006C708C5C082CEAD8DFE804F0080D1217EA
:103330001C2126070600E2E7D8E7DCE7AA24DFF82D
:1033400034592C70DBE7AA24DFF828596C70D6E7D3
:10335000AA24DFF82059AC70D1E7AA24DFF8145969
:10336000EC70CCE7AA24DFF80C592C71C7E7AA242B
:10337000DFF800596C71C2E7AA24DFF8F858AC7185
:10338000BDE730BC704700001722DFF8DC19CB7DA9
:10339000FF2B00D1704730B400230DE0AA24DFF8E2
:1033A000D458EC7703E0AA24DFF8C858AC77FF24A0
:1033B0008C54521ED2B29B1C082B80F28880C45CB5
:1033C000AA2CF8D18C5CFF2CF5D04324C4548C5C1F
:1033D000C5186C708C5C172CE9D8DFE804F00F146A
:1033E000191E23282D32373C41464B50555A5F64F5
:1033F000696E730C0E0DDAE7D0E7D4E7AA24DFF884
:1034000074586C72D3E7AA24DFF86858AC72CEE720
:10341000AA24DFF86058EC72C9E7AA24DFF85458F0
:103420002C73C4E7AA24DFF84C586C73BFE7AA24B6
:10343000DFF84058AC73BAE7AA24DFF83858EC73C9
:10344000B5E7AA24DFF82C582C74B0E7AA24DFF8DB
:1034500024586C74ABE7AA24DFF81858AC74A6E7BC
:10346000AA24DFF81058EC74A1E7AA24DFF8045866
:103470002C759CE7AA24DFF8FC576C7597E7AA2403
:10348000DFF8F057AC7592E7AA24DFF8E857EC753F
:103490008DE7AA24DFF8DC572C7688E7AA24DFF82A
:1034A000D4576C7683E7AA24DFF8C857AC767EE75A
:1034B000AA24DFF8C057EC7679E7AA24DFF8B457DE
:1034C0002C7774E7AA24DFF8AC576C776FE730BC31
:1034D000704710B50446AA220821FFF7BDFE53200D
:1034E000A071DFF8C80A0178E1718178FF2903D063
:1034F00057212171807860712046FFF7EDFE20464C
:10350000BDE8104040E770B5DFF85C481821204660
:10351000FFF7ACFEDFF858570A212846FFF7A6FE52
:10352000DFF85067AB7BB21C0A212846FFF7C0FECC
:103530002B7B32460A212846FFF7BAFE6B7B721CB2
:103540000A212846FFF7B4FEEB7BF21C0A2128462D
:10355000FFF7AEFE2B7C321D0A212846FFF7A8FE9E
:103560006B7C721D0A212846FFF7A2FEAB7CB21DC0
:103570000A212846FFF79CFE2B7D06F108020A214E
:103580002846FFF795FEEB7CF21D0A212846FFF73F
:103590008FFEDFF87C5A2B7C06F119021821204699
:1035A000FFF786FE6B7C06F11A0218212046FFF712
:1035B0007FFE2B7D06F11D0218212046FFF778FEC5
:1035C0006B7A06F1120218212046FFF771FE2B7A62
:1035D00006F1110218212046FFF76AFEEB7A06F188
:1035E000140218212046FFF763FEAB7A06F113029E
:1035F00018212046FFF75CFE6B7B06F116021821AE
:103600002046FFF755FE2B7B06F1150218212046B8
:10361000FFF74EFEEB7B06F1180218212046FFF75C
:1036200047FEAB7B06F1170218212046FFF740FE4C
:10363000AB7B06F1170218212046FFF739FE2B78E5
:1036400006F1090218212046FFF732FE6B7806F1D9
:103650000A0218212046FFF72BFEAB7806F10B0279
:1036600018212046FFF724FEEB7806F10C02182102
:103670002046FFF71DFE2B7906F10D02182120468A
:10368000FFF716FE6B7906F10E0218212046FFF7B0
:103690000FFEAB7906F10F0218212046FFF708FE56
:1036A000EB7906F1100218212046FFF701FEAB7CF2
:1036B00006F11B0218212046FFF7FAFDEB7C06F10C
:1036C0001C0218212046FFF7F3FDAB7D06F11F0217
:1036D00018212046FFF7ECFD6B7D06F11E02182134
:1036E0002046BDE87040E3E5F8B504460025DFF864
:1036F0002469DFF824790BE0601940783146C874FA
:1037000005E03846017A3246117402210176AD1C7B
:10371000082D80F2A181605D432840D04D2808D05B
:10372000532800F03C81562800F0E2805728E3D06F
:10373000EDE76019407806281AD8DFE800F00407A2
:103740000A0D10131600387C707415E0787C7074C4
:1037500012E0B87C70740FE0F87C70740CE0387D77
:10376000707409E0787D707406E0B87D707403E0D1
:10377000387A307401203876707CB97E814209D065
:10378000B876002000F078FA002000F0C0FB00209E
:1037900000F08CFB0020F86178763075B7E760198F
:1037A0004078172800F29D80DFE800F00C11161B0E
:1037B00020252A31383F464D545B626970777E83FD
:1037C000889B8D94BB20DFF8981948729FE7BB2037
:1037D000DFF88C1988729AE7BB20DFF88419C87269
:1037E00095E7BB20DFF87819087390E7BB20DFF876
:1037F000701948738BE7BB20DFF86419887386E77C
:10380000DFF85C09BB21C173002101747FE7DFF899
:103810005009BB2101740021C17378E7DFF840092A
:10382000BB2141740021817471E7DFF83409BB21A9
:103830008174002141746AE7DFF82409BB21C17457
:103840000021017563E7DFF81809BB21017500212C
:10385000C1745CE7DFF80809BB214175002181755F
:1038600055E7DFF8FC08BB218175002141754EE763
:10387000DFF8EC08BB21C1750021017647E7DFF8CE
:10388000E008BB2101760021C17540E7DFF8D008D0
:10389000BB2141760021817639E7DFF8C408BB21DE
:1038A00081760021417632E7BB20DFF8B418C87674
:1038B0002DE7BB20DFF8A818087728E7BB20DFF842
:1038C000A018487723E7DFF89808BB21817700210B
:1038D000C1771CE7DFF88808BB21C1770021817719
:1038E00015E73846017A32461174032101760EE756
:1038F0006019407808284BD8DFE800F0050D151D49
:10390000252D353C4300DFF85808BB21017000210C
:1039100041804170FBE6DFF84808BB21417000217F
:1039200001704180F3E6DFF83808BB218170002187
:103930000180C170EBE6DFF82808BB21C1700021CF
:1039400001808170E3E6DFF81808BB2101710021D6
:1039500041718171DBE6DFF80808BB21417100216C
:1039600001718171D3E6DFF8F807BB218171002175
:103970008180CCE6DFF8E807BB21C171002101722C
:10398000C5E6DFF8DC070021C171BB210172BEE68C
:103990003846017A3246117404210176B7E660197F
:1039A000407810283FF6ADAEDFE800F00B161A1E87
:1039B0000A22262A2E32363C42464A4E5200A0E6C1
:1039C000A5E63046BB2101703946097C427C8A421B
:1039D0003FF49DAE41749AE6BB203146487096E6AE
:1039E000BB203146887092E6BB203146C8708EE617
:1039F000BB20314608718AE6BB203146487186E615
:103A0000BB203146887182E6BB203146C8717EE614
:103A1000BB20314608727AE63046BB214172002154
:103A2000817274E63046BB218172002141726EE6DC
:103A3000BB203146C8726AE6BB203146087366E691
:103A4000BB203146487362E6BB20314688735EE690
:103A5000BB203146C8735AE6F1BDDFF8BC15C86912
:103A6000401C00EE100A81ED070ADFF8642592F889
:103A7000540000280AD1BBEEEF0ABDEEC00A10EEDA
:103A8000100AC0B2142390FBF3F04876487E0B284E
:103A900002DBFF2082F8540070470278FF2A00D032
:103AA00001707047F0B4DFF8C811DFF82425034631
:103AB000FF2B2DD19378FD2B08D01378FD2B05D04B
:103AC0005378FD2B02D0D378FD2B1CD1002318E0B6
:103AD000CC5C8D7BAC4201D1FF24CC54CC5C0D7B03
:103AE000AC4201D1FF24CC54CC5C4D7BAC4201D123
:103AF000FF24CC54CC5CCD7BAC4201D1FF24CC5410
:103B00005B1C0A2BE4DBFF23937013705370D3709C
:103B10000B7B04461D46AC4227D19478FD2C05D082
:103B20005478FD2C02D0D478FD2C16D1002412E05C
:103B30000D5D8E7BB54201D1FF250D550D5D4E7B90
:103B4000B54201D1FF250D550D5DCE7BB54201D1AA
:103B5000FF250D55641C0A2CEADB1478FD2C01D0DE
:103B6000FE2414700024548054708C7B0546264635
:103B7000B54226D11578FD2D05D05578FD2D02D002
:103B8000D578FD2D15D1002511E04E5D9E4201D165
:103B9000FF264E554E5D4F7BBE4201D1FF264E554E
:103BA0004E5DCF7BBE4201D1FF264E556D1C0A2DC6
:103BB000EBDB9578FD2D01D0FE2595700025158055
:103BC000D5704D7B06462F46BE4226D11678FD2E77
:103BD00005D09678FD2E02D0D678FD2E15D1002680
:103BE00011E08F5D9F4201D1FF278F558F5DA74266
:103BF00001D1FF278F558F5D91F80FC0674501D127
:103C0000FF278F55761C0A2EEBDB5678FD2E01D050
:103C1000FE265670002616705680CE7BB04224D108
:103C20001078FD2805D09078FD2802D05078FD2826
:103C300013D100200FE00E5C9E4201D1FF260E54EE
:103C40000E5CA64201D1FF260E540E5CAE4201D19D
:103C5000FF260E54401C0A28EDDBD078FD2801D049
:103C6000FE20D070002010705080F0BC7047000023
:103C7000E80C0020740A002038B50446D44D2146D3
:103C800005F13D00FFF709FF214605F13900FFF777
:103C900004FF214605F13A00FFF7FFFE214605F13A
:103CA0003200FFF7FAFE214605F13100FFF7F5FE7D
:103CB000214605F13400FFF7F0FE214605F13300FF
:103CC000FFF7EBFE214605F13600FFF7E6FE214641
:103CD00005F13500FFF7E1FE214605F13800FFF759
:103CE000DCFE214605F13700FFF7D7FE214605F13E
:103CF0002900FFF7D2FE214605F12A00FFF7CDFE8D
:103D0000214605F12B00FFF7C8FE214605F12C00E6
:103D1000FFF7C3FE214605F12D00FFF7BEFE214649
:103D200005F12E00FFF7B9FE214605F13B00FFF734
:103D3000B4FE214605F13C00FFF7AFFE214605F138
:103D40003000FFF7AAFE214605F12F00FFF7A5FE80
:103D5000214605F13F00FFF7A0FE214605F13E0098
:103D6000BDE8344099E60000000D002038B5044657
:103D7000974D214605F11D00FFF78FFE214605F105
:103D80001900FFF78AFE214605F11A00FFF785FEAC
:103D9000214605F11200FFF780FE214605F11100D2
:103DA000FFF77BFE214605F11400FFF776FE214662
:103DB00005F11300FFF771FE214605F11600FFF72C
:103DC0006CFE214605F11500FFF767FE214605F15F
:103DD0001800FFF762FE214605F11700FFF75DFEB0
:103DE000214605F10900FFF758FE214605F10A00BA
:103DF000FFF753FE214605F10B00FFF74EFE21466B
:103E000005F10C00FFF749FE214605F10D00FFF713
:103E100044FE214605F10E00FFF73FFE214605F165
:103E20001B00FFF73AFE214605F11C00FFF735FEA7
:103E3000214605F11000FFF730FE214605F10F0085
:103E4000FFF72BFE214605F11F00FFF726FE214656
:103E500005F11E00BDE834401FE638B504465C4D50
:103E60002146A81CFFF719FE21462846FFF715FE3C
:103E70002146681CFFF711FE2146A81DFFF70DFE25
:103E80002146E81CFFF709FE2146281DFFF705FE25
:103E9000214605F10800FFF700FE2146E81DFFF767
:103EA000FCFD2146681DBDE83440F6E538B5044602
:103EB000474D214605F12200FFF7EFFD214605F1B0
:103EC0002000FFF7EAFD214605F12100FFF7E5FD9F
:103ED000214605F12600FFF7E0FD214605F123000C
:103EE000FFF7DBFD214605F12400FFF7D6FD214653
:103EF00005F12800FFF7D1FD214605F12700FFF766
:103F0000CCFD214605F12500BDE83440C5E538B5B6
:103F100004462F4D214605F14400FFF7BEFD214622
:103F200005F14500FFF7B9FD214605F14600FFF711
:103F3000B4FD214605F14700FFF7AFFD214605F12D
:103F40004800FFF7AAFD214605F14900FFF7A5FD4E
:103F5000214605F14A00FFF7A0FD214605F14B007F
:103F6000FFF79BFD214605F14C00FFF796FD21462A
:103F700005F14D00FFF791FD214605F14E00FFF7D9
:103F80008CFD214605F14F00FFF787FD214605F125
:103F90004300FFF782FD214605F14100FFF77DFD5B
:103FA000214605F14000BDE8344076E5C40A002012
:103FB00010B500F0E9F8002808D06A4C204600F05F
:103FC000E5F82046BDE81040FFF78EBB10BD0000AD
:103FD000740A002010B5FFF740FD634C607E012895
:103FE00010D1E07E002811D104F12000FFF771FA12
:103FF000082204F120014FF4007000F0C9F80120FC
:10400000E07610BDFFF77FFA0020E07610BD0000DB
:10401000D00C0020B40A0020340C002038B5524CDB
:1040200000202074012060740220A0740320E0743A
:1040300004202075052060750620A07500202070E2
:10404000012060700220A0700320E0700520207124
:10405000062060710720A0710820E07109202072FD
:104060000A2060720B20A0720C20E0720D202073D9
:104070000E2060730F20A0731020E0733B480021D6
:10408000017001214170022181700321C17004215E
:10409000017105214171062181710721C17108213A
:1040A0000172092141720A2181720B21C1720C2116
:1040B00001730D2141730E2181730F21C1731021F2
:1040C000017411214174122181741321C1741421CE
:1040D00001751621417517218175254D0020287322
:1040E000012068730220A8730320E8730420287459
:1040F000052068740620A8740720E8740820287535
:104100000020FFF7B9FD0020FFF7D0FE0020FFF7E9
:10411000FEFEFF20FFF72AFEFF20FFF79EFE154858
:10412000FF2181700021C170A1790170A17D4170D2
:1041300000210171AA22082104F12000FFF78CF868
:10414000FF2218210C48FFF787F8FF220A21284692
:10415000FFF782F809480A4941600A49816031BD88
:10416000940A00204C0D0020340C0020D00C0020BC
:10417000E80C0020C40A0020000D0020B80C00202C
:10418000B13F0008D53F000800F004B800F009B8BE
:1041900000F012B80021254800F08BBA2348406A8D
:1041A000704780B50346234A0021204800F0F2F909
:1041B000401E8041C00F02BD10B51D4C2060226121
:1041C00004F140030A462146184800F077F9401EE2
:1041D0008041C043C00F10BD10B51548002141609B
:1041E0008160C160017542F2604181610021C1615D
:1041F0000162416281620D21C162002101630121DE
:1042000041638163094C00F11801204600F0ADF8CC
:10421000002801D0012010BD204600F01EF9401EEC
:104220008041C043C00F10BD00000000E40B00201F
:10423000200B0020800C002038B5040001D10120A3
:1042400032BD94F82000002802D1204600F060FA28
:104250002068016821F00201016000F021FB0546A1
:104260002068416889070DD500F01AFB401B0B2818
:10427000F6D3606A40F400306062052084F82000C4
:10428000012032BD016841F00101016000F008FB2E
:10429000054620684168C9070DD400F001FB401BAA
:1042A0000B28F6D3606A40F400306062052084F881
:1042B0002000012032BD217E0129016803D141F097
:1042C0008001016002E021F0800101602068617ED0
:1042D0000129016803D141F04001016002E021F0B1
:1042E000400101602068A17E0129016803D141F0ED
:1042F0002001016002E021F0200101602068E17EE0
:104300000129016803D121F01001016002E041F0B0
:10431000100101602068217F0129016803D141F06B
:104320000801016002E021F0080101602068617F5E
:104330000129016803D141F00401016002E021F08C
:1043400004010160A168E0680143206901436069DC
:1043500001436068401E01432068C1610020606223
:10436000012084F82000002032BDF0B490F8202015
:10437000012A01D0022A69D14E4A106840F001009A
:104380001060106820F47C50106010684B6A40EA9E
:104390000320106001200B7D03F01F0300FA03F3DC
:1043A000DC43D0692040D061C869002816D1D068AC
:1043B0002040D060404800F510754E69CF68D1F8B4
:1043C00004C0CCEA074745F8367000F511704D6916
:1043D0008E680F68C7EA064640F83560C86901284C
:1043E00016D1D0681843D060334800F510754E6977
:1043F0000F68D1F804C0CCEA074745F8367000F5DD
:1044000011704D698E68CF68C7EA064640F835607E
:1044100088690028506802D12040506001E01843AC
:10442000506008690028506902D10440546101E0DD
:1044300018435061086A012802D1D0690343D3614F
:104440001068400840001060002004E0416A41F418
:10445000802141620120F0BC704738B5044694F8D1
:10446000200001281FD1022084F820002068016864
:1044700049084900016000F013FA054620684068C9
:10448000C0070DD500F00CFA401B0B28F6D3606A6C
:1044900040F400306062052084F82000012032BD25
:1044A0000020606232BD606A40F40020606201203A
:1044B00032BD00000066004000640040F0B490F897
:1044C00020400568AD68012C01D0022C5BD115F0AD
:1044D000E05F52D0C5F30164032C05D3416A41F477
:1044E00000014162012053E00125A5401D600368E1
:1044F00003F5C0752401CE688B68002B04D10B68CE
:1045000046EA43562E5104E04F6843EAC7031E4370
:104510002E510B69056805F5C2752B51097D0129DE
:1045200006D1016801F5C2710B5943F480730B5138
:10453000D17993791B0443EA0163517943EA01235A
:1045400011790B4301682144C1F88C31D1789378FB
:104550001B0443EA0163517843EA012311780B43BA
:1045600001682144C1F88831006800F5C070015924
:1045700041F00101015100200AE0416A41F40011BB
:104580004162012004E0416A41F48021416201203E
:10459000F0BC704770B490F82040012C02D0022C7F
:1045A00040F080800468002909D1E56815F0030F08
:1045B0000FD1416A41F400114162012077E0256981
:1045C00015F0030F05D1416A41F400114162012049
:1045D0006DE00D0104F5D874645904F0040494608E
:1045E000066806F5D876002C745902D1640D146063
:1045F00001E0E4085460046804F5D8746459C4F315
:104600004004D46004682C44D4F8B44104F00F048E
:10461000146104682C44D4F8B441C4F307249461B1
:1046200004682C44D4F8B441240C546102682A4430
:10463000D2F8B8211A7002682A44D2F8B821120AB6
:104640005A7002682A44D2F8B821120C9A70026893
:104650002A44D2F8B821120EDA7002682A44D2F83D
:10466000BC211A7102682A44D2F8BC21120A5A717C
:1046700002682A44D2F8BC21120C9A7102682A44BA
:10468000D2F8BC21120EDA710068002904D1C16889
:1046900041F02001C16003E0016941F020010161A6
:1046A000002004E0416A41F480214162012070BC95
:1046B00070470246002092F82030012B01D0022BD7
:1046C00009D11068002903D1C06800F003007047C9
:1046D000006900F00300704782B000200090674836
:1046E000416841F480414160416801F4804100919A
:1046F000009900210091016841F08051016000683B
:1047000000F0805000900098072002B000F027B918
:1047100010B586B004460022142101A800F03EF92D
:1047200020685749884224D10020009055480169EB
:1047300041F000710161016901F00071009100997F
:1047400000210091016841F008010160006800F05B
:1047500008000090009803200190022002900020A1
:104760000390032004900920059001A94648FEF714
:1047700079FC06B010BD10B586B0044600221421A5
:1047800001A800F00BF920684049884225D100209B
:1047900000903C4C206840F002002060206800F04F
:1047A0000200009000984FF41070019012200290C7
:1047B00001200390002004900420059001A93448B2
:1047C000FEF750FC00200090206940F400102061AA
:1047D000206900F400100090009806B010BD006839
:1047E0002C49884200D0704780B5002000902348B3
:1047F000016841F010010160006800F010000090B5
:10480000009800221146362000F0AAF83620BDE8B4
:10481000024000F0B4B810B586B00446002214215E
:1048200001A800F0BBF820681B49884224D1002071
:1048300000901448016941F400310161016901F4FB
:1048400000310091009900210091016841F00101BF
:104850000160006800F00100009000980C200190B9
:10486000022002900120039003200490072005906D
:1048700001A90A48FEF7F6FB06B010BD4038024019
:104880000064004030380240000C024000540040F8
:1048900000040240001000400044004000000240BC
:1048A00001484068704700BF54050020354A13682E
:1048B0004FF6FF010B40000200F4E060184332495C
:1048C0000843106070472F480068C0F3022070470B
:1048D000010007D4012200F01F018A402B49400942
:1048E00041F8202070470901020002D42848815471
:1048F0007047284802F00F02104400F8041C70476B
:1049000010B400F00700C0F10703052B00D3042307
:10491000041D072C01D2002000E0C01E012404FA6F
:1049200003F35B1E1940814004FA00F0401E104062
:10493000084310BC704710B5401EB0F1807F01D312
:10494000012010BD144C60600F214FF0FF30FFF7C5
:10495000CAFF0020A06007202060002010BDA5E74E
:1049600070B504460D461646FFF7ADFF32462946A0
:10497000FFF7C6FF01462046BDE87040B3E7A7E752
:10498000D9E700000CED00E00000FA0500E100E0CE
:1049900000E400E018ED00E010E000E062F30F2218
:1049A00062F31F4200B500BF1300964694461039CB
:1049B00028BFA0E80C50FAD85FEA417C28BF0CC0A1
:1049C00048BF40F8042BC90728BF20F8022B48BF76
:1049D00000F8012B00BD0000F8B5040025D004F15B
:1049E0003C056878002804D1002028702046FFF795
:1049F000C2FE2420687020680168490849000160EF
:104A000000F032FD0146DFF800256068904205D2D3
:104A1000DFF8F80481428041C00F04E0DFF8F004C1
:104A200081428041C00F012801D10120F2BDDFF891
:104A3000E404B1FBF0F320684668B60953EA861631
:104A400046602668376A6068904201D25B1C07E0C6
:104A50004FF4967043434FF47A70B3FBF0F35B1C52
:104A6000BF0953EA871333622368DE696768491E0A
:104A7000974209D27F00B1FBF7F1491CC1F30B014A
:104A800004292ED204212CE0A068002807D107EBCE
:104A90004702B1FBF2F2521CC2F30B0208E01922EA
:104AA0007A43B1FBF2F2521CC2F30B0242F4804291
:104AB000120501D1012114E0002807D107EB4707B7
:104AC000B1FBF7F1491CC1F30B0108E01920474382
:104AD000B1FBF7F1491CC1F30B0141F4804141F4F2
:104AE0000041DFF8340406400E43DE6121680A68A5
:104AF00022F0C002E0690243206A02430A60216892
:104B00008A68DFF81804024020690243E068024323
:104B10008A602168CA68120AA3696069034353EA7C
:104B20000222CA602068016841F001010160002092
:104B300068602020687000202063A870F2BD2DE915
:104B4000FC470646884691469A46FFF7A9FE04466A
:104B500006F13C077878202840F08C8000941923D7
:104B60000122DFF8BC13304600F0B8FA002840F00C
:104B70008180387801287DD0012038703068016844
:104B8000C90703D4016841F0010101600A9D306842
:104B9000016821F400610160212078701020B87054
:104BA00000207860C6F82490A6F82AA0708D308581
:104BB000DFF87003F06223462A464146304600F093
:104BC000B5F9002840D1002000903068416900917B
:104BD000806900900098308D002840D022462946F8
:104BE000304600F014FB002830D1706A007831683C
:104BF0000861706A401C7062708D401E7085308D37
:104C0000401E308531684A6952070ED580B20028AF
:104C10000BD0706A00780861706A401C7062708DF9
:104C2000401E7085308D401E308522462946304614
:104C300000F018FB0028CED07868042804D1306832
:104C4000016841F400710160012014E078680428D3
:104C5000FAD13068016841F400710160F4E730680E
:104C6000016841F400710160202078700020B87064
:104C7000387000E00220BDE8F6872DE9FC470646C3
:104C8000884691469A46FFF70BFE044606F13C071C
:104C90007878202840F03581009419230122DFF82C
:104CA0008012304600F01AFA002840F02A81387845
:104CB000012800F026810120387030680168C9079A
:104CC00003D4016841F0010101600A9D3068016868
:104CD00021F400610160222078701020B87000205B
:104CE0007860C6F82490A6F82AA0708D3085DFF889
:104CF0003402F06223462A464146304600F067F906
:104D0000002840F0D780308D316800280BD100207A
:104D1000009048690090886900900098086840F405
:104D20000070086047E0012810D1086820F4806016
:104D3000086000200090306841690091816900910D
:104D40000099016841F40071016034E002280868AC
:104D500010D120F4806008603068016841F400617F
:104D600001600020009030684169009180690090E6
:104D7000009820E040F480600860002000903068D7
:104D80004169009180690090009814E0224629460C
:104D9000304600F092FA002840F08C8030680069BC
:104DA000716A0870706A401C7062308D401E3085D8
:104DB000708D401E7085308D002800F09C8001466B
:104DC000042970D20128E1D0DFF85C810228009428
:104DD0002B4626D100224146304600F07FF90028BC
:104DE00068D13068016841F4007101603068006981
:104DF000716A0870706A401C7062308D401E308588
:104E0000708D401E708530680069716A0870706A24
:104E1000401C7062308D401E3085708D401E708544
:104E2000C9E700224146304600F058F9002841D138
:104E30003068016821F48061016030680069716A3E
:104E40000870706A401C7062308D401E3085708D15
:104E5000401E708500942B4600224146304600F0EB
:104E60003DF9002826D13068016841F400710160E5
:104E700030680069716A0870706A401C7062308D19
:104E8000401E3085708D401E708530680069716AE3
:104E90000870706A401C7062308D401E3085708DC5
:104EA000401E708587E722462946304600F005FA05
:104EB000002801D0012025E030680069716A08707F
:104EC000706A401C7062308D401E3085708D401EAF
:104ED00070853068416949077FF56DAF0069716A77
:104EE0000870706A401C7062308D401E3085708D75
:104EF000401E70855FE7202078700020B870387001
:104F000000E00220BDE8F687A186010080841E0033
:104F100000093D0040420F000030FFFF007CFFFF12
:104F2000020010000000FFFF04000100F8B5044675
:104F30000D4616461F46E06A082804D0012802D014
:104F40006349884205D12068016841F4807101609D
:104F500007E0206B122804D12068016841F48071B9
:104F600001600097334600224FF00111204600F007
:104F7000B5F8002801D00120F2BD20682169B1F503
:104F8000804F03D105F0FE05056114E02946C909EB
:104F900001F0060141F0F00101613B463246DFF8C5
:104FA0003411204600F0DCF8002801D00120F2BDC9
:104FB000EDB2206805613B463246DFF81C11204601
:104FC00000F0CEF8401E8041C043C00FF2BD2DE975
:104FD000FC4104460F4615461E46E06A21680A68F1
:104FE00042F480620A60082804D0012802D03849BF
:104FF000884205D12068016841F48071016007E0B2
:10500000206B112804D12068016841F4807101608F
:1050100000962B4600224FF00111204600F05EF86A
:10502000002801D0012051E020682169B1F5804FAE
:1050300004D147F00107FFB207613DE0B8464FEAEF
:10504000D81808F0060848F0F001016133462A46F6
:10505000DFF88010204600F083F8002801D00120FE
:1050600034E0FFB22068076133462A46DFF8681053
:10507000204600F075F8002801D0012026E000202D
:105080000090206841690091816900910099016850
:1050900041F48071016000962B4600224FF001110F
:1050A000204600F01BF8002801D001200EE048F057
:1050B000F1082068C0F8108033462A460649204689
:1050C00000F04EF8401E8041C043C00FBDE8F6819D
:1050D0000000FFFF08000100020001002DE9F0417F
:1050E00005460E4617461C46DDF8188028683146EE
:1050F000090CC9B2012909D14069304080B2B1B26E
:10510000884201D101200AE0002008E08069304097
:1051100080B2B1B2884201D1012000E000203946BE
:1051200088421AD114F1010FE0D0FFF7B9FBA0EBD0
:105130000800844201D3002CD8D10020286305F157
:105140003C002021417000218170416841F0200124
:10515000416000210170012000E00020BDE8F081E5
:10516000F8B505460E4614461F4628683146090C18
:10517000C9B2012909D14169314089B2B2B2914223
:1051800001D101210AE0002108E08169314089B2A2
:10519000B2B2914201D1012100E00021002934D1B5
:1051A0004169490517D5016841F4007101606FF448
:1051B0008060296848610020286305F13C002021B7
:1051C000417000218170416841F00401416000217B
:1051D00001700120F2BD14F1010FC6D0FFF760FB92
:1051E000C01B844201D3002CBFD10020286305F1ED
:1051F0003C002021417000218170416841F0200174
:105200004160002101700120F2BD0020F2BD70B5A7
:1052100005460C46164628684069000620D42846F4
:1052200000F080F8002801D0012070BD14F1010FBA
:10523000F1D0FFF735FB801B844201D3002CEAD16B
:105240000020286305F13C0020214170002181707D
:10525000416841F02001416000210170012070BDD2
:10526000002070BD70B505460C461646286840699A
:10527000400720D4284600F055F8002801D001202E
:1052800070BD14F1010FF1D0FFF70AFB801B8442BF
:1052900001D3002CEAD10020286305F13C00202135
:1052A000417000218170416841F02001416000217E
:1052B0000170012070BD002070BD70B505460C4620
:1052C00016462868416949062AD44169C90616D498
:1052D000FFF7E6FA801B844201D3002CF1D10020B5
:1052E000286305F13C002021417000218170416854
:1052F00041F02001416000210170012070BD6FF07C
:10530000100141610020286305F13C00202141701B
:10531000002181704168416000210170012070BD51
:10532000002070BD01684A69520511D56FF4806292
:105330004A61002101633C302021417000218170CD
:10534000416841F004014160002101700120704773
:10535000002070472DE9F04104460F46002C5BD039
:105360004C4E306800F00F00B84205D237703068FC
:1053700000F00F00B8424FD12068474D810712D589
:10538000400703D5A86840F4E050A86020780007E3
:1053900003D5A86840F46040A860A96821F0F00136
:1053A000A0680143A9602078C0072AD56068012859
:1053B00003D1296889030BD42EE0022801D00328E9
:1053C00003D12968890103D426E02968890723D5F8
:1053D000A968890850EA8100A860FFF761FA804651
:1053E000A86800F00C006168B0EB810F09D0FFF7EE
:1053F00057FAA0EB080041F289318842F0D303202C
:105400002DE0306800F00F00874207D23770306817
:1054100000F00F00B84201D0012020E020784007C2
:1054200005D5A96821F4E051E0680143A96020781E
:10543000000706D5A86820F46040216940EAC10051
:10544000A86000F033F81549AA68C2F30312895C1A
:10545000C84013490860002000F05AF80020BDE859
:10546000F0810F480068704780B5FFF7FAFF0E49DA
:105470000C4A1268C2F38222895CC84002BD80B522
:10548000FFF7EFFF0849074A1268C2F34232895C0E
:10549000C84002BD003C02400038024000770008CE
:1054A00060050020083802402878000810B5154C27
:1054B000606800F00C00042802D0082802D01EE02A
:1054C000114810BD226802F03F020023206840020C
:1054D0002068C0F3881005D50B49A1FB000100F03E
:1054E0003BF804E00949A1FB000100F035F8216810
:1054F000C1F30141491C4900B0FBF1F010BD034864
:1055000010BD00BF0438024000127A000024F400ED
:1055100038B504460E4D4FF47A702978B0FBF1F09F
:105520000C490968B1FBF0F0FFF72AFA002801D016
:10553000012032BD102C08D2002221464FF0FF304E
:10554000FFF70EFAAC60002032BD012032BD00BF73
:105550005405002060050020BBBBE1B1B2F5803FDF
:1055600080F07E80022A1ED98C46B1FBF2F102FB4C
:1055700011C31B0443EA1043B3FBF2FC02FB1C33D0
:1055800080B240EA0343B3FBF2F002FB103240EA80
:105590000C4000237047022A05D98446B0FBF2F084
:1055A00002FB10C270474AB105D100F00102490860
:1055B0005FEA3000704700220023704700F0E4B833
:1055C0000B000200002100207047904271EB030C99
:1055D000F6D3B3F5803F2FD2F0B5B3FA83F7B1FA23
:1055E00081F4A7F10F0E3D1B5340CEF1200602FAC5
:1055F0000EF2F3415340B5F10F0746D80F3C2C444F
:105600004140C4F12006A040F1414140B1FBF3F616
:1056100003FB1611A2FB0645001BA94102D2761E10
:105620008018594180EA010221FA0EF362FA0EF263
:1056300000215A403046F0BD30B4B1FBF3FC03FB0F
:105640001C11A2FB0C45001BA94103D2ACF1010CBB
:105650008018594130BC02460B4660460021704715
:10566000B2F1807F65D3F0B5B2FA82F7B1FA81F476
:10567000C7F10F063D1B22FA06F307F1110EF241A6
:1056800020355A40B5F10F07B8D94140C4F1200682
:10569000A040F1414140B1FBF3FC03FB1C11A2FB14
:1056A0000C45001BA94103D2BCF1010C80185941E3
:1056B0000F2F12D30F3FC90341EA5041B1FBF3F65C
:1056C00003FB1611A2FB0645D4EBC030A94102D260
:1056D000761E8018594146EACC3C07B34140C7F1D9
:1056E0002006B840F1414140B1FBF3F603FB16112F
:1056F000A2FB0645001BA94102D2761E8018594123
:1057000080EA010221FA0EF3C7F1200462FA0EF2D8
:105710000CFA07F05A402CFA04F13043F0BD80EA4D
:10572000010221FA0EF3002162FA0EF260465A409D
:10573000F0BD8C46B1FBF2F102FB11C31B0243EA40
:105740001063B3FBF2FC02FB1C331B024CEA00208B
:1057500043EA1063B3FBF2FC02FB1C331B024CEA6E
:10576000002043EA1063B3FBF2FC02FB1C331B0274
:105770004CEA002043EA1063B3FBF2FC02FB1C324C
:105780004CEA0020002370477047000080B50FF2FC
:10579000C07000F0E1FF032001F09AF8012001F051
:1057A00097F8022001F0ADF81B2001F0FBF801286A
:1057B00015D101F0C5F9022001F08AF80FF231107D
:1057C000DFF8581748600FF24900DFF85417C86037
:1057D000DFF850078079DFF8501781F85000DFF8C4
:1057E0004C078078012812D101F0B0F90FF2116056
:1057F000DFF82C17C860DFF82C078078DFF828174F
:1058000081F850000220BDE8024001F061B801BDFE
:10581000F8B500210D2001F0D8F8DFF81457DFF8B3
:10582000FC46DFF8106768783179884205D10FF2BD
:10583000287000F083FF60688047DFF8E8766878BA
:105840003178884207D10FF21C7000F077FF01F029
:10585000D7F83878287068787178884203D1FFF7D4
:1058600095FF787828706878B179884207D10FF26F
:10587000007000F063FF01F0C3F8F87828706878D2
:10588000B178884205D10FF2F86000F057FFB8797F
:1058900028706878F178884207D10FF2F06000F044
:1058A0004DFF01F0ADF8F87928702078002804D178
:1058B000DFF88406C078FEF7F5F82078022804D1D6
:1058C000DFF874068078FEF7EDF82078012804D11F
:1058D000DFF864060078FEF7E5F82078032806D1A3
:1058E000DFF854064078BDE8F240FEF7DBB8F1BDC2
:1058F00010B50FF2A46000F021FFDFF82046002071
:10590000207001460D2001F060F80121002001F017
:105910005CF80121062001F058F80021072001F071
:1059200054F80121022001F050F80021012001F07B
:105930004CF80121092001F048F80121082001F06C
:1059400044F80FF20900606010BD000010B50FF2BE
:10595000546000F0F3FEDFF8C445A068401CA0606E
:1059600041F28831884208D30FF2486000F0D7FE38
:105970000FF24550DFF8A815C860182001F012F8A2
:1059800000283FD1172001F00DF801283AD100215D
:10599000052001F01AF80121042001F016F8152065
:1059A00001F000F801282DD1132000F0FBFF0128A1
:1059B00028D11A2000F0F6FF002823D1122000F091
:1059C000F1FF00281ED1112000F0ECFF002819D1B2
:1059D000192000F0E7FF002814D10F2000F0E2FFAB
:1059E00001280FD1102000F0DDFF00280AD100218E
:1059F000084600F0EAFF0FF2D45000F09FFE0FF2CD
:105A00000900606010BD000010B5DFF81805C0780F
:105A1000DFF8141581F85000DFF80045E068401CFD
:105A2000E060B0F57A7F04D30FF28D40DFF8F01418
:105A3000C860082000F0B6FF012803D1002108202B
:105A400000F0C3FF182000F0ADFF01280AD10121AA
:105A5000082000F0BAFF0FF2845000F06FFE0FF242
:105A60000900606010BD000010B5DFF8B804C07810
:105A7000DFF8B41481F85000DFF8A0442069401C1E
:105A8000206140F24C41884204D30FF22D41DFF8EF
:105A90009024D1606428C0F08C80122000F082FF36
:105AA00001281CD1112000F07DFF002817D11920FA
:105AB00000F078FF012812D1012020700FF22C5045
:105AC00000F02DFE032000F0EAFE012000F000FFB0
:105AD000022000F0FDFE0FF2DD00606010BD12201C
