:020000040800F2
:1000000080060020B92300080D24000811240008F0
:1000100015240008192400081D2400080000000011
:100020000000000000000000000000002124000883
:10003000252400080000000029240008D923000816
:100040002D24000831240008352400083924000834
:100050003D240008412400084524000849240008E4
:100060004D24000851240008552400085924000894
:100070005D24000861240008652400086924000844
:100080006D240008712400087524000879240008F4
:100090007D240008812400088524000889240008A4
:1000A0008D24000891240008952400089924000854
:1000B0009D240008A1240008A5240008A924000804
:1000C000AD240008B1240008B5240008B9240008B4
:1000D000BD240008C1240008C5240008C924000864
:1000E000CD240008D1240008D5240008D924000814
:1000F000DD240008E1240008E5240008E9240008C4
:10010000ED240008F1240008F5240008F924000873
:10011000FD24000801250008DD230008052500084E
:10012000092500080D2500081125000815250008DF
:10013000192500081D25000821250008252500088F
:10014000292500082D25000831250008352500083F
:10015000392500083D2500084125000845250008EF
:10016000492500084D25000851250008552500089F
:10017000592500085D2500086125000800000000E1
:100180006525000869250008F8B5040025D004F1AC
:100190003C056878002804D100202870204600F033
:1001A00020FB24206870206801684908490001602C
:1001B00000F036FC0146DFF874226068904205D2F8
:1001C000DFF86C0281428041C00F04E0DFF8640276
:1001D00081428041C00F012801D10120F2BDDFF82A
:1001E0005802B1FBF0F320684668B60953EA861658
:1001F00046602668376A6068904201D25B1C07E05F
:100200004FF4967043434FF47A70B3FBF0F35B1CEA
:10021000BF0953EA871333622368DE696768491EA2
:10022000974209D27F00B1FBF7F1491CC1F30B01E2
:1002300004292ED204212CE0A068002807D107EB66
:100240004702B1FBF2F2521CC2F30B0208E0192282
:100250007A43B1FBF2F2521CC2F30B0242F4804229
:10026000120501D1012114E0002807D107EB47074F
:10027000B1FBF7F1491CC1F30B0108E0192047431A
:10028000B1FBF7F1491CC1F30B0141F4804141F48A
:100290000041DFF8A80106400E43DE6121680A68CC
:1002A00022F0C002E0690243206A02430A6021682A
:1002B0008A68DFF88C01024020690243E06802434B
:1002C0008A602168CA68120AA3696069034353EA15
:1002D0000222CA602068016841F00101016000202B
:1002E00068602020687000202063A870F2BD2DE9AE
:1002F000FC470646884691469A4600F0E5FB0446D0
:1003000006F13C077878202840F08C80009419236F
:100310000122DFF83011304600F0F0F8002840F0FC
:100320008180387801287DD00120387030680168DC
:10033000C90703D4016841F0010101600A9D3068DA
:10034000016821F400610160212078701020B870EC
:1003500000207860C6F82490A6F82AA0708D308519
:10036000DFF8E400F06223462A464146304600F0BA
:100370006DF8002840D1002000903068416900915C
:10038000806900900098308D002840D02246294690
:10039000304600F04CF9002830D1706A007831689E
:1003A0000861706A401C7062708D401E7085308DCF
:1003B000401E308531684A6952070ED580B2002848
:1003C0000BD0706A00780861706A401C7062708D92
:1003D000401E7085308D401E3085224629463046AD
:1003E00000F050F90028CED07868042804D1306895
:1003F000016841F400710160012014E0786804286C
:10040000FAD13068016841F400710160F4E73068A6
:10041000016841F400710160202078700020B870FC
:10042000387000E00220BDE8F6870000A1860100D8
:1004300080841E0000093D0040420F000030FFFF95
:10044000007CFFFF020010000000FFFFF8B504462B
:100450000D4616461F46E06A082804D0012802D03F
:100460002349884205D12068016841F48071016008
:1004700007E0206B122804D12068016841F48071E4
:1004800001600097334600224FF00111204600F032
:1004900035F8002801D00120F2BD20682169B1F5AE
:1004A000804F03D105F0FE05056114E02946C90916
:1004B00001F0060141F0F00101613B463246DFF8F0
:1004C0003410204600F05CF8002801D00120F2BD75
:1004D000EDB2206805613B463246DFF81C1020462D
:1004E00000F04EF8401E8041C043C00FF2BD000036
:1004F0000000FFFF08000100020001002DE9F041AB
:1005000005460E4617461C46DDF818802868314619
:10051000090CC9B2012909D14069304080B2B1B299
:10052000884201D101200AE0002008E080693040C3
:1005300080B2B1B2884201D1012000E000203946EA
:1005400088421AD114F1010FE0D000F0BDFAA0EBFF
:100550000800844201D3002CD8D10020286305F183
:100560003C002021417000218170416841F0200150
:10057000416000210170012000E00020BDE8F08111
:10058000F8B505460E4614461F4628683146090C44
:10059000C9B2012909D14169314089B2B2B291424F
:1005A00001D101210AE0002108E08169314089B2CE
:1005B000B2B2914201D1012100E00021002934D1E1
:1005C0004169490517D5016841F4007101606FF474
:1005D0008060296848610020286305F13C002021E3
:1005E000417000218170416841F0040141600021A7
:1005F00001700120F2BD14F1010FC6D000F064FAC1
:10060000C01B844201D3002CBFD10020286305F118
:100610003C002021417000218170416841F020019F
:100620004160002101700120F2BD0020F2BD70B5D3
:1006300005460C46164628684069000620D4284620
:1006400000F04BF8002801D0012070BD14F1010F1B
:10065000F1D000F039FA801B844201D3002CEAD19A
:100660000020286305F13C002021417000218170A9
:10067000416841F02001416000210170012070BDFE
:10068000002070BD70B505460C46164628684069C6
:10069000400720D4284600F020F8002801D001208F
:1006A00070BD14F1010FF1D000F00EFA801B8442EE
:1006B00001D3002CEAD10020286305F13C00202161
:1006C000417000218170416841F0200141600021AA
:1006D0000170012070BD002070BD01684A6952059B
:1006E00011D56FF480624A61002101633C30202102
:1006F000417000218170416841F004014160002196
:100700000170012070470020704730B4002513E0CD
:1007100050F8042BD30744BFA9F101039A18091F0D
:10072000042942F8045BFAD213468C0744BF1580B3
:100730009B1CC90748BF1D7050F8041B0029E7D156
:1007400030BC704782B0002000906748416841F497
:1007500080414160416801F480410091009900218D
:100760000091016841F080510160006800F0805004
:1007700000900098072002B000F005BA10B586B0CE
:1007800004461422002101A800F01CFA20685749F1
:10079000884224D1002000905548016941F0007141
:1007A0000161016901F0007100910099002100913F
:1007B000016841F008010160006800F00800009045
:1007C0000098032001900220029000200390032053
:1007D00004900920059001A9464800F0FDF906B0F3
:1007E00010BD10B586B004461422002101A800F007
:1007F000E9F920684049884225D1002000903C4C0E
:10080000206840F002002060206800F002000090A4
:1008100000984FF410700190122002900120039074
:10082000002004900420059001A9344800F0D4F978
:1008300000200090206940F400102061206900F43D
:1008400000100090009806B010BD00682C49884246
:1008500000D0704780B5002000902348016841F027
:1008600010010160006800F0100000900098002264
:100870001146362000F088F93620BDE8024000F02D
:1008800092B910B586B004461422002101A800F0E8
:1008900099F920681B49884224D10020009014480F
:1008A000016941F400310161016901F400310091F5
:1008B000009900210091016841F001010160006888
:1008C00000F00100009000980C200190022002909E
:1008D00001200390032004900720059001A90A48F5
:1008E00000F07AF906B010BD4038024000640040C4
:1008F00030380240000C0240005400400004024026
:100900000010004000440040000002402DE9F0418A
:1009100004460F46002C5BD04C4E306800F00F00B0
:10092000B84205D23770306800F00F00B8424FD19E
:100930002068474D810712D5400703D5A86840F4C9
:10094000E050A8602078000703D5A86840F4604014
:10095000A860A96821F0F001A0680143A96020788F
:10096000C0072AD56068012803D1296889030BD400
:100970002EE0022801D0032803D12968890103D47D
:1009800026E02968890723D5A968890850EA8100EB
:10099000A86000F099F88046A86800F00C00616833
:1009A000B0EB810F09D000F08FF8A0EB080041F206
:1009B00089318842F0D303202DE0306800F00F0029
:1009C000874207D23770306800F00F00B84201D07C
:1009D000012020E02078400705D5A96821F4E051E6
:1009E000E0680143A9602078000706D5A86820F4D4
:1009F0006040216940EAC100A86000F033F8154961
:100A0000AA68C2F30312895CC84013490860002039
:100A100000F0D4F90020BDE8F0810F48006870476D
:100A200080B5FFF7FAFF0E490C4A1268C2F3822222
:100A3000895CC84002BD80B5FFF7EFFF0849074A4F
:100A40001268C2F34232895CC84002BD003C0240D9
:100A500000380240F02200080C0000200838024054
:100A60000424000810B5154C606800F00C00042840
:100A700002D0082802D01EE0114810BD226802F002
:100A80003F020023206840022068C0F3881005D58B
:100A90000B49A1FB000100F0B5F904E00949A1FBF5
:100AA000000100F0AFF92168C1F30141491C490080
:100AB000B0FBF1F010BD034810BD00BF0438024088
:100AC00000127A000024F40001484068704700BF1B
:100AD00000000020354A13684FF6FF010B4000026A
:100AE00000F4E060184332490843106070472F4813
:100AF0000068C0F302207047010007D4012200F013
:100B00001F018A402B49400941F820207047090104
:100B1000020002D4284881547047284802F00F028E
:100B2000104400F8041C704710B400F00700C0F136
:100B30000703052B00D30423041D072C01D200203A
:100B400000E0C01E012404FA03F35B1E194081403B
:100B500004FA00F0401E1040084310BC704710B566
:100B6000401EB0F1807F01D3012010BD144C6060A5
:100B70000F214FF0FF30FFF7CAFF0020A0600720D1
:100B80002060002010BDA5E770B504460D4616464E
:100B9000FFF7ADFF32462946FFF7C6FF0146204664
:100BA000BDE87040B3E7A7E7D9E700000CED00E02F
:100BB0000000FA0500E100E000E400E018ED00E0CC
:100BC00010E000E010B5044610460A4601462046F3
:100BD00000F030FA204610BDF8B400232DE04FF0AD
:100BE000080C05E0DFF8A8C16045F8D14FF0070C0C
:100BF0000CFA06FC4CEA070C45F824C0654C266844
:100C0000D5432E404F68FF0300D516432660666823
:100C10002E404F68BF0300D516436660A6682E407D
:100C20004F68FF0200D51643A660E6682E404D6867
:100C3000AD0200D51643E6605B1C0F2B00F29E80D0
:100C400001249C400A682240A242F5D14D68022D41
:100C500001D0122D13D11D46ED0800EB8506356A33
:100C60009F0007F01C074FF00F0C0CFA07FC25EA59
:100C70000C05D1F810C00CFA07F73D433562076840
:100C80005D000326AE40F643374091F804C00CF0F7
:100C9000030C0CFA05FC4CEA070707604F68012FAC
:100CA00005D0022F03D0112F01D0122F10D1876849
:100CB0003740D1F80CC00CFA05FC4CEA07078760F6
:100CC0004768A7434C68C4F300149C40274347601F
:100CD000C46834408E6806FA05F52C43C4604C683D
:100CE000E400A9D5002400942B4C256845F48045E8
:100CF0002560246804F480440094009C1C46A408E9
:100D0000264D55F824709E0006F00C064FF00F0C8F
:100D10000CFA06FC27EA0C07DFF884C0604502D114
:100D20004FF0000C64E7DFF87CC0604502D14FF063
:100D3000010C5DE7DFF870C0604502D14FF0020C96
:100D400056E7DFF868C0604502D14FF0030C4FE76B
:100D5000DFF85CC0604502D14FF0040C48E7DFF8D3
:100D600054C0604502D14FF0050C41E7DFF848C0A0
:100D700060457FF437AF4FF0060C39E7F1BC7047A0
:100D8000002A01D081617047090481617047000029
:100D9000001C0240003C0140443802400838014039
:100DA000000002400004024000080240000C024023
:100DB00000100240001402400018024038B50446FA
:100DC0000E4D4FF47A702978B0FBF1F00C490968A8
:100DD000B1FBF0F0FFF7E8FE002801D0012032BDA2
:100DE000102C08D2002221464FF0FF30FFF7CCFE36
:100DF000AC60002032BD012032BD00BF00000020E9
:100E00000C000020BBBBE1B1B2F5803F80F07E80DA
:100E1000022A1ED98C46B1FBF2F102FB11C31B045E
:100E200043EA1043B3FBF2FC02FB1C3380B240EAFE
:100E30000343B3FBF2F002FB103240EA0C40002304
:100E40007047022A05D98446B0FBF2F002FB10C2BB
:100E500070474AB105D100F0010249085FEA30004D
:100E6000704700220023704700F02EB90B000200EB
:100E7000002100207047904271EB030CF6D3B3F5CC
:100E8000803F2FD2F0B5B3FA83F7B1FA81F4A7F11E
:100E90000F0E3D1B5340CEF1200602FA0EF2F34135
:100EA0005340B5F10F0746D80F3C2C444140C4F1E4
:100EB0002006A040F1414140B1FBF3F603FB1611BF
:100EC000A2FB0645001BA94102D2761E801859419B
:100ED00080EA010221FA0EF362FA0EF200215A4072
:100EE0003046F0BD30B4B1FBF3FC03FB1C11A2FB98
:100EF0000C45001BA94103D2ACF1010C80185941EB
:100F000030BC02460B46604600217047B2F1807F3C
:100F100065D3F0B5B2FA82F7B1FA81F4C7F10F06E2
:100F20003D1B22FA06F307F1110EF24120355A401B
:100F3000B5F10F07B8D94140C4F12006A040F141F6
:100F40004140B1FBF3FC03FB1C11A2FB0C45001B51
:100F5000A94103D2BCF1010C801859410F2F12D3C3
:100F60000F3FC90341EA5041B1FBF3F603FB1611F1
:100F7000A2FB0645D4EBC030A94102D2761E8018F0
:100F8000594146EACC3C07B34140C7F12006B8407E
:100F9000F1414140B1FBF3F603FB1611A2FB0645FC
:100FA000001BA94102D2761E8018594180EA010235
:100FB00021FA0EF3C7F1200462FA0EF20CFA07F0E0
:100FC0005A402CFA04F13043F0BD80EA010221FAC4
:100FD0000EF3002162FA0EF260465A40F0BD8C46D4
:100FE000B1FBF2F102FB11C31B0243EA1063B3FB36
:100FF000F2FC02FB1C331B024CEA002043EA1063A4
:10100000B3FBF2FC02FB1C331B024CEA002043EA58
:101010001063B3FBF2FC02FB1C331B024CEA002002
:1010200043EA1063B3FBF2FC02FB1C324CEA0020E3
:101030000023704762F30F2262F31F42401810F042
:10104000030308D0C91A1FD3DB0748BF00F8012DDE
:1010500028BF20F8022D130030B41446154610396D
:1010600028BF20E93C00FAD8490728BF20E90C0036
:1010700048BF40F8042D890028BF20F8022D48BF42
:1010800000F8012D30BC7047C91818BF00F8012DB9
:10109000CB0728BF00F8012D704730B40EE002687E
:1010A000436802440830DC0744BFA9F10104E31897
:1010B00052F8045B43F8045B091FF9D150F8041B94
:1010C0000029ECD130BC70477047000080B500F0BB
:1010D0002FFA00F037FA00F03DFA00F049FA00F07C
:1010E00055FA00F061FA00F074FA00F08FFA00F09F
:1010F00096FA00F097FA00F098FABDE8014000F087
:10110000C3BA80B500F0CAFABDE8014000F00DBADC
:10111000704780B5FFF7DAFF00F0ECFA00F00DF849
:1011200000F0CFF800F0B5F800F08EF800F058F8B5
:1011300000F070F8FFF7E5FFFEE780B592B03022CF
:10114000002106A8FFF73EFD1422002101A8FFF7A9
:1011500039FD00200090DE48016841F080510160B7
:10116000006800F080500090009800200090D9485E
:10117000016841F480410160006800F48040009003
:101180000098012006904FF48030079002200C90C8
:101190004FF480000D9004200E90A8200F900220A4
:1011A00010900720119006A800F0BEFA002801D088
:1011B00000F0B2F90F20019002200290002003906D
:1011C0004FF4A05004904FF480500590052101A8E1
:1011D000FFF79CFB002801D000F09EF913B000BD82
:1011E00080B5BD48BD490160A82141604FF08041F4
:1011F00081600021C1604FF4003101610021416133
:101200008161818300F004FC002802D0BDE8014028
:1012100082E101BD80B5B248B24901604FF4964108
:10122000416000218160C1604FF480410161002173
:1012300041618161C1610162FEF7A6FF002802D011
:10124000BDE8014068E101BD1CB5082200216846E7
:10125000FFF7B8FCA44CA548206000206060A060A7
:101260004AF20F40E0600020A061204600F012FD2D
:10127000002801D000F050F91020009000200190CB
:101280006946204600F048FE002801D000F044F9ED
:1012900013BD80B59648974901604FF4964141606F
:1012A00000218160C16001610C21416100218161E7
:1012B000C16100F051FE002802D0BDE801402BE1E1
:1012C00001BD2DE9F84386B0142200216846FFF7DE
:1012D00079FC002005908848016841F01001016008
:1012E000016801F01001059105990021059101683F
:1012F00041F004010160016801F0040105910599C4
:1013000000210591016841F080010160016801F050
:1013100080010591059900210591016841F00101C5
:101320000160016801F00101059105990021059115
:10133000016841F002010160016801F002010591BC
:10134000059900210591016841F0080101600068DC
:1013500000F0080005900598684C002208212046FE
:10136000FFF70EFD664D012211462846FFF708FDE6
:101370004FF21006634F002231463846FFF700FD5A
:1013800008200090012001900020029003906946FF
:101390002046FFF721FC01200090019000200290E0
:1013A000039069462846FFF717FC082000900220AA
:1013B0000190002002900390052004906946284681
:1013C000FFF70AFC012000904F4801900020029096
:1013D000DFF8388169464046FFF7FEFB1020009099
:1013E000022001900020029003900620049069469C
:1013F0004046FFF7F1FBE020009002200190002022
:10140000029003900520049069464046FFF7E4FBF4
:1014100004200090002001900290DFF8F4906946CB
:101420004846FFF7D9FB4FF48060009002200190FE
:101430000020029003900520049069464846FFF77B
:10144000CBFB00960120019000200290039069469A
:101450003846FFF7C1FB4FF4A450009002200190E2
:101460000020029003900620049069462846FFF76A
:10147000B3FB4FF400700090002001900290694689
:101480004046FFF7A9FB4FF4E05000900220019086
:101490000020029003900A20049069464046FFF71E
:1014A0009BFB202000900020019002906946384666
:1014B000FFF792FB02200090164801900020029056
:1014C00069462046FFF788FB07B0BDE8F0830000BF
:1014D00040380240007000403802002000640040A4
:1014E0002001002000540040B801002000100040FE
:1014F000F801002000440040303802400010024053
:1015000000080240000C02400000111000000240E0
:101510000004024000001210FEE700000649884265
:1015200002D10648006800477047034800F0CBBB73
:101530000348024908607047B80100207802002083
:10154000111100087047000002464FF400410448A2
:10155000FFF716BC00224FF400410148FFF710BC12
:10156000000C024002464FF400510448FFF708BC4B
:1015700000224FF400510148FFF702BC000C02406A
:1015800002464FF480510448FFF7FABB00224FF4A3
:1015900080510148FFF7F4BB000C024002464FF4B3
:1015A00080410448FFF7ECBB00224FF48041014822
:1015B000FFF7E6BB000C024010B5002404E00C4924
:1015C00051F820008047641C2046C0B20228F6DB98
:1015D00010BD0020074A064B02E043F82120401CC2
:1015E0000146C9B20229F8DB034804490860704784
:1015F0007002002011110008B915000878020020BF
:101600000120FFF7A1BF0020FFF79EBF0020FFF7DA
:101610009BBF0120FFF7A6BF0020FFF7A3BF00205C
:10162000FFF7A0BF0020FFF7ABBF0020FFF7B6BF5A
:1016300010B5FF21782000F0FFFD154C6068B0F573
:101640007A7F1DDB00206060207800280CD0FFF737
:10165000E0FF0121002000F0FDFDFFF7DDFFFFF7B7
:10166000D2FF002020700BE0FFF7D3FF0121002004
:1016700000F0F0FDFFF7D0FFFFF7C2FF0120207060
:101680006068401C606010BD0248034908607047F4
:1016900068020020311600087002002010B51448BE
:1016A000002141608160C160017542F26041816149
:1016B0000021C1610162416281620D21C16200218C
:1016C0000163012141638163084C00F11801204648
:1016D00000F037FA002801D0012010BD204600F0AC
:1016E000A8FA401E8041C043C00F10BD3802002040
:1016F0007401002080B50B48016841F4007101605D
:10170000016841F480610160016841F48071016009
:101710000320FFF738FA0020FFF750FBFFF712F81D
:10172000002002BD003C02402DE9FC41040016D01F
:10173000B34D2078C0074CD5A86800F00C000428F1
:1017400007D0A86800F00C0008280AD16868400299
:1017500007D5286880033CD56068002839D101206E
:101760004BE16068B0F5803F04D1286840F48030D8
:10177000286012E0B0F5A02F286807D140F480203F
:101780002860286840F48030286006E020F480302B
:101790002860286820F480202860606800280CD029
:1017A000FFF792F906462868800312D4FFF78CF9F8
:1017B000801B6528F7D303201FE1FFF785F9064654
:1017C0002868800305D5FFF77FF9801B6528F7D3CC
:1017D000F1E72078800718D5A86810F00C0F07D023
:1017E000A86800F00C00082824D16868400221D4C1
:1017F0002868800702D5E0680128B0D1286820F069
:10180000F800216940EAC10028602078000747D528
:101810007C496069002835D001200860FFF754F941
:101820000646686F80073BD4FFF74EF9801B0228FD
:10183000F7D9C0E77449E068002815D00120086096
:10184000FFF742F906462868800705D4FFF73CF900
:10185000801B0228F7D9AEE7286820F0F80021693C
:1018600040EAC1002860D0E700200860FFF72CF9AB
:10187000064628688007C8D5FFF726F9801B02288E
:10188000F7D998E700200860FFF71EF90646686F51
:10189000800705D5FFF718F9801B0228F7D98AE7DA
:1018A0002078400763D50026286CC0000BD4304652
:1018B0000090286C40F080502864286C00F0805024
:1018C000009000980126514F3868C00510D4386840
:1018D00040F480703860FFF7F7F880463868C0053C
:1018E00006D4FFF7F1F8A0EB08000228F6D962E76A
:1018F000A068012804D1286F40F00100286711E09A
:101900000528286F07D140F004002867286F40F0B1
:101910000100286706E0400840002867286F20F093
:1019200004002867A06800280DD0FFF7CDF807460F
:10193000286F800715D4FFF7C7F8C01B41F2893123
:101940008842F5D337E7FFF7BFF80746286F8007CF
:1019500007D5FFF7B9F8C01B41F289318842F5D3AA
:1019600029E7012E03D1286C20F080502864A0695B
:10197000002841D0A96801F00C0108293FF4EFAE1E
:10198000214E02282AD100203066FFF79DF8074635
:101990002868800105D5FFF797F8C01B0228F7D902
:1019A00009E7E069216A0843616A40EA8110A16A97
:1019B0004908491E40EA0140E16A40EA0160686066
:1019C00001203066FFF780F804462868800113D4B0
:1019D000FFF77AF8001B0228F7D9ECE60020306602
:1019E000FFF772F804462868800105D5FFF76CF808
:1019F000001B0228F7D9DEE60020BDE8F68100BF13
:101A000000380240800E474200004742007000400C
:101A100038B5040001D1012032BD94F8200000281F
:101A200002D12046FEF7AAFE2068016821F00201DB
:101A30000160FFF749F805462068416889070DD520
:101A4000FFF742F8401B0B28F6D3606A40F40030E1
:101A50006062052084F82000012032BD016841F059
:101A600001010160FFF730F8054620684168C907A9
:101A70000DD4FFF729F8401B0B28F6D3606A40F419
:101A800000306062052084F82000012032BD217EF4
:101A90000129016803D141F08001016002E021F0D9
:101AA000800101602068617E0129016803D141F055
:101AB0004001016002E021F0400101602068A17E48
:101AC0000129016803D141F02001016002E021F009
:101AD000200101602068E17E0129016803D121F025
:101AE0001001016002E041F0100101602068217FD7
:101AF0000129016803D141F00801016002E021F0F1
:101B0000080101602068617F0129016803D141F06B
:101B10000401016002E021F004010160A168E068B5
:101B2000014320690143606901436068401E01432D
:101B30002068C16100206062012084F8200000203C
:101B400032BDF0B490F82020012A01D0022A69D1D8
:101B50004E4A106840F001001060106820F47C507C
:101B6000106010684B6A40EA0320106001200B7D72
:101B700003F01F0300FA03F3DC43D0692040D06177
:101B8000C869002816D1D0682040D060404800F5D0
:101B900010754E69CF68D1F804C0CCEA074745F804
:101BA000367000F511704D698E680F68C7EA0646F9
:101BB00040F83560C869012816D1D0681843D06054
:101BC000334800F510754E690F68D1F804C0CCEAAF
:101BD000074745F8367000F511704D698E68CF687B
:101BE000C7EA064640F8356088690028506802D187
:101BF0002040506001E01843506008690028506997
:101C000002D10440546101E018435061086A012880
:101C100002D1D0690343D3611068400840001060CE
:101C2000002004E0416A41F4802141620120F0BCBF
:101C3000704738B5044694F8200001281FD10220CF
:101C400084F8200020680168490849000160FEF717
:101C50003BFF054620684068C0070DD5FEF734FFFE
:101C6000401B0B28F6D3606A40F400306062052008
:101C700084F82000012032BD0020606232BD606A1D
:101C800040F400206062012032BD00000066004088
:101C90000064004038B5040001D1012032BD04F1D8
:101CA0003C056878002804D1002028702046FEF703
:101CB000CCFD02206870211D206800F0BEF80120D4
:101CC0006870002032BD0168CA6842F00102CA6033
:101CD0000068816801F00701062903D0016841F01E
:101CE000010101600020704710B5044620680169B9
:101CF000890717D5C168890714D56FF00201016102
:101D0000012020772068806910F0030F204602D060
:101D100000F0C0FA04E000F0BEFA204600F0BCFA81
:101D20000020207720680169490717D5C168490755
:101D300014D56FF0040101610220207720688069CA
:101D400010F4407F204602D000F0A4FA04E000F036
:101D5000A2FA204600F0A0FA00202077206801694E
:101D6000090717D5C168090714D56FF0080101618B
:101D7000042020772068C06910F0030F204602D0AD
:101D800000F088FA04E000F086FA204600F084FAB9
:101D90000020207720680169C90617D5C168C906E7
:101DA00014D56FF010010161082020772068C06908
:101DB00010F4407F204602D000F06CFA04E000F0FE
:101DC0006AFA204600F068FA00202077206801694E
:101DD000C90708D5C168C90705D56FF001010161C0
:101DE0002046FFF79BFB20680169090608D5C168FA
:101DF000090605D56FF080010161204600F04DFA1B
:101E000020680169490608D5C168490605D56FF003
:101E100040010161204600F041FA2068016989060D
:101E20000AD5C168890607D56FF0200101612046F7
:101E3000BDE8104000F033BA10BD10B40468DFF8FC
:101E4000AC30984212D0B0F1804F0FD0DFF8A02014
:101E500090420BD0DFF89C20904207D0DFF898200A
:101E6000904203D0DFF89420904203D124F0700414
:101E70004A681443984220D0B0F1804F1DD01C4ACC
:101E800090421AD01B4A904217D01B4A904214D05D
:101E90001A4A904211D01A4A90420ED0194A9042E2
:101EA0000BD0194A904208D0184A904205D0184ADF
:101EB000904202D0174A904203D124F44074CA6879
:101EC000144324F080044A69144304608A68C2629F
:101ED0000A688262984202D0084A904201D1096998
:101EE00001630121416110BC704700000000014006
:101EF0000004004000080040000C004000040140C5
:101F000000400140004401400048014000180040EA
:101F1000001C00400020004070B400F13C031A781F
:101F2000012A01D1022015E001221A7002225A7002
:101F300004686568A66826F080064A68164325F09E
:101F4000700509680D43656000688660012058705F
:101F50000020187070BC704738B5040001D1012012
:101F600032BD04F138056878002804D100202870BB
:101F70002046FEF786FC242068702068C16821F4A2
:101F80000051C160204600F016F82068016921F474
:101F9000904101612068416921F02A014161206876
:101FA000C16841F40051C160002068602020687061
:101FB000A870002032BD2DE9F041044621680A696D
:101FC00022F44052E06802430A612168CA689748D7
:101FD0000240A06802432069024360690243E0694D
:101FE0000243CA6021684A6922F44072A069024330
:101FF0004A6120688E49E269B2F5004F40F08B805B
:10200000884202D08B49884242D1FEF714FD054632
:10201000FEF711FD0646FEF70EFD0746FEF70BFD27
:102020008046FEF708FD61684900642219235D437C
:10203000B5FBF1F59446B5FBFCF55E43B6FBF1F656
:102040005F43B7FBF1F7B7FBFCF702FB1766F6003F
:1020500032361746B6FBF7F6760006F4F87606EB4E
:10206000051603FB08F8B8FBF1F54343B3FBF1F0A9
:102070001146B0FBF1F002FB1052D200323208469A
:10208000B2FBF0F000F00700861920688660CAE015
:10209000FEF7C6FC0546FEF7C3FC0646FEF7C0FC8D
:1020A0000746FEF7BDFC8046FEF7BAFC61684900B2
:1020B000642219235D43B5FBF1F59446B5FBFCF5AD
:1020C0005E43B6FBF1F65F43B7FBF1F7B7FBFCF7F6
:1020D00002FB1766F60032361746B6FBF7F67600B7
:1020E00006F4F87606EB051603FB08F8B8FBF1F5E5
:1020F0004343B3FBF1F01146B0FBF1F002FB105289
:10210000D20032320846B2FBF0F000F00700861928
:102110002068866087E0884202D04649884241D1E3
:10212000FEF789FC0546FEF786FC0646FEF783FCB3
:102130000746FEF780FC8046FEF77DFC616889005B
:10214000642219235D43B5FBF1F59446B5FBFCF51C
:102150005E43B6FBF1F65F43B7FBF1F7B7FBFCF765
:1021600002FB1766360132361746B6FBF7F606F065
:10217000F00606EB051603FB08F8B8FBF1F5434340
:10218000B3FBF1F01146B0FBF1F002FB105212016B
:1021900032320846B2FBF0F000F00F0086192068DA
:1021A000866040E0FEF73CFC0546FEF739FC06463B
:1021B000FEF736FC0746FEF733FC8046FEF730FCA0
:1021C00061688900642219235D43B5FBF1F59446EB
:1021D000B5FBFCF55E43B6FBF1F65F43B7FBF1F7E9
:1021E000B7FBFCF702FB1766360132361746B6FB23
:1021F000F7F606F0F00606EB051603FB08F8B8FB49
:10220000F1F54343B3FBF1F01146B0FBF1F002FBF3
:102210001052120132320846B2FBF0F000F00F000B
:10222000861920688660BDE8F0810000F369FFFF31
:10223000001001400014014003B581B00146802028
:102240000090012302AA0248FEF751F807BD0000E2
:102250002001002070B40E4A52F8303002EBC00466
:1022600001250A4E002906D01846315C6068854079
:102270000D43F55407E0F35C61688D4023EA0505E2
:1022800052F83000355470BC7047000060020020E6
:1022900010000020704770477047704770477047C4
:1022A0000E48016841F4700101600D49086840F072
:1022B00001000860002088600A680A4802400A603D
:1022C00009484860086820F4802008600020C86041
:1022D0004FF00060054908607047000088ED00E09D
:1022E00000380240FFFFF6FE1030002408ED00E049
:1022F00000000000000000000102030406070809B6
:1023000010B5074979441831064C7C44163404E072
:102310000A68081D114488470146A142F8D110BD42
:102320002C0000004C0000004EF68851CEF2000157
:10233000086840F470000860BFF34F8FBFF36F8FE1
:102340004FF00070E1EE100A70470000BFE3FFFF9E
:102350006C02000010000020000000003FEDFFFFB5
:1023600010000000840000000000002000000000B9
:1023700000F00DF8002801D0FFF7C2FFAFF3008096
:102380000020AFF30080FEF7C4FE00F002F8012049
:10239000704700F001B800000746384600F002F828
:1023A000FBE7000080B5AFF30080024A110018205F
:1023B000ABBEFBE72600020001488047014800470A
:1023C000A1220008F9230008024841680278891810
:1023D0004160704700000020FFF7F6BF0148FFF79B
:1023E00083BC0000B80100200100000000000000D4
:1023F000100000000024F400AFF30080FFF794FF0A
:10240000FFF7B6FF0000000001020304FFF7FEBF64
:10241000FFF7FEBFFFF7FEBFFFF7FEBFFFF7FEBFF0
:10242000FFF7FEBFFFF7FEBFFFF7FEBFFFF7FEBFE0
:10243000FFF7FEBFFFF7FEBFFFF7FEBFFFF7FEBFD0
:10244000FFF7FEBFFFF7FEBFFFF7FEBFFFF7FEBFC0
:10245000FFF7FEBFFFF7FEBFFFF7FEBFFFF7FEBFB0
:10246000FFF7FEBFFFF7FEBFFFF7FEBFFFF7FEBFA0
:10247000FFF7FEBFFFF7FEBFFFF7FEBFFFF7FEBF90
:10248000FFF7FEBFFFF7FEBFFFF7FEBFFFF7FEBF80
:10249000FFF7FEBFFFF7FEBFFFF7FEBFFFF7FEBF70
:1024A000FFF7FEBFFFF7FEBFFFF7FEBFFFF7FEBF60
:1024B000FFF7FEBFFFF7FEBFFFF7FEBFFFF7FEBF50
:1024C000FFF7FEBFFFF7FEBFFFF7FEBFFFF7FEBF40
:1024D000FFF7FEBFFFF7FEBFFFF7FEBFFFF7FEBF30
:1024E000FFF7FEBFFFF7FEBFFFF7FEBFFFF7FEBF20
:1024F000FFF7FEBFFFF7FEBFFFF7FEBFFFF7FEBF10
:10250000FFF7FEBFFFF7FEBFFFF7FEBFFFF7FEBFFF
:10251000FFF7FEBFFFF7FEBFFFF7FEBFFFF7FEBFEF
:10252000FFF7FEBFFFF7FEBFFFF7FEBFFFF7FEBFDF
:10253000FFF7FEBFFFF7FEBFFFF7FEBFFFF7FEBFCF
:10254000FFF7FEBFFFF7FEBFFFF7FEBFFFF7FEBFBF
:10255000FFF7FEBFFFF7FEBFFFF7FEBFFFF7FEBFAF
:0C256000FFF7FEBFFFF7FEBFFFF7FEBF56
:04000005080023F9D3
:00000001FF
