:020000040800F2
:10000000701D0020B5620008F9620008FD6200085A
:100010000163000805630008096300080000000090
:100020000000000000000000000000000D63000858
:10003000116300080000000015630008D562000885
:10004000196300081D630008216300082563000888
:10005000296300082D630008316300083563000838
:10006000396300083D6300084163000845630008E8
:10007000496300084D630008516300085563000898
:10008000596300085D630008616300086563000848
:10009000696300086D6300087163000875630008F8
:1000A000796300087D6300088163000885630008A8
:1000B000896300088D630008916300089563000858
:1000C000996300089D630008A1630008A563000808
:1000D000A9630008AD630008B1630008B5630008B8
:1000E000B9630008BD630008C1630008C563000868
:1000F000C9630008CD630008D1630008D563000818
:10010000D9630008DD630008E1630008E5630008C7
:10011000E9630008ED630008D9620008F163000894
:10012000F5630008F9630008FD6300080164000836
:1001300005640008096400080D64000811640008E3
:1001400015640008196400081D6400082164000893
:1001500025640008296400082D6400083164000843
:1001600035640008396400083D64000841640008F3
:1001700045640008496400084D6400080000000060
:10018000516400085564000810B400230C4601E0D7
:10019000C2545B1CA342FBDB10BC704730B402228C
:1001A000022A1BD100220B465B1E012BF8DBC41870
:1001B00014F8014CFF2C04D01546012D04D1022265
:1001C00002E0150000D10122C55CFF2D04D1C4540A
:1001D000FF24C51805F8014C5B1EE6E730BC7047EC
:1001E00010B41478FF2C0DD0FE2C0BD1491E07E063
:1001F000445CFF2C03D14354FD2111700021491EA2
:100200000029F5DC10BC70470922DFF894194B7AFD
:10021000FF2B00D1704730B400230DE0AA24DFF893
:1002200084592C7203E0AA24DFF87859EC71FF247A
:100230008C54521ED2B29B1C072B3ADCC45CAA2CF5
:10024000F9D18C5CFF2CF6D05624C4548C5CC518B4
:100250006C708C5C082CEAD8DFE804F0080D1217EB
:100260001C2126070600E2E7D8E7DCE7AA24DFF82E
:1002700034592C70DBE7AA24DFF828596C70D6E7D4
:10028000AA24DFF82059AC70D1E7AA24DFF814596A
:10029000EC70CCE7AA24DFF80C592C71C7E7AA242C
:1002A000DFF800596C71C2E7AA24DFF8F858AC7186
:1002B000BDE730BC704700001722DFF8DC19CB7DAA
:1002C000FF2B00D1704730B400230DE0AA24DFF8E3
:1002D000D458EC7703E0AA24DFF8C858AC77FF24A1
:1002E0008C54521ED2B29B1C082B80F28880C45CB6
:1002F000AA2CF8D18C5CFF2CF5D04324C4548C5C20
:10030000C5186C708C5C172CE9D8DFE804F00F146A
:10031000191E23282D32373C41464B50555A5F64F5
:10032000696E730C0E0DDAE7D0E7D4E7AA24DFF884
:1003300074586C72D3E7AA24DFF86858AC72CEE721
:10034000AA24DFF86058EC72C9E7AA24DFF85458F1
:100350002C73C4E7AA24DFF84C586C73BFE7AA24B7
:10036000DFF84058AC73BAE7AA24DFF83858EC73CA
:10037000B5E7AA24DFF82C582C74B0E7AA24DFF8DC
:1003800024586C74ABE7AA24DFF81858AC74A6E7BD
:10039000AA24DFF81058EC74A1E7AA24DFF8045867
:1003A0002C759CE7AA24DFF8FC576C7597E7AA2404
:1003B000DFF8F057AC7592E7AA24DFF8E857EC7540
:1003C0008DE7AA24DFF8DC572C7688E7AA24DFF82B
:1003D000D4576C7683E7AA24DFF8C857AC767EE75B
:1003E000AA24DFF8C057EC7679E7AA24DFF8B457DF
:1003F0002C7774E7AA24DFF8AC576C776FE730BC32
:10040000704710B50446AA220821FFF7BDFE53200D
:10041000A071DFF8C80A0178E1718178FF2903D063
:1004200057212171807860712046FFF7EDFE20464C
:10043000BDE8104040E770B5DFF85C481821204661
:10044000FFF7ACFEDFF858570A212846FFF7A6FE53
:10045000DFF85067AB7BB21C0A212846FFF7C0FECD
:100460002B7B32460A212846FFF7BAFE6B7B721CB3
:100470000A212846FFF7B4FEEB7BF21C0A2128462E
:10048000FFF7AEFE2B7C321D0A212846FFF7A8FE9F
:100490006B7C721D0A212846FFF7A2FEAB7CB21DC1
:1004A0000A212846FFF79CFE2B7D06F108020A214F
:1004B0002846FFF795FEEB7CF21D0A212846FFF740
:1004C0008FFEDFF87C5A2B7C06F11902182120469A
:1004D000FFF786FE6B7C06F11A0218212046FFF713
:1004E0007FFE2B7D06F11D0218212046FFF778FEC6
:1004F0006B7A06F1120218212046FFF771FE2B7A63
:1005000006F1110218212046FFF76AFEEB7A06F188
:10051000140218212046FFF763FEAB7A06F113029E
:1005200018212046FFF75CFE6B7B06F116021821AE
:100530002046FFF755FE2B7B06F1150218212046B9
:10054000FFF74EFEEB7B06F1180218212046FFF75D
:1005500047FEAB7B06F1170218212046FFF740FE4D
:10056000AB7B06F1170218212046FFF739FE2B78E6
:1005700006F1090218212046FFF732FE6B7806F1DA
:100580000A0218212046FFF72BFEAB7806F10B027A
:1005900018212046FFF724FEEB7806F10C02182103
:1005A0002046FFF71DFE2B7906F10D02182120468B
:1005B000FFF716FE6B7906F10E0218212046FFF7B1
:1005C0000FFEAB7906F10F0218212046FFF708FE57
:1005D000EB7906F1100218212046FFF701FEAB7CF3
:1005E00006F11B0218212046FFF7FAFDEB7C06F10D
:1005F0001C0218212046FFF7F3FDAB7D06F11F0218
:1006000018212046FFF7ECFD6B7D06F11E02182134
:100610002046BDE87040E3E5F8B504460025DFF864
:100620002469DFF824790BE0601940783146C874FA
:1006300005E03846017A3246117402210176AD1C7C
:10064000082D80F2A181605D432840D04D2808D05C
:10065000532800F03C81562800F0E2805728E3D070
:10066000EDE76019407806281AD8DFE800F00407A3
:100670000A0D10131600387C707415E0787C7074C5
:1006800012E0B87C70740FE0F87C70740CE0387D78
:10069000707409E0787D707406E0B87D707403E0D2
:1006A000387A307401203876707CB97E814209D066
:1006B000B876002000F078FA002000F0C0FB00209F
:1006C00000F08CFB0020F86178763075B7E7601990
:1006D0004078172800F29D80DFE800F00C11161B0F
:1006E00020252A31383F464D545B626970777E83FE
:1006F000889B8D94BB20DFF8981948729FE7BB2038
:10070000DFF88C1988729AE7BB20DFF88419C87269
:1007100095E7BB20DFF87819087390E7BB20DFF876
:10072000701948738BE7BB20DFF86419887386E77C
:10073000DFF85C09BB21C173002101747FE7DFF89A
:100740005009BB2101740021C17378E7DFF840092B
:10075000BB2141740021817471E7DFF83409BB21AA
:100760008174002141746AE7DFF82409BB21C17458
:100770000021017563E7DFF81809BB21017500212D
:10078000C1745CE7DFF80809BB2141750021817560
:1007900055E7DFF8FC08BB218175002141754EE764
:1007A000DFF8EC08BB21C1750021017647E7DFF8CF
:1007B000E008BB2101760021C17540E7DFF8D008D1
:1007C000BB2141760021817639E7DFF8C408BB21DF
:1007D00081760021417632E7BB20DFF8B418C87675
:1007E0002DE7BB20DFF8A818087728E7BB20DFF843
:1007F000A018487723E7DFF89808BB21817700210C
:10080000C1771CE7DFF88808BB21C1770021817719
:1008100015E73846017A32461174032101760EE756
:100820006019407808284BD8DFE800F0050D151D49
:10083000252D353C4300DFF85808BB21017000210D
:1008400041804170FBE6DFF84808BB214170002180
:1008500001704180F3E6DFF83808BB218170002188
:100860000180C170EBE6DFF82808BB21C1700021D0
:1008700001808170E3E6DFF81808BB2101710021D7
:1008800041718171DBE6DFF80808BB21417100216D
:1008900001718171D3E6DFF8F807BB218171002176
:1008A0008180CCE6DFF8E807BB21C171002101722D
:1008B000C5E6DFF8DC070021C171BB210172BEE68D
:1008C0003846017A3246117404210176B7E6601980
:1008D000407810283FF6ADAEDFE800F00B161A1E88
:1008E0000A22262A2E32363C42464A4E5200A0E6C2
:1008F000A5E63046BB2101703946097C427C8A421C
:100900003FF49DAE41749AE6BB203146487096E6AE
:10091000BB203146887092E6BB203146C8708EE617
:10092000BB20314608718AE6BB203146487186E615
:10093000BB203146887182E6BB203146C8717EE615
:10094000BB20314608727AE63046BB214172002155
:10095000817274E63046BB218172002141726EE6DD
:10096000BB203146C8726AE6BB203146087366E692
:10097000BB203146487362E6BB20314688735EE691
:10098000BB203146C8735AE6F1BDDFF8BC15C86913
:10099000401C00EE100A81ED070ADFF8642592F88A
:1009A000540000280AD1BBEEEF0ABDEEC00A10EEDB
:1009B000100AC0B2142390FBF3F04876487E0B284F
:1009C00002DBFF2082F8540070470278FF2A00D033
:1009D00001707047F0B4DFF8C811DFF82425034632
:1009E000FF2B2DD19378FD2B08D01378FD2B05D04C
:1009F0005378FD2B02D0D378FD2B1CD1002318E0B7
:100A0000CC5C8D7BAC4201D1FF24CC54CC5C0D7B03
:100A1000AC4201D1FF24CC54CC5C4D7BAC4201D123
:100A2000FF24CC54CC5CCD7BAC4201D1FF24CC5410
:100A30005B1C0A2BE4DBFF23937013705370D3709D
:100A40000B7B04461D46AC4227D19478FD2C05D083
:100A50005478FD2C02D0D478FD2C16D1002412E05D
:100A60000D5D8E7BB54201D1FF250D550D5D4E7B91
:100A7000B54201D1FF250D550D5DCE7BB54201D1AB
:100A8000FF250D55641C0A2CEADB1478FD2C01D0DF
:100A9000FE2414700024548054708C7B0546264636
:100AA000B54226D11578FD2D05D05578FD2D02D003
:100AB000D578FD2D15D1002511E04E5D9E4201D166
:100AC000FF264E554E5D4F7BBE4201D1FF264E554F
:100AD0004E5DCF7BBE4201D1FF264E556D1C0A2DC7
:100AE000EBDB9578FD2D01D0FE2595700025158056
:100AF000D5704D7B06462F46BE4226D11678FD2E78
:100B000005D09678FD2E02D0D678FD2E15D1002680
:100B100011E08F5D9F4201D1FF278F558F5DA74266
:100B200001D1FF278F558F5D91F80FC0674501D127
:100B3000FF278F55761C0A2EEBDB5678FD2E01D051
:100B4000FE265670002616705680CE7BB04224D109
:100B50001078FD2805D09078FD2802D05078FD2827
:100B600013D100200FE00E5C9E4201D1FF260E54EF
:100B70000E5CA64201D1FF260E540E5CAE4201D19E
:100B8000FF260E54401C0A28EDDBD078FD2801D04A
:100B9000FE20D070002010705080F0BC7047000024
:100BA000000D0020740A002038B50446D44D2146BB
:100BB00005F13D00FFF709FF214605F13900FFF778
:100BC00004FF214605F13A00FFF7FFFE214605F13B
:100BD0003200FFF7FAFE214605F13100FFF7F5FE7E
:100BE000214605F13400FFF7F0FE214605F1330000
:100BF000FFF7EBFE214605F13600FFF7E6FE214642
:100C000005F13500FFF7E1FE214605F13800FFF759
:100C1000DCFE214605F13700FFF7D7FE214605F13E
:100C20002900FFF7D2FE214605F12A00FFF7CDFE8D
:100C3000214605F12B00FFF7C8FE214605F12C00E7
:100C4000FFF7C3FE214605F12D00FFF7BEFE21464A
:100C500005F12E00FFF7B9FE214605F13B00FFF735
:100C6000B4FE214605F13C00FFF7AFFE214605F139
:100C70003000FFF7AAFE214605F12F00FFF7A5FE81
:100C8000214605F13F00FFF7A0FE214605F13E0099
:100C9000BDE8344099E60000180D002038B5044640
:100CA000974D214605F11D00FFF78FFE214605F106
:100CB0001900FFF78AFE214605F11A00FFF785FEAD
:100CC000214605F11200FFF780FE214605F11100D3
:100CD000FFF77BFE214605F11400FFF776FE214663
:100CE00005F11300FFF771FE214605F11600FFF72D
:100CF0006CFE214605F11500FFF767FE214605F160
:100D00001800FFF762FE214605F11700FFF75DFEB0
:100D1000214605F10900FFF758FE214605F10A00BA
:100D2000FFF753FE214605F10B00FFF74EFE21466B
:100D300005F10C00FFF749FE214605F10D00FFF714
:100D400044FE214605F10E00FFF73FFE214605F166
:100D50001B00FFF73AFE214605F11C00FFF735FEA8
:100D6000214605F11000FFF730FE214605F10F0086
:100D7000FFF72BFE214605F11F00FFF726FE214657
:100D800005F11E00BDE834401FE638B504465C4D51
:100D90002146A81CFFF719FE21462846FFF715FE3D
:100DA0002146681CFFF711FE2146A81DFFF70DFE26
:100DB0002146E81CFFF709FE2146281DFFF705FE26
:100DC000214605F10800FFF700FE2146E81DFFF768
:100DD000FCFD2146681DBDE83440F6E538B5044603
:100DE000474D214605F12200FFF7EFFD214605F1B1
:100DF0002000FFF7EAFD214605F12100FFF7E5FDA0
:100E0000214605F12600FFF7E0FD214605F123000C
:100E1000FFF7DBFD214605F12400FFF7D6FD214653
:100E200005F12800FFF7D1FD214605F12700FFF766
:100E3000CCFD214605F12500BDE83440C5E538B5B7
:100E400004462F4D214605F14400FFF7BEFD214623
:100E500005F14500FFF7B9FD214605F14600FFF712
:100E6000B4FD214605F14700FFF7AFFD214605F12E
:100E70004800FFF7AAFD214605F14900FFF7A5FD4F
:100E8000214605F14A00FFF7A0FD214605F14B0080
:100E9000FFF79BFD214605F14C00FFF796FD21462B
:100EA00005F14D00FFF791FD214605F14E00FFF7DA
:100EB0008CFD214605F14F00FFF787FD214605F126
:100EC0004300FFF782FD214605F14100FFF77DFD5C
:100ED000214605F14000BDE8344076E5C40A002013
:100EE00010B500F0E9F8002808D06A4C204600F060
:100EF000E5F82046BDE81040FFF78EBB10BD0000AE
:100F0000740A002010B5FFF740FD634C607E012895
:100F100010D1E07E002811D104F12000FFF771FA12
:100F2000082204F120014FF4007000F0C9F80120FC
:100F3000E07610BDFFF77FFA0020E07610BD0000DC
:100F4000E80C0020B40A0020380C002038B5524CC0
:100F500000202074012060740220A0740320E0743B
:100F600004202075052060750620A07500202070E3
:100F7000012060700220A0700320E0700520207125
:100F8000062060710720A0710820E07109202072FE
:100F90000A2060720B20A0720C20E0720D202073DA
:100FA0000E2060730F20A0731020E0733B480021D7
:100FB000017001214170022181700321C17004215F
:100FC000017105214171062181710721C17108213B
:100FD0000172092141720A2181720B21C1720C2117
:100FE00001730D2141730E2181730F21C1731021F3
:100FF000017411214174122181741321C1741421CF
:1010000001751621417517218175254D0020287322
:10101000012068730220A8730320E8730420287459
:10102000052068740620A8740720E8740820287535
:101030000020FFF7B9FD0020FFF7D0FE0020FFF7EA
:10104000FEFEFF20FFF72AFEFF20FFF79EFE154859
:10105000FF2181700021C170A1790170A17D4170D3
:1010600000210171AA22082104F12000FFF78CF869
:10107000FF2218210C48FFF787F8FF220A21284693
:10108000FFF782F809480A4941600A49816031BD89
:10109000940A00205C0D0020380C0020E80C002091
:1010A000000D0020C40A0020180D0020D00C0020E4
:1010B000E10E0008050F000800F004B800F006B8C3
:1010C00000F00FB80021234800F087BA80B503462E
:1010D000224A00211F4800F0F1F9401E8041C00F54
:1010E00002BD10B51C4C2060226104F140030A4689
:1010F0002146184800F076F9401E8041C043C00FD9
:1011000010BD10B51448002141608160C1600175B7
:1011100042F2604181610021C161016241628162EC
:101120000D21C16200210163012141638163094CEA
:1011300000F11801204600F0ACF8002801D0012091
:1011400010BD204600F01DF9401E8041C043C00F75
:1011500010BD0000100C0020200B0020840C00208B
:1011600038B5040001D1012032BD94F820000028D8
:1011700002D1204600F060FA2068016821F00201E7
:10118000016000F021FB05462068416889070DD504
:1011900000F01AFB401B0B28F6D3606A40F40030C5
:1011A0006062052084F82000012032BD016841F012
:1011B0000101016000F008FB054620684168C9078D
:1011C0000DD400F001FB401B0B28F6D3606A40F4FD
:1011D00000306062052084F82000012032BD217EAD
:1011E0000129016803D141F08001016002E021F092
:1011F000800101602068617E0129016803D141F00E
:101200004001016002E021F0400101602068A17E00
:101210000129016803D141F02001016002E021F0C1
:10122000200101602068E17E0129016803D121F0DD
:101230001001016002E041F0100101602068217F8F
:101240000129016803D141F00801016002E021F0A9
:10125000080101602068617F0129016803D141F024
:101260000401016002E021F004010160A168E0686E
:10127000014320690143606901436068401E0143E6
:101280002068C16100206062012084F820000020F5
:1012900032BDF0B490F82020012A01D0022A69D191
:1012A0004E4A106840F001001060106820F47C5035
:1012B000106010684B6A40EA0320106001200B7D2B
:1012C00003F01F0300FA03F3DC43D0692040D06130
:1012D000C869002816D1D0682040D060404800F589
:1012E00010754E69CF68D1F804C0CCEA074745F8BD
:1012F000367000F511704D698E680F68C7EA0646B2
:1013000040F83560C869012816D1D0681843D0600C
:10131000334800F510754E690F68D1F804C0CCEA67
:10132000074745F8367000F511704D698E68CF6833
:10133000C7EA064640F8356088690028506802D13F
:101340002040506001E0184350600869002850694F
:1013500002D10440546101E018435061086A012839
:1013600002D1D0690343D361106840084000106087
:10137000002004E0416A41F4802141620120F0BC78
:10138000704738B5044694F8200001281FD1022088
:1013900084F820002068016849084900016000F0D5
:1013A00013FA054620684068C0070DD500F00CFA16
:1013B000401B0B28F6D3606A40F4003060620520C1
:1013C00084F82000012032BD0020606232BD606AD6
:1013D00040F400206062012032BD00000066004041
:1013E00000640040F0B490F820400568AD68012C1E
:1013F00001D0022C5BD115F0E05F52D0C5F301643F
:10140000032C05D3416A41F400014162012053E0FD
:101410000125A5401D60036803F5C0752401CE6851
:101420008B68002B04D10B6846EA43562E5104E02A
:101430004F6843EAC7031E432E510B69056805F543
:10144000C2752B51097D012906D1016801F5C271D0
:101450000B5943F480730B51D17993791B0443EA00
:101460000163517943EA012311790B430168214457
:10147000C1F88C31D17893781B0443EA0163517829
:1014800043EA012311780B4301682144C1F88831F4
:10149000006800F5C070015941F0010101510020C0
:1014A0000AE0416A41F400114162012004E0416A0E
:1014B00041F4802141620120F0BC704770B490F883
:1014C0002040012C02D0022C40F0808004680029CA
:1014D00009D1E56815F0030F0FD1416A41F40011FD
:1014E0004162012077E0256915F0030F05D1416ABB
:1014F00041F40011416201206DE00D0104F5D87442
:10150000645904F004049460066806F5D876002C4B
:10151000745902D1640D146001E0E4085460046859
:1015200004F5D8746459C4F34004D46004682C44AE
:10153000D4F8B44104F00F04146104682C44D4F8C6
:10154000B441C4F30724946104682C44D4F8B44132
:10155000240C546102682A44D2F8B8211A70026837
:101560002A44D2F8B821120A5A7002682A44D2F8E2
:10157000B821120C9A7002682A44D2F8B821120ECF
:10158000DA7002682A44D2F8BC211A7102682A442F
:10159000D2F8BC21120A5A7102682A44D2F8BC213E
:1015A000120C9A7102682A44D2F8BC21120EDA7128
:1015B0000068002904D1C16841F02001C16003E046
:1015C000016941F020010161002004E0416A41F419
:1015D00080214162012070BC70470246002092F8D1
:1015E0002030012B01D0022B09D11068002903D132
:1015F000C06800F003007047006900F00300704706
:1016000082B0002000906748416841F48041416009
:10161000416801F480410091009900210091016826
:1016200041F080510160006800F080500090009807
:10163000072002B000F027B910B586B0044600229A
:10164000142101A800F03EF920685749884224D1AE
:10165000002000905548016941F000710161016965
:1016600001F000710091009900210091016841F0A2
:1016700008010160006800F0080000900098032055
:101680000190022002900020039003200490092082
:10169000059001A9464800F04FF906B010BD10B5FD
:1016A00086B004460022142101A800F00BF920683E
:1016B0004049884225D1002000903C4C206840F0F1
:1016C00002002060206800F00200009000984FF4B3
:1016D00010700190122002900120039000200490CD
:1016E0000420059001A9344800F026F9002000905C
:1016F000206940F400102061206900F4001000907F
:10170000009806B010BD00682C49884200D0704790
:1017100080B5002000902348016841F0100101606D
:10172000006800F01000009000980022114636205A
:1017300000F0AAF83620BDE8024000F0B4B810B5B9
:1017400086B004460022142101A800F0BBF82068EE
:101750001B49884224D1002000901448016941F4BB
:1017600000310161016901F400310091009900210B
:101770000091016841F001010160006800F0010082
:10178000009000980C20019002200290012003900C
:10179000032004900720059001A90A4800F0CCF826
:1017A00006B010BD403802400064004030380240AE
:1017B000000C0240005400400004024000100040B1
:1017C000004400400000024001484068704700BFEC
:1017D00054050020354A13684FF6FF010B40000204
:1017E00000F4E060184332490843106070472F4806
:1017F0000068C0F302207047010007D4012200F006
:101800001F018A402B49400941F8202070470901F7
:10181000020002D4284881547047284802F00F0281
:10182000104400F8041C704710B400F00700C0F129
:101830000703052B00D30423041D072C01D200202D
:1018400000E0C01E012404FA03F35B1E194081402E
:1018500004FA00F0401E1040084310BC704710B559
:10186000401EB0F1807F01D3012010BD144C606098
:101870000F214FF0FF30FFF7CAFF0020A0600720C4
:101880002060002010BDA5E770B504460D46164641
:10189000FFF7ADFF32462946FFF7C6FF0146204657
:1018A000BDE87040B3E7A7E7D9E700000CED00E022
:1018B0000000FA0500E100E000E400E018ED00E0BF
:1018C00010E000E062F30F2262F31F4200B500BF98
:1018D000130096469446103928BFA0E80C50FAD859
:1018E0005FEA417C28BF0CC048BF40F8042BC90701
:1018F00028BF20F8022B48BF00F8012B00BD30B4F0
:10190000002513E050F8042BD30744BFA9F10103CD
:101910009A18091F042942F8045BFAD213468C076F
:1019200044BF15809B1CC90748BF1D7050F8041B9D
:101930000029E7D130BC7047F8B400232DE04FF008
:10194000080C05E0DFF8B8C16045F8D14FF0070C8E
:101950000CFA06FC4CEA070C45F824C0694C2668D2
:10196000D5432E404F68FF0300D5164326606668B6
:101970002E404F68BF0300D516436660A6682E4010
:101980004F68FF0200D51643A660E6682E404D68FA
:10199000AD0200D51643E6605B1C0F2B00F29E8063
:1019A00001249C400A682240A242F5D14D68022DD4
:1019B00001D0122D13D11D46ED0800EB8506356AC6
:1019C0009F0007F01C074FF00F0C0CFA07FC25EAEC
:1019D0000C05D1F810C00CFA07F73D4335620768D3
:1019E0005D000326AE40F643374091F804C00CF08A
:1019F000030C0CFA05FC4CEA070707604F68012F3F
:101A000005D0022F03D0112F01D0122F10D18768DB
:101A10003740D1F80CC00CFA05FC4CEA0707876088
:101A20004768A7434C68C4F300149C4027434760B1
:101A3000C46834408E6806FA05F52C43C4604C68CF
:101A4000E400A9D5002400942F4C256845F4804576
:101A50002560246804F480440094009C1C46A4087B
:101A60002A4D55F824709E0006F00C064FF00F0C1E
:101A70000CFA06FC27EA0C07DFF894C0604502D197
:101A80004FF0000C64E7DFF88CC0604502D14FF0E6
:101A9000010C5DE7DFF880C0604502D14FF0020C19
:101AA00056E7DFF878C0604502D14FF0030C4FE7EE
:101AB000DFF86CC0604502D14FF0040C48E7DFF856
:101AC00064C0604502D14FF0050C41E7DFF858C013
:101AD00060457FF437AF4FF0060C39E7F1BC704733
:101AE000006901400846401E8041C043C00F704756
:101AF000002A01D0816170470904816170470000AC
:101B0000001C0240003C01404438024008380140BB
:101B1000000002400004024000080240000C0240A5
:101B2000001002400014024000180240F8B5040002
:101B300025D004F13C056878002804D100202870E5
:101B40002046FFF7ACFD2420687020680168490832
:101B50004900016000F032FD0146DFF800256068B1
:101B6000904205D2DFF8F80481428041C00F04E0C2
:101B7000DFF8F00481428041C00F012801D101202B
:101B8000F2BDDFF8E404B1FBF0F320684668B60963
:101B900053EA861646602668376A6068904201D22A
:101BA0005B1C07E04FF4967043434FF47A70B3FB2D
:101BB000F0F35B1CBF0953EA871333622368DE69C5
:101BC0006768491E974209D27F00B1FBF7F1491CB3
:101BD000C1F30B0104292ED204212CE0A0680028B7
:101BE00007D107EB4702B1FBF2F2521CC2F30B0222
:101BF00008E019227A43B1FBF2F2521CC2F30B0245
:101C000042F48042120501D1012114E0002807D1DD
:101C100007EB4707B1FBF7F1491CC1F30B0108E0E3
:101C200019204743B1FBF7F1491CC1F30B0141F403
:101C3000804141F40041DFF8340406400E43DE6188
:101C400021680A6822F0C002E0690243206A024368
:101C50000A6021688A68DFF818040240206902439C
:101C6000E06802438A602168CA68120AA369606951
:101C7000034353EA0222CA602068016841F001016F
:101C80000160002068602020687000202063A87038
:101C9000F2BD2DE9FC470646884691469A46FFF775
:101CA00093FD044606F13C077878202840F08C80AC
:101CB000009419230122DFF8BC13304600F0B8FA73
:101CC000002840F08180387801287DD001203870CC
:101CD00030680168C90703D4016841F0010101605F
:101CE0000A9D3068016821F400610160212078704C
:101CF0001020B87000207860C6F82490A6F82AA0BA
:101D0000708D3085DFF87003F06223462A46414625
:101D1000304600F0B5F9002840D10020009030682E
:101D200041690091806900900098308D002840D072
:101D300022462946304600F014FB002830D1706A54
:101D4000007831680861706A401C7062708D401EB6
:101D50007085308D401E308531684A6952070ED536
:101D600080B200280BD0706A00780861706A401C4D
:101D70007062708D401E7085308D401E3085224609
:101D80002946304600F018FB0028CED07868042899
:101D900004D13068016841F400710160012014E051
:101DA00078680428FAD13068016841F40071016054
:101DB000F4E73068016841F4007101602020787018
:101DC0000020B870387000E00220BDE8F6872DE9E9
:101DD000FC470646884691469A46FFF7F5FC0446BE
:101DE00006F13C077878202840F0358100941923CB
:101DF0000122DFF88012304600F01AFA002840F085
:101E00002A813878012800F0268101203870306856
:101E10000168C90703D4016841F0010101600A9D0E
:101E20003068016821F40061016022207870102080
:101E3000B87000207860C6F82490A6F82AA0708DAB
:101E40003085DFF83402F06223462A4641463046A8
:101E500000F067F9002840F0D780308D3168002805
:101E60000BD100200090486900908869009000988C
:101E7000086840F40070086047E0012810D1086845
:101E800020F4806008600020009030684169009173
:101E9000816900910099016841F40071016034E0AA
:101EA0000228086810D120F480600860306801685A
:101EB00041F40061016000200090306841690091A8
:101EC00080690090009820E040F480600860002065
:101ED000009030684169009180690090009814E09A
:101EE00022462946304600F092FA002840F08C80C5
:101EF00030680069716A0870706A401C7062308DC9
:101F0000401E3085708D401E7085308D002800F099
:101F10009C800146042970D20128E1D0DFF85C8161
:101F2000022800942B4626D100224146304600F07C
:101F30007FF9002868D13068016841F400710160C0
:101F400030680069716A0870706A401C7062308D78
:101F5000401E3085708D401E708530680069716A42
:101F60000870706A401C7062308D401E3085708D24
:101F7000401E7085C9E700224146304600F058F9FE
:101F8000002841D13068016821F480610160306827
:101F90000069716A0870706A401C7062308D401E62
:101FA0003085708D401E708500942B46002241467E
:101FB000304600F03DF9002826D13068016841F430
:101FC0000071016030680069716A0870706A401CB5
:101FD0007062308D401E3085708D401E7085306877
:101FE0000069716A0870706A401C7062308D401E12
:101FF0003085708D401E708587E722462946304621
:1020000000F005FA002801D0012025E030680069C1
:10201000716A0870706A401C7062308D401E308595
:10202000708D401E70853068416949077FF56DAF3E
:102030000069716A0870706A401C7062308D401EC1
:102040003085708D401E70855FE7202078700020FD
:10205000B870387000E00220BDE8F687A186010064
:1020600080841E0000093D0040420F000030FFFF49
:10207000007CFFFF020010000000FFFF04000100D1
:10208000F8B504460D4616461F46E06A082804D0F7
:10209000012802D06349884205D12068016841F4D3
:1020A0008071016007E0206B122804D1206801686C
:1020B00041F4807101600097334600224FF0011116
:1020C000204600F0B5F8002801D00120F2BD2068BC
:1020D0002169B1F5804F03D105F0FE05056114E0DB
:1020E0002946C90901F0060141F0F00101613B46B2
:1020F0003246DFF83411204600F0DCF8002801D029
:102100000120F2BDEDB2206805613B463246DFF8A2
:102110001C11204600F0CEF8401E8041C043C00F85
:10212000F2BD2DE9FC4104460F4615461E46E06A05
:1021300021680A6842F480620A60082804D00128F5
:1021400002D03849884205D12068016841F4807185
:10215000016007E0206B112804D12068016841F478
:102160008071016000962B4600224FF0011120463D
:1021700000F05EF8002801D0012051E020682169BC
:10218000B1F5804F04D147F00107FFB207613DE090
:10219000B8464FEAD81808F0060848F0F001016187
:1021A00033462A46DFF88010204600F083F80028E6
:1021B00001D0012034E0FFB22068076133462A468F
:1021C000DFF86810204600F075F8002801D00120E3
:1021D00026E000200090206841690091816900910B
:1021E0000099016841F48071016000962B4600223D
:1021F0004FF00111204600F01BF8002801D001200B
:102200000EE048F0F1082068C0F8108033462A46F6
:102210000649204600F04EF8401E8041C043C00FE2
:10222000BDE8F6810000FFFF080001000200010088
:102230002DE9F04105460E4617461C46DDF818808C
:1022400028683146090CC9B2012909D140693040DA
:1022500080B2B1B2884201D101200AE0002008E03A
:102260008069304080B2B1B2884201D1012000E0E3
:102270000020394688421AD114F1010FE0D0FFF74F
:10228000A3FAA0EB0800844201D3002CD8D100208F
:10229000286305F13C0020214170002181704168D4
:1022A00041F02001416000210170012000E0002088
:1022B000BDE8F081F8B505460E4614461F4628686D
:1022C0003146090CC9B2012909D14169314089B2AD
:1022D000B2B2914201D101210AE0002108E08169F6
:1022E000314089B2B2B2914201D1012100E0002116
:1022F000002934D14169490517D5016841F40071BD
:1023000001606FF48060296848610020286305F14E
:102310003C002021417000218170416841F004019E
:102320004160002101700120F2BD14F1010FC6D0FF
:10233000FFF74AFAC01B844201D3002CBFD1002012
:10234000286305F13C002021417000218170416823
:1023500041F020014160002101700120F2BD002008
:10236000F2BD70B505460C46164628684069000661
:1023700020D4284600F080F8002801D0012070BD4C
:1023800014F1010FF1D0FFF71FFA801B844201D333
:10239000002CEAD10020286305F13C002021417087
:1023A00000218170416841F02001416000210170ED
:1023B000012070BD002070BD70B505460C46164664
:1023C00028684069400720D4284600F055F80028C6
:1023D00001D0012070BD14F1010FF1D0FFF7F4F925
:1023E000801B844201D3002CEAD10020286305F130
:1023F0003C002021417000218170416841F02001A2
:10240000416000210170012070BD002070BD70B5D9
:1024100005460C4616462868416949062AD4416992
:10242000C90616D4FFF7D0F9801B844201D3002CD3
:10243000F1D10020286305F13C00202141700021EA
:102440008170416841F0200141600021017001204C
:1024500070BD6FF0100141610020286305F13C0060
:10246000202141700021817041684160002101708C
:10247000012070BD002070BD01684A69520511D568
:102480006FF480624A61002101633C302021417079
:1024900000218170416841F0040141600021017018
:1024A00001207047002070472DE9F04104460F4697
:1024B000002C5BD04C4E306800F00F00B84205D2C3
:1024C0003770306800F00F00B8424FD12068474D98
:1024D000810712D5400703D5A86840F4E050A860F2
:1024E0002078000703D5A86840F46040A860A96878
:1024F00021F0F001A0680143A9602078C0072AD527
:102500006068012803D1296889030BD42EE00228D2
:1025100001D0032803D12968890103D426E0296862
:10252000890723D5A968890850EA8100A860FFF7C8
:102530004BF98046A86800F00C006168B0EB810F91
:1025400009D0FFF741F9A0EB080041F28931884238
:10255000F0D303202DE0306800F00F00874207D24F
:102560003770306800F00F00B84201D0012020E041
:102570002078400705D5A96821F4E051E0680143BF
:10258000A9602078000706D5A86820F4604021697A
:1025900040EAC100A86000F033F81549AA68C2F308
:1025A0000312895CC84013490860002000F05AF803
:1025B0000020BDE8F0810F480068704780B5FFF744
:1025C000FAFF0E490C4A1268C2F38222895CC840A5
:1025D00002BD80B5FFF7EFFF0849074A1268C2F352
:1025E0004232895CC84002BD003C024000380240D3
:1025F000C86100086005002008380240F062000849
:1026000010B5154C606800F00C00042802D00828B2
:1026100002D01EE0114810BD226802F03F020023E4
:10262000206840022068C0F3881005D50B49A1FB43
:10263000000100F03BF804E00949A1FB000100F0B3
:1026400035F82168C1F30141491C4900B0FBF1F0A4
:1026500010BD034810BD00BF0438024000127A00CC
:102660000024F40038B504460E4D4FF47A702978F2
:10267000B0FBF1F00C490968B1FBF0F0FFF714F979
:10268000002801D0012032BD102C08D200222146A2
:102690004FF0FF30FFF7F8F8AC60002032BD0120AA
:1026A00032BD00BF5405002060050020BBBBE1B176
:1026B000B2F5803F80F07E80022A1ED98C46B1FBA5
:1026C000F2F102FB11C31B0443EA1043B3FBF2FC1B
:1026D00002FB1C3380B240EA0343B3FBF2F002FB7F
:1026E000103240EA0C4000237047022A05D9844684
:1026F000B0FBF2F002FB10C270474AB105D100F006
:10270000010249085FEA3000704700220023704749
:1027100000F0E4B80B000200002100207047904256
:1027200071EB030CF6D3B3F5803F2FD2F0B5B3FABB
:1027300083F7B1FA81F4A7F10F0E3D1B5340CEF1A0
:10274000200602FA0EF2F3415340B5F10F0746D8C6
:102750000F3C2C444140C4F12006A040F1414140CF
:10276000B1FBF3F603FB1611A2FB0645001BA941C2
:1027700002D2761E8018594180EA010221FA0EF336
:1027800062FA0EF200215A403046F0BD30B4B1FB7F
:10279000F3FC03FB1C11A2FB0C45001BA94103D257
:1027A000ACF1010C8018594130BC02460B46604622
:1027B00000217047B2F1807F65D3F0B5B2FA82F79D
:1027C000B1FA81F4C7F10F063D1B22FA06F307F1B7
:1027D000110EF24120355A40B5F10F07B8D94140EA
:1027E000C4F12006A040F1414140B1FBF3FC03FBE2
:1027F0001C11A2FB0C45001BA94103D2BCF1010C2A
:10280000801859410F2F12D30F3FC90341EA50419D
:10281000B1FBF3F603FB1611A2FB0645D4EBC03067
:10282000A94102D2761E8018594146EACC3C07B332
:102830004140C7F12006B840F1414140B1FBF3F6F9
:1028400003FB1611A2FB0645001BA94102D2761E0E
:102850008018594180EA010221FA0EF3C7F12004E1
:1028600062FA0EF20CFA07F05A402CFA04F13043E7
:10287000F0BD80EA010221FA0EF3002162FA0EF2A5
:1028800060465A40F0BD8C46B1FBF2F102FB11C329
:102890001B0243EA1063B3FBF2FC02FB1C331B0276
:1028A0004CEA002043EA1063B3FBF2FC02FB1C334A
:1028B0001B024CEA002043EA1063B3FBF2FC02FB6C
:1028C0001C331B024CEA002043EA1063B3FBF2FC0A
:1028D00002FB1C324CEA00200023704770470000C6
:1028E00080B50FF2C07001F034F8032001F0D4F885
:1028F000012001F0D1F8022001F0E7F81B2001F0DF
:1029000035F9012815D101F0FFF9022001F0C4F8D2
:102910000FF23110DFF8581748600FF24900DFF866
:102920005417C860DFF850078079DFF8501781F836
:102930005000DFF84C078078012812D101F0EAF945
:102940000FF21160DFF82C17C860DFF82C078078D1
:10295000DFF8281781F850000220BDE8024001F09E
:102960009BB801BDF8B500210D2001F012F9DFF888
:102970001457DFF8FC46DFF8106768783179884231
:1029800005D10FF2287000F0D3FF60688047DFF8B0
:10299000E87668783178884207D10FF21C7000F031
:1029A000C7FF01F011F9387828706878717888428B
:1029B00003D1FFF795FF787828706878B17988425D
:1029C00007D10FF2007000F0B3FF01F0FDF8F878C6
:1029D00028706878B178884205D10FF2F86000F06D
:1029E000A7FFB87928706878F178884207D10FF28C
:1029F000F06000F09DFF01F0E7F8F879287020788A
:102A0000002804D1DFF88406C078FDF7E3FF2078C2
:102A1000022804D1DFF874068078FDF7DBFF207808
:102A2000012804D1DFF864060078FDF7D3FF207891
:102A3000032806D1DFF854064078BDE8F240FDF7E0
:102A4000C9BFF1BD10B50FF2A46000F071FFDFF84F
:102A500020460020207001460D2001F09AF8012147
:102A6000002001F096F80121062001F092F80021E3
:102A7000072001F08EF80121022001F08AF80021E0
:102A8000012001F086F80121092001F082F80121DE
:102A9000082001F07EF80FF20900606010BD000010
:102AA00010B50FF2546000F043FFDFF8C445A06892
:102AB000401CA06041F28831884208D30FF2486080
:102AC00000F025FF0FF24550DFF8A815C860182068
:102AD00001F04CF800283FD1172001F047F80128F9
:102AE0003AD10021052001F054F80121042001F021
:102AF00050F8152001F03AF801282DD1132001F0EB
:102B000035F8012828D11A2001F030F8002823D107
:102B1000122001F02BF800281ED1112001F026F818
:102B2000002819D1192001F021F8002814D10F2014
:102B300001F01CF801280FD1102001F017F800282F
:102B40000AD10021084601F024F80FF2D45000F019
:102B5000EFFE0FF20900606010BD000010B5DFF855
:102B60001805C078DFF8141581F85000DFF800452B
:102B7000E068401CE060B0F57A7F04D30FF28D402E
:102B8000DFF8F014C860082000F0F0FF012803D13E
:102B90000021082000F0FDFF182000F0E7FF0128C9
:102BA0000AD10121082000F0F4FF0FF2845000F058
:102BB000BFFE0FF20900606010BD000010B5DFF825
:102BC000B804C078DFF8B41481F85000DFF8A044EE
:102BD0002069401C206140F24C41884204D30FF22E
:102BE0002D41DFF89024D1606428C0F08C80122041
:102BF00000F0BCFF01281CD1112000F0B7FF002815
:102C000017D1192000F0B2FF012812D10120207045
:102C10000FF22C5000F07BFE032000F024FF012077
:102C200000F03AFF022000F037FF0FF2DD00606095
:102C300010BD122000F09AFF01281CD1112000F0D5
:102C400095FF002817D1192000F090FF002812D11D
:102C5000022020700FF2FC4000F059FE032000F02B
:102C600034FF012000F018FF022000F015FF0FF2E2
:102C70009900606010BD122000F078FF01281CD17F
:102C8000112000F073FF012817D1192000F06EFF0A
:102C9000012812D1032020700FF2CC4000F037FE43
:102CA000032000F0F9FE012000F0F6FE022000F003
:102CB000DAFE0FF25500606010BD122000F056FFE2
:102CC000002815D1112000F051FF002810D1192043
:102CD00000F04CFF00280BD1002020700FF29C4028
:102CE00000F015FE0FF22530DFF88813C86010BD24
:102CF000042020700FF29C4000F009FE0FF20D300E
:102D0000DFF87013C86010BD80B50FF2A04000F06E
:102D10000FFEDFF86403C078DFF8601381F850001D
:102D2000152000F023FF01280DD10121052000F01E
:102D300030FF0021042000F02CFF0FF21900DFF813
:102D40003013486001BD0FF2C520DFF82813C860BA
:102D500001BD000010B5DFF82003C078DFF81C13B8
:102D600081F85000DFF808436069401C606142F25E
:102D70001071884204D30FF29520DFF8F812C86072
:102D8000162000F0F3FE01280AD10021092000F0EE
:102D900000FF0FF2284000F0CBFD0FF20900606049
:102DA00010BD000080B5DFF8D002C078DFF8CC128B
:102DB00081F85000062000F0D9FE012811D113201F
:102DC00000F0D4FE01280CD1142000F0CFFE002822
:102DD00007D10121072000F0DCFE0021062000F0D1
:102DE000D8FE062000F0C2FE002819D1132000F002
:102DF000BDFE002814D1142000F0B8FE01280FD128
:102E00000021072000F0C5FE0121062000F0C1FED0
:102E10000FF2B83000F08CFD0FF2090094494860C1
:102E200001BD000010B59448C078944981F8500065
:102E30008F4CA069401CA06142F21071884207D3F8
:102E40000121092000F0A5FE0FF2C1108949C860D8
:102E50001A2000F08BFE01281CD1E069401CE061C3
:102E6000B0F57A7F16D30121092000F092FE0021EF
:102E7000022000F08EFE0121084600F08AFE0021AB
:102E8000032000F086FE0FF2543000F051FD0FF2E7
:102E90000900606010BD000080B57748C0787749B0
:102EA00081F850000121002000F073FE1D2000F089
:102EB0005DFE00280FD10121022000F06AFE0021F2
:102EC000012000F066FE0FF2243000F031FD0FF219
:102ED00009006749486001BD10B56748C078674977
:102EE00081F85000624C206A401C206240F6B831E4
:102EF000884206D3664800F00AFD0FF211105D49C2
:102F0000C8600F2000F032FE012815D1207801287A
:102F10000BD011D3032808D00ED20FF2E02000F01E
:102F200007FD0FF21900606010BD0FF2E02000F005
:102F3000FFFC0FF21500606010BD00004E48007BE2
:102F40004E4981F8500070474B48C07A4B4981F890
:102F50005000704770B548488078484981F8500063
:102F60000FF2B42000F0F5FC00242546264611207F
:102F700000F0FCFD012800D10126122000F0F6FD32
:102F8000012800D10125192000F0F0FD012800D111
:102F900001241A2000F0EAFD012801D10124254670
:102FA000002C06D0022C08D00AD2022000F05BFDD3
:102FB00006E0022000F070FD02E0022000F085FD36
:102FC000002E06D0022E08D00AD2032000F04BFDBE
:102FD00006E0032000F060FD02E0032000F075FD34
:102FE000002D06D0022D08D00AD2012000F03BFDB2
:102FF00006E0012000F050FD02E0012000F065FD38
:1030000024480068BDE870400047000010B51A4829
:10301000007A1A4981F8500081A000F09AFC032040
:1030200000F03AFD012000F01EFD022000F034FD0A
:10303000194C2068B0F57A7F01DA00F074FE206840
:10304000B0F57A7F01DD00F06BFE206840F2D171AF
:10305000884201DB002020602068401C206010BDF9
:103060000E48034948600E480249C8607047000096
:10307000600C0020D00C0020380C0020740A0020C6
:103080003C0D0020C40A0020480C00200C0D00203C
:10309000D8610008680D00206C0D0020452A00084A
:1030A000E1280008417474656E7465004F706572A4
:1030B0006174696F6E000000454D455247454E43AF
:1030C00059000000496E697469616C6973696E67C3
:1030D00000000000546563686E696369616E0000FA
:1030E0004D61696E74656E616E6365004C616E63FF
:1030F0006520496E697400004174742046696E2031
:10310000696E697400000000457272657572206412
:1031100027696E697469616C69736174696F6E00A7
:10312000506F75737365203120626C6F630000000F
:10313000446574656374696F6E20626C6F63000030
:103140005375636365733A426C6F6320524F554702
:10315000452100005375636365733A426C6F6320C9
:103160004E4F4952210000005375636365733A4224
:103170006C6F63204D4554414C21000045727265CF
:1031800075723A4D61676173696E20766964652175
:10319000000000004572726575723A426C6F6320E0
:1031A000696E636F6E6E752100000000456C657678
:1031B0006174657572204D6F6E746500456A656354
:1031C00074696F6E426C6F63000000004174746537
:1031D0006E64426C6F634368757465004174746516
:1031E0006E644173706972650000000056656E740C
:1031F0006F7573654D6F6E7465000000506F6E746F
:1032000056657273466F737365000000506F6E747D
:1032100056657273417363005465737473000000E4
:10322000457272657572000080B500F08DFD00F08A
:10323000A2FD00F0BDFD00F0C3FD00F0CFFD00F0E9
:10324000DBFD00F0E7FD00F062FD00F066FD00F040
:10325000ECFD00F06BFD00F0D4FE00F004FF00F088
:1032600047FCBDE8014000F0B4BC80B500F069FD4A
:10327000FDF747FFFDF76AFE00F03BFF002001F07D
:1032800019FABDE80140FFF7EBBE704738B5FFF70C
:10329000CBFF01F05BFB00F046F900F009FA00F00B
:1032A000EFF900F0C8F900F093F900F0ABF9FFF77F
:1032B000DCFF012000F0D7FB022000F0D4FB03204C
:1032C00000F0D1FB012000900A237F220021084654
:1032D00001F0AEF901200090022380222B21002072
:1032E00001F0A6F901200090022380221B2100207A
:1032F00001F09EF9052204210FF2D46001F084F858
:10330000052202210FF2E06001F07EF8DFF864464A
:10331000002201212046FEF7EBFBDFF85C5601227C
:1033200040212846FEF7E4FB002280212846FEF7D4
:10333000DFFB002220212846FEF7DAFB4FF4C8709D
:1033400001F01EFB002201212046FEF7D1FB0122E5
:1033500040212846FEF7CCFB002280212846FEF7BC
:10336000C7FB012220212846FEF7C2FB4FF4C8709C
:1033700001F006FB002201212046FEF7B9FB0122E5
:1033800040212846FEF7B4FB012280212846FEF7A3
:10339000AFFB012220212846FEF7AAFB4FF4C8709C
:1033A00001F0EEFA002201212046FEF7A1FB0022E7
:1033B00040212846FEF79CFB012280212846FEF78B
:1033C00097FB012220212846FEF792FB4FF4C8709C
:1033D00001F0D6FA012211462046FEF789FB0022B1
:1033E00040212846FEF784FB012280212846FEF773
:1033F0007FFB012220212846FEF77AFB4FF4C8709C
:1034000001F0BEFA012211462046FEF771FB0022B0
:1034100040212846FEF76CFB012280212846FEF75A
:1034200067FB002220212846FEF762FB4FF4C8709C
:1034300001F0A6FA012211462046FEF759FB0122AF
:1034400040212846FEF754FB012280212846FEF742
:103450004FFB002220212846FEF74AFB4FF4C8709C
:1034600001F08EFA012211462046FEF741FB0122AF
:1034700040212846FEF73CFB002280212846FEF72B
:1034800037FB002220212846FEF732FB4FF4C8709C
:1034900001F076FA012211462046FEF729FB0122AF
:1034A00040212846FEF724FB002280212846FEF713
:1034B0001FFB012220212846FEF71AFB4FF4C8709B
:1034C00001F05EFA002201212046FEF711FB0122E5
:1034D00040212846FEF70CFB002280212846FEF7FB
:1034E00007FB012220212846FEF702FB4FF4C8709B
:1034F00001F046FA002201212046FEF7F9FA0122E6
:1035000040212846FEF7F4FA012280212846FEF7E2
:10351000EFFA012220212846FEF7EAFA4FF4C8709C
:1035200001F02EFA3EE780B592B00022302106A8C5
:10353000FEF7C8F90022142101A8FEF7C3F9002004
:103540000090DFF83804016841F0805101600068A4
:1035500000F080500090009800200090DFF82004D8
:10356000016841F480410160006800F480400090EF
:103570000098012006904FF48030079002200C90B4
:103580004FF480000D9004200E90A8200F90022090
:1035900010900720119006A801F006FA002801D02B
:1035A00000F014FA0F2001900220029000200390F6
:1035B0004FF4A05004904FF480500590052101A8CD
:1035C000FEF772FF002801D000F000FA13B000BD32
:1035D00080B5DFF8B003DFF8B0130160A8214160C7
:1035E00000218160C1604FF400310161002141611F
:1035F00081618183FDF7B4FD002802D0BDE8014060
:10360000E4E101BD80B5E148E1490160E149416083
:1036100000218160C1604FF480410161002141615E
:103620008161C1610162FEF781FA002802D0BDE824
:103630000140CBE101BD1CB5002208216846FEF720
:1036400041F9D54CD548206000206060A0604AF266
:103650000F40E0600020A061204601F019FB002827
:1036600001D000F0B3F910200090002001906946CD
:10367000204601F04FFC002801D000F0A7F913BD4F
:1036800080B5C748C74901604FF4964141600021A9
:103690008160C16001610C21416100218161C161D2
:1036A00001F058FC002802D0BDE801408EE101BDC8
:1036B0002DE9F04786B0002214216846FEF702F992
:1036C00000200590B848016841F0100101600168D0
:1036D00001F010010591059900210591016841F063
:1036E00004010160016801F00401059105990021C0
:1036F0000591016841F080010160016801F08001DD
:103700000591059900210591016841F001010160D1
:10371000016801F0010105910599002105910168F9
:1037200041F002010160016801F002010591059973
:1037300000210591016841F008010160006800F076
:103740000800059005988B4C002249212046FEF781
:10375000CFF9964D012211462846FEF7C9F9864E4B
:103760000022E2213046FEF7C3F947F63307DFF8BF
:103770004082002239464046FEF7BAF94FF690796A
:10378000DFF830A2002249465046FEF7B1F9492041
:10379000009001200190002002900390694620468D
:1037A000FEF7CAF84FF420500090002001900290DC
:1037B00069462846FEF7C0F80120009001900020DD
:1037C0000290039069462846FEF7B6F8082000905C
:1037D0000220019000200290039005200490694689
:1037E0002846FEF7A9F801200090734801900020B8
:1037F000029069463046FEF79FF8E22000900120D3
:10380000019000200290039069463046FEF794F83C
:1038100010200090022001900020029003900620CA
:10382000049069463046FEF787F800970120019022
:1038300000200290039069464046FEF77DF8042080
:10384000009000200190029069464046FEF774F80F
:103850004FF47F400090002001900290694620467E
:10386000FEF76AF84FF4806000900220019000207B
:10387000029003900520049069464046FEF75CF8EC
:10388000CDF800900120019000200290039069463D
:103890005046FEF751F84FF4A450009002200190DA
:1038A0000020029003900620049069462846FEF707
:1038B00043F84FF400700090002001900290694698
:1038C0003046FEF739F84FF4E050009002200190A6
:1038D0000020029003900A20049069463046FEF7CB
:1038E0002BF820200090002001900290694650465D
:1038F000FEF722F80220009030480190002002904C
:1039000069462046FEF718F806B0BDE8F08710B407
:103910002B4A01211170002300E05B1C282B05DAE3
:10392000C15CD4182171C15C0029F6D110BC70476C
:1039300010B4244A01211170002300E05B1C152BF8
:1039400005DAC15CD4182171C15C0029F6D110BC24
:10395000704710B41C4A01211170002300E05B1C69
:10396000152B05DAC15CD4182171C15C0029F6D190
:1039700010BC704700100240000002404038024076
:1039800000700040100C002000640040CC0A0020B1
:1039900000540040A0860100640B0020001000408D
:1039A000A40B0020004400403038024000080240D0
:1039B00000040240000C0240000011100000121030
:1039C000E40B0020A00C0020B80C0020FEE7000053
:1039D0004D6F64653A2020202020202020202020C8
:1039E0002020202000000000457461743A41747466
:1039F000656E6420426F75746F6E202000000000B9
:103A000010B5464C6068401C6060B0F57A7F11D1FB
:103A10002078022802D1012001F023FC60780228DE
:103A200002D1022001F01DFCA078022802D103205F
:103A300001F017FC6068B0F5FA6F13D32078022804
:103A400002D1012001F0F6FB6078022802D10220A9
:103A500001F0F0FBA078022802D1032001F0EAFB7C
:103A60000020606010BD012804D014D303280CD0BE
:103A700005D3704701202949087001F0F2BB0120ED
:103A800026494870022001F0ECBB012023498870D0
:103A9000032001F0E6BB7047012804D014D30328AB
:103AA0000CD005D3704701201C49087001F0C2BB3F
:103AB00001201A494870022001F0BCBB01201749BF
:103AC0008870032001F0B6BB7047012804D00ED3E4
:103AD000032809D004D370470220104908707047AA
:103AE00002200E494870704702200C4988707047C8
:103AF00010B50A4C00206060012001F09BFB022001
:103B000001F098FB032001F095FB0020207060700D
:103B1000A07003480349486110BD0000540D002007
:103B2000013A0008D00C002010B5724CA06814288F
:103B300018D30020A0602178722001F0ADFB6178DD
:103B4000782001F0A9FBA11C772001F0B0FBE11C5B
:103B50007A2001F0ACFB211D712001F0A8FBA078B8
:103B6000C043A070A068401CA06010BD6249614ABB
:103B700051F830301A4412F8012C012301EBC00037
:103B8000406883401A401046401E8041C043C00F29
:103B9000704770B4584A52F8303002EBC004574DA9
:103BA0000126002906D01846295C606886400E432D
:103BB000EE5407E0EB5C61688E4023EA060652F89B
:103BC00030002E5470BC70474A48FF21017041708C
:103BD000704780B500F026F94748012101600021B7
:103BE0004160012101610221416101218160C160C7
:103BF00081610321C161012181620521C16201212D
:103C0000016204214162012181630721C163012115
:103C10000163062141630221016400214164022104
:103C200081640121C164022101654165816503212F
:103C3000C1650221016604214166022181660521D8
:103C4000C1660221016706214167032181670021C6
:103C5000C1670321C0F8801000F1840101220A60CD
:103C600003224A6002228A600322CA600A614A6112
:103C700004228A610322CA6105220A6203224A627F
:103C800006228A620322CA6207220A6304224A6366
:103C900000228A630422CA6301220A6404224A645D
:103CA00002228A640422CA6403220A6504224A6545
:103CB0008A65CA6505220A6604224A6606228A6661
:103CC0000522CA6600220A6705224A6701228A671E
:103CD0000522CA6700F58270022101601146416029
:103CE000032181600348FF210170417004480549A8
:103CF000086101BD480D002064090020470D002027
:103D0000293B0008D00C0020012000F053B800200F
:103D100000F050B8012000F05BB8002000F058B867
:103D2000012000F071B8002000F06EB8002000F013
:103D30006BB800000649884202D106480068004777
:103D40007047034800F0BDBF034802490860704750
:103D5000640B0020640D00208B32000810B5002495
:103D600004E00C4951F820008047641C2046C0B292
:103D70000628F6DB10BD0020074A064B02E043F898
:103D80002120401C0146C9B20629F8DB034804493A
:103D900008607047D00C00208B3200085D3D0008A1
:103DA000640D002001210148FDF79ABE0000024089
:103DB0007047000002464FF400410448FDF798BEEA
:103DC00000224FF400410148FDF792BE000C024072
:103DD00002464FF400510448FDF78ABE00224FF41A
:103DE00000510148FDF784BE000C024002464FF42A
:103DF00080510448FDF77CBE00224FF480510148F9
:103E0000FDF776BE000C024002464FF480410448A4
:103E1000FDF76EBE00224FF480410148FDF768BEF9
:103E2000000C02400120FFF7E1BF0020FFF7DEBFDA
:103E300080B577480078002811D100210120FFF7D4
:103E4000A8FE01214020FFF7A4FE00218020FFF7FB
:103E5000A0FE01212020BDE80440FFF79ABE012802
:103E600011D100210120FFF794FE01214020FFF72E
:103E700090FE01218020FFF78CFE00212020BDE86C
:103E80000440FFF786BE022811D101210846FFF742
:103E900080FE00214020FFF77CFE01218020FFF7FB
:103EA00078FE00212020BDE80440FFF772BE032801
:103EB00011D101210846FFF76CFE00214020FFF7D9
:103EC00068FE00218020FFF764FE01212020BDE86C
:103ED0000440FFF75EBE01BD80B54D480078002864
:103EE00011D100210120FFF754FE01214020FFF7EE
:103EF00050FE00218020FFF74CFE01212020BDE86C
:103F00000440FFF746BE012811D100210120FFF730
:103F100040FE01214020FFF73CFE01218020FFF7F9
:103F200038FE00212020BDE80440FFF732BE022801
:103F300011D101210846FFF72CFE00214020FFF798
:103F400028FE01218020FFF724FE00212020BDE86B
:103F50000440FFF71EBE032811D101210846FFF7D8
:103F600018FE00214020FFF714FE00218020FFF7FB
:103F700010FE01212020BDE80440FFF70ABE01BD6C
:103F8000022023494870704710B5214C6168491CD4
:103F900061606078002831D00B2902D200212170A5
:103FA00012E0152902D2012121700DE01F2902D251
:103FB0000221217008E0292902D20321217003E0A7
:103FC000332901D200216160A16840F2911291422F
:103FD00007DA012807D1FFF72BFFA068401CA0607B
:103FE00001E00020A0600020FFF7C0FD002807D0FE
:103FF0006078022804D1BDE810406DE700206060C1
:1040000010BD80B5FFF7BCFF02480349486201BDFF
:10401000300D0020893F0008D00C002010B5184C4E
:104020006068401C606014281CD300206060FFF7AB
:10403000B9FE0128A0680AD10A2813D0401CA0604C
:104040000A280FD301202070A070607010BD0028D6
:1040500008D0401EA06005D1012020700020A07073
:104060000120607010BD064800210180022181708E
:1040700000214160052181600248034908607047C2
:104080003C0D00201D400008D00C002010B5044657
:1040900004220121002001F037F904E0042201216B
:1040A000002001F031F90006F8D444F0040422465F
:1040B00001210020BDE8104001F026B938B50446C2
:1040C0000D4604220121002001F01EF904E0042223
:1040D0000121002001F018F90006F8D404F00B04C7
:1040E000234601220021284601B0BDE8304001F0FE
:1040F00039BA10B53E210220FFF7E0FFC0210220AF
:10410000FFF7DCFFB8210220FFF7D8FF4021022093
:10411000FFF7D4FF3F210220FFF7D0FF3E2101200F
:10412000FFF7CCFFC0210120FFF7C8FFB821012015
:10413000FFF7C4FF40210120FFF7C0FF3F2101200E
:10414000FFF7BCFF002003460AE0DFF82C4304EB36
:10415000C0046354521C1146C9B20829F5DB401C47
:10416000802801DA1A46F6E710BD2DE9F84F894696
:104170000246DFF8041301EBC2074C462146C91082
:1041800000917B5C214601250E46B61001EB567668
:10419000F610A1EBC6018D4045EA03018B4240D0E9
:1041A000402A03DB4FF00108403801E04FF00208DD
:1041B00040F04000064608F0030A3146C9B25046B6
:1041C000FFF77CFF4FEAD90949F0B8094946504644
:1041D000FFF774FF48F00C0B5846FFF757FF3146C6
:1041E000C9B25046FFF76AFF49465046FFF766FFDF
:1041F0005846FFF74BFF83463146C9B25046FFF79A
:104200005DFF49465046FFF759FF45EA0B05294631
:1042100000983954C9B248F008084046BDE8F44F48
:104220004CE7BDE8F18F2DE9F84F0E460146DFF867
:10423000482202EBC10734462246D2100092BB5CF2
:1042400022464FF001081546AD1002EB5575ED10F2
:10425000A2EBC50208FA02F842461D4682F0FF02B0
:104260001A40954240D0402903DB4FF009094038FD
:1042700001E04FF00A0940F04000054609F0030A4A
:104280002946C9B25046FFF719FFF60846F0B806AE
:1042900031465046FFF712FF49F00C0B5846FFF726
:1042A000F5FE2946C9B25046FFF708FF3146504691
:1042B000FFF704FF5846FFF7E9FE83462946C9B2D7
:1042C0005046FFF7FBFE31465046FFF7F7FE88F0F9
:1042D000FF080BEA0808414649F008094846FFF77D
:1042E000EDFE009807F80080BDE8F18F2DE9F0475A
:1042F0001F46A0F120056DB23846032800D1930077
:10430000052804D1104600EB40035B001B1D384616
:10431000072801D1D20013461E46F6B2402E03DB19
:104320004FF00908403B01E04FF00A080C4608F046
:10433000070943F040031946C9B24846FFF7BEFEDD
:1043400044F0B8014846FFF7B9FE384603281CD1AF
:104350004FF0000A16E0DFF8240105EB45010844A0
:1043600010F80A90494648F00800FFF7A7FEDFF86A
:1043700008010AEB060100EBC100214600F801909C
:104380000AF1010ABAF1030FE5DB384605281CD112
:104390004FF0000A16E0DFF8E80005EB850108445D
:1043A00010F80A90494648F00800FFF787FEDFF84A
:1043B000C8000AEB060100EBC100214600F801909D
:1043C0000AF1010ABAF1040FE5DD072F1AD14FF007
:1043D000000914E0DFF8AC00C5EBC501084410F893
:1043E0000970394648F00800FFF768FE224809EBDB
:1043F000060100EBC1002146475409F10109B9F15A
:10440000060FE7DDBDE8F087F8B504460D46164611
:10441000304603280DD1002709E003233846024621
:10442000D2B22946C9B2E05DFFF760FF7F1C202FA2
:10443000F3DB304605280DD1002709E00523384677
:104440000246D2B22946C9B2E05DFFF74FFF7F1C9A
:10445000142FF3DB072E0DD1002609E00723304689
:104460000246D2B22946C9B2A05DFFF73FFF761CD3
:10447000102EF3DBF1BD00006405002000000020D9
:10448000C4000020AC02002038B52DED048BB0EE46
:10449000408AF0EE608AB0EE419AF0EE619A0446EE
:1044A00051EC180B0022134601F0DAF92AD851EC2E
:1044B000190B01F0D5F925D8DFF8703401F0E8F9CF
:1044C00020D251EC180BDFF8783401F0E1F919D261
:1044D00001F0F6F9054651EC190B01F0F1F9E4B2DF
:1044E000012C0146C9B22846C0B205D1BDEC048BEF
:1044F000BDE83440FFF739BEBDEC048BBDE8344065
:10450000FFF791BEBDEC048B31BDF8B52DED0E8BE0
:10451000B0EE408AF0EE608AB0EE419AF0EE619A19
:10452000B0EE42BAF0EE62BAB0EE43CAF0EE63CA41
:10453000044651EC190B53EC1C2B01F0DFF941EC54
:104540001A0B51EC180B53EC1B2B01F0D7F941EC73
:10455000100B53EC102B01F043FA06460F4653ECB8
:104560001A2B51EC1A0B01F03BFA32463B4601F094
:1045700009FB41EC100B01F0C3FBB0EE40AAF0EEDA
:1045800060AA51EC1B0B53EC182B01F0B7F953EC5C
:104590001A2B01F037FC41EC1B0B51EC1C0B53ECBC
:1045A000192B01F0ABF953EC1A2B01F02BFC41EC69
:1045B0001C0B002527E02046C0B2044651EC1D0B21
:1045C00053EC1C2B01F00CFA53EC192B01F0DAFA26
:1045D00041EC110BB0EE41EAF0EE61EA51EC1D0B3B
:1045E00053EC1B2B01F0FCF953EC182B01F0CAFA29
:1045F00041EC100B2046B0EE4E1AF0EE6E1AFFF7AB
:1046000043FF6D1CEDB2284601F020FD41EC1D0B6F
:10461000B0EE4A0AF0EE6A0A01F026FD51EC100BEA
:1046200053EC1D2B01F01CF9C5D9BDEC0E8BF1BD6F
:104630002DE9F0472DED028B92461E46044604EB11
:104640000A02521E812A02DBC0F17F0082460D461B
:10465000A819401E402802DBC1F13F010E46A046CA
:104660000A9F1CE0484601F033FD41EC110BB0EE0F
:10467000418AF0EE618A404601F02AFD41EC100BC0
:104680003846B0EE481AF0EE681AFFF7FDFE09F161
:10469000010955FA86F08145E4DB08F1010854FA76
:1046A0008AF0804501DAA946F3E7BDEC028BBDE84C
:1046B000F087000070B504460025032806D8DFE81F
:1046C00000F0020402047F2500E04025002646E0B9
:1046D000C6F13F0001F0FCFC41EC110B0120B0EEF3
:1046E000413AF0EE613A9FED942B9FED960BFFF768
:1046F0000CFFC6F13E0001F0EBFC41EC110B012078
:10470000B0EE413AF0EE613A9FED8B2B9FED8D0BB1
:10471000FFF7FBFE21E0C6F17F0001F0D9FC41EC80
:10472000100B01209FED823BB0EE402AF0EE602A94
:104730009FED841BFFF7E9FEC6F17E0001F0C8FC87
:1047400041EC100B01209FED7A3BB0EE402AF0EED9
:10475000602A9FED7C1BFFF7D8FEB61CF6B2AE4276
:104760004BDA20460328F8D8DFE800F005260403DA
:10477000F3E7ADE7CFE7304601F068FC41EC100B02
:1047800001209FED6B3BB0EE402AF0EE602A9FEDDA
:104790006D1BFFF7BAFE701C01F09AFC41EC100B88
:1047A00001209FED633BB0EE402AF0EE602A9FEDC2
:1047B000651BFFF7AAFED0E7304601F047FC41EC4D
:1047C000110B0120B0EE413AF0EE613A9FED5A2B09
:1047D0009FED5C0BFFF799FE701C01F079FC41EC3A
:1047E000110B0120B0EE413AF0EE613A9FED522BF1
:1047F0009FED540BFFF789FEAFE7002646E0C6F1B8
:104800003F0001F065FC41EC110B0020B0EE413A95
:10481000F0EE613A9FED482B9FED4A0BFFF775FED6
:10482000C6F13E0001F054FC41EC110B0020B0EE4B
:10483000413AF0EE613A9FED402B9FED420BFFF7BE
:1048400064FE21E0C6F17F0001F042FC41EC100B58
:1048500000209FED373BB0EE402AF0EE602A9FED3E
:10486000391BFFF752FEC6F17E0001F031FC41EC2E
:10487000100B00209FED2E3BB0EE402AF0EE602A98
:104880009FED301BFFF741FEB61CF6B2AE424BDA8D
:1048900020460328F8D8DFE800F005260403F3E7F4
:1048A000ADE7CFE7304601F0D1FB41EC100B002023
:1048B0009FED1F3BB0EE402AF0EE602A9FED211BDA
:1048C000FFF723FE701C01F003FC41EC100B0020ED
:1048D0009FED173BB0EE402AF0EE602A9FED191BCA
:1048E000FFF713FED0E7304601F0B0FB41EC110BAF
:1048F0000020B0EE413AF0EE613A9FED0F2B9FEDB4
:10490000110BFFF702FE701C01F0E2FB41EC110BF2
:104910000020B0EE413AF0EE613A9FED072B9FED9B
:10492000090BFFF7F2FDAFE770BD0000000050403B
:104930000000000000005040000000000000604047
:1049400000006040000000000000000080B50B483F
:10495000016841F400710160016841F48061016007
:10496000016841F4807101600320FCF78CFF002096
:10497000FDF778FEFCF744FE002002BD003C02403B
:1049800038B50446FCF720FF054614F1010F02D0AC
:10499000044800782418FCF717FF401BA042FAD304
:1049A00031BD00BF540500202DE9FC41040016D0A4
:1049B000B34D2078C0074CD5A86800F00C0004283F
:1049C00007D0A86800F00C0008280AD168684002E7
:1049D00007D5286880033CD56068002839D10120BC
:1049E0004BE16068B0F5803F04D1286840F4803026
:1049F000286012E0B0F5A02F286807D140F480208D
:104A00002860286840F48030286006E020F4803078
:104A10002860286820F480202860606800280CD076
:104A2000FCF7D2FE06462868800312D4FCF7CCFEC1
:104A3000801B6528F7D303201FE1FCF7C5FE06465F
:104A40002868800305D5FCF7BFFE801B6528F7D3D7
:104A5000F1E72078800718D5A86810F00C0F07D070
:104A6000A86800F00C00082824D16868400221D40E
:104A70002868800702D5E0680128B0D1286820F0B6
:104A8000F800216940EAC10028602078000747D576
:104A90007C496069002835D001200860FCF794FE4D
:104AA0000646686F80073BD4FCF78EFE801B022809
:104AB000F7D9C0E77449E068002815D001200860E4
:104AC000FCF782FE06462868800705D4FCF77CFECA
:104AD000801B0228F7D9AEE7286820F0F80021698A
:104AE00040EAC1002860D0E700200860FCF76CFEB7
:104AF000064628688007C8D5FCF766FE801B02289A
:104B0000F7D998E700200860FCF75EFE0646686F5C
:104B1000800705D5FCF758FE801B0228F7D98AE7E5
:104B20002078400763D50026286CC0000BD430469F
:104B30000090286C40F080502864286C00F0805071
:104B4000009000980126514F3868C00510D438688D
:104B500040F480703860FCF737FE80463868C00546
:104B600006D4FCF731FEA0EB08000228F6D962E774
:104B7000A068012804D1286F40F00100286711E0E7
:104B80000528286F07D140F004002867286F40F0FF
:104B90000100286706E0400840002867286F20F0E1
:104BA00004002867A06800280DD0FCF70DFE07461A
:104BB000286F800715D4FCF707FEC01B41F289312E
:104BC0008842F5D337E7FCF7FFFD0746286F8007DB
:104BD00007D5FCF7F9FDC01B41F289318842F5D3B6
:104BE00029E7012E03D1286C20F080502864A069A9
:104BF000002841D0A96801F00C0108293FF4EFAE6C
:104C0000214E02282AD100203066FCF7DDFD074640
:104C10002868800105D5FCF7D7FDC01B0228F7D90D
:104C200009E7E069216A0843616A40EA8110A16AE4
:104C30004908491E40EA0140E16A40EA01606860B3
:104C400001203066FCF7C0FD04462868800113D4BB
:104C5000FCF7BAFD001B0228F7D9ECE6002030660D
:104C6000FCF7B2FD04462868800105D5FCF7ACFDD1
:104C7000001B0228F7D9DEE60020BDE8F68100BF60
:104C800000380240800E474200004742007000405A
:104C900038B5040001D1012032BD04F13C0568782B
:104CA000002804D1002028702046FCF72CFD0220AB
:104CB0006870211D206800F0BEF801206870002097
:104CC00032BD0168CA6842F00102CA6000688168AA
:104CD00001F00701062903D0016841F001010160DC
:104CE0000020704710B5044620680169890717D570
:104CF000C168890714D56FF0020101610120207796
:104D00002068806910F0030F204602D001F0F1F90D
:104D100004E001F0EFF9204601F0EDF900202077E2
:104D200020680169490717D5C168490714D56FF094
:104D300004010161022020772068806910F4407F1F
:104D4000204602D001F0D5F904E001F0D3F9204665
:104D500001F0D1F90020207720680169090717D5F3
:104D6000C168090714D56FF008010161042020779C
:104D70002068C06910F0030F204602D001F0B9F995
:104D800004E001F0B7F9204601F0B5F900202077E2
:104D900020680169C90617D5C168C90614D56FF026
:104DA00010010161082020772068C06910F4407F5D
:104DB000204602D001F09DF904E001F09BF9204665
:104DC00001F099F90020207720680169C90708D50A
:104DD000C168C90705D56FF0010101612046FEF7E2
:104DE000A9FF20680169090608D5C168090605D52B
:104DF0006FF080010161204601F07EF920680169B1
:104E0000490608D5C168490605D56FF04001016122
:104E1000204601F072F92068016989060AD5C16847
:104E2000890607D56FF0200101612046BDE81040DA
:104E300001F064B910BD10B40468DFF8AC309842DA
:104E400012D0B0F1804F0FD0DFF8A02090420BD0ED
:104E5000DFF89C20904207D0DFF89820904203D0E2
:104E6000DFF89420904203D124F070044A68144380
:104E7000984220D0B0F1804F1DD01C4A90421AD0E9
:104E80001B4A904217D01B4A904214D01A4A9042B3
:104E900011D01A4A90420ED0194A90420BD0194AAA
:104EA000904208D0184A904205D0184A904202D049
:104EB000174A904203D124F44074CA68144324F082
:104EC00080044A69144304608A68C2620A68826284
:104ED000984202D0084A904201D109690163012138
:104EE000416110BC70470000000001400004004018
:104EF00000080040000C0040000401400040014058
:104F0000004401400048014000180040001C0040DF
:104F10000020004070B400F13C031A78012A01D14E
:104F2000022015E001221A7002225A700468656896
:104F3000A66826F080064A68164325F070050968C1
:104F40000D4365600068866001205870002018706D
:104F500070BC704738B5040001D1012032BD04F1A6
:104F600038056878002804D1002028702046FCF716
:104F7000E6FB242068702068C16821F40051C160FC
:104F8000204600F016F82068016921F49041016183
:104F90002068416921F02A0141612068C16841F41B
:104FA0000051C1600020686020206870A870002057
:104FB00032BD2DE9F041044621680A6922F44052CD
:104FC000E06802430A612168CA6897480240A06805
:104FD00002432069024360690243E0690243CA60F8
:104FE00021684A6922F44072A06902434A6120683C
:104FF0008E49E269B2F5004F40F08B80884202D0C2
:105000008B49884242D1FDF7E4FA0546FDF7E1FA03
:105010000646FDF7DEFA0746FDF7DBFA8046FDF7A8
:10502000D8FA61684900642219235D43B5FBF1F5A4
:105030009446B5FBFCF55E43B6FBF1F65F43B7FB68
:10504000F1F7B7FBFCF702FB1766F600323617469E
:10505000B6FBF7F6760006F4F87606EB051603FBCA
:1050600008F8B8FBF1F54343B3FBF1F01146B0FB90
:10507000F1F002FB1052D20032320846B2FBF0F0DF
:1050800000F00700861920688660CAE0FDF796FAEE
:105090000546FDF793FA0646FDF790FA0746FDF739
:1050A0008DFA8046FDF78AFA616849006422192367
:1050B0005D43B5FBF1F59446B5FBFCF55E43B6FBED
:1050C000F1F65F43B7FBF1F7B7FBFCF702FB17669E
:1050D000F60032361746B6FBF7F6760006F4F87699
:1050E00006EB051603FB08F8B8FBF1F54343B3FBE9
:1050F000F1F01146B0FBF1F002FB1052D200323257
:105100000846B2FBF0F000F00700861920688660C0
:1051100087E0884202D04649884241D1FDF759FADA
:105120000546FDF756FA0646FDF753FA0746FDF722
:1051300050FA8046FDF74DFA616889006422192310
:105140005D43B5FBF1F59446B5FBFCF55E43B6FB5C
:10515000F1F65F43B7FBF1F7B7FBFCF702FB17660D
:10516000360132361746B6FBF7F606F0F00606EBC8
:10517000051603FB08F8B8FBF1F54343B3FBF1F068
:105180001146B0FBF1F002FB105212013232084618
:10519000B2FBF0F000F00F0086192068866040E056
:1051A000FDF70CFA0546FDF709FA0646FDF706FA83
:1051B0000746FDF703FA8046FDF700FA61688900AB
:1051C000642219235D43B5FBF1F59446B5FBFCF56C
:1051D0005E43B6FBF1F65F43B7FBF1F7B7FBFCF7B5
:1051E00002FB1766360132361746B6FBF7F606F0B5
:1051F000F00606EB051603FB08F8B8FBF1F5434390
:10520000B3FBF1F01146B0FBF1F002FB10521201BA
:1052100032320846B2FBF0F000F00F008619206829
:105220008660BDE8F0810000F369FFFF00100140D7
:1052300000140140012804D012D303280BD005D359
:105240007047002202211248FCF752BC00221021B4
:105250001048FCF74DBC002220210E48FCF748BC4A
:105260007047012804D012D303280BD005D3704710
:10527000012202210648FCF73BBC0122102105480F
:10528000FCF736BC012220210248FCF731BC7047F4
:10529000000002400004024003B581B00146C8206E
:1052A0000090012302AA0748FCF7F3FC07BD80B574
:1052B0000A46C8210091012301460248FCF787FDF8
:1052C00001BD0000CC0A002000B585B04FF47F403E
:1052D00000900020019002906946DFF87805FCF705
:1052E0002BFB05B000BD00B585B04FF47F400090AA
:1052F000012001900020029003906946DFF85405D8
:10530000FCF71AFB05B000BD2DE9FC4106460D4631
:105310009046FFF7D9FFDFF840755FEAC87006D501
:1053200001224FF480713846FCF7E2FB05E00022D1
:105330004FF480713846FCF7DBFB5FEA887006D5D6
:1053400001224FF400713846FCF7D2FB05E0002241
:105350004FF400713846FCF7CBFB5FEA487006D586
:1053600001224FF480613846FCF7C2FB05E00022C1
:105370004FF480613846FCF7BBFB5FEA087006D546
:1053800001224FF400613846FCF7B2FB05E0002231
:105390004FF400613846FCF7ABFBDFF8C0745FEAFE
:1053A000C86005D5012202213846FCF7A1FB04E0C4
:1053B000002202213846FCF79BFB3046032842D8E6
:1053C000DFE800F002122232280006D100224FF45A
:1053D00000613846FCF78CFB35E001224FF4006198
:1053E0003846FCF785FB2EE0280006D100224FF45A
:1053F00080513846FCF77CFB25E001224FF48051B8
:105400003846FCF775FB1EE0280006D100224FF459
:1054100000513846FCF76CFB15E001224FF40051B7
:105420003846FCF765FB0EE0280006D100224FF459
:1054300080413846FCF75CFB05E001224FF48041D7
:105440003846FCF755FB002201213846FCF750FB9B
:10545000DFF800844FF480714046FCF741FB60F3B5
:1054600000044FF400714046FCF73AFB60F341043E
:105470004FF480614046FCF733FB60F382044FF445
:1054800000614046FCF72CFB60F3C3044FF48051ED
:105490004046FCF725FB60F304144FF400514046EE
:1054A000FCF71EFB60F345144FF480414046FCF7C7
:1054B00017FB60F386144FF400414046FCF710FBE5
:1054C00060F3C7140094012211463846FCF710FB24
:1054D000032E42D8DFE806F002122232002D06D158
:1054E00001224FF400613846FCF702FB35E0002250
:1054F0004FF400613846FCF7FBFA2EE0002D06D190
:1055000001224FF480513846FCF7F2FA25E00022E0
:105510004FF480513846FCF7EBFA1EE0002D06D11F
:1055200001224FF400513846FCF7E2FA15E0002260
:105530004FF400513846FCF7DBFA0EE0002D06D19F
:1055400001224FF480413846FCF7D2FA05E00022F0
:105550004FF480413846FCF7CBFA9DF80000BDE8D7
:10556000F6810000F8B506460F4614461D46FFF7C3
:10557000BAFE8DF80060B74E0098C00706D400222E
:105580004FF480713046FCF7B3FA05E001224FF486
:1055900080713046FCF7ACFA0098C0F34000002858
:1055A00006D100224FF400713046FCF7A1FA05E065
:1055B00001224FF400713046FCF79AFA0098C0F3CC
:1055C0008000002806D100224FF480613046FCF7AD
:1055D0008FFA05E001224FF480613046FCF788FA2B
:1055E0000098C0F3C000002806D100224FF40061EB
:1055F0003046FCF77DFA05E001224FF400613046A9
:10560000FCF776FA0098C0F30010002806D10022BB
:105610004FF480513046FCF76BFA05E001224FF45D
:1056200080513046FCF764FA0098C0F3401000281F
:1056300006D100224FF400513046FCF759FA05E03C
:1056400001224FF400513046FCF752FA0098C0F3A3
:105650008010002806D100224FF480413046FCF72C
:1056600047FA05E001224FF480413046FCF740FA4A
:105670000098C0F3C010002806D100224FF400416A
:105680003046FCF735FA05E001224FF40041304680
:10569000FCF72EFA704EE80706D501224FF4807110
:1056A0003046FCF725FA05E000224FF480713046C1
:1056B000FCF71EFAA80706D501224FF40071304608
:1056C000FCF716FA05E000224FF400713046FCF7B3
:1056D0000FFA680706D501224FF480613046FCF7C7
:1056E00007FA05E000224FF480613046FCF700FA2B
:1056F000280706D501224FF400613046FCF7F8F97F
:1057000005E000224FF400613046FCF7F1F9534EFA
:10571000E80605D5012202213046FCF7E9F904E04C
:10572000002202213046FCF7E3F93846032842D82C
:10573000DFE800F002122232200006D100224FF4EE
:1057400000613046FCF7D4F935E001224FF40061E6
:105750003046FCF7CDF92EE0200006D100224FF4B0
:1057600080513046FCF7C4F925E001224FF4805106
:105770003046FCF7BDF91EE0200006D100224FF4B0
:1057800000513046FCF7B4F915E001224FF4005106
:105790003046FCF7ADF90EE0200006D100224FF4B0
:1057A00080413046FCF7A4F905E001224FF4804126
:1057B0003046FCF79DF9032F4BD8DFE807F00214C1
:1057C0002638002C07D101224FF400613046BDE895
:1057D000F840FCF78DB900224FF400613046BDE877
:1057E000F840FCF785B9002C07D101224FF4805115
:1057F0003046BDE8F840FCF77BB900224FF48051F9
:105800003046BDE8F840FCF773B9002C07D10122FF
:105810004FF400513046BDE8F840FCF769B900226A
:105820004FF400513046BDE8F840FCF761B9002C58
:1058300007D101224FF480413046BDE8F840FCF723
:1058400057B900224FF480413046BDE8F840FCF7DC
:105850004FB9F1BD00100240000C024000040240AC
:105860004FF4001C1CEB410F94BF1CEB430F09E0ED
:1058700041EA030C50EA4C0C52EA0C0C03D28B4266
:1058800008BF8242704714BF99429042704700009F
:105890004FF4001C1CEB410F94BF1CEB430F09E0BD
:1058A00041EA030C50EA4C0C52EA0C0C03D2994228
:1058B00008BF9042704714BF8B428242704700007D
:1058C000C1F30A5340F2FE329B1A14DDD3F12003D8
:1058D0004FEAE17208DDC90241EA505141F000404F
:1058E000D84080185040704703F2E13010B1D243E5
:1058F00082F00040704700207047000070B44FF005
:10590000004591EA030F40F145816B40841A71EB29
:10591000030603D2001BB141121973414FF4001C5E
:105920001CEB410F34BF7CEB430442E00C0DA4EBB5
:105930001356352E4FDC45EAC323DB0A45EAC12165
:10594000C912B6F120050DDD63FA05F6EB4086EAD3
:105950000305124218BF45F00105C01851F10001BE
:105960000CD213E062FA06F5F2405540F3415A407A
:10597000B340F3405A408018594107D349085FEAC1
:1059800030005FEA350528BF45F0010501F58011BB
:10599000420875F1004250F1000041EB04514E0005
:1059A00016F5001F70BC38BF70470020090D0905AF
:1059B00070471CEB410F10D252EA43060BD0BCEBF0
:1059C000410F05D80C0DAB43661E342EB6DD02E048
:1059D000AB438018594170BC704770BC70470000E1
:1059E000B0B581EA030C0CF0004C40F2FF7515EAEB
:1059F00011541DBF15EA1357AC42AF4239E0E41908
:105A000023EA455343F48013C90241F0004141EABF
:105A1000505EC7021100A7FB020200284FF00000F1
:105A2000EEFB01204FF00001E3FB072118BF42F01D
:105A30000102401800214941E3FB0E01A4F58064F6
:105A40000F0302D252004041494154F101046CDD80
:105A5000470872F1004250F1000051EB0451A1F5EA
:105A600080115CBF41EA0C01B0BD4CEA0551002039
:105A7000B0BD05EA1357AC4214BFAF4241E050EA53
:105A8000410E1CBF52EA430E02E061460020B0BD49
:105A900024423C441BD15FEA070EF6D0090302BF43
:105AA00001460020AEF1140EB1FA81F7AEEB070407
:105AB00001FA07FE0C37C7F1200100FA07F7C840CA
:105AC0004EEA000E23EA455343F48013A2E733F075
:105AD0000043B3FA83F704BFB2FA82FE77440B3F68
